:040000006F70E057E6
:100004000000000000000000A6720000A8720000BA
:10001400000000007C7500000000000000000000EB
:100024007C7500007C7500000000000000000000EA
:100034007C750000000000007C75000000000000DA
:100044007C7500007C7500007C7500007C750000E8
:100054007C7500007C750000B8720000C27200005C
:10006400CC720000D6720000E07200007C750000C3
:100074007C7500007C7500007C7500007C750000B8
:100084007C7500007C7500007C7500007C750000A8
:100094007C7500007C7500007C750000EA7200002D
:1000A4007C7500007C7500007C7500007C75000088
:1000B4007C7500007C7500007C7500007C75000078
:1000C4007C7500007C7500007C7500007C75000068
:1000D4007C7500007C7500007C7500007C75000058
:1000E400167300007C7500007C750000CA120000C5
:0C00F4007C7500007C7500007C7500002D
:10010000397101436EC619A0397141536AC866CA74
:1001100062CC5ECE19A0397101535AD056D252D456
:100120004ED64AD826DA22DC06DE330161408282CE
:1001300041114AC026C222C406C68282B24D410184
:10014000024D924C224CB24B4101024B924A224A40
:10015000B2494101024992442244B24041018280A5
:100160003D432A876373C3029377F700BDEFADE584
:10017000937606FF3D8ABA960CC34CC30CC74CC796
:100180004107E36BD7FE11E28280B306C3408A06C3
:100190009702000096966780A6002307B700A30683
:1001A000B7002306B700A305B7002305B700A304D3
:1001B000B7002304B700A303B7002303B700A302CB
:1001C000B7002302B700A301B7002301B700A300C3
:1001D000B7002300B700828093F5F50F9396850052
:1001E000D58D93960501D58D61B79396270097021B
:1001F000000096968682E78086FA9680C1171D8F4A
:100200003E96E374C3F8A5B7EFF2FFF0130101DAED
:10021000EF001021130790096303E55E6363A716DF
:1002200013077007630EE54A636DA7065947630815
:10023000E5386369A70209476306E53A636AA700E0
:100240006302054C0547630BE53213010126F5BD3A
:1002500051476300E5365547E319E5FEEF00501CB2
:10026000D14599AE79476305E536636DA7005D47D3
:10027000630BE5346147E31AE5FCEF00701A930560
:1002800080021DAE7D47630AE53413070002E31EBA
:10029000E5FAEF00F018EF10706B2320A1168545EA
:1002A00029A61307D0086307E546636BA704130765
:1002B000A0076305E544636EA70013078007630585
:1002C000E54213079007E312E5F8EF00701581454A
:1002D000E5A41307B007630AE5421307C008E31655
:1002E000E5F6EF00F013AA84EF0090132A84D145BD
:1002F0002685EF10905FD1452285EF10105FB1B7D2
:1003000013070009630CE5486360A7061307E008BC
:100310006302E5441307F008E319E5F2EF0050101B
:100320002A89EF00F00FAA89EF00900F2A84B70402
:100330000020EF005010AA852AD01385840EEF000C
:10034000D00BEF00F00D2ACEEF00F00EF24702576F
:10035000131614002A889386840E1376E60FCE8532
:100360004A85EF204009D5B5130770096304E54AB3
:1003700013078009E31BE5ECEF00900AEF20E05043
:10038000E9B51307100C6305E556636FA70E130755
:10039000500B6303E54E6365A7061307A00A6303CA
:1003A000E548636DA7021307A0096308E546130734
:1003B000000AE31CE5E8EF00B0062A84EF00B0076E
:1003C000AA84EF00500737060020AA861306860E7F
:1003D00093F5F40F2285EF20605285BD1307F00AD4
:1003E000630BE5461307400BE311E5E6EF0050030E
:1003F00085473395A70042054181EF20802119A64A
:100400001307E00B630EE5486364A7021307600B54
:10041000630EE5461307700BE319E5E2EF005000A9
:1004200085473395A70042054181EF20A027D9AC2D
:100430001307F00B6302E5481307000CE317E5E030
:10044000EF00007EAA84EF00A07D2A89EF00407DA6
:100450002AD4EF00E07C2AD2EF00E07D37040020B0
:100460002AD0EF00407DAA852ACE1305840EEF0026
:10047000C07872480257925622569307840ECA8556
:100480002685EF20A07ED1B31307100F6300E54E41
:10049000636CA7061307E00E630AE54A636DA702C3
:1004A0001307B00E630AE5481307C00EE31FE5D833
:1004B000370400201305840EEF00E07AB714002003
:1004C000138584AEEF00207A938584AE1305840EE5
:1004D000EF10901A05AC1307F00E6305E5481307FB
:1004E000000FE314E5D6EF0000752A8937040020D9
:1004F000EF0060742A86AA849305840E4A85EF1063
:100500003020EF00606B79A41307400F630CE548BF
:100510006364A7021307200F630BE5461307300F30
:10052000E315E5D2EF0020712A84EF00C070AA85A0
:100530002285EF10D024F9A21307600F6308E54865
:10054000636CE5461307700FE311E5D0EF00A06E72
:10055000EF10B02DEF00406637340020034584B81B
:10056000130484B8EF0040654840EF00E06437357D
:100570000020130505B9EF000067C1B9B7A5000059
:10058000938545E055468812EF8020468147B7F5B0
:10059000FF1F31473386F5000346867E9412BE96D0
:1005A00090A28507E398E7FED1458812EF00805EB0
:1005B00069B9EF00E066C145EF10F03779B1EF009F
:1005C00020669145D5BFEF00A06593058004EDB787
:1005D000EF000065EF10B03C8DB9EF006064EF10E4
:1005E000903FA5B13704002002DC02DEEF00A064DA
:1005F000AA85AA841305840EEF002060A685130542
:10060000840EEF00102819C98147130700029400D7
:10061000BE96238006008507E39BE7FEA6851305AB
:10062000840EEF00502311C5930500028800EF00EF
:10063000C05CA6851305840EEF00702709C9EF0082
:10064000805F2ADC930500108810EF00005BA68510
:100650001305840EEF00102819C9814713070010F5
:100660009412BE96238006008507E39BE7FE1308DD
:10067000C1033C189812941026868C001305840E32
:10068000EF000060A6851305840EEF00901F33393C
:10069000A000A6851305840E1609EF00B02319C12A
:1006A000130949104A85EF0020510945EF00C05059
:1006B000A6851305840EEF00D01C11C5930500021A
:1006C0008800EF00204DA6851305840EEF009020D2
:1006D000E30D05B67255EF00204E93050010F1B5FD
:1006E000EF000054E145C9BDEF0080532A84EF00BC
:1006F0002053AA852285EF20403281BEEF00405270
:10070000EF102058EF00404B89B6EF006051EF200A
:10071000205DCDBFEF00C050AA89EF0060502A8A4B
:10072000EF006051AA8A0544130900089374F40F7E
:10073000D6862686D2854E85EF10904811C5854510
:10074000881223009116B9210504E31124FF230028
:100750000116B1B6EF00C04C2A89EF00604C2AD0D8
:10076000EF00004C2A84EF00004DAA84EF00404BBC
:100770002ACEEF00404CF24782551316140037047E
:1007800000202A8826879306840E1376E60F4A8572
:10079000EF10B04BA6851305840E09BDEF0040484D
:1007A000AA89EF00E0472A8AEF0080472A843709A8
:1007B0000020EF004048AA852AD01305890EEF00DB
:1007C000C043EF004047AA84EF0080452ACEEF00E7
:1007D0008046F248025713161400371400202AC02E
:1007E000D2854E852688930784AE9306890E1376AC
:1007F000E60FEF10104BA685130584AE45BB0D2107
:100800002A84EF00404393150501C1812285EF2022
:10081000200225BCEF20C0050DBCEF00C041EF2039
:10082000C00725B4F52EAA84370400202921AA8503
:100830002ACE1305840ED1268545B3959500F24640
:10084000C205371501401306840EC18113050580CA
:10085000EF101057DDBAE9262300A116D126A30018
:10086000A1167D2E2301A116371501408546901251
:10087000A145130505C0E9BF652685473395A70047
:1008800042054181EF10105D6FF03F9C512E85476E
:100890003395A70042054181EF10505E6FF0FF9A3B
:1008A00041262A84B52E2ACEA52EF2452A862285F7
:1008B000EF2080356FF07F99A5262A8995262AD6C4
:1008C00085262AD4B12E2AD2A12E2AD0AD262ACE10
:1008D0009D26F247025792562256B2553704002001
:1008E000AA84AA881308840E4A85EF2060345DB577
:1008F000052EAA8935262A8A25262AD215262AD007
:100900001D2E371900202ACE3D262A84AA851305DC
:1009100089AEE524724782561256B7040020D2856C
:100920004E85A2881388840E930789AEEF20003786
:10093000A2851385840E9DB9370400201305840E0B
:100940001D261305840EEF10C0516DBB3704002027
:100950001305840E092EC524AA851305840EEF10F5
:1009600020534DB3C92CEF10E05669BBE924AA848B
:1009700037040020C924AA852ACE1305840EB52C7D
:1009800072469305840E2685EF10205AA5BB652478
:100990002A8455242ACE4524F2452A862285EF1042
:1009A000605B8DB3370400201305840E6D2C130596
:1009B000840EEF10405FB9B3370400201305840E96
:1009C0005D241305840EEF10605F2DBBAD24EF1086
:1009D00000630DBBEFF2CFF501112A848545254553
:1009E00002C202C402C602C802CA02CC02CEEF7022
:1009F0000049854537052000EF70404A8545094587
:100A0000EF706006930700307C8237150140F14794
:100A10003EC64C008D47130505C03EC4EF6090757F
:100A2000E1679387076A3EC80604B70700403ECADD
:100A3000E0849307004037540040FC850C08916720
:100A400013050440FC86EF70E01313050440854550
:100A5000EF70C022854513050440EF70A0230561A7
:100A60006FF04FEFBDC9EFF20FEBB7040010375432
:100A70000040AE8A2A8A890413090440A6854A8563
:100A8000EF70002565DD130404405E281E2C01492B
:100A9000B7070010138B0704B75900409384070170
:100AA000DA852285EF70C02211C92285EF7060209F
:100AB00063765901B3072A0188A30509A685228513
:100AC000EF70002171DD83D7494183D7094093E757
:100AD00017002390F9406FF04FE78280D1C5EFF205
:100AE000AFE2B704060037540040AE8A2A8A9384E6
:100AF000240813040440A6852285EF70001C65DDE0
:100B0000B7090010375400400149938B090893043A
:100B10000440138C0940138B0901DE852685EF7094
:100B2000201B11C963795901B3072A018C2326853B
:100B30000509EF70C017E2852685EF70601909C9B5
:100B40009385094013050440EF70A01B6FF04FDF41
:100B5000DA852685EF70C01769D1130504405E2938
:100B60008545EF70A011DDB78280EFF26FDC23A026
:100B7000A1820547631AE5004123EF005055EF00BD
:100B8000305775DD6FF00FDD0947E31DE5FE2E855B
:100B90009135CDBFEFF2CFD983A701828546639807
:100BA000D700C205C181EF0010786FF0AFDA0947B6
:100BB000E39DE7FE2537D5BFEFF28FD741112AC657
:100BC00091456800C13F41016FF0CFD8EFF24FD699
:100BD00041112A842E852EC6C537B24522855D3F38
:100BE00041016FF02FD7EFF2AFD42A84EF80900548
:100BF000AA852285E13F6FF0EFD5EFF26FD383A78F
:100C0000018205466399C7002E87AA853A85EF00C1
:100C1000F05E6FF02FD40947E39DE7FEA135D5BF05
:100C2000EFF20FD141111305F1008545F93788879F
:100C300041016FF02FD2EFF2AFCF41116800914523
:100C40006D3F324541016FF0EFD0EFF26FCE4111B1
:100C50002A842EC6CD37B24588C1AA852285713F28
:100C600041016FF02FCFEFF2AFCC41116C002A841D
:100C7000E93FB2473E942300040041016FF08FCD5D
:100C8000EFF20FC85D712AC42E84B68A3A8BBE89F2
:100C900042898144014DDD4B130C1002930C30024C
:100CA000930D4002A2473D461305F00F3387A7017D
:100CB0001423FD4561486380C62A6366D60A1D4633
:100CC0006385C6146360D6060D46638DC61E636FCA
:100CD000D600054693074D006382C6126375D6128F
:100CE000362337170140232AD78031AA154663855A
:100CF000C61A637BD61E34232833054A36C6EF70E6
:100D00004069B246331ADA00B716014003A786805D
:100D10003377470163110712EF70C068B7160140BF
:100D200075D511AA2D466389C626636BD600254664
:100D30006380C6266370D6122A23EF7040596DA8CF
:100D400037160140B54593074D00130606806382B0
:100D5000B61C63F0D51E3823544622971823C19A37
:100D6000558F58C64DA06386762163E4DB044D465B
:100D70006380C6086361D6024546110D9305800263
:100D80006387C60091456374D600930580042823C9
:100D9000EF10A03501BF55466384C620D145637A64
:100DA000D604FD14939724009808BA9703AD07FC66
:100DB000D5BD638786216362DC02638FB61E63ED57
:100DC000D522E39A06EFB716014093860680944633
:100DD0003823A182229714A305A06389962363EF89
:100DE00096256380B61BE398A6EC61616FF00FB5A2
:100DF000C1452823EF10602F110D6DB5362337172D
:100E000001402328D7803E8D71BD2833034A270037
:100E1000EF7020580547331A4701B716014003A762
:100E200086803377470119EBB716014003A7868008
:100E30003377EA0011CBEF7080577DBFEF7080569B
:100E4000B716014069DDCDB7EF70C055B716014048
:100E500071DDD5B72833034A2700EF70805305476B
:100E6000331A4701B716014003A78680337747013D
:100E700011CFB716014003A786803377EA0045DF1C
:100E8000EF704052B71601407DD575B7EF708051B5
:100E9000B716014071D9F1BF34232833054A36C64D
:100EA000EF70204FB246331ADA00B716014003A79D
:100EB00086803377470141D3EF70C04EB7160140AB
:100EC0007DD595BFB716014003A686802C23343309
:100ED00005473317B700A296718F90223337E00091
:100EE0000606518F98A209BF30332C232296182270
:100EF0009356170014A28546137617003717014042
:100F0000B396B6001307078019C214CBF5B554CBBE
:100F1000E5B534332C2310460547A2963317B700A6
:100F2000718F90223337E0001E070582518F98A2FF
:100F3000D9BD2C332823A295942113971600E206DD
:100F400098A1E18605473317A70063D4060018CAA5
:100F50005DBD58CA4DBD3823B716014003A6C680F3
:100F6000229718231376F6F02207518F23A6E680E6
:100F700061B5B716014093860680944638232297C0
:100F800099BD36230147E359D7E601000507E5BFC0
:100F90002A23EF70803A8DB52A23EF70A036A9BDC1
:100FA000939624009C08BE9693074D0023A0F6FC60
:100FB000035D27008504FDB13433A29694227DBFE2
:100FC000832609003716014038230328868085458B
:100FD00013F676003396C5008D82B395E500DA9658
:100FE000B3F50501882299CD498E90A20327090007
:100FF00005072320E90009B5032609009306F07FC1
:10100000918EC9B71346F6FF698EC5B7302303A783
:1010100009007D1723A0E90093553700D6958C2150
:1010200085461D8B3397E6003396C6006D8FB71645
:1010300001409386068011CF90CA7DBB302303A761
:1010400009009306F7FF1307F07F23A0D900158F3F
:10105000E1B7D0CA55B3B716808101477D46C106B6
:101060006364B70001458280B307E5009C23636693
:10107000F600B3D7F600858B99E30D07D5B7054584
:101080008280B7E6008001477D46A1066364B70011
:1010900001458280B307E5009C236366F600B3D761
:1010A000F600858B99E31107D5B705458280014786
:1010B00085466364B70001458280B307E5009C2341
:1010C0009387E7FD93F7F70F63F4F6000D07D5B7A5
:1010D00005458280014785466364B70001458280EB
:1010E000B307E5009C23811793F7F70F63F4F6002D
:1010F0000D07DDB705458280EFF28F830945EF606C
:10110000904785450565EF60B0556FF0AF84B70730
:10111000005013070004D8A713078004D8B7371767
:1011200000201307874E98CB3717002013078752EC
:10113000D8CB371700201307875698CF37170020D2
:101140001307875AD8CFA3890702A38D0702239AD2
:101150000702239E070209472389E702238BE70240
:10116000238FE7029387818223800700A3800700F3
:1011700023810700A381070023820700A3820700C1
:1011800023830700A38307008280EFE27FFA3704FE
:10119000005099471CA01DC52945EF7040139D477D
:1011A000230004003CA0930790021CA08D379307F6
:1011B00010F81CB037070008B7E700E023A2E710DB
:1011C0006FE05FF92945EF708010B7E700E023007A
:1011D00004003707000823A2E7180F100000CDB75E
:1011E0009307F5FF93F7F70F1948636DF80CEFE2DB
:1011F0009FF293878182AA979C23938481820547DB
:1012000093F7F70FCDEB85476305F5001147631C96
:10121000E500B7070050DC27054793F7F70F631E7B
:10122000E50291831DA81307E5FF1377F70F63E924
:10123000E700B7070050DC370D4793F7F70FC5B746
:101240001307B5FF1377F70F63E0E704B707005004
:10125000FC2793F7F70FE30605FD13F84700014756
:10126000630B08043704001411042A94A18BB2897B
:101270002A890A0485C30840B7070020938707041A
:101280003E95EF70807619A8B7070050FC3793F7AA
:10129000F70FE1B785E6C205C1810CC02310340306
:1012A0008347240233852401014793F7C70F2301A5
:1012B000F40285471CA13A856FE03FE90840B70773
:1012C00000207DBF05473A858280011122CE26CCC1
:1012D0004ACA4EC852C656C43704005078207C30E3
:1012E0001377F70F937627006389065893F7F70F64
:1012F00013F70703930500026300B7049306000386
:101300006300D71A6DE313F7F703630B07128947DE
:10131000631BF70C8347B40393C74700A30DF40284
:10132000084442054181EF00D0038347B40393F79B
:10133000C70FA30DF40245A893F7F7039306100215
:101340006388D70A930630026387D70C639DE7084A
:10135000938741839E2393844183C207C18381E79E
:101360009147A309F40283C7618393F70706A5EFAA
:1013700083C70183154793F7F70F638DE704194778
:101380006393E7069E201307F003130400046365CC
:10139000F7008220420441801389C1838329090018
:1013A000371500202286CE851305854EEF70E06349
:1013B0009E20A29923203901818FC207C1839EA05C
:1013C000B707005082BB03C7270313474700238991
:1013D000E70211A8370700503C3383C6418293F7D8
:1013E0000708D58F3CB3B70700500947F8A379A980
:1013F0008347640393C74700230BF40283476403C6
:1014000093F7C70F93E72700230BF402938781829A
:10141000A3800700C9BF8347E40393C74700230F96
:10142000F4028347E40393F7C70F93E72700230FE2
:10143000F40293878182A3810700EF00A07965B74A
:10144000184493F70704C5D383C761831387418387
:1014500093F7070685CF2310070083C7018363979F
:10146000F50237160020B706002081471306864E86
:10147000938606089D453305F6000348050033852D
:10148000F600850723000501E397B7FE1E23C20778
:10149000C183B1FBB707005023980702114705BF6E
:1014A00099472309F40237150020A309F402930693
:1014B000854E9C22138661831CA29C3203D8660051
:1014C000138701831CA383D826009387418323902D
:1014D0000701138881832310180183D846001388DD
:1014E000218323101801034806001389418393893F
:1014F0006183137808061306854E9387818393864C
:1015000021836304080A83C709009384C18393F786
:101510000702C9C31C231307100293F7F70F638553
:10152000E706636BF70401446384B7001304F00F0C
:10153000835709001307F003130A00046367F700D9
:10154000035A0900420A135A0A0183AA0400528668
:101550001305854ED685569AEF70204923A0440185
:101560009307F00F6315F410B70700501D47238948
:10157000E702A389E70285BD130730021304F00FC9
:10158000E368F7FA01446DB7B707002093870708AF
:101590009CC0CDBF03C40900198013441400058802
:1015A000330480401374F40F61B71823AD451377EB
:1015B000F70FE3EBE5FAA9650A079385C5E12E97D6
:1015C000184302879A23894621839384C183630643
:1015D000D7020D46630EC70285476316F704A96755
:1015E000138707E983C707E998C001440357090037
:1015F000E3F0E7F42310F90025BF29671307C7E4D8
:101600003C3398C03823A207BA97C207C183F1BF01
:101610009E23054693F7F70F6381C70289CB638545
:10162000D702638AE70281471304F00FC1B713871B
:10163000818198C083C781814DBFA967138747EA1D
:1016400098C083C747EA55B7A967138747EB98C087
:1016500083C747EB59BFA9671387C7EC98C083C7F7
:10166000C7EC61B79E2393F7F70F2382F18283C7FC
:101670000900E207E18763D8071E035709009307B3
:10168000000463E6E70083570900C207C1830357DC
:1016900009001D8F420741832310E90037070050DE
:1016A0001EBB91472309F7023DBB83C751821CA291
:1016B000035709008547E3FCE7FA2310F90045BF0B
:1016C0009E2393F7F70FA382F18205472383E182DC
:1016D00079BF03C709007D8B11EF9E23054793F760
:1016E000F70FE396E7F89387718298231377E70F54
:1016F00098A3B5BF03C7090009467D8BE316C7E66B
:101700009E2393F7F70FE39107E69E2293061008B6
:1017100093F7F70F638DD70093063008638ED700D9
:10172000E394E7E4B7070050A38D070289B7B70732
:101730000050238BE70225BFB7070050238FE70235
:101740003DB703C709007D8B05E79E23054793F747
:10175000F70FE39BE7E0A96783C737E593F7070235
:10176000E38407E09387718298231367170049B7D2
:1017700003C7090009467D8BE318C7DE9E2393F754
:10178000F70FE39307DE9E229306100893F7F70FF7
:101790006381D702930630086386D702E396E7DCBD
:1017A000370700508347B70393E73700A30DF702CD
:1017B0007DBD370700508347670393E73700230B4E
:1017C000F70275B5370700508347E70393E7370003
:1017D000230FF70269BD23000600D9BD83C70900A6
:1017E00023100600FD8B85E383C771820144858B3E
:1017F00099C389471CA2035709008947E3F2E7D63A
:101800002310F900B1BB03C7090089471304F00F87
:101810007D8BE312F7FE9E229306100893F7F70FD5
:101820006381D70293063008638AD702E395E7FC09
:10183000B707005083C7B7038D8B0D47639EE70042
:1018400011A8B707005083C767030D4701448D8B6C
:10185000E393E7FA85471CA2014471BFB707005024
:1018600083C7E703D1BF83570900C207C183E3835E
:1018700007C2B70700501147EDB99377170085C32A
:10188000A3010400EFF0BF8885477CA07244E244C6
:101890005249C249324AA24A056173002030937707
:1018A000470085C7583093877182118B11CB9823DD
:1018B0001367270098A39C23B707005011473DB634
:1018C00098231377D70F98A3C5BF78A0C1B7EFE2CD
:1018D0003F86EFF07F820545EFF03F8B2391018437
:1018E0002390018423940184239201846FE09F86D6
:1018F00083C76182054701456318F70003C551821C
:101900001375F50F3335A0008280EFE27F823971C5
:10191000C53725CD93878182BC3393F7F70FB5E7A1
:101920009386818483D74184962213878184C2075A
:10193000C206C183C18263EDD704958FC207C183FC
:10194000A9C7930600043E8663F4F600130600045C
:101950004206B725002041828146938585DE1E23FD
:101960003305D1008506AE979C231CA11E23850755
:1019700093F7F77F1EA393970601C183E3E1C7FEA8
:1019800085468A850D45EFF0BF8521616FE08FFCAC
:10199000056613060680B2974DB703D5018483D739
:1019A000218442054181C207C1836366F5001D8D14
:1019B0004205418182800567130707803A95C5BFBC
:1019C00083D60184938721849A230145420741836A
:1019D000630ED7009623371700201307875E3697CC
:1019E00008239A2305071377F77F9AA38280EFE2F3
:1019F0002FF465377DDDE9376FE0CFF5EFE24FF388
:101A00002E84B304B500631494006FE0AFF4713713
:101A10007DDD7D3708A00504FDB7EFE26FF10566B7
:101A200037280020814613060680930EF07F1308A6
:101A300088DE1394060141806366B400F93522857F
:101A40006FE04FF193874184138781849E231A238B
:101A500093884184C2074207C183418363E7E70259
:101A6000998FC207C183E38BD7FD83D70800330763
:101A7000D5001823C297850698A383D70800850749
:101A800093F7F77F2390F8006DB7B297D1BFEFE2DD
:101A90002FEAB13F2A89A13F2A84913FAA84813F3E
:101AA0009317840013970401D98FB3E727016205C8
:101AB0005D8D6FE02FEAEFE2AFE7813D6FE08FE9E8
:101AC00003D5418483D7818442054181C207C18304
:101AD0006366F5001D8D420541818280056713070D
:101AE00007803A95C5BFEFE2AFE4316413041435C3
:101AF00093848182BC3093F7F70F99C37D1405E07E
:101B0000BC3093F7F70F91EBB715002085460146DF
:101B10009385855A0D45EFF0AFEC6FE0AFE32945B3
:101B2000EF60E07AC1BFEFE2AFE02E84FD35493FC0
:101B300001E909C41374F40311E075376FE08FE114
:101B4000EFF0BFDC13054006EF606078CDB7EFE241
:101B50002FDE41112AC691456800F13741016FE03F
:101B60006FDF0566B7150020371800208146130681
:101B70000680930EF07F9385855E130888569397B1
:101B80000601C18363E3A7008280938701841387E2
:101B900021849E231A2393880184C2074207C183AC
:101BA000418363E7E702998FC207C183E38ED7FDC4
:101BB00083D70800338706011823AE97850698A3BC
:101BC00083D70800850793F7F77F2390F80045BF78
:101BD000B297D1BF05472383E1848280EFE24FD5DE
:101BE00001111306000281450A85EFE06FD73165C8
:101BF00037240140EF60C01913050440EF50D02096
:101C0000B7070E003EC68A85854713050440230AA0
:101C1000F10002C002C202C402C8EF505023814545
:101C200013050440EF50D038814513050440EF50B0
:101C30007039854513050440EF50D02681451305C2
:101C40000440EF50903A13050440EF50B02693043F
:101C500004402685EF50B0266DFD1305044037245F
:101C60000140EF505026930404402685EF50502643
:101C70006DFD854513050440EF50303705616FE079
:101C80006FCDEFE2EFCA9D47AA8563F6A7009305E3
:101C900085FF93F5F50F372401409546054613055A
:101CA0000440EF50F024854513050440EF50D02246
:101CB0009304044089452685EF50103265DD1305F5
:101CC0000440EF50702EAA84894513050440EF505C
:101CD000503126856FE00FC80145828013077002DE
:101CE000A9576360B704EFE2AFC441112E84EF50EF
:101CF000703A13051003EF50703CA165C105A29521
:101D00001395C500EF50D03F2AC6EF50503A3245E8
:101D1000114781476303E500ED573E8541016FE0C0
:101D20006FC33E858280B2871306700229556365B2
:101D3000B6023386E70005686360C802EFE24FBF72
:101D40003A8621674107BA95B2053685BE95EF60A0
:101D5000D04901456FE00FC082809307700229557A
:101D600063E4B706B307E6000568636FF804B3677A
:101D7000E600858BB1EBEFE20FBA216441042E94AB
:101D800032043A89B6843294EF50D03013051003F0
:101D9000EF50D0328149114A63E62901EF503031CA
:101DA000014539A89C308C2033053401A207DD8D14
:101DB000EF50D038890463074501EF50502F6D551F
:101DC0006FE0AFB88909C9BF8280B7370020138799
:101DD0008781014593878781A946704B09EA1307DC
:101DE00080053307E502BA970547F8CB82800505E1
:101DF00013078705E313D5FE7D558280B7270020A2
:101E00001387875E01459387875EA946505B09EA81
:101E1000130780033307E502BA970547D8DB8280B2
:101E2000050513078703E313D5FE7D558280EFE296
:101E30002FB0A96437340020938544EE130504C9FC
:101E4000EF40207D09CD938544EE130504C9EF4092
:101E5000206C938544EE130504C9EF40807B6FE04E
:101E60006FAFEFE2EFACAA8537350020130505C947
:101E7000EF4090246FE00FAEEFE28FAB2E86AA8585
:101E800037350020130505C9EF40B0336FE08FAC44
:101E9000EFE20FAA41112AC62EC4053FFD572A843E
:101EA0006306F50293078005B307F502B7350020F6
:101EB000A24632469385858137350020130505C932
:101EC000BE95EF40D05A635305002A842285410114
:101ED0006FE04FA8EFE2CFA513048005330585021C
:101EE00037340020130484812A9437350020A285DA
:101EF000130505C9EF40905C232A04046FE08FA509
:101F0000EFE20FA3930780053305F502B2862E8614
:101F1000B735002093858581AA95373500201305B4
:101F200005C9EF40705D6FE0EFA2EFE26FA093078D
:101F300080053305F502B2862E86B73500209385DD
:101F40008581AA9537350020130505C9EF40F06259
:101F50006FE04FA0EFE2CF9D930780053305F502B8
:101F6000B2862E86B735002093858581AA953735B0
:101F70000020130505C9EF40D0646FE0AF9DEFE28C
:101F80002F9B930780053305F5022E86B735002079
:101F900093858581AA9537350020130505C9EF4043
:101FA000D0666FE02F9BEFE2AF98AA85373500200F
:101FB000130505C9EF40307A6FE0CF99EFE24F97F4
:101FC00041112AC6EFF09FE3FD572A846305F5020D
:101FD00093078003B307F502B725002032469385A7
:101FE000855E37350020130505C9BE95EF50C00B3F
:101FF000635305002A84228541016FE0AF95EFE22B
:102000002F93130480033305850237240020130423
:10201000845E2A9437350020A285130505C9EF5048
:102020008014232A04026FE0EF92EFE26F90930591
:1020300080033305B502B72500209385855E3736CA
:102040000020130686B8AA9537350020130505C968
:10205000EF5000136FE00F90EFE28F8D4111914729
:10206000371401403EC68D473EC44C00FD57130552
:1020700004807C82EF501010F1778D074C0013051F
:1020800004C07C82EF50100FC1473EC64C00A147F0
:10209000130504C07C82EF50F00D41016FE08F8B7F
:1020A0008546B396B600C2069377F600418AC18290
:1020B00019C293E737001307F00F6374D70250413A
:1020C000E1158A053D473317B7001347F7FFB3956E
:1020D000B700718F9307F00FD98D63F6D7004CC10D
:1020E00082801041F9BF0CC18280EFE26F842E869E
:1020F000AA8537150140130505805D376FE08F8590
:10210000BD4763F9A702C54763E1A70241151375EF
:10211000F50FEFE2EF812E86AA85371501401305F2
:1021200005C0EFF0FFF76FE0EF82CD4763E4A70053
:102130007115F1BF8280EFD2BFFFBD4763E6A700F4
:10214000EFF0BFFA6FE00F81653FEDBFBD472A8713
:1021500063EDA700B717014083A6878085473395B5
:10216000A700758D3335A0008280C54763EEA700B8
:10217000B7170140938707C09C47130705FF054524
:102180003315E5007D8DF9BFCD470145E3EEE7FC52
:10219000B7170140938707C09C477117CDB7BD475C
:1021A00063EAA70085473395A700B717014023A826
:1021B000A7808280C54763EBA7004115854733950B
:1021C000A700B717014023A8A7C08280CD47E3EE40
:1021D000A7FE7115E5B7BD4763EAA70085473395AC
:1021E000A700B717014023AAA7808280C54763EBE9
:1021F000A700411585473395A700B717014023AACB
:10220000A7C08280CD47E3EEA7FE7115E5B7FD5765
:102210007D156313F50082800100DDBFEFD2BFEFB3
:1022200041118544B399A400371401402EC632856C
:10223000232834813289E13FB2454A851304048062
:10224000B394B40004C8E1374A85232A3401EFF07F
:102250001FFC4A8544C8EFF09FFB41016FD0FFEEA1
:10226000EFD29FEA85443399A4004111B68AB39412
:10227000B4009D49854B371A01407D5BB3973B0104
:10228000F18F13070A80ADC323282701568532C674
:10229000EFF0FFF7568523289A80EFF05FF7568519
:1022A000232A9A80EFF0BFF6FD1913040A80324604
:1022B000E39669FD568523282A81EFF05FF5568560
:1022C00023289A80EFF0BFF483298A805685232A39
:1022D0009A80EFF0DFF333F5290123282A811335A3
:1022E000150041016FD0DFE5232A270145B7EFD262
:1022F000BFE18549339BA9004111AA8B368A3A89EF
:1023000023000600B399B9009D4AB71C01407D5CCB
:1023100032C64A8523A86C81EFF07FEF4A8523A857
:102320003C81EFF0DFEE4A8583A48C8023AA3C81B8
:10233000EFF0FFED3246B3749B00B33490001C22E3
:10234000B3945401FD1ADD8C04A213840C80E39134
:102350008AFD4A8523A86C81EFF07FEB331A7A015E
:102360004A8523AA4C81EFF09FEA4A8523A83C8145
:10237000EFF0FFE94A8523AA3C81EFF05FE923A84B
:102380004C8141016FD0DFDBEFD29FDA8544B395FA
:10239000B4003714014041112328B4802A893285C2
:1023A00032C6EFF0DFE63246B3942401232894804E
:1023B000328513040480EFF09FE541016FD09FD96F
:1023C000EFD27FD5B284368636842A89AE89EFF083
:1023D000FFE413961400A286CE851376E60F4A8595
:1023E000EFF01FE8AA8422864A85CE85EFF0DFF958
:1023F00026856FD09FD5EFD21FD24111328A4286F7
:1024000036843AC6C2842A89AE89BE8AEFF01FE1BB
:102410005286A686CE854A85EFF09FE43247330A7E
:10242000E400631C440163870A002686CE854A8542
:10243000EFF09FF541016FD05FD11020A686CE85C9
:102440004A85EFF0FFE10504E9BFEFD2FFCB32840C
:1024500042863A8AC2842A89AE89368BBE8AEFF0D8
:10246000FFDB13661400A686CE854A85EFF05FDF9A
:102470000144930BFAFF631B440163870A0026861D
:10248000CE854A85EFF05FF06FD09FCBB3367401F5
:1024900033068B002687CE854A85EFF05FE505047D
:1024A000D9BFEFD27FC64254328BB68422863A8A95
:1024B0002A89AE893E8CC28AC68BEFF03FD6A286AF
:1024C0005A86CE854A85EFF0BFD9269A639C44038D
:1024D0002286CE854A85EFF07FD4A28613661B0044
:1024E000CE854A85EFF0DFD78144138AFAFF6393E4
:1024F000540363870B002286CE854A85EFF0DFE820
:102500006FD01FC49020A286CE854A85EFF05FD59C
:1025100085046DBFB3B6440133069C002287CE8587
:102520004A85EFF0DFDC8504D9B70CC919CAE14749
:102530000100FD17F5FF4CC9C9470100FD17F5FF64
:102540008280AD470100FD17F5FF4CC9FD47010032
:10255000FD17F5FF8280EFD2BFBD328413760608E7
:10256000AA842E89EFF07FFC13760404CA852685A1
:10257000EFF0BFFB13760402CA852685EFF0FFFA61
:1025800013760401CA852685EFF03FFA137684009E
:10259000CA852685EFF07FF913764400CA85268523
:1025A000EFF0BFF813762400CA852685EFF0FFF719
:1025B00013761400CA852685EFF03FF76FD09FB9D8
:1025C000EFD27FB54111AA842E89B2893284B30734
:1025D000344163E5D70041016FD03FB71020834AF3
:1025E0001400CA85268536C6034A2400EFF0BFF6DC
:1025F0005686CA852685EFF01FF65286CA8526853F
:10260000EFF07FF51305800CEF50704C0D04B246CF
:102610007DBFEFD2FFB12A840145EF50504BB71474
:10262000014023AA84801305001EEF50504A130571
:10263000600423A8848093840480EF50504984442C
:102640001305A019EF50B0483375940013351500E9
:102650006FD05FB0EFD2DFAD37140140232AA480E2
:10266000AA841305C003EF5090462945232894807F
:10267000EF50F045130404806FD0DFADEFD25FABB5
:1026800037140140232AA480AA841945EF5030440E
:102690001305000423289480EF5070431304048032
:1026A0006FD05FABEFD2DFA8B71401402A8423AA12
:1026B000A4801945EF50B041254523A88480938418
:1026C0000480EF50D040844413057003EF50304035
:1026D000337594003335A0006FD0DFA7EFD25FA52C
:1026E00001119375F50F2A84014502C802CA02CC74
:1026F00002CE02C402C6EF5020468547B39487003D
:10270000414708083ECE3ACC26C802CAEF50600FB7
:102710002685EF508017914763E187029307640194
:102720005C848547DC8489475C85280085473EC6F4
:10273000EF50405E05616FD0FFA1254793077002FF
:10274000E37087FE93078003E1BFEFD27F9E4111C4
:1027500005443314A400C1470A853EC422C002C206
:1027600002C6EF50000A2285EF50201241016FD0BF
:102770007F9EEFD2FF9B0111FD5702C268007C8251
:1027800002C023140100EF50C061371702405843C4
:10279000D2472183118B11C3860737470F001307D8
:1027A0000724B3D7E702371400408A851305048055
:1027B000231301002311010023040100FD177C8075
:1027C000EF508071130504808545EF50F019130513
:1027D00004808145EF507016FD4513050480EF50CD
:1027E000101F05616FD01F97EFD29F9437140040E0
:1027F000130504808145EF50501D13050480FD45ED
:10280000EF50F01C854513050480EF5010136FD076
:102810007F94EFD2FF9137150040130505804231B8
:102820008145EF5090114204418022856FD09F92E4
:10283000EFD27F8E2A8995C1AE898544D145EFF0CC
:10284000DF8A37140140B3942401232A94804E85F3
:10285000EF50F0271304048004C891454A85EFF037
:10286000DF884A85EFF09FE7EFF01FF86FD0FF8D0C
:102870009307800873B007800F10000023A801841D
:1028800023A6018473A007808280EFD27F8AEFF0B5
:10289000DFEBEFF01FF86FD0FF8BEFD2DF879307EE
:1028A000800873B007800F10000003A4018573A097
:1028B000078003A9C184637325012A894A85EFF043
:1028C0000FA98567938787BB3E94330424413374F3
:1028D000F402373A00208149BE84130A0AD16314F6
:1028E00039016FD09F86B3878900B3F797028509B6
:1028F0008607D2978A23EFF08FA5D5B7EFD2BF8195
:1029000093991600AA84AE8A3289368A3284B299A3
:10291000631A34010144631C440181452685F5286E
:102920006FD0BF82EFF0AF960AA00904D5B79377B6
:102930001400814591E3D6852685C52093171400A0
:10294000CA978A230504EF509018F1B7EFD24FFED3
:1029500001119307F00F7C844C00B9472A847C82D4
:1029600002C802CA02CC02CE2313010023150100C3
:1029700023160100EF504056C167938707060C08E5
:1029800022853EC8231B0100231C0100EF50E05AA2
:1029900081452285EF50E07E0C082285EF50806053
:1029A00081452285EF50C07E0C082285EF50E068FB
:1029B00081452285EF50207F0C082285EF50207141
:1029C00081452285EF50007F85452285EF50C079F3
:1029D000B7370140938707C06316F4008545228509
:1029E000EF50207785452285EF50207505616FD027
:1029F0006FF6EFD2EFF337350140130505C0EFF066
:102A0000FFF437050040EFF07FF437050040130571
:102A10000540EFF0BFF36FD0EFF309E5B7070040D3
:102A2000CEBB828085476316F500B70700408EBF96
:102A3000828089476316F500B7070040CEBF8280C9
:102A40008D476317F500B70700402390B7048280D5
:102A500099476317F500B7070040239AB742828071
:102A60009D476317F500B7070040239CB74282805B
:102A7000C1476317F500B7070040239EB742828025
:102A8000C5476317F500B70700402390B74482801D
:102A9000A1476317F500B7370140239AB7C2828078
:102AA000A5476317F500B7370140239CB7C2828062
:102AB000A9476317F500B7370140239EB7C282804C
:102AC000AD476316F500B73701402390B7C4828045
:102AD000FD577D156313F50082800100DDBFEFD245
:102AE000AFE20544B319B400B31BC4003314A4000F
:102AF0003E8A937417004204B71701400583368954
:102B000041809387078025CF80CB854A5285EFF09F
:102B10003FFCA14CBDEC416B7D1BB3F96901371D36
:102B20000140054C9357790013070D80A1CF23284E
:102B3000370106091379F90F93070D8063878A051A
:102B400080CB5285EFF0DFF813070D801C47860419
:102B5000B3F7FB00B3F76701B337F000DD8C93F4F4
:102B6000F40F63860A0200CBFD1C528593FCFC0F18
:102B7000EFF01FF6E3980CFA26856FD06FDCC0CB20
:102B8000814A69B7232A37016DB7C0CB5DBF40CBFF
:102B9000E1BF416B7D1B8144054C371D0140B3F9FA
:102BA000690193070D80638A8A0580CB5285EFF017
:102BB0003FF29357790013070D80B1C323283701E3
:102BC00006091379F90F93070D80638D0A0280CBF4
:102BD0005285EFF0FFEF83278D808604FD1CB3F74D
:102BE000FB00B3F76701B337F000DD8C93FCFC0FFB
:102BF00093F4F40FE3970CFA41B7C0CB45BF232AF7
:102C000037017DBFC0CBE9B7EFD28FD241112E84FF
:102C1000C14532C6EFF06FCD2285C145EFF0EFCC54
:102C2000324691453285EFF04FCC41016FD08FD2C3
:102C3000EFD26FCE4111AA842E89B289368ABA8A20
:102C40003E8B330418016315880041016FD0EFCF2C
:102C5000DA875287D6864E86CA85268542C6EFF029
:102C60001FE832482300A8000508F1BFEFD2AFCA21
:102C70002A89AE89328AB68A3A8B3E84B3840701A8
:102C8000631494006FD06FCC1420DA875687528675
:102C9000CE854A85EFF0BFE40504DDB7EFD2AFC7BC
:102CA0004111AA842E89B289368ABA8A3E8B0144A0
:102CB0006315140141016FD04FC9B3068B009422F4
:102CC000D68752874E86CA85268542C646C4EFF00F
:102CD0001FE13248A248B307880088A30504C9BF92
:102CE0009D47AA8563FAA700C1476300F506C5475B
:102CF0000145639EF504A545EFD28FC337240140FB
:102D0000130404405C40370700058546D98F5CC03A
:102D100005462285EF40D01DC1475CDCA1477CC43D
:102D200089452285EF40502B65DDB727014003A57B
:102D3000C74403A74740B70600FBFD16758F420541
:102D4000418123A2E7406FD0EFC0A14575B78280D3
:102D50001841FD576307F700484105051335150075
:102D600082800545828010419C41630EF6005841E7
:102D7000D4410145630AD7006308D6003385E74094
:102D80003335A00082800145828093176501D98781
:102D9000850793B717003E951375F53F110582809F
:102DA00098411C41B98F1CC1D8415C41B98F5CC1AD
:102DB00098451C45B98F1CC582801C4181EB584148
:102DC00001E71C4593B717003E8582808147EDBF20
:102DD0001C41D18393F7077091CBEFD26FB51105EA
:102DE000EFF07FF8133515006FD0CFB60145828024
:102DF00011E182806304B5000841DDBF0545828092
:102E00007C557849BE95998DB3F5F5023C4D63FD2F
:102E1000F500785193D735009D893E978547B39546
:102E2000B7001C23DD8D0CA30145828093973500EC
:102E30002A8663C4070437071070130707C01442BB
:102E4000B3C7B6007D8F15C793976601D9877D57A5
:102E50006381E70237071000B7070080130707C038
:102E600093C707C0758F3705F04FED8F498F639B70
:102E7000E7002320060005458280370700801347BE
:102E800007C075BF93D7450113F8077013070040BB
:102E900001456310E80213D7A600A9811377F73F15
:102EA00093F5F53F6367B700E207E187AA07B69796
:102EB0001CC28280EFD2CFA72A842E85EFF0FFECD0
:102EC0001C403E9508C001456FD0CFA81C41850726
:102ED0001CC101458280EFD2AFA23A8C3E84338779
:102EE00017013C55DC4F63EDE7007C552A8AAE8C18
:102EF000B28BB68A428D4689638B07166369FC16CE
:102F00001305C0FA9DA263890C0483A70C00CA8430
:102F10006395870583A44C0083A98C00A699637DE3
:102F2000340363689402B389894063733901CA89A1
:102F300083A5CC00B30494404E86A6956A85EF50D5
:102F4000D02A4E9D4E9433093941E31E09FA0145BA
:102F500029AA818C63739900CA8483A70B00639BA1
:102F6000870383A54B0083A98B00AE996374340358
:102F7000636EB400B389894063F33401A68983A7E3
:102F8000CB00B305B4404E86BE954DBF818D63F333
:102F90009500AE84636C590503258A065C49337736
:102FA000F40229E76364F904B3F9F4025C41EA86A8
:102FB0002286E285B38D34416E8782976351A002E9
:102FC000B7A6000029669386061C130686F39305B0
:102FD000000637A500001305C51CEF50901751E5FA
:102FE000B38499406E9D6E94269985B78327CA064F
:102FF00089CF636CFC00B7A6000029669386461E45
:10300000130686F39305C006E9B703258A0623A0B5
:103010008B015C494C4D3307FB00B376F4022297D9
:10302000B377F7023306D44023A2CB001D8F63F39E
:10303000E5002E871C55818E369763F3E7003E87A7
:103040005C4183A6CB0023A4EB00E2858297635CFE
:10305000A000B7A6000029669386061C130686F317
:1030600093057007BDB7E30205EE6FD02F8D138B6C
:10307000FAFFE1BDEFD2CF883E8D9C490111B28CA1
:103080002A891305C5032E8AB68A3AC4C28BC44561
:103090003ECE93D9AC00EFF0BFD393F9F93F63096B
:1030A0000514638709148327C90313D7AA0013776C
:1030B000F73FA98393F7F73F6396E70079550561DA
:1030C0006FD0CF87014463F4E700130400C0B70753
:1030D000008093C7F7FF370C10003EC6130C0CC0DE
:1030E000B70D1040724B5A85EFF03FCA9307450069
:1030F000E3E6F4FC03270A00898C91481308C10118
:10310000A68791464A8681454A85EFF0DFDC635108
:10311000A002B7A6000029669386061C1306C6F710
:103120009305702E37A500001305C51CEF507002E3
:1031300059F57245EF508046B2473345AB007D8D5F
:103140002ACE6380090493574B0113F70770930647
:1031500000406318D70233878A401356A70093565E
:10316000AB001376F63F93F6F63F636CD6003377E9
:1031700087013367B701E30367F5E207E187AA0731
:103180003E94B3878A40B3C76701B3F79701B9FB91
:1031900093176B01D9877D57E382E7F29379FB3F61
:1031A00063F33B01DE89A24703270A00CE8891071B
:1031B0006A88A697CE864A8681454A85EFF0BFD1B8
:1031C000635CA000B7A6000029669386061C130660
:1031D000C6F793054030B9B7E31305EE33863B419C
:1031E000814533053D01EFC0BFF733056401C1BD23
:1031F0000144F1BDEFC2DFF3BA8713F8F63F014790
:10320000EFF05FE76FC01FF5EFC29FF24111B70605
:10321000F07F32845800B1063706F07FEFF09FFD53
:1032200063580500F9576309F50041016FC09FF22B
:103230004C002285EFF0DFB60145C5BFEFC25FEF5E
:10324000328710415C431843345641112A84D44ECE
:10325000A14813088100930506013285EFF0BFC72E
:1032600001E9930544002800EFF0FFAF3335A000DB
:1032700041016FC03FEEEFC2BFEB3C552A84DC5BDF
:1032800081E74845EF5080733C549C5F81E7484C90
:10329000EF50C0723C54DC5F81E76850EF50007221
:1032A00001456FC03FEBEFC21FE79307F03F4111AD
:1032B000368413878600631FF600B7A50000938548
:1032C000052B3A85EF60201589471CA00145410177
:1032D0006FC0BFE734599314A600370610788506EF
:1032E000C58E130606C02A89AE89EFF0BFF0E34011
:1032F00005FEB70600205181A1063706107008A010
:103300003800C58E130606C0CE854A85EFF09FEEC5
:10331000E34F05FA93574501130720206395E70013
:10332000B2475CC065B713071020E391E7FA137545
:10333000F53F48C061BFEFC2BFDF7C5563E1F502D6
:10334000B7A600002966938646121306C6F69305B3
:10335000501137A500001305C51CEF50805F28559C
:103360005C458297635CA000B7A60000296693863F
:10337000061C1306C6F693057011E1BF6FC09FDDF2
:10338000EFC21FDB1C4113F7F73F1DE363D30504B6
:10339000B7A60000296685659386466B1306C604AA
:1033A0009385F53137A500001305C51CEF50605A11
:1033B0009306E01F63FFE600635DB000B7A6000060
:1033C000296685659386C66E1306C6049385053205
:1033D000D1BFBE9593F7F53FB337F0008605FE07E2
:1033E0008581DD8D0CC101456FC0DFD6EFC25FD492
:1033F0002E84105548449305F00FEFC07FD6FD573B
:103400001CC06FC03FD5EFC2BFD29C512CD52A84BF
:103410007CD5DC418DE3B7A60000296685659386DF
:103420004672130646039385B50737A500001305BA
:10343000C51CEF5000529C45AE8481EFB7A600003A
:103440002966856593864674130646039385D507DA
:10345000E9BFDC4581EFB7A6000029668565938644
:103460004676130646039385E507C1B79C4981EF6D
:10347000B7A600002966856593864678130646033D
:103480009385F5075DB7D44981EEB7A6000029669C
:1034900085659386467A130646039385450871B77A
:1034A000984D01EFB7A60000296685659386067CD6
:1034B00013064603938555088DBF03A98502631D36
:1034C0000900B7A60000296685659386C67D1306A8
:1034D00046039385650891BFB377D90281CFB7A61C
:1034E0000000296685659386867F130646039385CB
:1034F000A50825BFB377E90281CFB7B600002966DA
:10350000856593868682130646039385B50831BF89
:10351000DC4D33F6270301CEB7B60000296685657A
:1035200093868685130646039385C508FDBD13065D
:10353000F007636DF600B7B60000296685659386CF
:10354000C688130646039385F508C5B5D05101EE2C
:10355000B7B60000296685659386868A13064603FA
:103560009385B509D9B5905921C293D51700637DCC
:10357000B600B7B60000296685659386468C1306AB
:1035800046039385250A55B5FD55630FB60063FDC7
:10359000C700B7B600002966856593868691130635
:1035A00046039385450A51B5F04439CAB376D6022D
:1035B00081CEB7B600002966856593868697130687
:1035C00046039385950A95B53377E60201CFB7B6E2
:1035D0000000296685659386869C130646039385BD
:1035E000B50AA1B5B3F7C70281CFB7B60000296607
:1035F0008565938686A1130646039385D50A35B55E
:10360000DC5885CF5CC49C5CB9C35CCC2685A285A4
:10361000EFF0DFDD285493050401EFF03FDD245483
:10362000C85405EDB7B6000029668565938686A661
:10363000130646039385B50CCDBB4A85EF50603722
:1036400048C471F12285EFF01FC35155A9AA4A85DC
:10365000EF50203648CC5DF9F5B7DC5C95C37CD0E3
:10366000BC401307F00F6372F702B7B6000029667B
:103670008565938686A8130646039385750D75B3F5
:10368000EF50203368D069FD75BF85C33CD8FC403E
:1036900063DF0700B7B6000029668565938646AAF2
:1036A000130646039385D50D49B338D8CDB795C3D6
:1036B0007CD8BC441307E03F6372F702B7B6000042
:1036C00029668565938686AC130646039385350E79
:1036D000A9BBB707008093C7F7FFD9BF8DC33CDCF8
:1036E000F444D84C637FD700B7B6000029668565DF
:1036F000938646AE130646039385950E3DB338DC9C
:10370000C5B7BC487D566380C7069054637DF600FC
:10371000B7B6000029668565938646B11306460351
:103720009385C50E19B3305C637DF600B7B6000013
:10373000296685659386C6B6130646039385E50E0E
:10374000EDB11356370099C213D63600637DF600EB
:10375000B7B60000296685659386C6BB1306460387
:103760009385250FD9B17CDC7D566390C704232E49
:103770000406FD571CD05CD0232404022326040237
:10378000232E0402232004042322040423280402F9
:10379000232A0402232C04022324040423260404E1
:1037A0002328040401456FC0FF9AE1F79C54305C64
:1037B0000D8399C213D736006373F600B287637323
:1037C000F700BA877CDC75B7EFC2FF940329C50107
:1037D00084410145611963EB240333D52403AE8989
:1037E0007D15EF409057130425000A04338484406C
:1037F00033542403330989022285EF4010560A0509
:10380000898C2285B384244123A099006FC0FF9343
:10381000EFC29F8FAA89285541117D172E8B4C002E
:10382000B28BB68C3E8AC28A3AC2EFF0FFF9AA8404
:10383000094CE6855685029A29E5A1C413F91400BE
:1038400033042C41931824001308810081476687B4
:10385000C6865E86DA854E85EFF0EFE71DE17D14C2
:10386000634A85000A041C083E947919832C84FF5E
:10387000CA94C1B7A2455685029AAA870545EDD3D9
:103880003E8541016FC0DF8BEFC21F88011132C638
:103890003AC489EA7D5798C3232008000145056191
:1038A0006FC01F8A2A892855FD16AE8A6C08C28906
:1038B0003E8A36CEEFF05FF1AA84032589062C00FC
:1038C000930B0002EFF05FF02A8B054C32476368E0
:1038D0009B00A2472320EA0023A0F900C1B733854B
:1038E00064413AC2EF40F0392A8433848B40268504
:1038F000EF4010407D141247637385002A8491487D
:103900001308C100931724009146568681454A85C5
:10391000EFF06FDC49F533148C00818C45BFEFC2AA
:10392000AFFE3709F8FFAA89AE8A328C3A8BBE8483
:10393000428DC68C795A938BF6FF130909C06394A4
:103940000C00014549A003270C008327CC00631C11
:10395000470303274C0003248C003A9463F5840248
:1039600063E3E402058C63F38C0066843387E440F0
:103970006A852286B385E700EF502007229DA29436
:10398000B38C8C406DBF03A6890623204C01544A9A
:1039900010563388DB0033F7D4022698B376D8026A
:1039A0003387E4402322EC003308D84063730601D8
:1039B000328823240C01DA864A86D6854E85EFF0BC
:1039C0006FEBE35E05F66FC0AFF7EFC26FF33E8BB0
:1039D000B737000071719387C7E23EC6835C010F61
:1039E000B70710608314410F7E5C938707C02AC419
:1039F000AE8B36843A8AC289468902D802DA814A75
:103A0000014D3EC8228532CAEFF02FB8524683A737
:103A1000CB00B30DC50063F0FD08224603A70B00E1
:103A200091481308C102EE87914681453285EFF037
:103A30008FCA631E05243255EF405036B707008009
:103A4000298C5D8C83A70B0022D614183ED893874F
:103A50004D003EDA32563707F07FB347A601B3F781
:103A60003701F98FCDEB93D7A90093F7F73F638127
:103A70000716894763FC5703B7A60000296637A5D8
:103A800000009386C643130606F99305203C1305F0
:103A9000C51CEF40106C635A601F83270A00832601
:103AA0004A007D1B3ED6210AB28D6DB79307C00335
:103AB0003387FA021C19EE55850ABA9723ACD7FA58
:103AC000C25623AE37F923A0A7FB23AED7FAD256AE
:103AD000239227FB239397FB239497FA23A887FB32
:103AE00023A477F923A6B7F923A887F823AA47F9CF
:103AF00023AC67F923A6B7FA23AAC7FA23A0D7FCF9
:103B0000130CC7023C183E9CB247014D8149BEDDF3
:103B10008144814C01496E86F5B5130620106392ED
:103B2000C7040147B25713F6F73FE376C7FEA983F0
:103B30008C4693F7F73FA697AA07CD8F8C22D042E9
:103B4000628593850530D205DD8DEE573ACC36CAB5
:103B50008297634E0512D246B10655FD62470507AE
:103B6000D1B7EE579395A4003686BA9562858297B1
:103B7000634F05104DD1638C0A10FD1A9307C003E3
:103B8000B387FA021819BA9703A7C7FA83AB87F865
:103B900083ADC7F8BADD03A747FB03A407F903AA5F
:103BA00047F903AB87F983A9C7F903AD07FA03D92E
:103BB00047FA83DC67FA839487FA03AC07FB3AD6AB
:103BC00083A687FB03A7C7FB83A707FC3AD83EDA87
:103BD00093D7A90093F7F73F325789CB9357A700A4
:103BE00093F7F73FE3E927F3E3F797F39357470199
:103BF00093F7F77F8DD313061010E390C7F23ACEF8
:103C0000EE57324736CCE388E7F09307C003B3871B
:103C1000FA0218191306C0038145850ABA9713855D
:103C200087F83ECAEFC0CFD3D2476E57E246239201
:103C300027FB23A6E7FA7247239497FA23A477F980
:103C40001379F73F29831377F73F33072741BA9456
:103C5000C20423A6B7F923A887F823AA47F923ACFF
:103C600067F923AE37F923A0A7FB239397FB23A87B
:103C700087FB930C1900C184B68B370D0020C24915
:103C8000014B014A7D54814D79B50145EDB54D613A
:103C90006FC0CFCAEFC24FC74111AA892E8AB28A1C
:103CA000368BBA8B3E8C42890144A14C636424015B
:103CB000014581A0B304894063F39C00A144A68818
:103CC00013088100B30774015A87B3868A4052866D
:103CD00081454E85EFF02FA009ED2686B3058C00B7
:103CE0002800EF40504EAA8701C9054563C307006D
:103CF000094541016FC0CFC426944DBFEFC24FC3E9
:103D0000AA8403A8840013F4F53F084163730401F7
:103D1000228858421442DC404286AA85EFF09FF781
:103D200001E99C4463868700054563E387000945F4
:103D30006FC04FC2EFC22FBE2E848C418547411108
:103D40001387250063F2E70A7C55368AB2892A89EF
:103D500063E1F502B7A6000029669386C611130633
:103D600046F49305400B37A500001305C51CEF4032
:103D7000503E28550328840054441C4D50403E9822
:103D80007D18B377F8023308F8401C45428742C6D5
:103D90008297AA843248635CA000B7A60000296617
:103DA0009386061C130646F49305800B6DBF01E94C
:103DB000631B0A0003258906A285EFF02FE3268501
:103DC00041016FC08FB8FD5723A0F90058405C44F3
:103DD00014404286CE854A85EFF0DFEB634805004C
:103DE00071D99304C0FAE1BF8144D1BFAA84C1BF95
:103DF000EFC28FB13E89F9572A8AAE84B28A368BD8
:103E00003A8CC28CC6896304F7027C556361F70261
:103E1000B7A60000296693860614130606F69305D6
:103E2000900E37A500001305C51CEF409032032704
:103E30008A06B3073901FD5B584F637DF706B7A6C5
:103E40000000296693868617130606F69305A00ED2
:103E5000C9BF9C406315FC06C8406362A9060327DE
:103E60008A0600572A94637C89043304244163F34F
:103E700089004E84DC443305A940E6853E952286C0
:103E8000EF40B036DC4098442299B307F940A29C39
:103E9000B389894063F3E700BA8703278A069CC485
:103EA00018576399E700DA865686A6855285EFF0A3
:103EB0007FE801E5E39F09F801456FC06FA8638CB7
:103EC0007701B7A6000029669386C619130606F681
:103ED00093057010B9B783278A0623A084019C4FED
:103EE00023A40400B377F902B307F940DCC0D9B7C3
:103EF000EFC26FA2DC419841B68832882E84B28925
:103F0000B6842A86814693050501EFF07FEE2A8963
:103F100011E948442686CE85EF300030544048C42D
:103F2000A69654C04A856FC04FA2EFC2EF9D4111C3
:103F30002A8A32852E84B28B368BEFE01FE55C40F7
:103F400058481159AA976362F704AA840844939ABF
:103F50001B0093DA1A0033C5AA00EF4020642AC67A
:103F600091467000A2855285EFF09FF82A8911EDE5
:103F7000F114814963C80B04A6865A86A28552852E
:103F8000EFF01FF739E1232454014A8541016FC046
:103F90002F9B83274B0003270B0085481308B10094
:103FA000CE97B3863441528681455285EFE0BFF209
:103FB00009ED85461306B100A2855285EFF05FF347
:103FC00009E58509E3E799FC7DBF2A897DBFEFC23A
:103FD0002F96B2862E864C410841EFF01FF56FC038
:103FE0006F97EFC2EF94FD571CC281462A84EFF011
:103FF0007FD40DE528541C4982976351A002B7A6CF
:104000000000296637A500009386061C130646F5B6
:104010009305E00D1305C51CEF40B0136FC08F93DF
:10402000EFC28F8E41112A8AAE8A328BB68B3A8CC0
:104030003E89C2890144A14C6366240101454101C6
:104040006FC00F90B304894063F39C00A144A6881D
:1040500013088100B30784015E87B3068B40568640
:1040600081455285EFE03FE779F903A509002686EF
:104070002C00EF30601A23A0A900269475BFEFC270
:10408000AF883455DC414111984ED44ED107AA84F3
:104090002E8463F3F600B6879309F7FFCE97B3F942
:1040A000E702370B1000814B814A130B0BC0938C36
:1040B0000401B3893741138CC9FE5C4063E83703C0
:1040C00018481440FD573EC413088100B387EA40E6
:1040D00013864A00A6852685EFF09FF4631D05121E
:1040E000A247638D77131305C0FA35A23389F940CF
:1040F00071191307E03F637427011309E03F91072B
:104100003E996375390163732C016289FD57DC8325
:1041100063643907BC54944FDC4F958F63EE2705D9
:104120001840854813087100CA8726868145268570
:10413000EFE07FDA09C59307C0FA631EF50CBC54A3
:1041400014407D579C4F1308C1003AC63E864A87EB
:10415000A68526853EC4EFF0BFEC09C59307C0FADB
:10416000631BF50A370600603400130686C0A2857B
:104170002685EFF09FDB45E1034A71005C4008446F
:10418000134A0A08135A7A00130A0A50B307F9406F
:10419000F117520A336AFA00336A6A013345AA00FA
:1041A000EF40C03F2AC4484411462C00EF30C006FF
:1041B0005C40184048C42AC6A148130881008146C3
:1041C0002686E6852685EFF0BFC231E563970A00B3
:1041D000832A4400832BC400910A9C833707008004
:1041E0002322240193C7F7FFE207F98F33CA47015F
:1041F000FD57232444015CC463783901BC54D8487A
:104200009C57BA97E36BF9EA2686E6852685EFF098
:104210005FDDE30405EA41016FB09FF2144013082B
:104220008100914756871146A6852685EFF05FDF0E
:104230007DF1A247EDD345BDEFB29FEC032EC5063D
:104240005D71832E0600630A0E00130BC0FA63F73C
:10425000CE0F032F46006373CF0F46CE42CC3EC431
:104260003ACA36C8B2892E8491481308010381479F
:10427000768791462A868145AA8402D802DAEFE041
:104280009FC52A8B09C59307C0FA6319F50A03A7CE
:10429000490091481308410381479146268681458C
:1042A0002685EFE05FC32A8B51CD9307C0FA6317D1
:1042B000F5080149931729003387F900184313497A
:1042C00019000A0918C0CA9903A709007D5B2326B3
:1042D000040058C09808BA9783A707FEFD5B370C07
:1042E00000801CC489473EC0B7071000938707C0F1
:1042F0003EC61146930584007D555EDC5EDEEF20F0
:10430000B0712AD2DA8C02C2814D014A7D5D814AA8
:104310006A85EFE09FA7B4541840AA9AD44E9148FA
:1043200013088102D687268681452685EFE0BFBA2D
:104330000DC19307C0FA6302F5222A8B5A85616189
:104340006FB0DFDF5259C2573309F94033292001DA
:1043500095B7125511462C10EF20106C2AD2225519
:10436000EF40C023B349AD004ED463DD090293573B
:104370004D0193F70778938707B093B71700584418
:10438000631F071C9C08CA971840544083A707FE68
:10439000024614C01CC458C085476306F6268547EC
:1043A0003EC081BF4E85EFE05F9EBC54D04FB30747
:1043B00055016364F61A13D74901137707789307F9
:1043C00000501440138D4A006312F7063687914857
:1043D000B2861308C102EA87268681452685EFE06A
:1043E0009FAF21F9325792576319F716A257C85455
:1043F0001146D183FE074C10B3C9F900EF20D061FC
:10440000C8D42255EFE07F98E257569548C41CCC9B
:10441000F25723283401231A44015CCCA30BB401C6
:104420005ED2E687668B4E8DBE8CDDB59307C5FFE9
:10443000130841026A87A6852685EFF07FBEE31A3E
:1044400005EEA25793D64701139606014182937554
:1044500006708DEDA98393F7F73F63E44701138A54
:104460001700A255D2474247AD8FF98F89EF1C4004
:104470007245B000BEC4E247EAC68297E34B05EA44
:10448000A25655E1B68CE687DA8C69BF1307004067
:104490006391E5043247E206E186369A33F7EC0091
:1044A0003706F04F420A518F135A0A016395E7000D
:1044B000B3EC8C017DB7E3867CFBA98313D7AC00FA
:1044C00093F7F73F1377F73FE36DF7F8AA06B69C2B
:1044D00049BF9307006018406391F50293FD1600F1
:1044E000B454A14813088103D44EEA872686814537
:1044F0002685EFE05F9E35D52DBD1376F67F9307B9
:10450000F05FE310F6F6B454A14813080104D44E4A
:10451000EA87268681452685EFE0FF9BE31B05E0C1
:1045200085473EC23DBF37070080B3C7DC00134755
:1045300007C0F98F8DC38947E317F5F413D7AC0093
:1045400093D7A6001377F73F93F7F73FE36DF7F2A2
:10455000B3EC86010DBFFD5C3DB781470DB5230B64
:10456000040095CFB0541C4EB377F7028DEB924701
:104570009DC7FD573ED614408647504E1308C102D2
:10458000A6852685EFF0DFA909C59307C0FAE316D3
:10459000F5DA96473257998F93B717007CA8A28512
:1045A0001385C403EFE0DF8219CDDC5C1357AB0049
:1045B0001377F73FA98393F7F73F631EF702B70717
:1045C0000080336BFB00A24799CB5A289357AB006E
:1045D00093F7F73F6373F700BA8722471EA3E35FA1
:1045E0000BD45A281353AB009377F33F795BE3E77F
:1045F000E7D4014BA1B3FD56E307DBFCE3F5E7FC91
:10460000130B0BC0C9B7B7B70000B7A5000037A59B
:104610000000938707D9130670569385C51C1305B0
:104620004527EF40304A130BC0FA09BBEFB25FB029
:104630008148014881477D57FD56EFF0FFBF6FB0BD
:104640007FB1EFB2FFAB1C51832C060001119CCD52
:104650005C51DCCD03870C0055CBB7073000370722
:104660000020938A07C09307870036C432C22E8485
:10467000AA8437AA000037AB0000938B85013EC0A7
:1046800013DC4A0109476318EC00668593050A2B81
:10469000EF40705CAA9C93050A2B6685EF40B058EA
:1046A00005472A89631AE50483C60C001307E00254
:1046B00093891C006382E608B3892C014E87854DDF
:1046C00093050A2B3A853AC6EF40F05832479305D6
:1046D0000A2B330DA7006A85EF40F0542A882DC1BC
:1046E0008547631AF50203460D009307E00263173E
:1046F000F60433070D01E9B70947E31FE5FA094658
:104700009305CB2A6685EF40002C5DF5A95A5685A6
:1047100005616FB0BFA289476312F5022AC6094638
:104720009305CB2A6A85EF40002A324801E9FD1D36
:10473000E3910DFC93092D00CE8C99B7850D55BFE3
:1047400003870C0069D79247094723A09701631399
:10475000EC0693D7AA0093F7F73F1307F03F638166
:10476000E7028246AA07370610705E87DD8E1306C1
:1047700006C0A2852685EFE0FFA7AA8AE34905F8CF
:10478000B74700001388C7CFA247930841014A8763
:10479000B70600785E86A285268526CA66CC4ACEF4
:1047A000EFF09FA9AA8AE34405F659F57C38E9FBA6
:1047B000F95AB1BFB15AA1BFEFB29F9737A9000014
:1047C0009305092B2A84EF401046AA849305092BF0
:1047D0002295EF4050482295269503050500133594
:1047E00015006FB03F97184D9C41D4416315F700F9
:1047F000504D6307D6026315D700544D6382D7022C
:10480000D4459C456399D70098C1584D860723A489
:104810000500D8C1DCC59C45014585079CC5828043
:10482000EFB21F91B7B600000566B7A5000037B517
:104830000000938606D9130646179385C51C1305F9
:1048400045E6EF4030281305C0FA6FB0BF90EFB2D5
:104850009F8C01118547AE8AA9653284232C0600FE
:104860005CCE2A8A4146938545DF0808B7040020BC
:104870003709F07FEF40601793098401373B000050
:10488000A1041309F93F4E85EFE08FCC19C179558A
:1048900035A80C082285EFF01FF56349050283A7B0
:1048A0000A00930841001308CB233EC483A74A00A3
:1048B0002687CA863EC64E868147A285528552C249
:1048C000EFF09F9793072500F59BD5DF05616FB04B
:1048D000DF87EFB25F8441118547AE89A9653284D5
:1048E000232C06005CCE2A894146938545DF0A8544
:1048F000EF40A00F930484012685EFE06FC519C136
:10490000795515A08A852285EFF0FFED63400502F9
:10491000CE852685EFE02FC519C52686A2854A8556
:10492000EFF0DFD071D941016FB03F821305C0FABB
:10493000DDBFEFB2EFFCDC5903A9C50263FE270D12
:104940003309F940AA8A2E84B28963F32601368995
:10495000CA8D130A0404795B930BC403130C8403FC
:10496000930C8400370D102063940D004A8515A820
:104970001C581397D7006358070003A78A06545C96
:10498000584F639AE6029396B700585863CD0600D5
:10499000545410545E88E287D2855685EFE0DFEEEE
:1049A00011C56FB0AFF9232C640358DC1C583707CE
:1049B0000400D98F1CD883A78A06D44F5C5CB384CB
:1049C000F64063F39D00EE8418581316B700635C3D
:1049D00006025A20338697002A073367A70163EF40
:1049E000C602A6884E885286E6855685EFE03FF3DC
:1049F0004DF95C58A699B38D9D40A6975CD85C5C38
:104A0000A6975CDC95B7185CA6884E8852868145CF
:104A10005685EFE04FCCE9BF014561B71305C0FAF9
:104A200049B7EFB26FEE3971AA842E89B2898145F8
:104A300071460810368BEFB0AFF2A9658547414645
:104A4000938545DF0808370A0020B70A10703EDE5C
:104A5000210AEF309079938A0AC02818EFE04FAF0F
:104A600009CD8054054AB70A1100416BB70B1200FB
:104A7000370C020045E00145BDA80C080810EFF016
:104A80009FD66342050EE2554E8502992DE5F255FB
:104A90004E8502992DE130180C102685EFF01FB9D4
:104AA00039E90144930B2020130C0020F95C835753
:104AB0004103E374F4FA9316A4003800B3E6460108
:104AC00056860C102685EFE0EFF26358050063145C
:104AD0009503050442044180D9BF518163107503D9
:104AE000324765DBA2464E88CA87268681452685E1
:104AF000EFE01FD279DD21616FB08FE4E30B0BFC97
:104B0000E31985FDA2454E85029975F5B2454E859E
:104B10000299CDB77C20638447010040A1BF1C5897
:104B2000B3F7FA00638467031C58B3F7FB00E396FE
:104B300087FF58587DD3145C4E88CA872686930514
:104B400004042685EFE0DFCC69D975B7585469DFD6
:104B500014544E88CA872686930504042685EFE000
:104B60003FCB79D149BF1305C0FA71B7EFB24FDC23
:104B7000784D7C49232E05042A84BA977855B3F7DB
:104B8000E70238517CC93C55D05793173600637300
:104B9000F700BA87685081453CCCEFB06FDCB73581
:104BA000000085462286938505E02285EFF07FE7A9
:104BB00019C57C54232C0404232E04043CD06FB06C
:104BC0006FD9EFB2EFD641112A84384C744C63EDA3
:104BD000E6023C50C9E77C4837B70000B7A50000A3
:104BE000BE967C5437A50000130707D9B3F6F6022A
:104BF0001306002C9385C51C1305050FEF40806C30
:104C0000115541016FB00FD5705093D7360013F591
:104C10007600B2979C23B3D7A700858B9DEB7C4889
:104C2000BE967C54B3F6F60294C1344C7C4C38509A
:104C300085077D177CCC38D063FBD70013D73700AE
:104C4000329718239D8BB357F700858BE5F3014509
:104C50004DBF3C50850674CCFD173CD085BF2285E6
:104C60002EC6EFF0BFF0B2452DD161BFEFB24FCCF1
:104C70002E8491052A89EFF0DFF4AA842DE1A28524
:104C80004A85EFF01FF4AA8439E918402324040070
:104C9000914813088400814791464A8681454A8598
:104CA000EFE06FA309C59307C0FA631DF5028327E0
:104CB0008906DC53635DF0001844850793E717000D
:104CC0007D173E97B377F702B307F7401CC49147AF
:104CD0005CC4FD571CC8232A04001CCC5CCC268570
:104CE0006FB04FC7AA84E5BFEFB20FC241112A844B
:104CF000AE84138A0504938A8500130B05016C00AA
:104D00002285EFF01FECAA8919E9B2452285EFE070
:104D10008FE2AA8969C19307C0FA6302F50C4E8538
:104D200041016FB0EFC19C58B38626411397B7007D
:104D3000635807043054DA2093071900504E2A07AD
:104D4000336777016366F60885481308B100CA87A0
:104D50005286D6852285EFE09FBC0DE1324785481B
:104D60001308B100CA8785462286DA852285EFF0CE
:104D70002F8815C19307C0FA6303F506AA8945B7C2
:104D8000985C85481308B100CA872286D28522859F
:104D9000EFE06F94D9B70509D45CE366D9F83C54C9
:104DA0004C4CE8449057EF3050441C48285493052D
:104DB0000401BCC05C48FCC01C4CBCC4EFE00FE369
:104DC000B247370702009CDC9C58D98F9CD881BF22
:104DD0001305C0FA65B70149B70B102075BFB2467D
:104DE00037B700000566B7A5000037A50000130718
:104DF00007D9130606D09385C51C1305454EEF4011
:104E0000604CFD571CC8E5BDEFB20FB0BE893C55E4
:104E1000BA8B9845DC531D712A84AE84B28A368BD6
:104E2000428A05076340F00698C50149014C385491
:104E3000FD57CC40BEC8BECA7C47AEC482C682CC39
:104E4000BDC7E1172285BECEEFE0EFCE3DC193078F
:104E5000C0FA6311F51AFD571CC86313091AD44030
:104E600037B700000566B7A5000037A50000130797
:104E700007D9130646839385C51C1305454EEF409D
:104E80006044BDAA850793E71700B377F70298C57A
:104E9000C9FF85474C10268502D23ED4EFD0BFEC27
:104EA000631D0514054959B70149054C49B75C4FC5
:104EB00049BF930C8104914613868400E6852285C0
:104EC000EFF00F8349F57C103EC6B747000093878B
:104ED000E7FC3EC4B3073041C207C1873708104022
:104EE0003EC252C0CE88130808C0DA875687FD56E6
:104EF0000146DE85228522D666D8EFE01FAD21F976
:104F000093868401368536CEEFD09FE4F24619EDC4
:104F1000FC3837061000130686C093870760D20757
:104F20005D8EE6852285EFF04F8015F102DE82C0AE
:104F300082C2631C0C009305C4036818EFD05FE6BF
:104F4000930504036818EFD0BFE59305840468183F
:104F5000EFD01FE5F2577018A68593F707C022859A
:104F60003EDEEFE06FAA59E56818EFD01FE501EDCE
:104F70003706008074181346C6C0E6852285EFE028
:104F8000DFFAE31605ECE6852285EFF04F8FE3109C
:104F900005EC3C5436479C4FB377F7028DC3B7A658
:104FA00000002966856537A5000093864621130613
:104FB00046FA938525821305C51CEF3090199C4055
:104FC000D440B3093A41DCC0C64794C0239A3401A7
:104FD000D8C49CC8232404042326040423280404DE
:104FE00063190C003146930504031305C403EF3025
:104FF000D01F628525616FB0AF94FD571CC805496D
:1050000085474C18268502DA3EDCEFD0DFD50DE56A
:10501000D44037B700000566B7A5000037A50000EB
:10502000130707D91306A6839385C51C1305C5234B
:10503000EF40402911557DBF938544002285EFF054
:105040005FB8E30305E69157E316F5FAE30409FABE
:105050004A8C0149E9BBEFB20F8C79712E840C08A0
:10506000AA8432C636C43AC2BE8A42C0EFF01FC01C
:105070002A8939E57C3802481247A303F1021C4C07
:10508000A24632463ED45C4C0C0826853ED6D687D6
:10509000EFF09FD7634A0502424AD2498547232C45
:1050A0004401232E34017CB8938504022285EFD07D
:1050B0009FCB19E563960A0023A0440323A234037F
:1050C0004A8545616FB06F882A89DDBFEFB24F8690
:1050D0004111B7350000814670009385C5EC02C6CA
:1050E000EFF03F9411E1324541016FB0AF86EFB26E
:1050F0002F812A8913153700328B5D71AE84B689F2
:105100003A8A36863695014813031040130EF04F45
:10511000930E0060DA28631FC512631D0818FC286F
:10512000639D071C83DB4401FD57373C0000B70C2F
:1051300010402328F900054D930D8103130C4CEB0F
:10514000938C0CC0814A33835B41636D6D2E638702
:105150000A04C20A93DA0A015E88D6872687D286B5
:105160004E86A6854A85EFF01FEF2A84630A052C38
:105170009157631EF50CD8409440B7B70000056600
:10518000B7A5000037A50000938707D91306E68866
:105190009385C51C1305053BEF40C0128327890684
:1051A000DC53635CF0089844850793E71700050714
:1051B000B377F702D9E385472C18268502DC3EDE5B
:1051C000EFD07FBA3DE94A85EFF05FF02A84634D66
:1051D00005108327C9063384A7408D8363FF8704A6
:1051E0009444B7BC0000056CB7AA000037A50000C6
:1051F00013870CD913063C8A9385CA1C1305053EF8
:10520000EF40400C5E8881472687D2864E86A68571
:105210004A85EFF05FE42A84630F052891576318ED
:10522000F50237A5000093860CD91306DC8A938516
:10523000CA1C13050541EF40E0085E8881472687B8
:10524000D2864E86A6854A85EFF01FBC2A84635F0E
:10525000041A59A81442D18293950601C18193F88A
:10526000F57F639668000507DAA8210665B56397A0
:10527000C8030DE3B7A600002966856593868639C5
:10528000130646FB9385658C37A500001305C51CE6
:10529000EF30206C7D17DAA80548C1BF93F5057083
:1052A000E395D5FD5842858A0C438CCC5843F4B81D
:1052B000D8CC65BFE31507E681EFB7A600002966E5
:1052C00085659386863A130646FB9385358D6DBFBB
:1052D0003E86A6854A853ECCEFF0AFDF2A84E247C2
:1052E00001C9F957E30DF5E2228561616FA01FE561
:1052F000FC3BE38607E2094411AADA289307E00F92
:10530000E3E2E7E29C4003278906D0443EDC944870
:10531000FD57BEC27C4732DEB6C0B2C4B1C3E1178E
:10532000BEC65C103EC6B74700009387E7FC3EC48C
:10533000930A810302C202C081480148D2874E8786
:10534000A6854A854AD256D4EFE02FE82A8419C9A7
:105350009157E309F4DC9307C0FAE317F4F8D9B3E3
:105360005C4F75BF130C0903E285681002D602D8A2
:1053700002DA930BC903EFD0BFA2DE856810EFD02D
:105380003FA2681093058904EFD09FA1B25768101F
:1053900093F707C03ED6EFD05FA21DE17010A6853F
:1053A0004A85EFD07FE62A8421F137060080741009
:1053B0001346C6C0D6854A85EFE03FB72A8449F92F
:1053C000D6854A85EFE0BFCB2A8459F18327890629
:1053D00072579C4FB377F70281CFB7A600002966BA
:1053E000856593864621130646FB9385D59169BD55
:1053F0008647D8C431469CC8E2855E85EF30E05EC2
:1054000023240904232609042328090483270B00E5
:10541000832C8902130D10403ED683274B00894B05
:10542000930D09023ED8E3810CEC938A8C006C103A
:105430005685EFD05F932A8C49C183AC0C00E5B749
:10544000D68B09B393980A0193D80801B30710418A
:10545000C207C1873EC26EC662C45EC06688D2877C
:105460004E87FD560146A6854A851ACC02DCEFE040
:10547000CFD52A84E31D05DC832789066243130EFA
:10548000E00FF84711E3D84F63636E02944F135651
:105490001700130787FD9387F6FFB297B3F6D7027D
:1054A000958F6373F700BA876257E3F2E7CA135325
:1054B00013009A9A49B9854B49B3A6851306000291
:1054C0005685EF308052FD55639B6A07138C0C02A2
:1054D00003D74C0083D6CC01E361D7F603C6FC01A9
:1054E00029DEEE85628536CE3ACCEFD0DF8711C556
:1054F0006247F246158F2392EC006286D6854A8574
:10550000EFF0CF9271D52A84C5B313173C004E97A4
:1055100018439307F04F135647011376F67F631431
:10552000F60429831377F73F6310D70203C76C0093
:105530006306770123A4BC0023A6BC00050C83D618
:105540004C00E3144CFD59B7E37AD7FE03C76C0057
:10555000FD162392DC00E31377FF03A78C027D176F
:1055600023A4EC02E1BFE31BA6FD29831377F73FD9
:10557000E3E6E6FC03C76C0085062392DC00E31F2C
:1055800077FB03A78C020507E1BFEFA27FB79C5909
:1055900001112A8C1397B700AE8C328AB6896350FA
:1055A0000704D859D455B307370163F3D700B6873A
:1055B0008326CC0763F5F6028327CC0623AEEC02E4
:1055C000E6852320FC066285EFF00FF283A70C032B
:1055D0003DE13707F0FF7D17F98F23A8FC024E84C9
:1055E00019E04E85B1A883A60C03B7070200938487
:1055F0000C04F58F81CB03278C0603A6CC03584FF0
:105600006316E60C1396B60003A74C036346061C0C
:10561000A1E31DCF83A6CC0203A68C0213080101CF
:1056200093878C037D17A685628502C8EFE0CFA51E
:1056300019C983A70C0337070800D98F23A8FC02D8
:1056400005616FA0BFAF03258C06A685EFD01FDADA
:105650008327CC0603AB4C0383AA8C032320FC06D0
:10566000930DFBFF4C086285EFF0AFD579F1D24581
:105670006285EFD05FCC1DC99307C0FAE31BF5FA32
:10568000B7B70000138707D9D246B7A700009385A4
:10569000C71C0566B7A700001385474E130646BC16
:1056A000EF305042FD5723A0FC046DBF03258C064C
:1056B00063110B06D24723AE0C0223ACFC0283A776
:1056C0000C0337070200D98F23A8FC0283278C061E
:1056D00003A9C70183A7CC033309F94063732401ED
:1056E0002289930AC0FA83A7CC0303A78C03CA8834
:1056F000528885466286A6856285EFE06FEF630378
:10570000050EE31855F3E6856285EFF0EFDD61DD08
:105710000DB72C086ECCEFE02F8B03278C06E247E9
:105720000149584F85073ECC6392E7080505EF20F5
:10573000305CAA8B1309150056CE014D5247131F3A
:105740002D00FA8791481308C10185466286A68517
:1057500062857AC6EFE0CFE9324F19FD6391AB075E
:10576000050DE36D2DFDD2470A0923AE2C0323ACB2
:10577000FC02B1B785481308C101CA875687B386B2
:105780002641628681456285EFD0EFF4E31305EA96
:10579000524785481308C101CA8785466286A68597
:1057A0006285EFE0EFE4E31905EC0509E246E36307
:1057B000D9FCD24723AEDC0223ACFC0209B7724706
:1057C00091481308C101FA87914662868145628536
:1057D000EFD06FF051D5B1BDF95723ACFC0223AE29
:1057E000EC02F1BD83A74C034A9A33042441CA97C3
:1057F00023AAFC0283A7CC03CA9723AEFC0283270B
:10580000CC062320FC06E9BBEFA21F909C591D711A
:10581000AA841397D700635D07001397B70063440A
:1058200007007D57B8C13707FCFF7D17F98F9CD95A
:105830009C5901451397E700635807081397B70071
:105840002E8403A9450383A9C502634B070A1306E7
:10585000400581456800EFA0BF901C544146A685D5
:105860003EDAE80085474EDC3EDECAC0EF30E01786
:10587000FD579CC0FD5958585C54636AF70485690C
:10588000930B0404130CC0FA37BB00009389F9D4BE
:10589000B7AA000037AA000085462686DE85268541
:1058A000EFE04FC93DC163118503145C9385CA1CA9
:1058B00013070BD94E8613054A4EEF30B020A28550
:1058C0002685EFF06FC269D925616FA07F87854675
:1058D0001306B1006C002685EFF0AF85E34605FEA8
:1058E00085461306B100A2852685EFF01FCAE34D59
:1058F00005FC9C40E38137F9CEC623A03401A5BF47
:10590000CA8763733901CE875CD81C5C01777D1729
:105910001CD45C580145232A24035CD41C58F98FFD
:105920004167D98F1CD84DB7EFA2EFFE41112A89EC
:10593000DC59328495C605473304F6006382E602DB
:1059400009473E84639EE6009459D8551395E600B6
:105950003A84635605003E8463F3E7003A84329448
:10596000032749072955636587006316F4002285DC
:1059700041016FA08FFD9859AE849316D70063D074
:10598000060403258906D45D584D638AE6022C007F
:105990003EC4EFD07FE3AA89032589066C0022C6A6
:1059A000EFD09FE2639DA900FC4032476369F70096
:1059B000B444B6976375F700C0D8D8DC4DBFA68550
:1059C0004A85EFF07FE44DF5C0D855B7EFA24FF30D
:1059D00083298502370AF0FF19712A842E89B28A39
:1059E000368B854B7D1A6395090C832709001306B6
:1059F0000002CA853EC48327490088003EC6EF20C6
:105A0000D07E9C105A87D6864A868C002285EFF07D
:105A10000FEEAA84634105102C004A85EFD0AFB485
:105A200019E5130600028C004A85EF20107C894797
:105A3000639CF40413068404CA852285EFD0CFFC4E
:105A4000AA8471E9865737071000130787C03EC440
:105A50009657610914083EC68347F9FF30008C1041
:105A600093870760D207D98F3EC8054781472285B3
:105A70004ACAEFF0CFE7AA84634F05081306000275
:105A80008C108800EF207076268D814A37BA00008E
:105A9000B7A90000B7AB000037AB0000130C04023D
:105AA00085476313FD2CB70C0080938CFC3FB1AA93
:105AB000138589006315250183A909002DB7CA85BF
:105AC000EFD06FAA75F983C76900E39777FF83A7C3
:105AD00009031397B700E35107FE3C5403A7C9021B
