:040000006F70A05C21
:100004000000000000000000E6720000E87200003A
:1000140000000000C875000000000000000000009F
:10002400C8750000C8750000000000000000000052
:10003400C875000000000000C87500000000000042
:10004400C8750000C8750000C8750000C8750000B8
:10005400C8750000C8750000F87200000273000043
:100064000C7300001673000020730000C8750000B4
:10007400C8750000C8750000C8750000C875000088
:10008400C8750000C8750000C8750000C875000078
:10009400C8750000C8750000C87500002A73000008
:1000A400C8750000C8750000C8750000C875000058
:1000B400C8750000C8750000C8750000C875000048
:1000C400C8750000C8750000C8750000C875000038
:1000D400C8750000C8750000C8750000C875000028
:1000E40056730000C8750000C875000016130000A0
:0C00F400C8750000C8750000C875000049
:10010000397101436EC619A0397141536AC866CA74
:1001100062CC5ECE19A0397101535AD056D252D456
:100120004ED64AD826DA22DC06DE330161408282CE
:1001300041114AC026C222C406C68282B24D410184
:10014000024D924C224CB24B4101024B924A224A40
:10015000B2494101024992442244B24041018280A5
:100160003D432A876373C3029377F700BDEFADE584
:10017000937606FF3D8ABA960CC34CC30CC74CC796
:100180004107E36BD7FE11E28280B306C3408A06C3
:100190009702000096966780A6002307B700A30683
:1001A000B7002306B700A305B7002305B700A304D3
:1001B000B7002304B700A303B7002303B700A302CB
:1001C000B7002302B700A301B7002301B700A300C3
:1001D000B7002300B700828093F5F50F9396850052
:1001E000D58D93960501D58D61B79396270097021B
:1001F000000096968682E78086FA9680C1171D8F4A
:100200003E96E374C3F8A5B7EFF2FFF0130101DAED
:10021000EF00D02513079009630CE55E6363A71612
:10022000130770076306E54C636DA7065947630023
:10023000E53A6369A7020947630EE53A636AA700D6
:10024000630A054C05476303E53413010126F5BD38
:1002500051476308E5365547E319E5FEEF001021E5
:10026000D1459DA67947630DE536636DA7005D47CF
:100270006303E5366147E31AE5FCEF00301F9305A1
:10028000800299A67D476302E53613070002E31E4C
:10029000E5FAEF00B01DEF10706F2320A116854521
:1002A00029AE1307D008630FE546636BA704130755
:1002B000A007630DE544636EA70013078007630D75
:1002C000E54213079007E312E5F8EF00301A814585
:1002D000E5AC1307B0076302E5441307C008E31653
:1002E000E5F6EF00B018AA84EF0050182A84D14533
:1002F0002685EF105063D1452285EF10D062B1B74B
:10030000130700096305E54A6360A7061307E008C1
:10031000630BE5441307F008E319E5F2EF0010154D
:100320002A89EF00B014AA89EF0050142A84B70478
:100330000020EF001015AA852AD01385C40EEF0007
:100340009010EF00B0122ACEEF00B013F247025720
:10035000131614002A889386C40E1376E60FCE85F2
:100360004A85EF20800DD5B513077009630EE54A65
:1003700013078009E31BE5ECEF00500FEF20E0547A
:10038000E9B51307B00E630CE558636AA7101307AD
:10039000600B6306E54E6365A7061307A00A630DAD
:1003A000E548636DA7021307A0096302E548130738
:1003B000000AE31CE5E8EF00700B2A84EF00700CE4
:1003C000AA84EF00100C37060020AA861306C60E7A
:1003D00093F5F40F2285EF20605685BD1307400B7F
:1003E0006305E5481307500BE311E5E6EF0010083D
:1003F00085473395A70042054181EF20A029B1B57B
:100400001307F00B6302E54A6368A7021307700B3A
:100410006302E5481307E00BE319E5E2EF0010057E
:100420002A84EF00B0042ACEEF005004F2452A8659
:100430002285EF20700111BD1307000C6303E54A0C
:100440001307100CE313E5E0EF005002AA89EF0058
:10045000F0012A8AEF0090012AD2EF0030012AD061
:10046000EF003002371900202ACEEF0090012A84D5
:10047000AA851305C9AEEF00007D72478256125659
:10048000B7040020D2854E85A2881388C40E930736
:10049000C9AEEF20B004A2851385C40E05A21307D0
:1004A000200F630BE54C636AA7061307F00E630386
:1004B000E54A6368A7021307C00E630CE5461307FD
:1004C000E00EE314E5D8370400201305C40EEF0056
:1004D000407EEF00007BAA851305C40EEF101020AC
:1004E00015AC1307000F630BE5461307100FE31E4F
:1004F000E5D4EF000079AA8437040020EF0060788B
:10050000AA852ACE1305C40EEF00E0737246930548
:10051000C40E2685EF105026F5AA1307500F63006E
:10052000E5486365A7021307300F6302E54613072A
:10053000400FE31CE5D0370400201305C40EEF0084
:1005400040771305C40EEF10F02AE9A21307600FDD
:100550006301E5461307700FE319E5CEEF00607203
:10056000EF109031EF00006A373400200345C4B823
:100570001304C4B8EF0000694840EF00A0683735A5
:100580000020130545B9EF00C06AC1B1B7A500004E
:10059000938505BD55468812EF80C0218147B7F588
:1005A000FF1F31473386F5000346867E9412BE96C0
:1005B00090A28507E398E7FED1458812EF004062DC
:1005C00069B1EF00A06AC145EF10D03ABDB9EF00A4
:1005D000E0699145D5BFEF00606993058004EDB7F0
:1005E000EF00C068EF10B03F8DB1EF002068EF1052
:1005F0009042A1B93704002002DC02DEEF006068FF
:10060000AA85AA841305C40EEF00E063A68513052E
:10061000C40EEF00D02B19C98147130700029400C4
:10062000BE96238006008507E39BE7FEA68513059B
:10063000C40EEF00102711C5930500028800EF00DB
:100640008060A6851305C40EEF00302B09C9EF00AA
:1006500040632ADC930500108810EF00C05EA68579
:100660001305C40EEF00D02B19C9814713070010E2
:100670009412BE96238006008507E39BE7FE1308CD
:10068000C1033C189812941026868C001305C40EE2
:10069000EF00C063A6851305C40EEF005023333965
:1006A000A000A6851305C40E1609EF00702719C116
:1006B000130949104A85EF00E0540945EF008054C2
:1006C000A6851305C40EEF00902011C59305000206
:1006D0008800EF00E050A6851305C40EEF005024FB
:1006E000E30505B67255EF00E05193050010F1B532
:1006F000EF00C057E145C9BDEF0040572A84EF0025
:10070000E056AA852285EF20403581B6EF000056DD
:10071000EF10E05BEF00004F0DBEEF002055EF2023
:100720002060CDBFEF008054AA89EF0020542A8AB0
:10073000EF002055AA8A0544130900089374F40FAA
:10074000D6862686D2854E85EF10D04B19C58545B5
:10075000881223009116EF00A0480504E31024FF3F
:10076000230001162DBEEF0060502A89EF000050D3
:100770002AD0EF00A04F2A84EF00A050AA84EF00F7
:10078000E04E2ACEEF00E04FF247825513161400D8
:10079000370400202A8826879306C40E1376E60FB6
:1007A0004A85EF10D04EA6851305C40E01BDEF009B
:1007B000E04BAA89EF00804B2A8AEF00204B2A8465
:1007C00037090020EF00E04BAA852AD01305C90E97
:1007D000EF006047EF00E04AAA84EF0020492ACEEC
:1007E000EF00204AF2480257131614003714002075
:1007F0002AC0D2854E8526889307C4AE9306C90EBB
:100800001376E60FEF10304EA6851305C4AE7DB308
:10081000EF00C0452A84EF00C04693150501C18151
:100820002285EF20E00415B4EF20800839BCEF00EA
:100830004045EF20800A11BCEF004043AA843704F2
:100840000020EF000044AA852ACE1305C40EEF0055
:10085000803F054533159500724642059305C40E49
:100860004181EF10705A6FF05F9EEF002040854786
:100870003395A70042054181EF10B05D61BDEF00E7
:10088000E03E85473395A70042054181EF10106394
:100890006FF0BF9BEF00803D85473395A700420571
:1008A0004181EF103064BDB5D1262A89C1262AD6F0
:1008B000752E2AD4652E2AD2552E2AD0EF00603C00
:1008C0002ACEC126F247025792562256B255370415
:1008D0000020AA84AA881308C40E4A85EF20403954
:1008E000D9B56926AA8459262A8949262AD4BD2E33
:1008F0002AD2412E370400202AD06126AA852ACE8A
:100900001305C40E89267248025792562256930741
:10091000C40ECA852685EF2060396FF01F93370417
:1009200000201305C40E71261305C40EEF102058C5
:10093000D5B3370400201305C40EA52EB71400202C
:100940001385C4AEBD269385C4AE1305C40EEF1047
:100950006057C9B33D26EF10C05C6DBB1D262A89C8
:1009600037040020392E2A86AA849305C40E4A85AE
:10097000EF10E05D412C05BD29262A8419262ACED8
:100980000926F2452A862285EF10A06161B3D52C95
:100990002A84C52CAA852285EF104063A5BB3704A5
:1009A00000201305C40E31261305C40EEF10E065B8
:1009B00095B3C12CEF108069B1BBB717014003A5F7
:1009C00087C0218105898280EFF28FF6FD3705C14E
:1009D000B7170140938707C09C4793F7072081CB47
:1009E00037170140832787C093F70720E5FFF137CA
:1009F0007DFD6FF02FF6EFF2AFF3B7140140753FB6
:100A00007DDD03A484C025800588453F6DD983A77B
:100A100084C0A583858BE30AF4FE6FF0AFF3EFF299
:100A20002FF1613F7DDDB717014003A487C0B714E4
:100A3000014025800588513711E5131504014181D6
:100A40006FF04FF183A784C0A583858BE305F4FE87
:100A500041657D15F5B7EFF2AFEDD137C167FD17F1
:100A60002A846300F5041374F50F9D44060413747F
:100A7000F40F7537498CFD141374F40FE5F8B717AC
:100A800001401307002023AAE7C0053F7DDD35376D
:100A90007DFDB717014013070020420423A8E7C0DB
:100AA000418022856FF00FEBEFF28FE82A84371533
:100AB0000140130505C0930700201CC993070010CF
:100AC00041111CC9D1473EC68D473EC44C00930717
:100AD00000307C82EF60706E2380818241016FF074
:100AE0006FE7EFF24FE341642A8AAE897D14E93D56
:100AF0009D37E30E85FE83C7018286076317F502E3
:100B0000416901447D19A28463153401ED35CE8419
:100B100029A0913763162501F93D26856FF0EFE294
:100B2000B3078A0088A30504F9BFF135C9B7EFF20E
:100B3000AFDD4164AA8A2E8A7D147935293FE30E00
:100B400085FE83C70182860793E717006313F506C6
:100B50008144B71B01409309002026896395440115
:100B6000593D52893DA8B3879A008023214B9317A2
:100B70008401E18713870BC063D80702232837015C
:100B80002D3D7DDD1D3D7DFD06047D1B1374F40FA1
:100B9000E31F0BFC23A83BC159351375F50F01C9A1
:100BA000993D4A856FF0CFD9232A3701D1BF8504FB
:100BB0006DB7913559B7EFF2AFD723A2A1820547A0
:100BC000631AE5004123EF005055EF00305775DD03
:100BD0006FF04FD80947E31DE5FE2E85F135CDBFF7
:100BE000EFF20FD583A7418285466398D700C205EF
:100BF000C181EF0010786FF0EFD50947E39DE7FE64
:100C00003D37D5BFEFF2CFD241112AC691456800DA
:100C1000C13F41016FF00FD4EFF28FD141112A840F
:100C20002E852EC6C537B24522855D3F41016FF046
:100C30006FD2EFF2EFCF2A84EF80605DAA85228524
:100C4000E13F6FF02FD1EFF2AFCE83A7418205468F
:100C50006399C7002E87AA853A85EF00F05E6FF092
:100C60006FCF0947E39DE7FEAD3DD5BFEFF24FCC17
:100C700041111305F1008545F937888741016FF06F
:100C80006FCDEFF2EFCA4111680091456D3F3245DB
:100C900041016FF02FCCEFF2AFC941112A842EC66B
:100CA000CD37B24588C1AA852285713F41016FF0D9
:100CB0006FCAEFF2EFC741116C002A84E93FB247D7
:100CC0003E942300040041016FF0CFC8EFF24FC300
:100CD0005D712AC42E84B68A3A8BBE8942898144CA
:100CE000014DDD4B130C1002930C3002930D4002AA
:100CF000A2473D461305F00F3387A7011423FD4596
:100D000061486380C62A6366D60A1D466385C61499
:100D10006360D6060D46638DC61E636FD60005461A
:100D200093074D006382C6126375D61236233717B8
:100D30000140232AD78031AA15466385C61A637BF2
:100D4000D61E34232833054A36C6EF702041B246FA
:100D5000331ADA00B716014003A7868033774701BC
:100D600063110712EF70A040B716014075D511AAA4
:100D70002D466389C626636BD60025466380C6264A
:100D80006370D6122A23EF7020316DA83716014008
:100D9000B54593074D00130606806382B61C63F0C9
:100DA000D51E3823544622971823C19A558F58C60A
:100DB0004DA06386762163E4DB044D466380C6085C
:100DC0006361D6024546110D930580026387C60014
:100DD00091456374D600930580042823EF10A03456
:100DE00001BF55466384C620D145637AD604FD14FD
:100DF000939724009808BA9703AD07FCD5BD638785
:100E000086216362DC02638FB61E63EDD522E39A0E
:100E100006EFB71601409386068094463823A182D8
:100E2000229714A305A06389962363EF9625638018
:100E3000B61BE398A6EC61616FF04FB0C145282363
:100E4000EF10602E110D6DB53623371701402328A2
:100E5000D7803E8D71BD2833034A2700EF700030E4
:100E60000547331A4701B716014003A78680337739
:100E7000470119EBB716014003A786803377EA00D4
:100E800011CBEF70602F7DBFEF70602EB716014061
:100E900069DDCDB7EF70A02DB716014071DDD5B774
:100EA0002833034A2700EF70602B0547331A4701A8
:100EB000B716014003A786803377470111CFB716D5
:100EC000014003A786803377EA0045DFEF70202AD0
:100ED000B71601407DD575B7EF706029B716014090
:100EE00071D9F1BF34232833054A36C6EF70002785
:100EF000B246331ADA00B716014003A7868033776B
:100F0000470141D3EF70A026B71601407DD595BFAC
:100F1000B716014003A686802C23343305473317C8
:100F2000B700A296718F90223337E0000606518FEA
:100F300098A209BF30332C2322961822935617000B
:100F400014A285461376170037170140B396B600F2
:100F50001307078019C214CBF5B554CBE5B534336C
:100F60002C2310460547A2963317B700718F9022A5
:100F70003337E0001E070582518F98A2D9BD2C336C
:100F80002823A295942113971600E20698A1E186E2
:100F900005473317A70063D4060018CA5DBD58CAB9
:100FA0004DBD3823B716014003A6C68022971823EB
:100FB0001376F6F02207518F23A6E68061B5B716A7
:100FC00001409386068094463823229799BD3623A4
:100FD0000147E359D7E601000507E5BF2A23EF7073
:100FE00060128DB52A23EF70800EA9BD9396240060
:100FF0009C08BE9693074D0023A0F6FC035D2700D6
:101000008504FDB13433A29694227DBF8326090066
:1010100037160140382303288680854513F676006D
:101020003396C5008D82B395E500DA96B3F50501D8
:10103000882299CD498E90A2032709000507232015
:10104000E90009B5032609009306F07F918EC9B720
:101050001346F6FF698EC5B7302303A709007D1735
:1010600023A0E90093553700D6958C2185461D8B2A
:101070003397E6003396C6006D8FB716014093860E
:10108000068011CF90CA7DBB302303A709009306C9
:10109000F7FF1307F07F23A0D900158FE1B7D0CA5F
:1010A00055B3B716808101477D46C1066364B7001A
:1010B00001458280B307E5009C236366F600B3D741
:1010C000F600858B99E30D07D5B705458280B7E615
:1010D000008001477D46A1066364B7000145828018
:1010E000B307E5009C236366F600B3D7F600858B53
:1010F00099E31107D5B705458280014785466364AA
:10110000B70001458280B307E5009C239387E7FD84
:1011100093F7F70F63F4F6000D07D5B70545828006
:10112000014785466364B70001458280B307E50047
:101130009C23811793F7F70F63F4F6000D07DDB7D3
:1011400005458280EFE2DFFE0945EF60701F8545AF
:101150000565EF60902D6FE0FFFFB70700501307A4
:101160000004D8A713078004D8B737170020130747
:10117000C74E98CB371700201307C752D8CB371765
:1011800000201307C75698CF371700201307C75AF8
:10119000D8CFA3890702A38D0702239A0702239EB3
:1011A000070209472389E702238BE702238FE7021F
:1011B0009387C18223800700A38007002381070053
:1011C000A381070023820700A3820700238307006F
:1011D000A38307008280EFE2BFF5370400509947F0
:1011E0001CA01DC52945EF60306B9D4723000400FE
:1011F0003CA0930790021CA08D37930710F81CB0F9
:1012000037070008B7E700E023A2E7106FE09FF47C
:101210002945EF607068B7E700E023000400370756
:10122000000823A2E7180F100000CDB79307F5FFC1
:1012300093F7F70F1948636DF80CEFE2DFED938732
:10124000C182AA979C239384C182054793F7F70F25
:10125000CDEB85476305F5001147631CE500B70733
:101260000050DC27054793F7F70F631EE5029183D3
:101270001DA81307E5FF1377F70F63E9E700B7072A
:101280000050DC370D4793F7F70FC5B71307B5FFCD
:101290001377F70F63E0E704B7070050FC2793F7D5
:1012A000F70FE30605FD13F847000147630B080439
:1012B0003704001411042A94A18BB2892A890A04E4
:1012C00085C30840B7070020938707043E95EF7059
:1012D000604E19A8B7070050FC3793F7F70FE1B736
:1012E00085E6C205C1810CC0231034038347240264
:1012F00033852401014793F7C70F2301F402854783
:101300001CA13A856FE07FE40840B70700207DBF4D
:1013100005473A858280011122CE26CC4ACA4EC8A2
:1013200052C656C43704005078207C301377F70F2C
:10133000937627006389065893F7F70F13F707038F
:10134000930500026300B704930600036300D71AF5
:101350006DE313F7F703630B07128947631BF70C61
:101360008347B40393C74700A30DF4020844420522
:101370004181EF00D0038347B40393F7C70FA30D58
:10138000F40245A893F7F703930610026388D70A7F
:10139000930630026387D70C639DE70893878183A8
:1013A0009E2393848183C207C18381E79147A30968
:1013B000F40283C7A18393F70706A5EF83C7418390
:1013C000154793F7F70F638DE70419476393E70613
:1013D0009E201307F003130400046365F7008220C6
:1013E00042044180138901848329090037150020B4
:1013F0002286CE851305C54EEF70C03B9E20A29974
:1014000023203901818FC207C1839EA0B7070050F6
:1014100082BB03C72703134747002389E70211A8AC
:10142000370700503C3383C6818293F70708D58F76
:101430003CB3B70700500947F8A379A98347640371
:1014400093C74700230BF4028347640393F7C70F46
:1014500093E72700230BF4029387C182A380070040
:10146000C9BF8347E40393C74700230FF4028347B0
:10147000E40393F7C70F93E72700230FF402938742
:10148000C182A3810700EF00A07965B7184493F7E4
:101490000704C5D383C7A1831387818393F7070606
:1014A00085CF2310070083C741836397F502371662
:1014B0000020B706002081471306C64E9386060813
:1014C0009D453305F600034805003385F600850782
:1014D00023000501E397B7FE1E23C207C183B1FBBA
:1014E000B707005023980702114705BF9947230902
:1014F000F40237150020A309F4029306C54E9C227E
:101500001386A1831CA29C3203D8660013874183F3
:101510001CA383D826009387818323900701138817
:10152000C1832310180183D84600138861832310D8
:10153000180103480600138981839389A1831378D6
:1015400008061306C54E9387C1839386618363049F
:10155000080A83C709009384018493F70702C9C36B
:101560001C231307100293F7F70F6385E706636BDD
:10157000F70401446384B7001304F00F8357090094
:101580001307F003130A00046367F700035A090006
:10159000420A135A0A0183AA040052861305C54E53
:1015A000D685569AEF70002123A044019307F00FCF
:1015B0006315F410B70700501D472389E702A3897C
:1015C000E70285BD130730021304F00FE368F7FA52
:1015D00001446DB7B7070020938707089CC0CDBFB3
:1015E00003C40900198013441400058833048040A3
:1015F0001374F40F61B71823AD451377F70FE3EBBE
:10160000E5FAA9650A07938585BE2E9718430287D8
:101610009A2389462183938401846306D7020D4669
:10162000630EC70285476316F704A9671387C7C50A
:1016300083C7C7C598C0014403570900E3F0E7F426
:101640002310F90025BF2967130787C13C3398C0D1
:101650003823A207BA97C207C183F1BF9E2305466C
:1016600093F7F70F6381C70289CB6385D702638A3B
:10167000E70281471304F00FC1B71387818198C037
:1016800083C781814DBFA967138707C798C083C7E8
:1016900007C755B7A967138707C898C083C707C886
:1016A00059BFA967138787C998C083C787C961B71E
:1016B0009E2393F7F70F2384F18283C70900E20783
:1016C000E18763D8071E035709009307000463E608
:1016D000E70083570900C207C183035709001D8F24
:1016E000420741832310E900370700501EBB914792
:1016F0002309F7023DBB83C791821CA2035709004F
:101700008547E3FCE7FA2310F90045BF9E2393F7D2
:10171000F70FA384F18205472385E18279BF03C7D0
:1017200009007D8B11EF9E23054793F7F70FE39692
:10173000E7F89387B18298231377E70F98A3B5BF93
:1017400003C7090009467D8BE316C7E69E2393F77E
:10175000F70FE39107E69E229306100893F7F70F21
:10176000638DD70093063008638ED700E394E7E4D7
:10177000B7070050A38D070289B7B7070050238B26
:10178000E70225BFB7070050238FE7023DB703C725
:1017900009007D8B05E79E23054793F7F70FE39B31
:1017A000E7E0A96783C7F7C193F70702E38407E07F
:1017B0009387B18298231367170049B703C70900BD
:1017C00009467D8BE318C7DE9E2393F7F70FE3935B
:1017D00007DE9E229306100893F7F70F6381D70266
:1017E000930630086386D702E396E7DC370700509C
:1017F0008347B70393E73700A30DF7027DBD370793
:1018000000508347670393E73700230BF70275B552
:10181000370700508347E70393E73700230FF702AA
:1018200069BD23000600D9BD83C709002310060047
:10183000FD8B85E383C7B1820144858B99C38947BA
:101840001CA2035709008947E3F2E7D62310F900E9
:10185000B1BB03C7090089471304F00F7D8BE31266
:10186000F7FE9E229306100893F7F70F6381D702C5
:1018700093063008638AD702E395E7FCB707005068
:1018800083C7B7038D8B0D47639EE70011A8B70789
:10189000005083C767030D4701448D8BE393E7FA3C
:1018A00085471CA2014471BFB707005083C7E703F7
:1018B000D1BF83570900C207C183E38307C2B707BB
:1018C00000501147EDB99377170085C3A3010400B9
:1018D000EFF0BF8885477CA07244E2445249C24978
:1018E000324AA24A0561730020309377470085C7CA
:1018F00058309387B182118B11CB9823136727003F
:1019000098A39C23B707005011473DB6982313773F
:10191000D70F98A3C5BF78A0C1B7EFE27F81EFF0E2
:101920007F820545EFF03F8B23930184239201844E
:1019300023960184239401846FE0DF8183C7A18211
:10194000054701456318F70003C591821375F50F2C
:101950003335A0008280EFE2AFFD3971C53725CD68
:101960009387C182BC3393F7F70FB5E79386C184A1
:1019700083D7818496221387C184C207C206C1839C
:10198000C18263EDD704958FC207C183A9C79306AF
:1019900000043E8663F4F600130600044206B725F1
:1019A0000020418281469385C5DE1E233305D10088
:1019B0008506AE979C231CA11E23850793F7F77F0E
:1019C0001EA393970601C183E3E1C7FE85468A857E
:1019D0000D45EFF0BF8521616FE0CFF70566130677
:1019E0000680B2974DB703D5418483D76184420501
:1019F0004181C207C1836366F5001D8D42054181A7
:101A000082800567130707803A95C5BF83D6418456
:101A1000938761849A23014542074183630ED7006F
:101A20009623371700201307C75E369708239A239B
:101A300005071377F77F9AA38280EFE26FEF653790
:101A40007DDDE9376FE00FF1EFE28FEE2E84B30416
:101A5000B500631494006FE0EFEF71377DDD7D37E3
:101A600008A00504FDB7EFE2AFEC056637280020BB
:101A7000814613060680930EF07F1308C8DE139488
:101A8000060141806366B400F93522856FE08FEC72
:101A9000938781841387C1849E231A23938881842A
:101AA000C2074207C183418363E7E702998FC207F8
:101AB000C183E38BD7FD83D708003307D5001823F4
:101AC000C297850698A383D70800850793F7F77F09
:101AD0002390F8006DB7B297D1BFEFE26FE5B13F49
:101AE0002A89A13F2A84913FAA84813F93178400C9
:101AF00013970401D98FB3E7270162055D8D6FE06D
:101B00006FE5EFE2EFE2813D6FE0CFE403D5818442
:101B100083D7C18442054181C207C1836366F50052
:101B20001D8D4205418182800567130707803A9524
:101B3000C5BFEFE2EFDF3164130414359384C18233
:101B4000BC3093F7F70F99C37D1405E0BC3093F7D1
:101B5000F70F91EBB7150020854601469385C55ACE
:101B60000D45EFF0AFEC6FE0EFDE2945EF60C052BE
:101B7000C1BFEFE2EFDB2E84FD35493F01E909C427
:101B80001374F40311E075376FE0CFDCEFF0BFDCC6
:101B900013054006EF604050CDB7EFE26FD9411119
:101BA0002AC691456800F13741016FE0AFDA05665A
:101BB000B715002037180020814613060680930EC3
:101BC000F07F9385C55E1308C85693970601C183BD
:101BD00063E3A700828093874184138761849E23F7
:101BE0001A2393884184C2074207C183418363E774
:101BF000E702998FC207C183E38ED7FD83D7080020
:101C0000338706011823AE97850698A383D708006B
:101C1000850793F7F77F2390F80045BFB297D1BFB0
:101C200005472385E1848280EFE28FD001111306FE
:101C3000000281450A85EFE0AFD2316537240140CB
:101C4000EF50B07113050440EF50D020B7070E00DD
:101C50003EC68A85854713050440230AF10002C069
:101C600002C202C402C8EF50F022814513050440AD
:101C7000EF507038814513050440EF501039854509
:101C800013050440EF507026814513050440EF50C2
:101C9000303A13050440EF50502693040440268543
:101CA000EF5050266DFD1305044037240140EF50DE
:101CB000F025930404402685EF50F0256DFD854501
:101CC00013050440EF50D03605616FE0AFC8EFE276
:101CD0002FC69D47AA8563F6A700930585FF93F558
:101CE000F50F372401409546054613050440EF5093
:101CF0009024854513050440EF507022930404405E
:101D000089452685EF50B03165DD13050440EF505D
:101D1000102EAA84894513050440EF50F030268523
:101D20006FE04FC30145828013077002A9576360BB
:101D3000B704EFE2EFBF41112E84EF50103A1305C4
:101D40001003EF50103CA165C105A2951395C50085
:101D5000EF50703F2AC6EF50F039324511478147A6
:101D60006303E500ED573E8541016FE0AFBE3E8560
:101D70008280B2871306700229556365B6023386E6
:101D8000E70005686360C802EFE28FBA3A86216710
:101D90004107BA95B2053685BE95EF60B021014581
:101DA0006FE04FBB828093077002295563E4B7064A
:101DB000B307E6000568636FF804B367E600858B38
:101DC000B1EBEFE24FB5216441042E9432043A891D
:101DD000B6843294EF50703013051003EF50703218
:101DE0008149114A63E62901EF50D030014539A8F5
:101DF0009C308C2033053401A207DD8DEF50703804
:101E0000890463074501EF50F02E6D556FE0EFB385
:101E10008909C9BF8280B73700201387C781014570
:101E20009387C781A946704B09EA130780053307DA
:101E3000E502BA970547F8CB8280050513078705A9
:101E4000E313D5FE7D558280B72700201387C75E38
:101E500001459387C75EA946505B09EA13078003D3
:101E60003307E502BA970547D8DB828005051307DB
:101E70008703E313D5FE7D558280EFE26FABA96443
:101E800037340020938504CB130544C9EF40607CB0
:101E900009CD938504CB130544C9EF40606B93854E
:101EA00004CB130544C9EF40C07A6FE0AFAAEFE25C
:101EB0002FA8AA8537350020130545C9EF40D02348
:101EC0006FE04FA9EFE2CFA62E86AA853735002016
:101ED000130545C9EF40F0326FE0CFA7EFE24FA501
:101EE00041112AC62EC4EFF01FF3FD572A84630662
:101EF000F50293078005B307F502B7350020A24627
:101F000032469385C58137350020130545C9BE95F6
:101F1000EF40F059635305002A84228541016FE0A8
:101F20006FA3EFE2EFA01304800533058502373479
:101F300000201304C4812A9437350020A28513059C
:101F400045C9EF40B05B232A04046FE0AFA0EFE285
:101F50002F9E930780053305F502B2862E86B7358E
:101F600000209385C581AA9537350020130545C902
:101F7000EF40905C6FE00F9EEFE28F9B9307800530
:101F80003305F502B2862E86B73500209385C581CC
:101F9000AA9537350020130545C9EF4010626FE060
:101FA0006F9BEFE2EF98930780053305F502B28649
:101FB0002E86B73500209385C581AA953735002038
:101FC000130545C9EF40F0636FE0CF98EFE24F96FD
:101FD000930780053305F5022E86B73500209385DB
:101FE000C581AA9537350020130545C9EF40F06536
:101FF0006FE04F96EFE2CF93AA85373500201305A7
:1020000045C9EF4050796FE0EF94EFE26F924111D4
:102010002AC6EFF07FE3FD572A846305F502930794
:102020008003B307F502B725002032469385C55ECD
:1020300037350020130545C9BE95EF50E00A6353BC
:1020400005002A84228541016FE0CF90EFE24F8E98
:102050001304800333058502372400201304C45E73
:102060002A9437350020A285130545C9EF50A013E7
:10207000232A04026FE00F8EEFE28F8B930580031B
:102080003305B502B72500209385C55E373600209D
:102090001306C6B8AA9537350020130545C9EF5079
:1020A00020126FE02F8BEFE2AF8841119147371478
:1020B00001403EC68D473EC44C00FD5713050480C9
:1020C0007C82EF50900FF1778D074C00130504C010
:1020D0007C82EF50900E41016FE0CF878546B3962A
:1020E000B600C2069377F600418AC18219C293E70F
:1020F00037001307F00F6374D7025041E1158A05CA
:102100003D473317B7001347F7FFB395B700718FFB
:102110009307F00FD98D63F6D7004CC18280104130
:10212000F9BF0CC18280EFE2AF802E86AA853715F9
:10213000014013050580EFF07FFA6FE0AF81BD47E6
:1021400063F9A702C54763E1A70241151375F50FAF
:10215000EFD21FFE2E86AA8537150140130505C054
:10216000EFF0DFF76FD01FFFCD4763E4A7007115D5
:10217000F1BF8280EFD2DFFBBD4763E6A700EFF03F
:102180009FFA6FD03FFDEFF09FFBE5BFBD472A8769
:1021900063EDA700B717014083A687808547339575
:1021A000A700758D3335A0008280C54763EEA70078
:1021B000B7170140938707C09C47130705FF0545E4
:1021C0003315E5007D8DF9BFCD470145E3EEE7FC12
:1021D000B7170140938707C09C477117CDB7BD471C
:1021E00063EAA70085473395A700B717014023A8E6
:1021F000A7808280C54763EBA700411585473395CB
:10220000A700B717014023A8A7C08280CD47E3EEFF
:10221000A7FE7115E5B7BD4763EAA700854733956B
:10222000A700B717014023AAA7808280C54763EBA8
:10223000A700411585473395A700B717014023AA8A
:10224000A7C08280CD47E3EEA7FE7115E5B7FD5725
:102250007D156313F50082800100DDBFEFD2BFEB77
:1022600041118544B399A400371401402EC632852C
:10227000232834813289EFF09FFDB2454A8513044B
:102280000480B394B40004C8EFF07FFC4A85232A8D
:102290003401EFF0DFFB4A8544C8EFF05FFB4101FA
:1022A0006FD0BFEAEFD25FE685443399A4004111B5
:1022B000B68AB394B4009D49854B371A01407D5BC3
:1022C000B3973B01F18F13070A80ADC32328270181
:1022D000568532C6EFF0BFF7568523289A80EFF077
:1022E0001FF75685232A9A80EFF07FF6FD19130415
:1022F0000A803246E39669FD568523282A81EFF04D
:102300001FF5568523289A80EFF07FF483298A8071
:102310005685232A9A80EFF09FF333F5290123286D
:102320002A811335150041016FD09FE1232A27012F
:1023300045B7EFD27FDD8549339BA9004111AA8BB8
:10234000368A3A8923000600B399B9009D4AB71C22
:1023500001407D5C32C64A8523A86C81EFF03FEFD7
:102360004A8523A83C81EFF09FEE4A8583A48C80A8
:1023700023AA3C81EFF0BFED3246B3749B00B33427
:1023800090001C22B3945401FD1ADD8C04A2138426
:102390000C80E3918AFD4A8523A86C81EFF03FEB26
:1023A000331A7A014A8523AA4C81EFF05FEA4A8505
:1023B00023A83C81EFF0BFE94A8523AA3C81EFF0D6
:1023C0001FE923A84C8141016FD09FD7EFD25FD680
:1023D0008544B395B4003714014041112328B480DB
:1023E0002A89328532C6EFF09FE63246B394240143
:1023F00023289480328513040480EFF05FE54101C7
:102400006FD05FD5EFD23FD1B284368636842A8929
:10241000AE89EFF0BFE413961400A286CE85137642
:10242000E60F4A85EFF01FE8AA8422864A85CE850A
:10243000EFF0DFF926856FD05FD1EFD2DFCD41110C
:10244000328A428636843AC6C2842A89AE89BE8AD6
:10245000EFF0DFE05286A686CE854A85EFF09FE456
:102460003247330AE400631C440163870A0026866E
:10247000CE854A85EFF09FF541016FD01FCD10202A
:10248000A686CE854A85EFF0FFE10504E9BFEFD2CD
:10249000BFC7328442863A8AC2842A89AE89368B83
:1024A000BE8AEFF0BFDB13661400A686CE854A8590
:1024B000EFF05FDF0144930BFAFF631B4401638776
:1024C0000A002686CE854A85EFF05FF06FD05FC7A1
:1024D000B336740133068B002687CE854A85EFF02C
:1024E0005FE50504D9BFEFD23FC24254328BB684B8
:1024F00022863A8A2A89AE893E8CC28AC68BEFF040
:10250000FFD5A2865A86CE854A85EFF0BFD9269A96
:10251000639C44032286CE854A85EFF03FD4A28691
:1025200013661B00CE854A85EFF0DFD78144138AFE
:10253000FAFF6393540363870B002286CE854A8596
:10254000EFF0DFE86FD0DFBF9020A286CE854A850E
:10255000EFF05FD585046DBFB3B6440133069C0030
:102560002287CE854A85EFF0DFDC8504D9B7B7171F
:1025700001409387078088CB91CDE1470100FD178B
:10258000F5FFB717014023AAA780C9470100FD172F
:10259000F5FF8280AD470100FD17F5FFB717014039
:1025A00023AAA780FD470100FD17F5FF8280EFD227
:1025B0003FB82E8493F50508AA84EFF05FFB93756E
:1025C00004042685EFF0BFFA937504022685EFF028
:1025D0001FFA937504012685EFF07FF99375840047
:1025E0002685EFF0DFF8937544002685EFF03FF87D
:1025F000937524002685EFF09FF7937514002685C8
:10260000EFF0FFF66FD01FB5EFD2FFB04111AA84F3
:102610002E892E84B307244163E5C70041016FD0A2
:10262000DFB20C20034A1400268532C683492400F9
:10263000EFF0FFF7D2852685EFF07FF7CE85268570
:10264000EFF0FFF61305800CEF5010250D04324615
:10265000D1B7EFD2FFAD2A840145EF50F023B71474
:10266000014023AA84801305001EEF50F0221305B9
:10267000600423A8848093840480EF50F021844474
:102680001305A019EF505021337594001335150030
:102690006FD05FACEFD2DFA937140140232AA480AA
:1026A000AA841305C003EF50301F294523289480C6
:1026B000EF50901E130404806FD0DFA9EFD25FA704
:1026C00037140140232AA480AA841945EF50D01C56
:1026D0001305000423289480EF50101C1304048079
:1026E0006FD05FA7EFD2DFA4B71401402A8423AADA
:1026F000A4801945EF50501A254523A8848093845F
:102700000480EF507019844413057003EF50D01803
:10271000337594003335A0006FD0DFA3EFD25FA1F3
:1027200001119375F50F2A84014502C802CA02CC33
:1027300002CE02C402C6EF5060378547B3948700CB
:10274000414708083ECE3ACC26C802CAEF50C00F17
:102750002685EF50E017914763E1870293076401F4
:102760005C848547DC8489475C85280085473EC6B4
:10277000EF50E03605616FD0FF9D2547930770024B
:10278000E37087FE93078003E1BFEFD27F9A411188
:1027900005443314A400C1470A853EC422C002C2C6
:1027A00002C6EF50600A2285EF50801241016FD0BF
:1027B0007F9AEFD2FF970111FD5702C268007C8219
:1027C00002C023140100EF50603A3717024058430B
:1027D000D2472183118B11C3860737470F00130798
:1027E0000724B3D7E702371400408A851305048015
:1027F000231301002311010023040100FD177C8035
:10280000EF50204A130504808545EF508072130570
:1028100004808145EF50006FFD4513050480EF50A3
:10282000A07705616FD01F93EFD29F9037140040BF
:10283000130504808145EF50E07513050480FD45C4
:10284000EF508075854513050480EF50A06B6FD065
:102850007F90EFD2FF8D3715004013050580423180
:102860008145EF50206A4204418022856FD09F8EBF
:10287000EFD27F8A2A8995C1AE898544D145EFF090
:102880009F8A37140140B3942401232A94804E85F3
:10289000EF5090001304048004C891454A85EFF07E
:1028A0009F884A85EFF09FE7EFF01FF86FD0FF8910
:1028B0009307800873B007800F10000023AA0184DB
:1028C00023A8018473A007808280EFD27F86EFF077
:1028D000DFEBEFF01FF86FD0FF87EFD2DF839307B6
:1028E000800873B007800F10000003A4418573A017
:1028F000078003A90185637325012A894A85EFF0C2
:10290000CFA98567938787BB3E94330424413374F2
:10291000F402373A00208149BE84130A4AD1631475
:1029200039016FD09F82B3878900B3F79702850979
:102930008607D2978A23EFF04FA6D5B7EFD2AFFD27
:1029400093991600AA84AE8A3289368A3284B29963
:10295000631A34010144631C440181452685F5282E
:102960006FD0AFFEEFF06F970AA00904D5B7937749
:102970001400814591E3D6852685C5209317140060
:10298000CA978A230504EF502071F1B7EFD24FFAAE
:1029900001119307F00F7C844C00B9472A847C8294
:1029A00002C802CA02CC02CE231301002315010083
:1029B00023160100EF50E02EC167938707060C082D
:1029C00022853EC8231B0100231C0100EF508033E9
:1029D00081452285EF5080570C082285EF50203921
:1029E00081452285EF5060570C082285EF508041C9
:1029F00081452285EF50C0570C082285EF50C04911
:102A000081452285EF50A05785452285EF506052C1
:102A1000B7370140938707C06316F40085452285C8
:102A2000EF50C04F85452285EF50C04D05616FD0F6
:102A30006FF2EFD2EFEF37350140130505C0EFF02D
:102A4000FFF437050040EFF07FF437050040130531
:102A50000540EFF0BFF36FD0EFEF09E5B707004097
:102A6000CEBB828085476316F500B70700408EBF56
:102A7000828089476316F500B7070040CEBF828089
:102A80008D476317F500B70700402390B704828095
:102A900099476317F500B7070040239AB742828031
:102AA0009D476317F500B7070040239CB74282801B
:102AB000C1476317F500B7070040239EB7428280E5
:102AC000C5476317F500B70700402390B7448280DD
:102AD000A1476317F500B7370140239AB7C2828038
:102AE000A5476317F500B7370140239CB7C2828022
:102AF000A9476317F500B7370140239EB7C282800C
:102B0000AD476316F500B73701402390B7C4828004
:102B1000FD577D156313F50082800100DDBFEFD204
:102B2000AFDE0544B319B400B31BC4003314A400D2
:102B30003E8A937417004204B71701400583368913
:102B400041809387078025CF80CB854A5285EFF05F
:102B50003FFCA14CBDEC416B7D1BB3F96901371DF6
:102B60000140054C9357790013070D80A1CF23280E
:102B7000370106091379F90F93070D8063878A05DA
:102B800080CB5285EFF0DFF813070D801C478604D9
:102B9000B3F7FB00B3F76701B337F000DD8C93F4B4
:102BA000F40F63860A0200CBFD1C528593FCFC0FD8
:102BB000EFF01FF6E3980CFA26856FD06FD8C0CBE4
:102BC000814A69B7232A37016DB7C0CB5DBF40CBBF
:102BD000E1BF416B7D1B8144054C371D0140B3F9BA
:102BE000690193070D80638A8A0580CB5285EFF0D7
:102BF0003FF29357790013070D80B1C323283701A3
:102C000006091379F90F93070D80638D0A0280CBB3
:102C10005285EFF0FFEF83278D808604FD1CB3F70C
:102C2000FB00B3F76701B337F000DD8C93FCFC0FBA
:102C300093F4F40FE3970CFA41B7C0CB45BF232AB6
:102C400037017DBFC0CBE9B7EFD28FCE41112E84C3
:102C5000C14532C6EFF02FCD2285C145EFF0AFCC94
:102C6000324691453285EFF00FCC41016FD08FCEC7
:102C7000EFD26FCA4111AA842E89B289368ABA8AE4
:102C80003E8B330418016315880041016FD0EFCBF0
:102C9000DA875287D6864E86CA85268542C6EFF0E9
:102CA0001FE832482300A8000508F1BFEFD2AFC6E5
:102CB0002A89AE89328AB68A3A8B3E84B384070168
:102CC000631494006FD06FC81420DA875687528639
:102CD000CE854A85EFF0BFE40504DDB7EFD2AFC380
:102CE0004111AA842E89B289368ABA8A3E8B014460
:102CF0006315140141016FD04FC5B3068B009422B8
:102D0000D68752874E86CA85268542C646C4EFF0CE
:102D10001FE13248A248B307880088A30504C9BF51
:102D20009D47AA8563FAA700C1476300F506C5471A
:102D30000145639EF504A545EFD28FBF37240140BE
:102D4000130404405C40370700058546D98F5CC0FA
:102D500005462285EF40301EC1475CDCA1477CC49C
:102D600089452285EF40B02B65DDB727014003A5DB
:102D7000C74403A74740B70600FBFD16758F420501
:102D8000418123A2E7406FD0EFBCA14575B7828097
:102D90001841FD576307F700484105051335150035
:102DA00082800545828010419C41630EF6005841A7
:102DB000D4410145630AD7006308D6003385E74054
:102DC0003335A00082800145828093176501D98741
:102DD000850793B717003E951375F53F110582805F
:102DE00098411C41B98F1CC1D8415C41B98F5CC16D
:102DF00098451C45B98F1CC582801C4181EB584108
:102E000001E71C4593B717003E8582808147EDBFDF
:102E10001C41D18393F7077091CBEFD26FB11105AD
:102E2000EFF07FF8133515006FD0CFB201458280E7
:102E300011E182806304B5000841DDBF0545828051
:102E40007C557849BE95998DB3F5F5023C4D63FDEF
:102E5000F500785193D735009D893E978547B39506
:102E6000B7001C23DD8D0CA30145828093973500AC
:102E70002A8663C4070437071070130707C014427B
:102E8000B3C7B6007D8F15C793976601D9877D5765
:102E90006381E70237071000B7070080130707C0F8
:102EA00093C707C0758F3705F04FED8F498F639B30
:102EB000E70023200600054582803707008013477E
:102EC00007C075BF93D7450113F80770130700407B
:102ED00001456310E80213D7A600A9811377F73FD5
:102EE00093F5F53F6367B700E207E187AA07B69756
:102EF0001CC28280EFD2CFA32A842E85EFF0FFEC94
:102F00001C403E9508C001456FD0CFA41C418507E9
:102F10001CC101458280EFD2AF9E3A8C3E8433873C
:102F200017013C55DC4F63EDE7007C552A8AAE8CD7
:102F3000B28BB68A428D4689638B07166369FC168D
:102F40001305C0FA9DA263890C0483A70C00CA84F0
:102F50006395870583A44C0083A98C00A699637DA3
:102F6000340363689402B389894063733901CA8961
:102F700083A5CC00B30494404E86A6956A85EF5095
:102F800070034E9D4E9433093941E31E09FA014501
:102F900029AA818C63739900CA8483A70B00639B61
:102FA000870383A54B0083A98B00AE996374340318
:102FB000636EB400B389894063F33401A68983A7A3
:102FC000CB00B305B4404E86BE954DBF818D63F3F3
:102FD0009500AE84636C590503258A065C493377F6
:102FE000F40229E76364F904B3F9F4025C41EA8668
:102FF0002286E285B38D34416E8782976351A002A9
:10300000B7A6000029669386C6F8130646D0930536
:10301000000637A50000130585F9EF50207051E533
:10302000B38499406E9D6E94269985B78327CA060E
:1030300089CF636CFC00B7A600002966938606FB67
:10304000130646D09305C006E9B703258A0623A0D8
:103050008B015C494C4D3307FB00B376F402229799
:10306000B377F7023306D44023A2CB001D8F63F35E
:10307000E5002E871C55818E369763F3E7003E8767
:103080005C4183A6CB0023A4EB00E2858297635CBE
:10309000A000B7A6000029669386C6F8130646D09E
:1030A00093057007BDB7E30205EE6FD02F89138B30
:1030B000FAFFE1BDEFD2CF843E8D9C490111B28C65
:1030C0002A891305C5032E8AB68A3AC4C28BC44521
:1030D0003ECE93D9AC00EFF0BFD393F9F93F63092B
:1030E0000514638709148327C90313D7AA0013772C
:1030F000F73FA98393F7F73F6396E700795505619A
:103100006FD0CF83014463F4E700130400C0B70716
:10311000008093C7F7FF370C10003EC6130C0CC09D
:10312000B70D1040724B5A85EFF03FCA9307450028
:10313000E3E6F4FC03270A00898C91481308C101D7
:10314000A68791464A8681454A85EFF0DFDC6351C8
:10315000A002B7A6000029669386C6F8130686D497
:103160009305702E37A50000130585F9EF50005B1D
:1031700059F57245EF50201FB2473345AB007D8DA6
:103180002ACE6380090493574B0113F70770930607
:1031900000406318D70233878A401356A70093561E
:1031A000AB001376F63F93F6F63F636CD6003377A9
:1031B00087013367B701E30367F5E207E187AA07F1
:1031C0003E94B3878A40B3C76701B3F79701B9FB51
:1031D00093176B01D9877D57E382E7F29379FB3F21
:1031E00063F33B01DE89A24703270A00CE889107DB
:1031F0006A88A697CE864A8681454A85EFF0BFD178
:10320000635CA000B7A6000029669386C6F8130683
:1032100086D493054030B9B7E31305EE33863B41BE
:10322000814533053D01EFC0BFF333056401C1BDE6
:103230000144F1BDEFC2DFEFBA8713F8F63F014753
:10324000EFF05FE76FC01FF1EFC29FEE4111B706CD
:10325000F07F32845800B1063706F07FEFF09FFD13
:1032600063580500F9576309F50041016FC09FEEEF
:103270004C002285EFF0DFB60145C5BFEFC25FEB22
:10328000328710415C431843345641112A84D44E8E
:10329000A14813088100930506013285EFF0BFC7EE
:1032A00001E9930544002800EFF0FFAF3335A0009B
:1032B00041016FC03FEAEFC2BFE73C552A84DC5BA7
:1032C00081E74845EF50204C3C549C5F81E7484CD7
:1032D000EF50604B3C54DC5F81E76850EF50A04AF0
:1032E00001456FC03FE7EFC21FE39307F03F411175
:1032F000368413878600631FF600B7A50000938508
:10330000C5073A85EF50D06D89471CA001454101A2
:103310006FC0BFE334599314A600370610788506B2
:10332000C58E130606C02A89AE89EFF0BFF0E340D0
:1033300005FEB70600205181A1063706107008A0CF
:103340003800C58E130606C0CE854A85EFF09FEE85
:10335000E34F05FA93574501130720206395E700D3
:10336000B2475CC065B713071020E391E7FA137505
:10337000F53F48C061BFEFC2BFDB7C5563E1F5029A
:10338000B7A600002966938606EF130686D3930539
:10339000501137A50000130585F9EF502038285546
:1033A0005C458297635CA000B7A6000029669386FF
:1033B000C6F8130686D393057011E1BF6FC09FD97D
:1033C000EFC21FD71C4113F7F73F1DE363D305047A
:1033D000B7A600002966856593860648130686E130
:1033E0009385F53137A50000130585F9EF500033BB
:1033F0009306E01F63FFE600635DB000B7A6000020
:10340000296685659386864B130686E1938505328A
:10341000D1BFBE9593F7F53FB337F0008605FE07A1
:103420008581DD8D0CC101456FC0DFD2EFC25FD059
:103430002E84105548449305F00FEFC07FD2FD57FE
:103440001CC06FC03FD1EFC2BFCE9C512CD52A8487
:103450007CD5DC418DE3B7A600002966856593869F
:10346000064F130606E09385B50737A50000130540
:1034700085F9EF50A02A9C45AE8481EFB7A60000E5
:103480002966856593860651130606E09385D50760
:10349000E9BFDC4581EFB7A6000029668565938604
:1034A0000653130606E09385E507C1B79C4981EFF3
:1034B000B7A600002966856593860655130606E0C3
:1034C0009385F5075DB7D44981EEB7A6000029665C
:1034D000856593860657130606E09385450871B700
:1034E000984D01EFB7A60000296685659386C658FA
:1034F000130606E0938555088DBF03A98502631D59
:103500000900B7A60000296685659386865A1306CA
:1035100006E09385650891BFB377D90281CFB7A63E
:103520000000296685659386465C130606E0938550
:10353000A50825BFB377E90281CFB7A600002966A9
:1035400085659386465F130606E09385B50831BF0F
:10355000DC4D33F6270301CEB7A60000296685654A
:1035600093864662130606E09385C508FDBD1306E3
:10357000F007636DF600B7A600002966856593869F
:103580008665130606E09385F508C5B5D05101EEB2
:10359000B7A600002966856593864667130606E090
:1035A0009385B509D9B5905921C293D51700637D8C
:1035B000B600B7A6000029668565938606691306DE
:1035C00006E09385250A55B5FD55630FB60063FDEA
:1035D000C700B7A60000296685659386466E130668
:1035E00006E09385450A51B5F04439CAB376D60250
:1035F00081CEB7A6000029668565938646741306BA
:1036000006E09385950A95B53377E60201CFB7A614
:1036100000002966856593864679130606E0938542
:10362000B50AA1B5B3F7C70281CFB7A600002966D6
:1036300085659386467E130606E09385D50A35B5E3
:10364000DC5885CF5CC49C5CB9C35CCC2685A28564
:10365000EFF0DFDD285493050401EFF03FDD245443
:10366000C85405EDB7B60000296685659386468384
:10367000130606E09385B50CCDBB4A85EF500010CC
:1036800048C471F12285EFF01FC35155A9AA4A859C
:10369000EF50C00E48CC5DF9F5B7DC5C95C37CD02B
:1036A000BC401307F00F6372F702B7B6000029663B
:1036B000856593864685130606E09385750D75B37B
:1036C000EF50C00B68D069FD75BF85C33CD8FC4086
:1036D00063DF0700B7B60000296685659386068715
:1036E000130606E09385D50D49B338D8CDB795C3F9
:1036F0007CD8BC441307E03F6372F702B7B6000002
:103700002966856593864689130606E09385350EFE
:10371000A9BBB707008093C7F7FFD9BF8DC33CDCB7
:10372000F444D84C637FD700B7B60000296685659E
:103730009386068B130606E09385950E3DB338DC21
:10374000C5B7BC487D566380C7069054637DF600BC
:10375000B7B60000296685659386068E130606E0D7
:103760009385C50E19B3305C637DF600B7B60000D3
:103770002966856593868693130606E09385E50E94
:10378000EDB11356370099C213D63600637DF600AB
:10379000B7B600002966856593868698130606E00D
:1037A0009385250FD9B17CDC7D566390C704232E09
:1037B0000406FD571CD05CD02324040223260402F7
:1037C000232E0402232004042322040423280402B9
:1037D000232A0402232C04022324040423260404A1
:1037E0002328040401456FC0FF96E1F79C54305C28
:1037F0000D8399C213D736006373F600B2876373E3
:10380000F700BA877CDC75B7EFC2FF900329C501CA
:1038100084410145611963EB240333D52403AE8948
:103820007D15EF403030130425000A0433848440B2
:1038300033542403330989022285EF40B02E0A0550
:10384000898C2285B384244123A099006FC0FF8F07
:10385000EFC29F8BAA89285541117D172E8B4C00F2
:10386000B28BB68C3E8AC28A3AC2EFF0FFF9AA84C4
:10387000094CE6855685029A29E5A1C413F914007E
:1038800033042C4193182400130881008147668774
:10389000C6865E86DA854E85EFF0EFE71DE17D1482
:1038A000634A85000A041C083E947919832C84FF1E
:1038B000CA94C1B7A2455685029AAA870545EDD399
:1038C0003E8541016FC0DF87EFC21F84011132C600
:1038D0003AC489EA7D5798C3232008000145056151
:1038E0006FC01F862A892855FD16AE8A6C08C289CA
:1038F0003E8A36CEEFF05FF1AA84032589062C00BC
:10390000930B0002EFF05FF02A8B054C324763689F
:103910009B00A2472320EA0023A0F900C1B733850A
:1039200064413AC2EF4090122A8433848B4026854A
:10393000EF40B0187D141247637385002A849148C4
:103940001308C100931724009146568681454A8585
:10395000EFF06FDC49F533148C00818C45BFEFC26A
:10396000AFFA3709F8FFAA89AE8A328C3A8BBE8447
:10397000428DC68C795A938BF6FF130909C0639464
:103980000C00014549A003270C008327CC00631CD1
:10399000470303274C0003248C003A9463F5840208
:1039A00063E3E402058C63F38C0066843387E440B0
:1039B0006A852286B385E700EF40D05F229DA294FE
:1039C000B38C8C406DBF03A6890623204C01544A5A
:1039D00010563388DB0033F7D4022698B376D8022A
:1039E0003387E4402322EC003308D8406373060198
:1039F000328823240C01DA864A86D6854E85EFF07C
:103A00006FEBE35E05F66FC0AFF3EFC26FEF3E8B77
:103A1000B737000071719387C7E63EC6835C010F1C
:103A2000B70710608314410F7E5C938707C02AC4D8
:103A3000AE8B36843A8AC289468902D802DA814A34
:103A4000014D3EC8228532CAEFF02FB8524683A7F7
:103A5000CB00B30DC50063F0FD08224603A70B00A1
:103A600091481308C102EE87914681453285EFF0F7
:103A70008FCA631E05243255EF40F00EB707008051
:103A8000298C5D8C83A70B0022D614183ED893870F
:103A90004D003EDA32563707F07FB347A601B3F741
:103AA0003701F98FCDEB93D7A90093F7F73F6381E7
:103AB0000716894763FC5703B7A60000296637A598
:103AC0000000938686201306C6D59305203C130577
:103AD00085F9EF40B044635A601F83270A008326AC
:103AE0004A007D1B3ED6210AB28D6DB79307C003F5
:103AF0003387FA021C19EE55850ABA9723ACD7FA18
:103B0000C25623AE37F923A0A7FB23AED7FAD2566D
:103B1000239227FB239397FB239497FA23A887FBF1
:103B200023A477F923A6B7F923A887F823AA47F98E
:103B300023AC67F923A6B7FA23AAC7FA23A0D7FCB8
:103B4000130CC7023C183E9CB247014D8149BEDDB3
:103B50008144814C01496E86F5B5130620106392AD
:103B6000C7040147B25713F6F73FE376C7FEA983B0
:103B70008C4693F7F73FA697AA07CD8F8C22D042A9
:103B8000628593850530D205DD8DEE573ACC36CA75
:103B90008297634E0512D246B10655FD624705076E
:103BA000D1B7EE579395A4003686BA956285829771
:103BB000634F05104DD1638C0A10FD1A9307C003A3
:103BC000B387FA021819BA9703A7C7FA83AB87F825
:103BD00083ADC7F8BADD03A747FB03A407F903AA1F
:103BE00047F903AB87F983A9C7F903AD07FA03D9EE
:103BF00047FA83DC67FA839487FA03AC07FB3AD66B
:103C000083A687FB03A7C7FB83A707FC3AD83EDA46
:103C100093D7A90093F7F73F325789CB9357A70063
:103C200093F7F73FE3E927F3E3F797F39357470158
:103C300093F7F77F8DD313061010E390C7F23ACEB7
:103C4000EE57324736CCE388E7F09307C003B387DB
:103C5000FA0218191306C0038145850ABA9713851D
:103C600087F83ECAEFC0CFCFD2476E57E2462392C5
:103C700027FB23A6E7FA7247239497FA23A477F940
:103C80001379F73F29831377F73F33072741BA9416
:103C9000C20423A6B7F923A887F823AA47F923ACBF
:103CA00067F923AE37F923A0A7FB239397FB23A83B
:103CB00087FB930C1900C184B68B370D0020C249D5
:103CC000014B014A7D54814D79B50145EDB54D61FA
:103CD0006FC0CFC6EFC24FC34111AA892E8AB28AE4
:103CE000368BBA8B3E8C42890144A14C636424011B
:103CF000014581A0B304894063F39C00A144A688D8
:103D000013088100B30774015A87B3868A4052862C
:103D100081454E85EFF02FA009ED2686B3058C0076
:103D20002800EF40F026AA8701C9054563C30700B4
:103D3000094541016FC0CFC026944DBFEFC24FBFB0
:103D4000AA8403A8840013F4F53F084163730401B7
:103D5000228858421442DC404286AA85EFF09FF741
:103D600001E99C4463868700054563E387000945B4
:103D70006FC04FBEEFC22FBA2E848C4185474111D0
:103D80001387250063F2E70A7C55368AB2892A89AF
:103D900063E1F502B7A600002966938686EE130656
:103DA00006D19305400B37A50000130585F9EF40B8
:103DB000F01628550328840054441C4D50403E986A
:103DC0007D18B377F8023308F8401C45428742C695
:103DD0008297AA843248635CA000B7A600002966D7
:103DE0009386C6F8130606D19305800B6DBF01E9D3
:103DF000631B0A0003258906A285EFF02FE32685C1
:103E000041016FC08FB4FD5723A0F90058405C44B6
:103E100014404286CE854A85EFF0DFEB634805000B
:103E200071D99304C0FAE1BF8144D1BFAA84C1BF54
:103E3000EFC28FAD3E89F9572A8AAE84B28A368B9B
:103E40003A8CC28CC6896304F7027C556361F70221
:103E5000B7A6000029669386C6F01306C6D293055E
:103E6000900E37A50000130585F9EF40300B0327AE
:103E70008A06B3073901FD5B584F637DF706B7A685
:103E800000002966938646F41306C6D29305A00E59
:103E9000C9BF9C406315FC06C8406362A90603279E
:103EA0008A0600572A94637C89043304244163F30F
:103EB00089004E84DC443305A940E6853E95228680
:103EC000EF40500FDC4098442299B307F940A29C80
:103ED000B389894063F3E700BA8703278A069CC445
:103EE00018576399E700DA865686A6855285EFF063
:103EF0007FE801E5E39F09F801456FC06FA4638C7B
:103F00007701B7A600002966938686F61306C6D207
:103F100093057010B9B783278A0623A084019C4FAC
:103F200023A40400B377F902B307F940DCC0D9B782
:103F3000EFC26F9EDC419841B68832882E84B289E8
:103F4000B6842A86814693050501EFF07FEE2A8923
:103F500011E948442686CE85EF300030544048C4ED
:103F6000A69654C04A856FC04F9EEFC2EF9941118B
:103F70002A8A32852E84B28B368BEFE01FE55C40B7
:103F800058481159AA976362F704AA840844939A7F
:103F90001B0093DA1A0033C5AA00EF40C03C2AC6C2
:103FA00091467000A2855285EFF09FF82A8911EDA5
:103FB000F114814963C80B04A6865A86A2855285EE
:103FC000EFF01FF739E1232454014A8541016FC006
:103FD0002F9783274B0003270B0085481308B10058
:103FE000CE97B3863441528681455285EFE0BFF2C9
:103FF00009ED85461306B100A2855285EFF05FF307
:1040000009E58509E3E799FC7DBF2A897DBFEFC2F9
:104010002F92B2862E864C410841EFF01FF56FC0FB
:104020006F93EFC2EF90FD571CC281462A84EFF0D8
:104030007FD40DE528541C4982976351A002B7A68E
:104040000000296637A500009386C6F8130606D23D
:104050009305E00D130585F9EF40406C6FC08F8F1D
:10406000EFC28F8A41112A8AAE8A328BB68B3A8C84
:104070003E89C2890144A14C636624010145410186
:104080006FC00F8CB304894063F39C00A144A688E1
:1040900013088100B30784015E87B3068B40568600
:1040A00081455285EFE03FE779F903A509002686AF
:1040B0002C00EF30601A23A0A900269475BFEFC230
:1040C000AF843455DC414111984ED44ED107AA84B7
:1040D0002E8463F3F600B6879309F7FFCE97B3F902
:1040E000E702370B1000814B814A130B0BC0938CF6
:1040F0000401B3893741138CC9FE5C4063E8370380
:1041000018481440FD573EC413088100B387EA40A5
:1041100013864A00A6852685EFF09FF4631D0512DD
:10412000A247638D77131305C0FA35A23389F9408E
:1041300071191307E03F637427011309E03F9107EA
:104140003E996375390163732C016289FD57DC83E5
:1041500063643907BC54944FDC4F958F63EE270599
:104160001840854813087100CA8726868145268530
:10417000EFE07FDA09C59307C0FA631EF50CBC5463
:1041800014407D579C4F1308C1003AC63E864A87AB
:10419000A68526853EC4EFF0BFEC09C59307C0FA9B
:1041A000631BF50A370600603400130686C0A2853B
:1041B0002685EFF09FDB45E1034A71005C4008442F
:1041C000134A0A08135A7A00130A0A50B307F9402F
:1041D000F117520A336AFA00336A6A013345AA00BA
:1041E000EF4060182AC4484411462C00EF30C00646
:1041F0005C40184048C42AC6A14813088100814683
:104200002686E6852685EFF0BFC231E563970A0072
:10421000832A4400832BC400910A9C8337070080C3
:104220002322240193C7F7FFE207F98F33CA47011E
:10423000FD57232444015CC463783901BC54D84839
:104240009C57BA97E36BF9EA2686E6852685EFF058
:104250005FDDE30405EA41016FB09FEE14401308EF
:104260008100914756871146A6852685EFF05FDFCE
:104270007DF1A247EDD345BDEFB29FE8032EC50601
:104280005D71832E0600630A0E00130BC0FA63F7FC
:10429000CE0F032F46006373CF0F46CE42CC3EC4F1
:1042A0003ACA36C8B2892E8491481308010381475F
:1042B000768791462A868145AA8402D802DAEFE001
:1042C0009FC52A8B09C59307C0FA6319F50A03A78E
:1042D000490091481308410381479146268681454C
:1042E0002685EFE05FC32A8B51CD9307C0FA631791
:1042F000F5080149931729003387F900184313493A
:1043000019000A0918C0CA9903A709007D5B232672
:10431000040058C09808BA9783A707FEFD5B370CC6
:1043200000801CC489473EC0B7071000938707C0B0
:104330003EC61146930584007D555EDC5EDEEF20AF
:10434000B0712AD2DA8C02C2814D014A7D5D814A68
:104350006A85EFE09FA7B4541840AA9AD44E9148BA
:1043600013088102D687268681452685EFE0BFBAED
:104370000DC19307C0FA6302F5222A8B5A85616149
:104380006FB0DFDB5259C2573309F940332920019E
:1043900095B7125511462C10EF20106C2AD22255D9
:1043A000EF30707CB349AD004ED463DD0902935702
:1043B0004D0193F70778938707B093B717005844D8
:1043C000631F071C9C08CA971840544083A707FE28
:1043D000024614C01CC458C085476306F6268547AC
:1043E0003EC081BF4E85EFE05F9EBC54D04FB30707
:1043F00055016364F61A13D74901137707789307B9
:1044000000501440138D4A006312F7063687914816
:10441000B2861308C102EA87268681452685EFE029
:104420009FAF21F9325792576319F716A257C85414
:104430001146D183FE074C10B3C9F900EF20D061BB
:10444000C8D42255EFE07F98E257569548C41CCC5B
:10445000F25723283401231A44015CCCA30BB40186
:104460005ED2E687668B4E8DBE8CDDB59307C5FFA9
:10447000130841026A87A6852685EFF07FBEE31AFE
:1044800005EEA25793D64701139606014182937514
:1044900006708DEDA98393F7F73F63E44701138A14
:1044A0001700A255D2474247AD8FF98F89EF1C40C4
:1044B0007245B000BEC4E247EAC68297E34B05EA04
:1044C000A25655E1B68CE687DA8C69BF1307004027
:1044D0006391E5043247E206E186369A33F7EC0051
:1044E0003706F04F420A518F135A0A016395E700CD
:1044F000B3EC8C017DB7E3867CFBA98313D7AC00BA
:1045000093F7F73F1377F73FE36DF7F8AA06B69CEA
:1045100049BF9307006018406391F50293FD1600B0
:10452000B454A14813088103D44EEA8726868145F6
:104530002685EFE05F9E35D52DBD1376F67F930778
:10454000F05FE310F6F6B454A14813080104D44E0A
:10455000EA87268681452685EFE0FF9BE31B05E081
:1045600085473EC23DBF37070080B3C7DC00134715
:1045700007C0F98F8DC38947E317F5F413D7AC0053
:1045800093D7A6001377F73F93F7F73FE36DF7F262
:10459000B3EC86010DBFFD5C3DB781470DB5230B24
:1045A000040095CFB0541C4EB377F7028DEB9247C1
:1045B0009DC7FD573ED614408647504E1308C10292
:1045C000A6852685EFF0DFA909C59307C0FAE31693
:1045D000F5DA96473257998F93B717007CA8A285D2
:1045E0001385C403EFE0DF8219CDDC5C1357AB0009
:1045F0001377F73FA98393F7F73F631EF702B707D7
:104600000080336BFB00A24799CB5A289357AB002D
:1046100093F7F73F6373F700BA8722471EA3E35F60
:104620000BD45A281353AB009377F33F795BE3E73E
:10463000E7D4014BA1B3FD56E307DBFCE3F5E7FC50
:10464000130B0BC0C9B7B7B70000B7A5000037A55B
:1046500000009387C7B513067056938585F9130537
:104660000504EF40D022130BC0FA09BBEFB25FACD8
:104670008148014881477D57FD56EFF0FFBF6FB07D
:104680007FADEFB2FFA71C51832C060001119CCD1A
:104690005C51DCCD03870C0055CBB70730003707E2
:1046A0000020938A07C09307870036C432C22E8445
:1046B000AA8437AA000037AB0000938B85013EC067
:1046C00013DC4A0109476318EC0066859305CA07A5
:1046D000EF401035AA9C9305CA076685EF4050311C
:1046E00005472A89631AE50483C60C001307E00214
:1046F00093891C006382E608B3892C014E87854D9F
:104700009305CA073A853AC6EF4090313247930580
:10471000CA07330DA7006A85EF40902D2A882DC166
:104720008547631AF50203460D009307E0026317FD
:10473000F60433070D01E9B70947E31FE5FA094617
:1047400093058B076685EF40A0045DF5A95A568551
:1047500005616FB0BF9E89476312F5022AC60946FC
:1047600093058B076A85EF40A002324801E9FD1DE1
:10477000E3910DFC93092D00CE8C99B7850D55BFA3
:1047800003870C0069D79247094723A09701631359
:10479000EC0693D7AA0093F7F73F1307F03F638126
:1047A000E7028246AA07370610705E87DD8E130681
:1047B00006C0A2852685EFE0FFA7AA8AE34905F88F
:1047C000B74700001388C7D3A247930841014A871F
:1047D000B70600785E86A285268526CA66CC4ACEB4
:1047E000EFF09FA9AA8AE34405F659F57C38E9FB66
:1047F000F95AB1BFB15AA1BFEFB29F9337A90000D8
:104800009305C9072A84EF40B01EAA849305C907FF
:104810002295EF40F02022952695030505001335DB
:1048200015006FB03F93184D9C41D4416315F700BC
:10483000504D6307D6026315D700544D6382D702EB
:10484000D4459C456399D70098C1584D860723A449
:104850000500D8C1DCC59C45014585079CC5828003
:10486000EFB21F8DB7B600000566B7A5000037B5DB
:1048700000009386C6B513064617938585F9130580
:1048800005C3EF40D0001305C0FA6FB0BF8CEFB284
:104890009F8801118547AE8AA9653284232C0600C2
:1048A0005CCE2A8A4146938505BC0808B7040020DF
:1048B0003709F07FEF30107093098401373B000017
:1048C000A1041309F93F4E85EFE08FCC19C179554A
:1048D00035A80C082285EFF01FF56349050283A770
:1048E0000A00930841001308CB273EC483A74A005F
:1048F0002687CA863EC64E868147A285528552C209
:10490000EFF09F9793072500F59BD5DF05616FB00A
:10491000DF83EFB25F8041118547AE89A96532849C
:10492000232C06005CCE2A894146938505BC0A8566
:10493000EF305068930484012685EFE06FC519C1FC
:10494000795515A08A852285EFF0FFED63400502B9
:10495000CE852685EFE02FC519C52686A2854A8516
:10496000EFF0DFD071D941016FB02FFE1305C0FA0F
:10497000DDBFEFB2EFF8DC5903A9C50263FE270DD6
:104980003309F940AA8A2E84B28963F32601368955
:10499000CA8D130A0404795B930BC403130C8403BC
:1049A000930C8400370D102063940D004A8515A8E0
:1049B0001C581397D7006358070003A78A06545C56
:1049C000584F639AE6029396B700585863CD060095
:1049D000545410545E88E287D2855685EFE0DFEEAE
:1049E00011C56FB0AFF5232C640358DC1C58370792
:1049F0000400D98F1CD883A78A06D44F5C5CB3848B
:104A0000F64063F39D00EE8418581316B700635CFC
:104A100006025A20338697002A073367A70163EFFF
:104A2000C602A6884E885286E6855685EFE03FF39B
:104A30004DF95C58A699B38D9D40A6975CD85C5CF7
:104A4000A6975CDC95B7185CA6884E88528681458F
:104A50005685EFE04FCCE9BF014561B71305C0FAB9
:104A600049B7EFB26FEA3971AA842E89B2898145BC
:104A700071460810368BEFB0AFEEA9658547414609
:104A8000938505BC0808370A0020B70A10703EDE7F
:104A9000210AEF303052938A0AC02818EFE04FAF56
:104AA00009CD8054054AB70A1100416BB70B1200BB
:104AB000370C020045E00145BDA80C080810EFF0D6
:104AC0009FD66342050EE2554E8502992DE5F255BB
:104AD0004E8502992DE130180C102685EFF01FB994
:104AE00039E90144930B2020130C0020F95C835713
:104AF0004103E374F4FA9316A4003800B3E64601C8
:104B000056860C102685EFE0EFF26358050063141B
:104B10009503050442044180D9BF51816310750398
:104B2000324765DBA2464E88CA87268681452685A0
:104B3000EFE01FD279DD21616FB08FE0E30B0BFC5A
:104B4000E31985FDA2454E85029975F5B2454E855E
:104B50000299CDB77C20638447010040A1BF1C5857
:104B6000B3F7FA00638467031C58B3F7FB00E396BE
:104B700087FF58587DD3145C4E88CA8726869305D4
:104B800004042685EFE0DFCC69D975B7585469DF96
:104B900014544E88CA872686930504042685EFE0C0
:104BA0003FCB79D149BF1305C0FA71B7EFB24FD8E7
:104BB000784D7C49232E05042A84BA977855B3F79B
:104BC000E70238517CC93C55D057931736006373C0
:104BD000F700BA87685081453CCCEFB06FD8B73545
:104BE000000085462286938505E42285EFF07FE765
:104BF00019C57C54232C0404232E04043CD06FB02C
:104C00006FD5EFB2EFD241112A84384C744C63ED6A
:104C1000E6023C50C9E77C4837B70000B7A5000062
:104C2000BE967C5437A500001307C7B5B3F6F6024D
:104C30001306002C938585F91305C5EBEF4020453D
:104C4000115541016FB00FD1705093D7360013F555
:104C50007600B2979C23B3D7A700858B9DEB7C4849
:104C6000BE967C54B3F6F60294C1344C7C4C38505A
:104C700085077D177CCC38D063FBD70013D737006E
:104C8000329718239D8BB357F700858BE5F30145C9
:104C90004DBF3C50850674CCFD173CD085BF2285A6
:104CA0002EC6EFF0BFF0B2452DD161BFEFB24FC8B5
:104CB0002E8491052A89EFF0DFF4AA842DE1A285E4
:104CC0004A85EFF01FF4AA8439E918402324040030
:104CD000914813088400814791464A8681454A8558
:104CE000EFE06FA309C59307C0FA631DF5028327A0
:104CF0008906DC53635DF0001844850793E71700CD
:104D00007D173E97B377F702B307F7401CC491476E
:104D10005CC4FD571CC8232A04001CCC5CCC26852F
:104D20006FB04FC3AA84E5BFEFB20FBE41112A8412
:104D3000AE84138A0504938A8500130B05016C0069
:104D40002285EFF01FECAA8919E9B2452285EFE030
:104D50008FE2AA8969C19307C0FA6302F50C4E85F8
:104D600041016FB0EFBD9C58B38626411397B70041
:104D7000635807043054DA2093071900504E2A076D
:104D8000336777016366F60885481308B100CA8760
:104D90005286D6852285EFE09FBC0DE132478548DB
:104DA0001308B100CA8785462286DA852285EFF08E
:104DB0002F8815C19307C0FA6303F506AA8945B782
:104DC000985C85481308B100CA872286D28522855F
:104DD000EFE06F94D9B70509D45CE366D9F83C5489
:104DE0004C4CE8449057EF30F01C1C482854930575
:104DF0000401BCC05C48FCC01C4CBCC4EFE00FE329
:104E0000B247370702009CDC9C58D98F9CD881BFE1
:104E10001305C0FA65B70149B70B102075BFB2463C
:104E200037B700000566B7A5000037A500001307D7
:104E3000C7B5130606D0938585F91305052BEF40FA
:104E40000025FD571CC8E5BDEFB20FACBE893C552F
:104E5000BA8B9845DC531D712A84AE84B28A368B96
:104E6000428A05076340F00698C50149014C385451
:104E7000FD57CC40BEC8BECA7C47AEC482C682CCF9
:104E8000BDC7E1172285BECEEFE0EFCE3DC193074F
:104E9000C0FA6311F51AFD571CC86313091AD440F0
:104EA00037B700000566B7A5000037A50000130757
:104EB000C7B513064683938585F91305052BEF4087
:104EC000001DBDAA850793E71700B377F70298C5C1
:104ED000C9FF85474C10268502D23ED4EFD0BFECE7
:104EE000631D0514054959B70149054C49B75C4F85
:104EF00049BF930C8104914613868400E685228580
:104F0000EFF00F8349F57C103EC6B747000093874A
:104F1000E7003EC4B3073041C207C18737081040DD
:104F20003EC252C0CE88130808C0DA875687FD56A5
:104F30000146DE85228522D666D8EFE01FAD21F935
:104F400093868401368536CEEFD09FE4F24619ED84
:104F5000FC3837061000130686C093870760D20717
:104F60005D8EE6852285EFF04F8015F102DE82C06E
:104F700082C2631C0C009305C4036818EFD05FE67F
:104F8000930504036818EFD0BFE5930584046818FF
:104F9000EFD01FE5F2577018A68593F707C022855A
:104FA0003EDEEFE06FAA59E56818EFD01FE501ED8E
:104FB0003706008074181346C6C0E6852285EFE0E8
:104FC000DFFAE31605ECE6852285EFF04F8FE3105C
:104FD00005EC3C5436479C4FB377F7028DC3B7A618
:104FE00000002966856537A50000938606FE130636
:104FF00006D793852582130585F9EF3020729C40F2
:10500000D440B3093A41DCC0C64794C0239A340166
:10501000D8C49CC82324040423260404232804049D
:1050200063190C003146930504031305C403EF30E4
:105030006078628525616FB0AF90FD571CC8054947
:1050400085474C18268502DA3EDCEFD0DFD50DE52A
:10505000D44037B700000566B7A5000037A50000AB
:105060001307C7B51306A683938585F91305850035
:10507000EF40E00111557DBF938544002285EFF09C
:105080005FB8E30305E69157E316F5FAE30409FA7E
:105090004A8C0149E9BBEFB20F8879712E840C0864
:1050A000AA8432C636C43AC2BE8A42C0EFF01FC0DC
:1050B0002A8939E57C3802481247A303F1021C4CC7
:1050C000A24632463ED45C4C0C0826853ED6D68796
:1050D000EFF09FD7634A0502424AD2498547232C05
:1050E0004401232E34017CB8938504022285EFD03D
:1050F0009FCB19E563960A0023A0440323A234033F
:105100004A8545616FB06F842A89DDBFEFB24F8257
:105110004111B7350000814670009385C5F002C685
:10512000EFF03F9411E1324541016FB0AF82EFA241
:105130003FFD2A8913153700328B5D71AE84B68925
:105140003A8A36863695014813031040130EF04F05
:10515000930E0060DA28631FC512631D0818FC282F
:10516000639D071C83DB4401FD57373C0000B70CEF
:1051700010402328F900054D930D8103130C4CEFCB
:10518000938C0CC0814A33835B41636D6D2E6387C2
:105190000A04C20A93DA0A015E88D6872687D28675
:1051A0004E86A6854A85EFF01FEF2A84630A052CF8
:1051B0009157631EF50CD8409440B7B700000566C0
:1051C000B7A5000037A500009387C7B51306E6888A
:1051D000938585F91305C517EF30706B8327890612
:1051E000DC53635CF0089844850793E717000507D4
:1051F000B377F702D9E385472C18268502DC3EDE1B
:10520000EFD07FBA3DE94A85EFF05FF02A84634D25
:1052100005108327C9063384A7408D8363FF870465
:105220009444B7BC0000056CB7AA000037A5000085
:105230001387CCB513063C8A93858AF91305C51AE2
:10524000EF30F0645E8881472687D2864E86A68539
:105250004A85EFF05FE42A84630F052891576318AD
:10526000F50237A500009386CCB51306DC8A93853A
:105270008AF91305C51DEF3090615E888147268746
:10528000D2864E86A6854A85EFF01FBC2A84635FCE
:10529000041A59A81442D18293950601C18193F84A
:1052A000F57F639668000507DAA8210665B5639760
:1052B000C8030DE3B7A600002966856593864616E8
:1052C000130606D89385658C37A50000130585F96C
:1052D000EF30C0447D17DAA80548C1BF93F50570CB
:1052E000E395D5FD5842858A0C438CCC5843F4B8DD
:1052F000D8CC65BFE31507E681EFB7A600002966A5
:10530000856593864617130606D89385358D6DBF40
:105310003E86A6854A853ECCEFF0AFDF2A84E24781
:1053200001C9F957E30DF5E2228561616FA01FE124
:10533000FC3BE38607E2094411AADA289307E00F51
:10534000E3E2E7E29C4003278906D0443EDC944830
:10535000FD57BEC27C4732DEB6C0B2C4B1C3E1174E
:10536000BEC65C103EC6B74700009387E7003EC448
:10537000930A810302C202C081480148D2874E8746
:10538000A6854A854AD256D4EFE02FE82A8419C967
:105390009157E309F4DC9307C0FAE317F4F8D9B3A3
:1053A0005C4F75BF130C0903E285681002D602D862
:1053B00002DA930BC903EFD0BFA2DE856810EFD0ED
:1053C0003FA2681093058904EFD09FA1B2576810DF
:1053D00093F707C03ED6EFD05FA21DE17010A685FF
:1053E0004A85EFD07FE62A8421F1370600807410C9
:1053F0001346C6C0D6854A85EFE03FB72A8449F9EF
:10540000D6854A85EFE0BFCB2A8459F183278906E8
:1054100072579C4FB377F70281CFB7A60000296679
:105420008565938606FE130606D89385D59169BDDA
:105430008647D8C431469CC8E2855E85EF30803708
:1054400023240904232609042328090483270B00A5
:10545000832C8902130D10403ED683274B00894BC5
:10546000930D09023ED8E3810CEC938A8C006C10FA
:105470005685EFD05F932A8C49C183AC0C00E5B709
:10548000D68B09B393980A0193D80801B30710414A
:10549000C207C1873EC26EC662C45EC06688D2873C
:1054A0004E87FD560146A6854A851ACC02DCEFE000
:1054B000CFD52A84E31D05DC832789066243130EBA
:1054C000E00FF84711E3D84F63636E02944F135611
:1054D0001700130787FD9387F6FFB297B3F6D7023D
:1054E000958F6373F700BA876257E3F2E7CA1353E5
:1054F00013009A9A49B9854B49B3A6851306000251
:105500005685EF30202BFD55639B6A07138C0C02E8
:1055100003D74C0083D6CC01E361D7F603C6FC0168
:1055200029DEEE85628536CE3ACCEFD0DF8711C515
:105530006247F246158F2392EC006286D6854A8533
:10554000EFF0CF9271D52A84C5B313173C004E9764
:1055500018439307F04F135647011376F67F6314F1
:10556000F60429831377F73F6310D70203C76C0053
:105570006306770123A4BC0023A6BC00050C83D6D8
:105580004C00E3144CFD59B7E37AD7FE03C76C0017
:10559000FD162392DC00E31377FF03A78C027D172F
:1055A00023A4EC02E1BFE31BA6FD29831377F73F99
:1055B000E3E6E6FC03C76C0085062392DC00E31FEC
:1055C00077FB03A78C020507E1BFEFA27FB39C59CD
:1055D00001112A8C1397B700AE8C328AB6896350BA
:1055E0000704D859D455B307370163F3D700B687FA
:1055F0008326CC0763F5F6028327CC0623AEEC02A4
:10560000E6852320FC066285EFF00FF283A70C03EA
:105610003DE13707F0FF7D17F98F23A8FC024E8488
:1056200019E04E85B1A883A60C03B7070200938446
:105630000C04F58F81CB03278C0603A6CC03584FAF
:105640006316E60C1396B60003A74C036346061CCC
:10565000A1E31DCF83A6CC0203A68C02130801018F
:1056600093878C037D17A685628502C8EFE0CFA5DE
:1056700019C983A70C0337070800D98F23A8FC0298
:1056800005616FA0BFAB03258C06A685EFD01FDA9E
:105690008327CC0603AB4C0383AA8C032320FC0690
:1056A000930DFBFF4C086285EFF0AFD579F1D24541
:1056B0006285EFD05FCC1DC99307C0FAE31BF5FAF2
:1056C000B7B700001387C7B5D246B7A700009385C8
:1056D00087F90566B7A700001385072B130646BC9C
:1056E000EF30F01AFD5723A0FC046DBF03258C0694
:1056F00063110B06D24723AE0C0223ACFC0283A736
:105700000C0337070200D98F23A8FC0283278C06DD
:1057100003A9C70183A7CC033309F94063732401AC
:105720002289930AC0FA83A7CC0303A78C03CA88F3
:10573000528885466286A6856285EFE06FEF630337
:10574000050EE31855F3E6856285EFF0EFDD61DDC8
:105750000DB72C086ECCEFE02F8B03278C06E247A9
:105760000149584F85073ECC6392E7080505EF20B5
:10577000D034AA8B1309150056CE014D5247131F82
:105780002D00FA8791481308C10185466286A685D7
:1057900062857AC6EFE0CFE9324F19FD6391AB071E
:1057A000050DE36D2DFDD2470A0923AE2C0323AC72
:1057B000FC02B1B785481308C101CA875687B38672
:1057C0002641628681456285EFD0EFF4E31305EA56
:1057D000524785481308C101CA8785466286A68557
:1057E0006285EFE0EFE4E31905EC0509E246E363C7
:1057F000D9FCD24723AEDC0223ACFC0209B77247C6
:1058000091481308C101FA879146628681456285F5
:10581000EFD06FF051D5B1BDF95723ACFC0223AEE8
:10582000EC02F1BD83A74C034A9A33042441CA9782
:1058300023AAFC0283A7CC03CA9723AEFC028327CA
:10584000CC062320FC06E9BBEFA21F8C9C591D71DE
:10585000AA841397D700635D07001397B7006344CA
:1058600007007D57B8C13707FCFF7D17F98F9CD91A
:105870009C5901451397E700635807081397B70031
:105880002E8403A9450383A9C502634B070A1306A7
:10589000400581456800EFA0BF8C1C544146A68599
:1058A0003EDAE80085474EDC3EDECAC0EF2090704D
:1058B000FD579CC0FD5958585C54636AF7048569CC
:1058C000930B0404130CC0FA37BB00009389F9D47E
:1058D000B7AA000037AA000085462686DE85268501
:1058E000EFE04FC93DC163118503145C93858AF9CC
:1058F0001307CBB54E8613050A2BEF304079A285EE
:105900002685EFF06FC269D925616FA07F83854638
:105910001306B1006C002685EFF0AF85E34605FE67
:1059200085461306B100A2852685EFF01FCAE34D18
:1059300005FC9C40E38137F9CEC623A03401A5BF06
:10594000CA8763733901CE875CD81C5C01777D17E9
:105950001CD45C580145232A24035CD41C58F98FBD
:105960004167D98F1CD84DB7EFA2EFFA41112A89B0
:10597000DC59328495C605473304F6006382E6029B
:1059800009473E84639EE6009459D8551395E60076
:105990003A84635605003E8463F3E7003A84329408
:1059A000032749072955636587006316F40022859C
:1059B00041016FA08FF99859AE849316D70063D038
:1059C000060403258906D45D584D638AE6022C003F
:1059D0003EC4EFD07FE3AA89032589066C0022C666
:1059E000EFD09FE2639DA900FC4032476369F70056
:1059F000B444B6976375F700C0D8D8DC4DBFA68510
:105A00004A85EFF07FE44DF5C0D855B7EFA24FEFD0
:105A100083298502370AF0FF19712A842E89B28AF8
:105A2000368B854B7D1A6395090C83270900130675
:105A30000002CA853EC48327490088003EC6EF2085
:105A400070579C105A87D6864A868C002285EFF0C4
:105A50000FEEAA84634105102C004A85EFD0AFB445
:105A600019E5130600028C004A85EF20B0548947DF
:105A7000639CF40413068404CA852285EFD0CFFC0E
:105A8000AA8471E9865737071000130787C03EC400
:105A90009657610914083EC68347F9FF30008C1001
:105AA00093870760D207D98F3EC805478147228573
:105AB0004ACAEFF0CFE7AA84634F05081306000235
:105AC0008C108800EF20104F268D814A37BA0000D5
:105AD000B7A90000B7AB000037AB0000130C0402FD
