:040000006F208043AA
:1000040000000000000000006E1F0000701F0000D0
:100014000000000036240000000000000000000082
:100024003624000036240000000000000000000018
:100034003624000000000000362400000000000008
:100044003624000036240000362400003624000044
:100054003624000036240000D01F0000D81F000002
:10006400E01F0000E81F0000F01F0000362400001D
:100074003624000036240000362400003624000014
:100084003624000036240000362400003624000004
:10009400362400003624000036240000F81F000037
:1000A40036240000362400003624000036240000E4
:1000B40036240000362400003624000036240000D4
:1000C40036240000362400003624000036240000C4
:1000D40036240000362400003624000036240000B4
:1000E4001A20000036240000362400001C170000EB
:0C00F400362400003624000036240000F2
:10010000397101436EC619A0397141536AC866CA74
:1001100062CC5ECE19A0397101535AD056D252D456
:100120004ED64AD826DA22DC06DE330161408282CE
:1001300041114AC026C222C406C68282B24D410184
:10014000024D924C224CB24B4101024B924A224A40
:10015000B2494101024992442244B24041018280A5
:100160003D432A876373C3029377F700BDEFADE584
:10017000937606FF3D8ABA960CC34CC30CC74CC796
:100180004107E36BD7FE11E28280B306C3408A06C3
:100190009702000096966780A6002307B700A30683
:1001A000B7002306B700A305B7002305B700A304D3
:1001B000B7002304B700A303B7002303B700A302CB
:1001C000B7002302B700A301B7002301B700A300C3
:1001D000B7002300B700828093F5F50F9396850052
:1001E000D58D93960501D58D61B79396270097021B
:1001F000000096968682E78086FA9680C1171D8F4A
:100200003E96E374C3F8A5B7EFF29FF20545EF20E1
:10021000904189B7EFF2DFF1411185443399A40091
:10022000371401402EC623282481F93FB245130418
:100230000480B394B40004C8C13F232A2401E937E1
:1002400044C8D937410139B7EFF2FFEC85443399FF
:10025000A4004111B394B4009D49054B371A0140E5
:10026000FD5AB3173B01F18F13070A80B1C723284A
:10027000270132C6513F23289A807937232A9A8052
:100280006137FD1913040A803246E39C59FD232887
:100290002A819D3F23289A80853F83298A80AD3714
:1002A000232A9A80953723282A81B93F33F52901DB
:1002B00013351500410151BD232A27015DBFEFF21F
:1002C000BFE40549B31AA90041112A8BB68923005E
:1002D00006003319B9001D4A371C0140FD5B32C6C8
:1002E00023285C81153723282C81393F83248C8077
:1002F000213F232A2C81093F3246B3F49A00B334BC
:1003000090001C22B39444017D1ADD8C04A21304D6
:100310000C80E3167AFDB399690123285C81ED35E1
:10032000232A3C81D53523282C81F93D232A2C8191
:10033000E13D23283C81C93D410119B5EFF25FDF62
:1003400041118544B395B4002AC6371401402328CF
:10035000B4805D3D324513040480B394A40004C806
:1003600065354101C5BBEFF2BFDCEF10502775DDED
:10037000EF1050292A89EF10902675DDEF10902894
:100380002A84EF10D02575DDEF10D027AA84EF1056
:10039000102575DD2204EF10F02633642401C20419
:1003A000458C6205418D7DB3EFF29FD841112AC67D
:1003B00091456800EF10F027EF10F02E410159BB76
:1003C000EFF21FD737240140AA859546054613054D
:1003D0000440EF20201D854513050440EF20001B3D
:1003E0009304044089452685EF20402A65DD1305E6
:1003F0000440EF20A026AA84894513050440EF207D
:100400008029268581BBEFF2BFD201119375F50FCC
:100410002A84014502C802CA02CC02CE02C402C626
:10042000EF20A0418547B3948700414708083ECE9E
:100430003ACC26C802CAEF2000282685EF202030BB
:10044000914763E08702930764015C848547DC84FD
:1004500089475C85280085473EC6EF20204105611D
:10046000D5B9254793077002E37187FE9307800390
:10047000E9BFEFF2FFCB411105443314A400C1479B
:100480000A853EC422C002C202C6EF20C0222285D5
:10049000EF20E02A41017DB909E5B7070040CEBB56
:1004A000828085476316F500B70700408EBF8280C3
:1004B00089476316F500B7070040CEBF82808D479D
:1004C0006317F500B70700402390B704828099476F
:1004D0006317F500B7070040239AB74282809D4713
:1004E0006317F500B7070040239CB7428280A147FD
:1004F0006317F500B7370140239AB7C28280A5473A
:100500006317F500B7370140239CB7C28280A94723
:100510006317F500B7370140239EB7C28280AD470D
:100520006316F500B73701402390B7C48280B71730
:10053000014023A8A780AD470100FD17F5FFB717BD
:10054000014023AAA780FD470100FD17F5FF828027
:10055000B717014023A8A780E1470100FD17F5FF69
:10056000B717014023AAA780C9470100FD17F5FF6F
:100570008280EFF2FFBB99C1E13FE9BE4D3FF5BF7D
:10058000EFF21FBB2E8493F50508AA84DD3793751F
:1005900004042685F93F937504022685D93F937597
:1005A00004012685F937937584002685D93793751C
:1005B000440026857D3F9375240026855D3F937515
:1005C000140026857D3779B6EFF21FB479731303D3
:1005D00003AC1A91EF10B00075DDEF10B002930775
:1005E000C008630DF55C63E7A70AE1476309F530CE
:1005F00063E4A704D147630BF52C63E2A7028547A8
:100600006304F52893178501E187638C07268947E2
:100610006308F53409631A911301015415B6D947DB
:100620006308F52C63FFA72AEF10607B75DDEF10E0
:10063000607D930580044DA493077007630EF55207
:1006400063E9A702FD476304F52C93070002630DDD
:10065000F52CF947E310F5FCEF10607875DDEF102D
:10066000607A85473395A700B717014023A8A78074
:1006700055B793079007630CF5526366F5509307DF
:10068000A007E319F5F8EF10807575DDEF1080779E
:10069000053BCDAA9307A009E30EF50463E6A70C7A
:1006A000930700096304F56863E9A7089307E00866
:1006B0006302F55E63F9A752EF10607275DDEF100B
:1006C00060742A84EF10A07175DDEF10A073AA8406
:1006D000EF10E07075DDEF10E07206059379F50F0D
:1006E00059318967938707531808797ABA97AA8A84
:1006F00001493E9A631D5957EF10606E75DD420443
:10070000C204EF1020704180C180A6852A8A22850C
:1007100011364E86A6852285053E89679387075345
:100720001808F979BA970149BE99631C5955E30332
:100730000AEEA68522851931F1BD9307800963056C
:10074000F57463E6A76E93077009E315F5EC93075C
:10075000800873B007800F10000023A6018423A433
:10076000018473A007807DB59307A00AE30CF5020E
:1007700063E2A7069307C0096303F572636CF57221
:100780009307000AE318F5E8EF10606575DDEF10D8
:1007900060672A84C93E2A89F93689679387075397
:1007A0001808F979BA972A8A8144BE996392447DE0
:1007B000896793870753180842044209F979BA9761
:1007C0008144418013590901BE99639C447B814552
:1007D0002285D9AE9307500BE309F50463EBA70418
:1007E0009307400BE318F5E2EF10605F75DDEF1043
:1007F000606105443314A4000145EF20C062B714C2
:10080000014023AA84801305001EEF20C061130558
:10081000600423A8848093840480EF20C060844413
:100820001305A019EF20206033F58400133515005F
:1008300091A89307600BE302F5029307700BE31B8B
:10084000F5DCEF10C05975DDEF10C05B05443314C3
:10085000A400B714014023AA84801945EF20A05CAE
:10086000254523A8848093840480EF20C05B8444C2
:1008700013057003EF20205B33F584003335A000AF
:1008800011A00145153679B30967140813070753FA
:100890003697F977BA97B7450000938505662546E0
:1008A0003E853EC637F4FF1FEF20502C0325847E83
:1008B000E53C0325C47ECD3C0325047FF534324559
:1008C000A145EF100057EF10005EA9B3EF102051C3
:1008D00075DDEF102053C14542054181EF00807A5C
:1008E00015BBEF10C04F75DDEF10C051D145EDB70E
:1008F000EF10E04E75DDEF10E0509145F1BFEF10C5
:10090000004E75DDEF10005093058002F1B7EF1037
:10091000004D75DDEF10004F85473395A700B717E1
:10092000014023AAA780FDB1EF10604B75DDEF10E9
:10093000604D8966B717014093860653100803A7D8
:100940008780B296F977B6973EC685473395A7005C
:10095000B247798D3335A00088C385453E8595B76C
:100960008967180893870753BA97F974BE9423AC24
:1009700004AC23AE04ACC53A2A8401496317891636
:100980008967938707531808F974BA97A285338546
:100990009700EF0030356314051689679387075376
:1009A0001808F974BA97A28533859700EF00D03004
:1009B000631A0516A28513050154F974EF0050352A
:1009C0000DC955328967938707531808938404B07B
:1009D000BA972ACC0149BE9493090010EF10204029
:1009E00075DDEF102042B387240188A30509E317C2
:1009F00039FF8967938707531808F974BA97A28556
:100A000033859700EF0030336315051409659308AB
:100A10000101930405537976C6941308C6AD930774
:100A200086AD130706C0930606B0930506AE26965C
:100A300032C613060553469632981306055346965A
:100A4000B2971306055346963297130605531305BE
:100A500005534695AA9532454696B2962286EF00F2
:100A600080683245A285EF00F027B334A0003245FC
:100A7000A2859604EF00302C19C19384441026857A
:100A8000EFF09F920945EFF03F92896793870753F4
:100A90001808F974BA97A28533859700EF0090245F
:100AA00019CD8967180893870753BA97138504AE41
:100AB000930500023E95EF10C037EF10C03EA285AF
:100AC00013050154F974EF001027E30505B47245CE
:100AD000EFF09F8D138504C09305001089679387FD
:100AE00007531808BA973E95E9BBEF10402F75DD04
:100AF000EF104031B387240188A3050941B5096788
:100B00001307075314083697938404AEBA948147A9
:100B100013070002B386F400238006008507E39BD9
:100B2000E7FEA5BD8967938707531808938404AE31
:100B3000BA970149BE9493090002EF10402A75DD6F
:100B4000EF10402CB387240188A30509E31739FF70
:100B500095B509671307075314083697938404C0A3
:100B6000BA94814713070010B386F400238006006F
:100B70008507E39BE7FE59BDEF10602675DDEF109A
:100B80006028E14591BBEF10802575DDEF108027CF
:100B90002A84EF10C02475DDEF10C02693150501DF
:100BA00013150401C1814181EFF01F8FA5B4EF102F
:100BB000002375DDEF100025814539BBEF102022A1
:100BC00075DDEF102024AA84EF10602175DDEF1091
:100BD00060232A8413950401D14541816521D145C3
:100BE00013150401DDB9EF10801F75DDEF108021B2
:100BF0002A84EF10C01E75DDEF10C020896793872F
:100C0000075318084204931905017979BA97854466
:100C1000418093D909013E99930A0008CE85228527
:100C2000EFF04FDF13FAF40F13161A00CE85137688
:100C3000E60F2285EFF04FE12A8BCE852285EFF07B
:100C4000EFEF63080B0085454A8523004901EF104B
:100C5000401E8504E39454FD0967130707531408E5
:100C6000F9773697BA973EC623800700FDB1EF109B
:100C7000001775DDEF100019B3072A0188A30509D5
:100C800095BCB38729019023A6852285EFF0CFDBA1
:100C9000050961BCEF10A01475DDEF10A0162A84C1
:100CA000EF10E01375DDEF10E015AA84EF102013AC
:100CB00075DDEF10201506051379F50FEFF0AFEA9B
:100CC000AA89EF10C01175DD4204C204EF10801331
:100CD0004180C180A685AA8A2285EFF0AFD3136632
:100CE0001900A6852285EFF02FD6896793870753D1
:100CF0001808797ABA970149138BF9FF3E9A631D58
:100D0000390163860A00A6852285EFF02FE39395CB
:100D10000901C1817975D9B3B336690133062A0156
:100D2000A6852285EFF0AFD90509D1BFEF10200BC2
:100D300075DDEF10200D2A84EF10600A75DDEF10CD
:100D4000600CAA84EF10A00975DDEF10A00B06055A
:100D50009379F50FEFF02FE189677979938707533E
:100D60001808130909C0BA97AA8A014A3E99631361
:100D70005A09EFF04FDF2A8BEF10600675DD420451
:100D8000C204EF1020084180C180A685AA8B22856D
:100D9000EFF04FC84E86A6852285EFF0EFCA89672F
:100DA0007979938707531808130909C0BA97014A3C
:100DB0003E99631B5A05A6852285EFF0AFC513E661
:100DC0001900A6852285EFF02FC8896793870753FE
:100DD0001808F979BA970149130AFBFFBE99631EF7
:100DE000690363860B00A6852285EFF02FD5931546
:100DF0000B0105B7EF00B07E75DDEF10A000B30763
:100E0000490188A3050AA5B7B30749019023A68520
:100E10002285EFF06FC3050A69BFB33649013386F7
:100E20002901A6852285EFF08FC905094DBFEF0086
:100E3000107B75DDEF00107D2A84EFF0CFD2931781
:100E4000050113190401C183AA89135909019DC31E
:100E5000D1454A85052C8544B39484001395090136
:100E600037140140232A94804181EF10D07B130472
:100E7000048004C891454A8531244A85EFF0AFD8F3
:100E8000EF10600A6FF00FF9EF00707575DDEF007D
:100E90007077EFF00FDEEF10A00B6FF0AFF7930756
:100EA000800873B007800F10000073A0078003A5AF
:100EB0008184C9BA13078008733007800F100000BF
:100EC00083A6818483A7C1849385F6FF23A4B1847C
:100ED000732007800567130787BBBA97958FB3F711
:100EE000E702371700201307471E8607BA978A23A1
:100EF0006FF05F99EFF02FC72A869307800873B0D1
:100F000007800F10000003A4C18483A5818473A00F
:100F100007802A8963F3A5002E8937450000130551
:100F20008563EF20C04F4A85EFF00FC837450000BA
:100F3000CA8513050565EF20804E8567938787BBBB
:100F40003E94330424413374F402371A002081495B
:100F5000BE84130A4A1E638F29EBB3878900850973
:100F6000B3F797028607D2978A23EFF0EFC3E5B76E
:100F7000EFF06FBF93971400CE978AA385046FF0AC
:100F8000FF8293F71400814591E3CA852285EFF033
:100F9000AFD093971400CE978A238504EF10B068E2
:100FA0006FF0BF82EF00B06375DDEF00B0652A8A95
:100FB000EFF06FBB89679387075318087979BA9761
:100FC000AA8981443E99639834050544896733149E
:100FD00044019387075318084204F974BA97418073
:100FE000BE940149637839E38C2083CA14002285BA
:100FF00003CA2400EFF0CFD8D6852285EFF04FD872
:10100000D2852285EFF0CFD71305800CEF10B061A9
:101010000D098D04C1BFEF00905C75DDEF00905E9F
:10102000B307990088A3850479BFEF00505B75DD95
:10103000EF00505D8544B394A40037140140232A87
:1010400094801305C003EF10105E1304048004C8DD
:101050002945EF10505D6FF0EFDBEF00505875DD64
:10106000EF00505A8544B394A40037140140232A5A
:1010700094801945EF10305B1304048004C81305F5
:101080000004C1BF8546B396A600C20693F7F500DB
:10109000C189C18299C193E737001307F00F637AC2
:1010A000D702371701400326478061150A053D47DF
:1010B0003317A7001347F7FF3395A700718F9307E6
:1010C000F00F598D63FCD700B717014023A2A7800A
:1010D00082803717014003260780C9BFB717014038
:1010E00023A0A7808280EFF2AF815D712AC42E8495
:1010F000B68A3A8BBE8942898144014DDD4B130C7F
:101100001002930C3002930D4002A2473D46130596
:10111000F00F3387A7011423FD456148638EC6286D
:101120006366D60A1D466383C6146360D6060D4601
:10113000638BC61E636FD600054693074D00638020
:10114000C6126373D612362337170140232AD7807D
:1011500021AA15466383C61A6379D61E3423283321
:10116000054A36C6EF107058B246331ADA00B71681
:10117000014003A7868033774701631F0710EF10F4
:10118000F057B716014075D501AA2D466387C626CC
:10119000636BD6002546638EC624637ED6102A2351
:1011A000EF1070485DA837160140B54593074D0014
:1011B000130606806380B61C63FED51C3823544694
:1011C00022971823C19A558F58C679A8638476212F
:1011D00063E3DB044D46638FC6066360D602454673
:1011E000110D930580026387C60091456374D60094
:1011F000930580042823793509BF55466383C620AB
:10120000D145637AD604FD14939724009808BA97C1
:1012100003AD07FCDDBD638686216362DC02638E5D
:10122000B61E63ECD522E39B06EFB716014093860A
:10123000068094463823A182229714A339A8638894
:10124000962363EE9625638FB619E399A6EC616148
:101250006FE0DFEEC14528233535110D7DB536230E
:10126000371701402328D7803E8D45B52833034AE0
:101270002700EF1090470547331A4701B716014082
:1012800003A786803377470119EBB716014003A700
:1012900086803377EA0011CBEF10F0467DBFEF1068
:1012A000F045B716014069DDCDB7EF103045B716F0
:1012B000014071DDD5B72833034A2700EF10F04213
:1012C0000547331A4701B716014003A786803377D5
:1012D000470111CFB716014003A786803377EA0094
:1012E00045DFEF10B041B71601407DD575B7EF105F
:1012F000F040B716014071D9F1BF34232833054AB5
:1013000036C6EF10903EB246331ADA00B7160140E7
:1013100003A786803377470141D3EF10303EB716DD
:1013200001407DD595BFB716014003A686802C23CA
:10133000343305473317B700A296718F90223337A5
:10134000E0000606518F98A209BF30332C23229665
:1013500018229356170014A28546137617003717E4
:101360000140B396B6001307078019C214CBF5B538
:1013700054CBE5B534332C2310460547A2963317DA
:10138000B700718F90223337E0001E070582518F1E
:1013900098A2D9BD2C332823A29594211397160027
:1013A000E20698A1E18605473317A70063D406003B
:1013B00018CA5DBD58CA4DBD3823B716014003A6F3
:1013C000C680229718231376F6F02207518F23A6A2
:1013D000E68061B5B71601409386068094463823AF
:1013E0002297A1BD36230147E359D7E6010005073F
:1013F000E5BF2A23EF10F0298DB52A23EF10102620
:10140000A9BD939624009C08BE9693074D0023A087
:10141000F6FC035D27008504CDB93433A2969422EF
:101420007DBF8326090037160140382303288680B4
:10143000854513F676003396C5008D82B395E50099
:10144000DA96B3F50501882299CD498E90A203273B
:10145000090005072320E90009B5032609009306C2
:10146000F07F918EC9B71346F6FF698EC5B730235A
:1014700003A709007D1723A0E90093553700D695EF
:101480008C2185461D8B3397E6003396C6006D8F01
:10149000B71601409386068011CF90CA7DBB3023DA
:1014A00003A709009306F7FF1307F07F23A0D900D5
:1014B000158FE1B7D0CA55B3B716808101477D4675
:1014C000C1066364B70001458280B307E5009C2331
:1014D0006366F600B3D7F600858B99E30D07D5B7A1
:1014E00005458280B7E6008001477D46A10663641A
:1014F000B70001458280B307E5009C236366F600D0
:10150000B3D7F600858B99E31107D5B705458280DF
:10151000014785466364B70001458280B307E50053
:101520009C239387E7FD93F7F70F63F4F6000D070D
:10153000D5B705458280014785466364B7000145FC
:101540008280B307E5009C23811793F7F70F63F4BC
:10155000F6000D07DDB705458280EFE27FBD094546
:10156000EF10E03685450565EF1000456FE09FBE42
:10157000B707005013070004D8A713078004D8B793
:101580001387418698CB1387418AD8CB1387418E26
:1015900098CF13874192D8CFA3890702A38D070262
:1015A000239A0702239E070209472389E702238B18
:1015B000E702238FE7029387418223800700A380FD
:1015C000070023810700A381070023820700A3826D
:1015D000070023830700A38307008280EFE25FB543
:1015E0003704005099471CA01DC52945EF10B003D2
:1015F0009D47230004003CA0930790021CA08D3F50
:10160000930710F81CB037070008B7E700E023A2E3
:10161000E7106FE03FB42945EF10F000B7E700E0B6
:10162000230004003707000823A2E7180F1000006A
:10163000CDB79307F5FF93F7F70F1948636DF80CD3
:10164000EFE27FAD93874182AA979C2393844182E6
:10165000054793F7F70FCDEB85476305F500114775
:10166000631CE500B7070050DC27054793F7F70F29
:10167000631EE50291831DA81307E5FF1377F70F9B
:1016800063E9E700B7070050DC370D4793F7F70F22
:10169000C5B71307B5FF1377F70F63E0E704B70784
:1016A0000050FC2793F7F70FE30605FD13F84700FA
:1016B0000147630B08043704001411042A94A18B1A
:1016C000B2892A890A0485C30840B7070020938796
:1016D00007043E95EF10904919A8B7070050FC3752
:1016E00093F7F70FE1B785E6C205C1810CC023105F
:1016F00034038347240233852401014793F7C70F3E
:101700002301F40285471CA13A856FE01FA408401D
:10171000B70700207DBF05473A858280011122CEA0
:1017200026CC4ACA4EC852C656C437040050782048
:101730007C301377F70F937627006382065893F770
:10174000F70F13F70703930500026300B70493062E
:101750000003630BD71879EF13F7F7036308071239
:1017600089476319F70C8347B40393C74700A30D58
:10177000F402084442054181EF0080738347B403BB
:1017800093F7C70FA30DF40275A093F7F703930621
:1017900010026386D70A930630026385D70C639BD9
:1017A000E708938701839E2393840183C207C18343
:1017B00081E79147A309F40283C7218393F70706C2
:1017C000B5EB83C7C182154793F7F70F638BE70427
:1017D00019476391E7069E201307F00313040004E2
:1017E0006365F70082204204418013898183832945
:1017F00009002286CE8513854186EF1030379E2062
:10180000A29923203901818FC207C1839EA0B70707
:10181000005082BB03C72703134747002389E70211
:1018200011A8370700503C3383C6018293F707089D
:10183000D58F3CB3B70700500947F8A351A9834798
:10184000640393C74700230BF4028347640393F7B1
:10185000C70F93E72700230BF40293874182A380ED
:101860000700C9BF8347E40393C74700230FF4026F
:101870008347E40393F7C70F93E72700230FF4028E
:1018800093874182A3810700592D6DB7184493F7C0
:101890000704CDD383C721831387018393F70706FA
:1018A00095CB2310070083C7C1826395F502B70665
:1018B0000020814713864186938606089D4533059F
:1018C000F600034805003385F6008507230005016F
:1018D000E397B7FE1E23C207C183A9FFB7070050D5
:1018E0002398070211471DBF99472309F402A30952
:1018F000F402938641869C22138621831CA29C328B
:1019000003D866001387C1821CA383D8260093875F
:10191000018323900701138841832310180183D882
:1019200046001388E182231018010348060013893A
:101930000183938921831378080613864186938750
:1019400041839386E1826304080A83C70900938474
:10195000818393F70702C9C31C231307100293F76F
:10196000F70F6385E706636BF70401446384B700F0
:101970001304F00F835709001307F003130A000440
:101980006367F700035A0900420A135A0A0183AA3F
:101990000400528613854186D685569AEF10101D95
:1019A00023A044019307F00F6315F410B70700500C
:1019B0001D472389E702A389E702ADBD1307300263
:1019C0001304F00FE368F7FA01446DB7B70700207E
:1019D000938707089CC0CDBF03C409001980134436
:1019E00014000588330480401374F40F61B7182382
:1019F000AD451377F70FE3EBE5FA91650A07938599
:101A0000C5662E97184302879A23894621839384BB
:101A100081836306D7020D46630EC70285476316AE
:101A2000F70491671387076E83C7076E98C0014458
:101A300003570900E3F0E7F42310F90025BF11670D
:101A40001307C7693C3398C03823A207BA97C20767
:101A5000C183F1BF9E23054693F7F70F6381C70249
:101A600089CB6385D702638AE70281471304F00FAD
:101A7000C1B71387818198C083C781814DBF9167AA
:101A80001387476F98C083C7476F55B79167138710
:101A9000477098C083C7477059BF91671387C77154
:101AA00098C083C7C77161B79E2393F7F70F238050
:101AB000F18283C70900E207E18763D8071E035755
:101AC00009009307000463E6E70083570900C20793
:101AD000C183035709001D8F420741832310E9008A
:101AE000370700501EBB91472309F702A1B383C7F4
:101AF00011821CA2035709008547E3FCE7FA231073
:101B0000F90045BF9E2393F7F70FA380F1820547A5
:101B10002381E18279BF03C709007D8B11EF9E23EA
:101B2000054793F7F70FE396E7F8938731829823F9
:101B30001377E70F98A3B5BF03C7090009467D8B4C
:101B4000E316C7E69E2393F7F70FE39107E69E227D
:101B50009306100893F7F70F638DD70093063008AC
:101B6000638ED700E394E7E4B7070050A38D070224
:101B700089B7B7070050238BE70225BFB70700508E
:101B8000238FE7023DB703C709007D8B05E79E233E
:101B9000054793F7F70FE39BE7E0916783C7376A41
:101BA00093F70702E38407E0938731829823136752
:101BB000170049B703C7090009467D8BE318C7DE44
:101BC0009E2393F7F70FE39307DE9E2293061008F8
:101BD00093F7F70F6381D702930630086386D70225
:101BE000E396E7DC370700508347B70393E73700F6
:101BF000A30DF7027DBD370700508347670393E7C6
:101C00003700230BF70275B5370700508347E7030A
:101C100093E73700230FF70269BD23000600D9BD03
:101C200083C7090023100600FD8B85E383C731823B
:101C30000144858B99C389471CA203570900894732
:101C4000E3F2E7D62310F900B1BB03C709008947C7
:101C50001304F00F7D8BE312F7FE9E22930610080B
:101C600093F7F70F6381D70293063008638AD70290
:101C7000E395E7FCB707005083C7B7038D8B0D478B
:101C8000639EE70011A8B707005083C767030D479D
:101C900001448D8BE393E7FA85471CA2014471BF91
:101CA000B707005083C7E703D1BF83570900C207B6
:101CB000C183E38507C2B70700501147EDB9937799
:101CC000170085C3A3010400EFF09F8A85477CA01D
:101CD0007244E2445249C249324AA24A0561730041
:101CE00020309377470085C7583093873182118B16
:101CF00011CB98231367270098A39C23B7070050A4
:101D0000114725BE98231377D70F98A3C5BF78A096
:101D1000C1B7EFE2EFC1EFF05F840545EFF01F8C34
:101D2000239F0182239E01822392018423900184B8
:101D30006FE04FC283C72182054701456318F70052
:101D400003C511821375F50F3335A0008280EFE2D1
:101D50002FBE3971C53725CD93874182BC3393F7A8
:101D6000F70FB5E79386418483D7018496221387C2
:101D70004184C207C206C183C18263EDD704958F37
:101D8000C207C183A9C7930600043E8663F4F60028
:101D9000130600044206B715002041828146938550
:101DA000459E1E233305D1008506AE979C231CA1BA
:101DB0001E23850793F7F77F1EA393970601C18320
:101DC000E3E1C7FE85468A850D45EFF09F862161D8
:101DD0006FE04FB8056613060680B2974DB703D57E
:101DE000C18383D7E18342054181C207C183636612
:101DF000F5001D8D4205418182800567130707802C
:101E00003A95C5BF83D6C1839387E1839A23014561
:101E100042074183630ED70096233707002013073C
:101E2000471E369708239A2305071377F77F9AA34F
:101E30008280EFE2EFAF0566371800208146130677
:101E40000680930EF07F1308489E1394060141808C
:101E50006366B400ED3D22856FE0CFAF93870184C8
:101E6000138741849E231A2393880184C207420763
:101E7000C183418363E7E702998FC207C183E38B84
:101E8000D7FD83D708003307D5001823C2978506EE
:101E900098A383D70800850793F7F77F2390F8006E
:101EA0006DB7B297D1BFEFE2AFA855356FE08FAAFB
:101EB0000566B7050020814613060680930EF07F65
:101EC0009385451E1388418E93970601C18363E372
:101ED000A70082809387C1831387E1839E231A23FF
:101EE0009388C183C2074207C183418363E7E70246
:101EF000998FC207C183E38ED7FD83D7080033874C
:101F000006011823AE97850698A383D70800850796
:101F100093F7F77F2390F80045BFB297D1BF0547ED
:101F20002381E1848280EFE2AFA0371400401305E3
:101F300004808145EF00F05E13050480FD45EF004D
:101F4000905E854513050480EF00B0546FE08FA0CC
:101F5000EFE20F9E371500401305058042318145A1
:101F6000EF0030534204418022856FE0AF9E01A014
:101F7000B707EFBE37E700E0938707083CC701A02B
:101F8000EFE20F9B2A84EF00A07929C1D137138794
:101F9000C1841C43371600201306461E9396170073
:101FA000B2968AA28566138686BB8507B3F7C702F9
:101FB000938676BB1CC393878184984363E4E600D1
:101FC000050798C32285EF008077B13F6FE08F98B7
:101FD00005457D377300203009455D37730020309B
:101FE0001145793F730020302145593F730020305F
:101FF000414579377300203013050002513713052E
:102000000004BD3F13050008A53F130500108D3FD8
:1020100013050020B53773002030130500408D37BD
:10202000056513050580A93F0565993F0965893F49
:102030001165B9372165A93773002030EFE24F8F62
:1020400001119307F00F7C844C00B9472A847C82ED
:1020500002C802CA02CC02CE2313010023150100DC
:1020600023160100EF00D01CC167938707060C08F8
:1020700022853EC8231B0100231C0100EF007021B4
:1020800081452285EF0070450C082285EF0010275E
:1020900081452285EF005045B707004093870740F0
:1020A0006302F4020C082285EF00B02E81452285E0
:1020B000EF00F0440C082285EF00F03681452285C0
:1020C000EF00D04485452285EF00903FB7370140AF
:1020D000938707C06316F40085452285EF00F03C26
:1020E00085452285EF00F03A05616FE0AF86EFE2AB
:1020F0002F840111FD5702C268007C8202C02314A4
:102100000100EF00807F371702405843D2472183F8
:10211000118B11C3860737470F0013070724B3D766
:10212000E702371400408A85130504802313010059
:102130002311010023040100FD177C80EF00500FE4
:10214000130504808545EF00B037130504808145F1
:10215000EF003034FD4513050480EF00D03C0561ED
:102160006FD05FFFEFD2DFFC011113060002814543
:102170000A85EFD0FFFE316537240140EF00C076BD
:10218000130504403D2EB7070E003EC68A858547DD
:1021900013050440230AF10002C002C202C402C8AF
:1021A0008D2681451305044075298145130504409A
:1021B000E12185451305044045268145130504406A
:1021C000F929130504404D2693040440268555261D
:1021D00075FD13050440372401404526930404404F
:1021E00026854D2675FD8545130504404D2905615D
:1021F0006FD05FF6EFD2DFF341110545AD256D22BB
:10220000EF001040716513050520EF0090508545E3
:102210001145EF00407C85452145EF00C07B0565F9
:10222000854513050580EF00007B854513050020DB
:10223000EF00607A85450545EF00E0798545094561
:10224000EF00407B85450545EF00C07A8545114587
:10225000EF00407AEFF06FB0EFF0BFABEFF09FAD63
:1022600075DD91473EC6371501408D474C003EC491
:1022700013050580FD577C82C129370500401305F1
:102280000540EFF0BFDB37050040EFF03FDB3735AF
:102290000140130505C0EFF07FDAEFF0BFECEFF07F
:1022A0001FE53745000013054573EF108028EFF058
:1022B0001FB319C1EFE04FB1EFF0FFBECDBFB717AD
:1022C00002409843B706FFF041111367170098C307
:1022D000D84337060200758FD8C39843B706F7FE78
:1022E000FD16758F98C39843B706FCFFFD16758FD2
:1022F00098C3D843B70601FFFD16758FD8C33707BB
:102300009F0098C702C402C69843C166558F98C300
:10231000B716024005679C42F18F3EC6A24785076B
:102320003EC4B24781E7A247E397E7FEB7170240F2
:102330009C431397E7006357070685473EC632471D
:102340008547631FF704B7170240D843B706C1FF9C
:10235000FD16D8C3D843D8C3D84313670740D8C3A2
:10236000D843758FD8C3D843B7063D00558FD8C31F
:102370009843B7060001558F98C39843931667009A
:10238000E3DD06FED843B7160240719BD8C3D8439D
:1023900013672700D8C32147DC42B18BE39EE7FED9
:1023A0004101828002C661BFB7160240DC4211467D
:1023B000B18B138781806385C70021466388C7027C
:1023C000B7177A00938707201CC3B7170240DC4376
:1023D000918393F6F700B707002093870700B6971D
:1023E00094231C43B3D7D7001CC38280DC42D44261
:1023F0004166C983BD8BF18E890745466393C7004B
:10240000C94781EEB746024083A60680C18A89CEBD
:10241000B7167A009386062021A8B7160240D44248
:102420001396E600E35606FEB7163D009386069027
:10243000B387D70251BF01A097E1FF1F9381814469
:1024400017310020130101BC172500001305454971
:1024500097E5FF1F938505BB1386018263FAC500CC
:102460008322050023A0550011059105E3EAC5FE6E
:1024700013850182970500209385454E6377B5004B
:10248000232005001105E36DB5FEFD42739002BCEB
:102490008D4273904280930280087390023097E2DD
:1024A000FFFF938262B693E2320073905230EFF0F6
:1024B0001FE197020000938222D4739012347300BC
:1024C0002030EFD2FFC6B727014093870740631C37
:1024D000F5008545130500202D2B814513050020AF
:1024E0000D2B6FD03FC7B737014093870780E31AA2
:1024F000F5FE854513050040292B81451305004055
:10250000C5B75C413707F1E01307F7EF944D7D8FB6
:102510009C41D58FD44DD58FD441A206D58FD98F6C
:102520005CC11C4537F7F1FF1307D77FD4457D8F7A
:102530009C49D58F94458606D58FD98F1CC55C558F
:10254000370710FF7D177D8FDC29FD1793F7F70FF5
:10255000D207D98F5CD582801C4589C593E71700C7
:102560001CC58280F99BEDBF1C4593E787001CC505
:10257000828008450D81058982801C4593E74700CC
:102580001CC5828008450981058982801C4591C54A
:1025900037075000D98F1CC582803707B0FF7D17E1
:1025A000F98FD5BFA54763F7B7048D47138765FF3C
:1025B0003307F7020328C5009D47B397E70093C789
:1025C000F7FFB3F70701B396E600DD8E54C59947D0
:1025D00063E3C70495477D163306F6025859FD4755
:1025E000B397C70093C7F7FFF98F3396C5005D8E89
:1025F00050D982800D473387E502032805019D47A6
:10260000B397E70093C7F7FFB3F70701B396E60068
:10261000DD8E14C96DBFB14763E2C70295476516E9
:102620003306F6021859FD47B397C70093C7F7FF63
:10263000F98F3396C5005D8E10D9828095474D166F
:102640003306F6025855FD47B397C70093C7F7FF07
:10265000F98FB395C500DD8D4CD582806845420564
:10266000418182805C4189C50567D98F5CC18280C8
:102670007D777D17F98FDDBF1C4589C52167D98F0F
:102680001CC5828061777D17F98FDDBF08416D8D94
:102690003335A000828093C5F5FF0CC182805C4178
:1026A00091C537070004D98F5CC18280370700FCD1
:1026B0007D17F98FD5BF5841032805004C453706D3
:1026C0000140930706403E979346F8FFB1C5832526
:1026D0000640F58D2320B640D043F18ED4C3144379
:1026E000B3E6060114C3184190479346F7FF758E71
:1026F00090C7D047F18ED4C7144541466399C600B0
:102700009447D98E94C7D447558FD8C78280B6973F
:102710009443558F98C382801C43F58F1CC38280DD
:10272000B70701401387074083A70740584B698FBD
:1027300009C77D8D3335A000828001458280B707AF
:10274000014023AAA74082809C4513F7070113F894
:10275000F70001C7D8413368E80037270240145B0F
:102760003707000F758F4DEB85462388D1843717C7
:1027700001406315E5009A2135839AA18E2113F754
:10278000F50F39C318418146854E3D4F930F8002A6
:1027900093028004214E3396DE00B3F8C500631126
:1027A00016039398260033131F011343F3FF337767
:1027B000E300B318180133E7E8006397F70750C93F
:1027C0008506E39AC6FD18C11307F00F6375B704B9
:1027D00054412146854E3D4F930F80029302800461
:1027E000414EB398CE0033F715016392E8021317F8
:1027F000260001173313EF001343F3FFB376D30022
:102800003317E800D98E6395F703232A15010506CF
:10281000E319C6FD54C1828037170140E310E5F685
:1028200003C7018521DF81BFE39C57F810C949BF69
:10283000E39F57FC23281501D9BF13F7C50F93F762
:102840003500B7050140BA9594458A073D473317CF
:10285000F7001347F7FF758F98C598453315F500B6
:10286000598D88C5828023AAA184828003A74185CF
:10287000854714216310F7021C31639CE7023C2159
:10288000960793E707F837E700E093F7F70F3697D7
:102890002300F740054793D756003317D70054411C
:1028A00089CE938707048A07B7E600E0B69798C3F6
:1028B0008280EDF33C219607F9B793870706B7E6C8
:1028C00000E08A07B69798C30F1000008280B71700
:1028D0000240D843B70640FFFD16758FD8C3D843D2
:1028E0005A05598DC8C38280B7160240DC42517721
:1028F0007D17F98F5D8DC8C28280371702405C4317
:102900009146B18B6385D700A1466382D706B7177E
:102910007A00938707201CC1371602405C423707B4
:102920000020130707019183BD8BBA9794231C41A4
:10293000B3D7D7005CC15442A1829D8ABA96942233
:10294000B3D6D70014C55442AD829D8A369718235A
:10295000B3D7E7005CC558423983937637001387B5
:10296000C18036971823B3D7E7021CC982805C4325
:102970005843C166C983BD8B758F8907C54663936C
:10298000D700C94701EF3747024003270780418B33
:1029900009CF37177A001307072021A837170240FD
:1029A00058439316E700E3D606FE37173D0013079A
:1029B0000790B387E70285B799C5371702405C4B8C
:1029C0005D8D48CB8280B7170240D84B1345F5FF89
:1029D000798DC8CB828099C5371702401C4F5D8D19
:1029E00008CF8280B7170240984F1345F5FF798DC5
:1029F00088CF828099C5371702405C4F5D8D48CFE4
:102A00008280B7170240D84F1345F5FF798DC8CFA4
:102A1000828099C5371702405C475D8D48C7828028
:102A2000B7170240D8471345F5FF798DC8C7828094
:102A30001E2137370140130707C0C207C183630057
:102A4000E50237070040630CE50013070740630801
:102A5000E50037170040130707806316E500BA2129
:102A600093F7F7F8D98FFA2193F7F7CFC207C1830D
:102A7000D98F1EA1DE215EB59E211EB5B73701405C
:102A8000938707C06314F5009C251EB985475EA98E
:102A900082801E31922103D82500C207C183F99B91
:102AA000C207C1831EB11E3156211A2DC207C18330
:102AB000420741831377C7F8518F9225F59BC206D1
:102AC00033660601D18F37360140130606C0C18236
:102AD0006310C502B225DD9B03D8E500D18FD2215A
:102AE000ED9B93F6F6CFD18FD22533660601D18EBA
:102AF00056A11AADFA215AB91EB182801E316577EE
:102B00001307F7CFC207C183BD9BC207C1831EB1A4
:102B10001E31562103D88500C20713960601162DD3
:102B2000C18393F7F7FD758F96214182A206558FD9
:102B3000B62142074183B3E606019206D58FB73628
:102B40000140C207938606C0C183631ED502B62525
:102B500093F7F7F703D8C5009206D58FD621C207A1
:102B6000C183920693F7F7FBD58FFD769386F63FE8
:102B7000F18EF225C207C183336606010A06D18EA3
:102B800013960601418252A11AADFA211ABD1EB157
:102B900082801E3103D88500C207C18393F7F7EF07
:102BA000C207C1831EB11E3156215A2DC20713968A
:102BB00006014207962141831377C7F8558FB62146
:102BC000C18393F7F7DFB3E60601A206D58FB736C8
:102BD0000140C207938606C04182C183631FD502AC
:102BE000FD769386F67FF58FB62503D8C500A2063D
:102BF000D58FD621C207C183A20693F7F7BFD58F21
:102C0000F576FD16F18EF225C207C1833366060103
:102C10001206D18E13960601418252A15AADFA21B5
:102C20005ABD1EB182801A31FD77FD17F98F1EB192
:102C30000358050256215E2D657792211307F7CFC1
:102C40007D8FF9772206FD17518FB3F70701B22167
:102C500003D88500C2064207336606013206D18FCB
:102C600037360140C207130606C0C1824183C183C3
:102C7000631AC50071767D16F18ED2251A06D18EA3
:102C8000C206C18256A15AADFA212310E5041EB135
:102C900082801E2189C593E717001EA18280C2078A
:102CA000C183F99BC207C183CDBF8357450491C53A
:102CB0002167D98F2312F5048280C607C583DDBF43
:102CC0001E2189C593E707081EA18280C207C18320
:102CD00093F7F7F7C207C183C5BF1E2DC207C18393
:102CE000DD9BDD8D0EAD82801A2DFD779387F77FFA
:102CF000F98FA205CD8FC207C1831EAD82805E2DE4
:102D0000C207C183DD9BDD8D4EAD82805A2DFD77DC
:102D10009387F77FF98FA205CD8FC207C1835EAD80
:102D200082804EB1828093C5F5FFC205C1810EA994
:102D30008280EFD2EFBF1A29F577FD17F98FFA21BC
:102D400001112A84D98F1EA99A25DE215625AE8429
:102D5000D98FBA25D98F7D771307379F758FD98F74
:102D60005EA55E29DA25C207C18393F7F7CFD98F15
:102D70005EA96800EFF07FB8B747014093870780EE
:102D80006316F404E2476545B335F5029040814689
:102D90000A063305F5029124930640063357D502FF
:102DA000120793574700B387F6021D8D931745000E
:102DB000138527039307F06363FCA700130507013E
:102DC000420541810AA405616FD0CFB8D24765BFE3
:102DD0003355D502598DEDB791C55E250967D98F59
:102DE0005EA582805A25F977FD17F98FD5BF93F537
:102DF000F51F4EA182800A216D8D3335A00082809F
:102E000083A7818037177A0013070720B3D7E7021B
:102E100093F7F70F238DF1841307803EB387E70202
:102E2000239CF1848280B7F700E0D8438146799BE8
:102E3000D8C303C7A1853306A70290CBD4CB984350
:102E40001367070198C398431367170298C3D843C1
:102E5000058B75DF9843799B98C38280B7F700E0B4
:102E6000D8438146799BD8C303D781853306A7020F
:102E700090CBD4CB98431367070198C3984313674B
:102E8000170298C3D843058B75DF9843799B98C385
:102E90008280B7F700E0D8438146799BD8C388CBBE
:102EA000D4CB98431367070198C39843136717025D
:102EB00098C3D843058B75DF9843799B98C382806C
:102EC000B7F700E0D8438146799BD8C303C7A185F3
:102ED0003306A70290CBD4CB98431367070198C35E
:102EE00098431367170298C38280EFD26FA4D1472B
:102EF0003305F502EFF0DFFC6FD0CFA5B7F700E0A8
:102F0000C8430589828037F700E01C43F99B1CC346
:102F10008280EFD2EFA101112A8485453705080090
:102F2000EFF05FAD85452145EFF0FFAA85477C8234
:102F3000371501408D473EC44C00E147130505C0DD
:102F40003EC6EFF07F8022C837540040B707080024
:102F50000C08130504C03ECC02CA231E0100EFF08A
:102F60005FDD8545130504C0EFF01FE705616FD0F5
:102F70006F9EEFD24F9AB7540040AE893289014418
:102F8000938404C0634524014A856FD00F9C930548
:102F900000042685EFF03FE67DD9B387890083855D
:102FA000070026850504C205C181EFF05FE4D9BFA3
:102FB000138701811C43B7360020938686953E9582
:102FC000636BD500B75600209386068063E5A600A4
:102FD00008C33E858280FD57EDBFB687B2882A833D
:102FE0002E88639B061463F8C50A4167636BE61A73
:102FF000B70700016360F63493568601E14717175F
:1030000000001307277436971823BA971307000296
:103010001D8F19CB3398E500B357F500B318E600C0
:1030200033E807013313E50013D608013355C8020E
:1030300093960801C182935703013377C802B38581
:10304000A60242073368F700637AB80046989307F0
:10305000F5FF636418016365B8303E853308B840F6
:103060003357C8024203135303013378C802B386AF
:10307000E602420833686800637BD80046989307ED
:10308000F7FF6365180179176363D8003E8742052F
:10309000598D8145828001E60547B358C7024167D3
:1030A00063E8E80EB707000163EAF82893D68801C1
:1030B000E147171700001307E76836971423BE96F9
:1030C00093070002958FFDE7939E08013387154112
:1030D00013DF080193DE0E01854593570301335535
:1030E000E7033377E703B306D5034207D98F63FAC3
:1030F000D700C6971307F5FF63E4170163E5D726EA
:103100003A85958F33D7E703420313530301B3F78F
:10311000E703B30ED703C207B3E7670063FBD7012A
:10312000C6979306F7FF63E51701791763E3D701A5
:1031300036874205598D828063E1D504C16763E11A
:10314000F604B707000163E3F61E13D78601614852
:10315000971700009387075FBA979823130E000212
:103160004297330EEE40631A0E0C63EDB61C3335F6
:10317000C500134515008145828081450145828047
:103180009307F00F63F3D71C13D786002148C9B704
:103190001307F00FC686E37E17F193D68800A14788
:1031A00009BF1307F00FB286E37BC7E4935686008E
:1031B000A147B1B5B398F80033D6D50013DF0801A5
:1031C000335EE6033397F500B356D500558F939ED3
:1031D000080193DE0E013313F50093550701B37612
:1031E000E603B387CE03C206CD8E63FBF600C69618
:1031F0001306FEFF63E4161763F2F616791EC696F1
:103200009D8E33D6E60393170701C183B3F6E60319
:103210003385CE02139706015D8F637BA700469727
:103220009307F6FF636817136376A712791646971C
:1032300093150E01098FD18D4DB5B357E600B396A6
:10324000C601DD8E33D3E50013DF0601B357E30378
:10325000939E060193DE0E013398C5013357E500B6
:1032600033680701935808013316C6013373E3032B
:10327000B385FE024203B368130163FBB800B6983E
:103280001387F7FF63EAD80C63F8B80CF917B69800
:10329000B388B84033D7E803420813580801B3F89D
:1032A000E8033383EE02C208B3E5080163FB65005F
:1032B000B6951308F7FF63EDD50863FB650879172A
:1032C000B695C207416FD98F1307FFFFB3F6E7002A
:1032D00093D80701718F4182B38EE602B3856540B2
:1032E000B386C60213D80E013387E802BA96C29697
:1032F0003386C80263F3E6007A9693D806014696B1
:1033000063E2C5026385C5003E85814582804167D1
:103310007D17F98EC206B3FEEE003315C501F69691
:10332000E374D5FE1385F7FF8145828013D706012C
:10333000414839BD93560601C147D1B193D6080122
:10334000C14785BB8145054582803687014809B55F
:10335000428785BF3E86E9BDBA871DBF328E4DB517
:1033600079154698E5B97915C69761BBB3C7A5002D
:103370008D8B3307C50081E78D4763EDC700AA87B2
:10338000637EE508942185078505A38FD7FEE3EBCF
:10339000E7FE828093763500AA8789CA9421850743
:1033A0008505A38FD7FE93F63700C5BF9376C7FF79
:1033B000138606FE63F0C70683A3050083A24500BB
:1033C00083AF850003AFC50083AE050103AE4501A1
:1033D00003A3850183A8C5019385450223A0770037
:1033E00003A8C5FF23A2570023A4F70123A6E701E2
:1033F00023A8D70123AAC70123AC670023AE170176
:103400009387470223AE07FF75B790419107910557
:1034100023AEC7FEE3EBD7FEE3E6E7F68280397121
:103420003EDA2ED232D436D63AD842DC46DE938704
:10343000418122CC804326CA06CEAA8409C41C4CF2
:1034400099E32285FD290C4454102686228536C630
:10345000EF009013F2406244D24421618280011156
:1034600026CA4AC806CE22CC4EC652C4AA842E8989
:1034700001C51C4D91E3F1219C4C804499E32685C4
:10348000C921971700009387E73D631BF402C040F2
:103490005E24A18BB1C71C48A1C7FD59294A1C4411
:1034A00083450900FD17B1E91CC463DD07062286C8
:1034B000A94526856920FD576308F502294535A0F1
:1034C000971700009387073C6314F4008044C9B742
:1034D0009717000093870737E31CF4FAC0444DBFE9
:1034E000A2852685192A55D97D55F2406244D244D9
:1034F0004249B249224A056182801CC4050963D74A
:103500000700184C63CAE700638845011C40138715
:10351000170018C08CA361B7228626850D20E31002
:1035200035F9D9B71C401387170018C0294798A34D
:1035300071B793874181AA8588436FF05FF20111CB
:1035400022CC26CA4AC806CE4EC6AA842E89328408
:1035500001C51C4D91E3F52697170000938787302E
:103560006317F406C0401C4C1CC45E24A18BC1C36D
:103570001C48B5CF1C4808409379F90F1379F90F0F
:103580001D8D5C486346F500A2852685692C25E5DE
:103590001C440505FD171CC41C401387170018C0E8
:1035A000238037015C486388A7005E24858B81CB2C
:1035B000A9476316F900A2852685B5240DEDF240D2
:1035C00062444A85D2444249B249056182809717D4
:1035D00000009387272B6314F400804469B7971782
:1035E000000093872726E310F4F8C044ADBFA285FE
:1035F0002685212041D17D59D9B741119387418139
:1036000026C2844322C44AC006C62A892E8489C49D
:103610009C4C99E3268535269717000093878724CD
:10362000631BF402C0400317C40093170701C18352
:1036300093F68700ADEA93F6070195EEA5472320A0
:10364000F900136707045AA47D55B24022449244FE
:10365000024941018280971700009387A7226314D3
:10366000F4008044C9B7971700009387A71DE31C97
:10367000F4FAC0444DBF918B9DC34C5889C9930740
:1036800044046384F5004A85292B232A04025E241E
:103690002322040093F7B7FD5EA41C481CC05E24DF
:1036A00093E787005EA41C4899EB5E241307002073
:1036B00093F707286385E700A2854A8591295E2450
:1036C00013F717001DC35C4823240400B307F04020
:1036D0001CCC1C480145B5FB8317C40013F7070831
:1036E0002DD793E707045EA485B7898B014791E343
:1036F000584818C4F9BFDE25011122CC26CA06CECF
:103700004AC84EC613F78700AA842E8479EBD841A5
:10371000634DE000B841634AE0000145F240624475
:10372000D2444249B2490561828058547DD703A9E9
:1037300004009396370123A0040063DB060670485B
:103740005E24918B99C75C401D8E5C5899C33C40A8
:103750001D8E5C540C50814626858297FD575A2455
:10376000631DF5009440F54763E8D706B70740208E
:103770008507B3D7D700858BA5C31C482322040037
:103780001CC09317370163D80700FD576314F50079
:103790009C4091E368C84C5823A02401BDDD9307E9
:1037A00044046384F5002685ED2E232A0402B5B770
:1037B0000C500146854626850297FD572A86E3115F
:1037C000F5F89C40B5DF75476385E700594763937B
:1037D000E70423A0240191B7136707045AA47D5579
:1037E00035BF83A90501E38A09F203A905008D8B82
:1037F00023A0350133093941014791E3D84918C461
:10380000E35D20F11C540C50CA864E8626858297B3
:103810006347A0005E2493E707045EA4C9B7AA9992
:103820003309A940F1BF9C49A5C3011122CC06CEA2
:103830002A8411C51C4D81E72EC62122B245971757
:10384000000093872702639CF5004C408397C500D6
:103850009DC722856244F24005616FF0DFE997174A
:103860000000938727026394F5000C44C5B79717AF
:103870000000938727FDE39BF5FC4C44C1BFF24059
:10388000624401450561828001458280411122C464
:1038900006C62A844EA572A5232005002322050012
:1038A000232405002322050623280500232A0500DA
:1038B000232C0500214681451305C505EFC05F8A0D
:1038C00097170000938707B35CD097170000938782
:1038D00027B51CD497170000938707B95CD49717B6
:1038E0000000938767BB00D01CD8B240224441013E
:1038F000828097050000938545F391AA411126C265
:10390000130680069384F5FFB384C4024AC02E894F
:1039100022C406C6938544070D2E2A8401CD232098
:10392000050023222501310508C41386840681453C
:10393000EFC01F832285B2402244924402494101D4
:1039400082801C4DA5E7411106C622C497070000DE
:10395000938767FA1CD59387C1819C432324050470
:1039600023260504232805046314F50085471CCD90
:103970002A84352848C022851D2808C422850528A8
:1039800048C4484001469145EFF05FF008440546C1
:10399000A545EFF0BFEF48440946C945EFF01FEFDA
:1039A00085471CCCB2402244410182808280411173
:1039B0009387C18126C284434AC006C69C4C22C458
:1039C0002A8981E72685EFF0DFF793848404804419
:1039D000DC40FD1763D607009C40B9CF8440C5BFCB
:1039E0000317C40039E7C177850723220406232083
:1039F000040023220400232404005CC423280400C0
:103A0000232A0400232C0400214681451305C40504
:103A1000EFC00FF5232A0402232C040223240404FC
:103A2000232604042285B2402244924402494101E3
:103A300082801304840671BF91454A85EFF01FEC24
:103A400088C049FDB1472320F9000144E1BF7971E5
:103A500022D44AD052CC56CA5AC85EC606D626D2FE
:103A60004ECE2A8AAE8A130485040149054BFD5BBC
:103A700009ECB25022544A8592540259F249624AE2
:103A8000D24A424BB24B45618280044483294400B0
:103A9000FD1963D409000040E1BFDE24637BFB0015
:103AA0008397E40063877701A6855285829A3369FC
:103AB000A90093848406E9BF1971A6DAAE848395C0
:103AC000E500A2DC86DE328463DB0500DE2423A071
:103AD000060093F7070885E7930700401DA030080C
:103AE00036C6EF00F021B246E34205FE7247BD67DD
:103AF000F98F7977BA9793B717009CC2F1BF9307F4
:103B000000041CC0F6506654D654014509618280F9
:103B1000DE25011122CC06CE26CA4AC8898B2E8406
:103B200089CF930774041CC01CC885475CC8F24049
:103B30006244D24442490561828074003000AA8404
:103B4000EFF09FF7A2452A892685012219E98317FC
:103B5000C40013F7072061FFF19B93E727005EA4E1
:103B6000C9B797070000938707D99CD45E2408C083
:103B700008C893E707085EA4A2475CC8B24781CF94
:103B80008315E4002685EF00D01A11C55E24F19B51
:103B900093E717005EA45E243369F900231624011D
:103BA00079B7DDC183A7C5FF411122C406C626C26D
:103BB0001384C5FF63D307003E94AA84EF00301F2F
:103BC0009387C1859C4381EF2322040023AE818427
:103BD0002244B2402685924441016F00701D637EED
:103BE000F40014403307D4006396E7009843DC43A5
:103BF000369718C05CC0D9BFBA87D84319C3E37DD4
:103C0000E4FE94433386D700631F86001040B296CB
:103C100094C33386D700E31DC7FA10435843B296C6
:103C200094C3D8C375B76375C400B1479CC04DB782
:103C30001040B306C4006316D70014435843B2962D
:103C400014C058C0C0C369B78280011126CA9384CA
:103C50003500F19806CE22CC4AC84EC6A104B14721
:103C600063F3F404B14463E2B4042A89EF0030142E
:103C70009387C18598433A8439E0938701869C43B2
:103C800091E781454A85252F23A0A186A6854A85EF
:103C90003D27FD5963193507B1472320F9004A85AF
:103CA000EF00101129A0E3D004FCB1471CC101456D
:103CB000F2406244D2444249B249056182801C40CC
:103CC000858F63CF0702AD4663F6F6001CC03E94B5
:103CD00004C031A05C406313870223AEF1844A859F
:103CE000EF00100D1305B4009307440061993307EA
:103CF000F5405DDF3A94898F1CC05DBF5CC3C5B7DA
:103D00002287404095BF130435007198E30285FC7B
:103D1000B305A4404A856525E31C35FBB5BF1C46A9
:103D2000FD171CC663DA0700184E63C5E700A947F4
:103D30006394F5006FF0BF801C422E851387170037
:103D400018C28CA38280011122CC26CA4AC84EC652
:103D500052C406CE2A89AE893284B304D6007D5A75
:103D600063149400014509A80C204E864A85EFF0A3
:103D70001FFB0504E31645FFF2406244D24442496A
:103D8000B249224A05618280357122CD26CB4AC9CB
:103D90004EC706CF52C556C35AC1DEDEE2DCE6DAB4
:103DA000AA89AE843289368409C51C4D99E3EFF0A7
:103DB0005FB9971700009387E7AA6398F40C83A470
:103DC0004900DE24A18BE5C79C48F5C39307000298
:103DD000A304F1029307000302D22305F10222C6D5
:103DE000930B5002971A0000938ACAAB054C294BDB
:103DF0004A841C2099C3639F770DB30C2441638EC2
:103E00000C00E6864A86A6854E85EFF0DFF3FD5767
:103E1000630FF51C9256E69636D21C206389071C68
:103E2000FD571309140002C802CE3ECA02CCA309F2
:103E3000010482D48345090015465685A92F130431
:103E40001900C24751E913F7070109C71307000218
:103E5000A309E10413F7870009C71307B002A309F8
:103E6000E104834609001307A002638FE606F247C8
:103E70004A8481462546182093051400130707FD40
:103E80006377E60AB5CA3ECE85A8971700009387E8
:103E9000679F6395F40083A4890025B797170000F6
:103EA0009387479AE39FF4F083A4C90019BFA685BE
:103EB0004E85EFF08FF419D97D55FA406A44DA4403
:103EC0004A49BA492A4A9A4A0A4BF65B665CD65C6A
:103ED0000D618280050431BF330555413315AC00B7
:103EE000C98F3EC82289B9B73247930647001843A5
:103EF00036C6634707023ACE18209307E002631DD7
:103F0000F70418309307A002631BF702B2470904B5
:103F1000138747009C433AC663C107023ECA2DA8D7
:103F20003307E04093E727003ACE3EC8F1B7B387A6
:103F3000670385462E84BA973DBFFD57C5B7050474
:103F400002CA8146814725461820930514001307AD
:103F500007FD6374E606F9F20C200D461715000004
:103F60001305C5940D2D11CD971700009387079465
:103F70001D8D93070004B397A700424505045D8D8E
:103F80002AC80C201946171500001305659213095D
:103F900014002304B102012535C197C7FFFF9387A1
:103FA000670695E74247B2471377071009CF910795
:103FB0003EC69257D2973ED225BDB387670385464A
:103FC0002E84BA9751B79D07E19BA107D5B778001A
:103FD00097060000938666D726860C084E859700C4
:103FE0000000E7000000FD572A8AE314F5FCDE24F8
:103FF00093F70704E39207EC1255C1B578009706D2
:104000000000938686D426860C084E85012AE1BFDF
:10401000797156CA9C49BA8A984522D426D24ECE86
:1040200052CC06D64AD05AC85EC6AA892E84B2841B
:10403000368A63D3E700BA879CC00347340419C3A8
:1040400085079CC01C4093F7070281C79C408907E5
:104050009CC00329040013796900631A0900130B3B
:104060009401FD5B5C449840998F634CF9041C40BB
:104070008346340493F70702B336D000A5EB13064A
:104080003404D2854E85829AFD576303F5041C40A3
:1040900011469840998B544481446397C700B38478
:1040A000E64063D3040081441C4418486354F7007D
:1040B000998FBE94014969047D5B6398240501458D
:1040C00009A885465A86D2854E85829A631E750157
:1040D0007D55B250225492540259F249624AD24A52
:1040E000424BB24B456182800509ADBF3307D40016
:1040F00013060003A301C704034754049387160063
:10410000A2978906A381E7049DBF85462286D285B2
:104110004E85829AE30E65FB050945B7797122D475
:1041200026D24AD04ECE06D652CC56CA5AC8B689E6
:10413000942D930790063289AA842E841386350421
:10414000638DF60263E2D706930780056386F6184F
:1041500063EDD700638E062093073004638EF60A62
:10416000930A24042301D404C9A09307300663856D
:10417000F60A93074006E395F6FE1C40084393F6C3
:10418000070893054500C5C61C410CC363D807004A
:104190001307D002B307F040A301E4049706000020
:1041A00093868671294765A8930700076382F616F0
:1041B00063E5D7029307E0066389F6189307F006D4
:1041C000E390F6FA0C401C4313F8050813854700EA
:1041D0006307080608C39C4385A893075007E38339
:1041E000F6FE930780076389F61293073007E39979
:1041F000F6F61C43D04181459386470014C383AA39
:1042000007005685492E01C53305554148C05C401D
:104210001CC8A301040461A81C43930A24049386C8
:1042200047009C4314C32301F4048547D5B793F694
:1042300007041C410CC3B9DAC207C18781BF93F5DB
:10424000050408C3C9D99E231307F0066387E60E49
:1042500097060000938646662947A30104044C4054
:104260000CC463C5050008406D9908C099E3B28A83
:1042700089CDB28AB3F5E702FD1AB6958C21238069
:10428000BA00B3D5E70263F0E70CA147631EF7005D
:104290001C40858B91CB58401C4863C7E7009307AF
:1042A0000003A38FFAFEFD1A3306564110C84E874D
:1042B000CA867000A2852685EFF09FD57D5A631DC2
:1042C000450B7D55B250225492540259F249624A2C
:1042D000D24A424B45618280A382D50497060000F2
:1042E0009386865D0C40084313F805081C411105B0
:1042F000630D080208C313F7150001C793E5050213
:104300000CC04147B9FB0C4093F5F5FD0CC0B1B7AB
:104310009C4193E707029CC193078007A302F40422
:10432000970600009386865A75BF13F8050408C3E4
:10433000E30308FCC207C1837DBF97060000938694
:10434000A657214719BFAE8735B794411C43CC49C6
:1043500013F80608138547006306080008C39C434A
:104360008CC339A008C393F606049C43F5DA8EA3E8
:1043700023280400B28A25BF14485686CA8526859C
:104380008299E30045F51C40898B8DE7B24748448C
:10439000E35AF5F23E853DB785465686CA852685A1
:1043A0008299E30065F3050A5C443247998FE3453F
:1043B000FAFEE9BF014A930A94017D5BF5B741110A
:1043C00022C42A842E8597E7FF1F23A7075806C615
:1043D000EFE01FBEFD576319F50097E7FF1F9387B6
:1043E000A7579C4391C31CC0B24022444101828024
:1043F000411122C42E848395E50006C65D2A6349D7
:1044000005007C48AA977CC8B240224441018280C2
:104410005E247D777D17F98F5EA4FDB7DE2501113F
:1044200022CC26CA4AC84EC606CE93F70710AA84E5
:104430002E843289B68991C78395E5008946014665
:104440000D225E247D777D17F98F5EA48315E4002D
:104450006244F240CE864A86B24942492685D24419
:10446000056125A8411122C42E848395E50006C666
:10447000CD28FD575A24631AF500FD77FD17F98FF3
:104480005EA4B2402244410182808567D98F5EA438
:1044900068C8C5BF8395E50025A8411122C42A84B8
:1044A0002E85B285368697E7FF1F23A7074A06C6E3
:1044B000EFE03FACFD576319F50097E7FF1F9387C7
:1044C000A7499C4391C31CC0B24022444101828051
:1044D000411122C42A842E8597E7FF1F23AE074689
:1044E00006C61122FD576319F50097E7FF1F938752
:1044F000A7469C4391C31CC0B24022444101828024
:10450000411122C42A842E85B28597E7FF1F23A577
:10451000074406C6CD20FD576319F50097E7FF1F36
:10452000938787439C4391C31CC0B24022444101FE
:104530008280411122C42A842E8597E7FF1F23AD74
:10454000074006C6C920FD576319F50097E7FF1F0E
:10455000938787409C4391C31CC0B24022444101D1
:104560008280411122C42A842E85B285368697E73F
:10457000FF1F23A3073E06C67928FD576319F500E0
:1045800097E7FF1F9387473D9C4391C31CC0B240F0
:1045900022444101828093F5F50F2A966314C500E9
:1045A000014582801C21E38EB7FE0505C5BF8280D0
:1045B0008280411122C42A842E85B285368697E7EF
:1045C000FF1F23AB073806C6B928FD576319F5004E
:1045D00097E7FF1F938747389C4391C31CC0B240A5
:1045E0002244410182809307800517E7FF1F23259E
:1045F000F7367D5582809307800517E7FF1F232D2F
:10460000F7347D5582809307800517E7FF1F232528
:10461000F734014582809307800517E7FF1F232D9C
:10462000F7327D5582809307800517E7FF1F23250A
:10463000F7327D558280000061637475616C3A20A9
:1046400025692C2070756C73653A2025690D0A0068
:1046500061637475616C3A2025690D0A00000000E1
:10466000544C4C5F4E32333200000000201C0000DE
:10467000161B0000AC190000861B0000AC190000DE
:10468000A81A0000081A0000AC190000EE1A000079
:10469000041B00001A1C0000B21A000009024300AB
:1046A0000201008032090400000102020100052419
:1046B0000010010524010001042402020524060063
:1046C000010705810340000109040100020A0000FE
:1046D00000070502024000000705830240000000B9
:1046E00012011001FFFFFF40861A0CFE01000102BB
:1046F000000100000E037700630068002E006300D5
:104700006E000000160355005300420020005300C5
:1047100065007200690061006C0000001603300043
:1047200031003200330034003500360037003800E5
:10473000390000005374617274696E670D000000E7
:104740000001020203030303040404040404040438
:104750000505050505050505050505050505050509
:1047600006060606060606060606060606060606E9
:1047700006060606060606060606060606060606D9
:1047800007070707070707070707070707070707B9
:1047900007070707070707070707070707070707A9
:1047A0000707070707070707070707070707070799
:1047B0000707070707070707070707070707070789
:1047C0000808080808080808080808080808080869
:1047D0000808080808080808080808080808080859
:1047E0000808080808080808080808080808080849
:1047F0000808080808080808080808080808080839
:104800000808080808080808080808080808080828
:104810000808080808080808080808080808080818
:104820000808080808080808080808080808080808
:1048300008080808080808080808080808080808F8
:104840000000000000000000000000000000000068
:104850000000000000000000000000000000000058
:104860000000000000000000000000000000000048
:104870000000000000000000000000000000000038
:104880000000000000000000000000000000000028
:104890000000000000000000000000000000000018
:1048A000232D302B20000000686C4C0065666745A6
:1048B00046470000303132333435363738394142DB
:1048C000434445460000000030313233343536373A
:0C48D00038396162636465660000000016
:1048DC0000000000000000000102030406070809A4
:1048EC00000000000102030401020304060708098A
:1048FC0000000000604800008048000040480000B4
:10490C00000000000000000000000000000000009B
:10491C00000000000000000000000000000000008B
:10492C00000000000000000000000000000000007B
:10493C00000000000000000000000000000000006B
:10494C00000000000000000000000000000000005B
:10495C0000C201000000080000449508020406088B
:10496C005829002020000020040309042000002006
:00000001FF
