:040000006F70A02A53
:100004000000000000000000E06F0000E26F00004C
:1000140000000000A87200000000000000000000C2
:10002400A8720000A8720000000000000000000098
:10003400A872000000000000A87200000000000088
:10004400A8720000A8720000A8720000A872000044
:10005400A8720000A8720000F26F0000FC6F00009C
:1000640006700000107000001A700000A8720000F2
:10007400A8720000A8720000A8720000A872000014
:10008400A8720000A8720000A8720000A872000004
:10009400A8720000A8720000A8720000247000007A
:1000A400A8720000A8720000A8720000A8720000E4
:1000B400A8720000A8720000A8720000A8720000D4
:1000C400A8720000A8720000A8720000A8720000C4
:1000D400A8720000A8720000A8720000A8720000B4
:1000E40050700000A8720000A872000040100000C8
:0C00F400A8720000A8720000A8720000B2
:10010000397101436EC619A0397141536AC866CA74
:1001100062CC5ECE19A0397101535AD056D252D456
:100120004ED64AD826DA22DC06DE330161408282CE
:1001300041114AC026C222C406C68282B24D410184
:10014000024D924C224CB24B4101024B924A224A40
:10015000B2494101024992442244B24041018280A5
:100160003D432A876373C3029377F700BDEFADE584
:10017000937606FF3D8ABA960CC34CC30CC74CC796
:100180004107E36BD7FE11E28280B306C3408A06C3
:100190009702000096966780A6002307B700A30683
:1001A000B7002306B700A305B7002305B700A304D3
:1001B000B7002304B700A303B7002303B700A302CB
:1001C000B7002302B700A301B7002301B700A300C3
:1001D000B7002300B700828093F5F50F9396850052
:1001E000D58D93960501D58D61B79396270097021B
:1001F000000096968682E78086FA9680C1171D8F4A
:100200003E96E374C3F8A5B7EFF2FFF0130101DAED
:10021000EF10405513079009630DE55E6362A71662
:10022000130770076304E54C636DA7065947630025
:10023000E53A6369A7020947630EE53A636AA700D6
:100240006308054C05476303E53413010126F5BD3A
:1002500051476308E5365547E319E5FEEF10805036
:10026000D1459DA67947630DE536636DA7005D47CF
:100270006303E5366147E31AE5FCEF10A04E9305F2
:10028000800299A67D476302E53613070002E31E4C
:10029000E5FAEF10204DEF1030422320A1168545DE
:1002A00029AE1307D008630DE546636BA704130757
:1002B000A007630BE544636EA70013078007630B79
:1002C000E54213079007E312E5F8EF10A0498145D6
:1002D000E5AC1307B0076300E5441307C008E31655
:1002E000E5F6EF102048AA84EF10C0472A84D145D4
:1002F0002685EF109036D1452285EF101036B1B724
:10030000130700096305E54A636FA7041307E008B4
:100310006309E5441307F008E319E5F2EF108044A0
:100320002A89EF102044AA89EF10C0432A84B70419
:100330000020EF10204D9385440E2AD0EF1060432B
:10034000EF1040422ACEEF10E04BF247025713164F
:1003500014002A889386440E1376E60FCE854A85CC
:10036000EF10705EDDB5130770096300E54C1307ED
:100370008009E31CE5ECEF10E03EEF20A024F1B58E
:100380001307B00E6309E55A6366A7101307600BE5
:100390006307E54E6365A7061307A00A630FE548E8
:1003A000636DA7021307A0096304E5481307000A59
:1003B000E31DE5E8EF10003B2A84EF10A044AA8477
:1003C000EF10404437060020AA861306460E93F528
:1003D000F40F2285EF2020268DBD1307400B630606
:1003E000E5481307500BE312E5E6EF10A037854709
:1003F0003395A70042054181EF107079B9B5130715
:10040000F00B6303E54A6368A7021307700B6303ED
:10041000E5481307E00BE31AE5E2EF10A0342A8465
:10042000EF1040342ACEEF10E033F2452A862285C1
:10043000EF20205119BD1307000C630AE54A13078A
:10044000100CE314E5E0EF10E031AA89EF108031E1
:100450002A8AEF1020312AD2EF10C0302AD0EF10B4
:10046000603A371900202ACEEF10C039930549AE03
:10047000AA84EF10003072478256125637040020CB
:10048000A6881308440E930749AED2854E85EF2007
:10049000805401AE1307200F6304E5506369A7067B
:1004A0001307F00E6309E54C6368A7021307C00E3B
:1004B000630FE5481307E00EE319E5D83704002081
:1004C0001305440EEF108036EF10C033AA851305D4
:1004D000440EEF10A0742DAC1307000F6303E54A20
:1004E0001307100FE313E5D6EF10C031AA843704C9
:1004F0000020EF1020319305440E2ACEEF10602724
:1005000072469305440E2685EF10807A3DBB130793
:10051000500F6301E54C6365A7021307300F6300BA
:10052000E54A1307400FE312E5D237040020130514
:10053000440EEF10A02F1305440EEF10207F31B3AF
:100540001307600F6303E54A1307700FE31FE5CE3F
:10055000EF10402BEF10900537340020034544B8CE
:10056000130444B8EF106037484037340020EF10D0
:10057000C0361305C4B8EF809017AA84EF10E03599
:1005800093950401C1811305C4B80DA8B7A5000057
:100590009385058B25468812EF70D06F37F4FF1FC7
:1005A0000325847EEF1060330325C47EEF10E03214
:1005B0000325047FEF106032A1458812EF10802FD1
:1005C00069B1EF10201AC145EF10D00DBDB9EF1081
:1005D00060199145D5BFEF10E01893058004EDB781
:1005E000EF104018EF1070128DB1EF10A017EF1040
:1005F0005015A1B93704002002DC02DEEF10802084
:100600009305440EAA84EF10C016A6851305440E68
:10061000EF00807E19C98147130700029400BE963F
:10062000238006008507E39BE7FEA6851305440E9D
:10063000EF00C07911C58C0013050002EF106013A4
:10064000A6851305440EEF00E07D09C9EF10801B5D
:100650002ADC8C1013050010EF10A011A6851305DD
:10066000440EEF00807E19C98147130700109412D1
:10067000BE96238006008507E39BE7FE1308C103AF
:100680003C189812941026868C001305440EA5265B
:10069000A6851305440EEF0020763339A000A68509
:1006A0001305440E1609EF00407A19C113094910C9
:1006B0004A85EF1080220945EF102022A6851305F8
:1006C000440EEF00607311C5930500028800EF101F
:1006D000601EA6851305440EEF002077E30705B6DC
:1006E0007255EF10801F93050010C1BDEF108007F9
:1006F000E145D9BDEF1000072A84EF10A006AA85B6
:100700002285EF20200591B6EF10C005EF102030B4
:10071000EF10A01C1DBEEF10E004EF200030CDBF95
:10072000EF104004AA89EF10E0032A8AEF10800D31
:10073000AA8A0544130900089374F40FD686268606
:10074000D2854E85EF10F01C19C58545881223000F
:100750009116EF1020160504E31024FF2300011664
:100760003DBEEF1020002A89EF00D07F2AD0EF0095
:10077000707F2A84EF100009AA84EF00B07E2ACE91
:10078000EF104008F247825513161400370400207A
:100790002A8826879306440E1376E60F4A85EF10C3
:1007A000B01F93950401C1811305440E01BDEF00F4
:1007B000707BAA89EF00107B2A8AEF00B07A2A8426
:1007C00037090020EF1000049305490E2AD0EF00EE
:1007D000507AEF102003AA84EF00D0782ACEEF10D1
:1007E0006002F248025713161400371400202AC082
:1007F000D2854E852688930744AE9306490E13761C
:10080000E60FEF10F01E93950401C181130544AE6D
:1008100075B3EF0030752A84EF00D07E9315050183
:10082000C1812285EF1070540DB4EF10105831BC07
:10083000EF00507DEF10105A09BCEF00B072AA848F
:1008400037040020EF00107C9305440E2ACEEF0001
:100850005072054533159500724642059305440EC6
:100860004181EF10102A6FF05F9EEF00B06F854757
:100870003395A70042054181EF10502D51BDEF0087
:10088000706E85473395A70042054181EF10B03265
:100890006FF0BF9BEF00106D85473395A7004205B1
:1008A0004181EF10D033ADB5EF00D06B2A89EF0056
:1008B000706B2AD6EF00106B2AD4EF00B06A2AD2F0
:1008C000EF00506A2AD0EF00F0732ACEEF00907349
:1008D000F247025792562256B25537040020AA8496
:1008E000AA881308440E4A85EF2020085DBDEF005A
:1008F0007067AA84EF0010672A89EF00B0662AD4D7
:10090000EF0050662AD2EF00F06F370400202AD0A3
:10091000EF00506F9305440E2ACEEF0090657248A9
:100920000257925622569307440ECA852685EF2019
:1009300080076FF09F91370400201305440EEF00ED
:10094000F06E1305440EEF10802A6FF01F903704ED
:1009500000201305440EEF00706DB71400201385BE
:1009600044AEEF00B06C938544AE1305440EEF1017
:1009700060296FF09F8DEF00F068EF10002E6FF090
:10098000DF8CEF0030682A8937040020EF00906781
:10099000AA842A869305440E4A85EF10C02E11B50D
:1009A000EF0050662A84EF00F0652ACEEF009065D4
:1009B000F2452A862285EF1040326FF01F89EF0042
:1009C00070642A84EF001064AA852285EF108033BA
:1009D0006FF0BF87370400201305440EEF00106549
:1009E0001305440EEF10E03525B3EF00B061EF10B2
:1009F00020396FF09F85EFF2AFF05D712AC42E842D
:100A0000B68A3A8BBE8942898144014DDD4B130C75
:100A10001002930C3002930D4002A2473D4613058D
:100A2000F00F3387A7011423FD4561486380C62A70
:100A30006366D60A1D466385C6146360D6060D46F6
:100A4000638DC61E636FD600054693074D00638213
:100A5000C6126375D612362337170140232AD78072
:100A600031AA15466385C61A637BD61E3423283304
:100A7000054A36C6EF70803CB246331ADA00B71624
:100A8000014003A786803377470163110712EF7097
:100A9000003CB716014075D511AA2D466389C626BC
:100AA000636BD60025466380C6266370D6122A2360
:100AB000EF70802C6DA837160140B54593074D00A7
:100AC000130606806382B61C63F0D51E3823544695
:100AD00022971823C19A558F58C64DA06386762158
:100AE00063E4DB044D466380C6086361D602454675
:100AF000110D930580026387C60091456374D6008B
:100B0000930580042823EF10403501BF55466384C8
:100B1000C620D145637AD604FD1493972400980823
:100B2000BA9703AD07FCD5BD638786216362DC02FB
:100B3000638FB61E63EDD522E39A06EFB716014028
:100B40009386068094463823A182229714A305A099
:100B50006389962363EF96256380B61BE398A6EC22
:100B600061616FF0AFDDC1452823EF10002F110D3B
:100B70006DB53623371701402328D7803E8D71BDD0
:100B80002833034A2700EF70602B0547331A4701CB
:100B9000B716014003A786803377470119EBB716D4
:100BA000014003A786803377EA0011CBEF70C02A9B
:100BB0007DBFEF70C029B716014069DDCDB7EF707A
:100BC0000029B716014071DDD5B72833034A270045
:100BD000EF70C0260547331A4701B716014003A737
:100BE00086803377470111CFB716014003A786806F
:100BF0003377EA0045DFEF708025B71601407DD5D9
:100C000075B7EF70C024B716014071D9F1BF342316
:100C10002833054A36C6EF706022B246331ADA002E
:100C2000B716014003A786803377470141D3EF70A1
:100C30000022B71601407DD595BFB716014003A627
:100C400086802C23343305473317B700A296718F63
:100C500090223337E0000606518F98A209BF303347
:100C60002C23229618229356170014A28546137639
:100C7000170037170140B396B6001307078019C253
:100C800014CBF5B554CBE5B534332C2310460547CA
:100C9000A2963317B700718F90223337E0001E07FA
:100CA0000582518F98A2D9BD2C332823A295942177
:100CB00013971600E20698A1E18605473317A700AF
:100CC00063D4060018CA5DBD58CA4DBD3823B71697
:100CD000014003A6C680229718231376F6F0220758
:100CE000518F23A6E68061B5B71601409386068032
:100CF00094463823229799BD36230147E359D7E616
:100D000001000507E5BF2A23EF70C00D8DB52A232A
:100D1000EF70E009A9BD939624009C08BE96930746
:100D20004D0023A0F6FC035D27008504FDB134339C
:100D3000A29694227DBF83260900371601403823EE
:100D400003288680854513F676003396C5008D828C
:100D5000B395E500DA96B3F50501882299CD498E61
:100D600090A20327090005072320E90009B50326FF
:100D700009009306F07F918EC9B71346F6FF698E7E
:100D8000C5B7302303A709007D1723A0E9009355B9
:100D90003700D6958C2185461D8B3397E600339618
:100DA000C6006D8FB71601409386068011CF90CA9A
:100DB0007DBB302303A709009306F7FF1307F07FDD
:100DC00023A0D900158FE1B7D0CA55B3B7168081DB
:100DD00001477D46C1066364B70001458280B307C1
:100DE000E5009C236366F600B3D7F600858B99E394
:100DF0000D07D5B705458280B7E6008001477D46DF
:100E0000A1066364B70001458280B307E5009C2317
:100E10006366F600B3D7F600858B99E31107D5B763
:100E200005458280014785466364B700014582809D
:100E3000B307E5009C239387E7FD93F7F70F63F46F
:100E4000F6000D07D5B705458280014785466364E6
:100E5000B70001458280B307E5009C23811793F713
:100E6000F70F63F4F6000D07DDB705458280EFF25A
:100E70002FAC0945EF60D01A85450565EF60F02875
:100E80006FF04FADB707005013070004D8A7130742
:100E90008004D8B7371700201307474E98CB371771
:100EA000002013074752D8CB3717002013074756A7
:100EB00098CF371700201307475AD8CFA3890702C6
:100EC000A38D0702239A0702239E0702094723895D
:100ED000E702238BE702238FE70293874182238077
:100EE0000700A380070023810700A3810700238256
:100EF0000700A382070023830700A38307008280E3
:100F0000EFF20FA33704005099471CA01DC52945D7
:100F1000EF6090669D47230004003CA09307900279
:100F20001CA08D37930710F81CB037070008B7E7EF
:100F300000E023A2E7106FF0EFA12945EF60D06336
:100F4000B7E700E0230004003707000823A2E718F2
:100F50000F100000CDB79307F5FF93F7F70F19486F
:100F6000636DF80CEFF22F9B93874182AA979C2325
:100F700093844182054793F7F70FCDEB85476305CF
:100F8000F5001147631CE500B7070050DC27054753
:100F900093F7F70F631EE50291831DA81307E5FF82
:100FA0001377F70F63E9E700B7070050DC370D4709
:100FB00093F7F70FC5B71307B5FF1377F70F63E084
:100FC000E704B7070050FC2793F7F70FE30605FD8A
:100FD00013F847000147630B080437040014110499
:100FE0002A94A18BB2892A890A0485C30840B707CD
:100FF0000020938707043E95EF70C04919A8B707F2
:101000000050FC3793F7F70FE1B785E6C205C181C1
:101010000CC0231034038347240233852401014785
:1010200093F7C70F2301F40285471CA13A856FF09F
:10103000CF910840B70700207DBF05473A858280E1
:10104000011122CE26CC4ACA4EC852C656C4370415
:10105000005078207C301377F70F93762700638950
:10106000065893F7F70F13F7070393050002630081
:10107000B704930600036300D71A6DE313F7F70371
:10108000630B07128947631BF70C8347B40393C7AD
:101090004700A30DF402084442054181EF003005EA
:1010A0008347B40393F7C70FA30DF40245A893F742
:1010B000F703930610026388D70A9306300263870A
:1010C000D70C639DE708938701839E239384018354
:1010D000C207C18381E79147A309F40283C7218333
:1010E00093F70706A5EF83C7C182154793F7F70F5C
:1010F000638DE70419476393E7069E201307F00307
:10110000130400046365F7008220420441801389C0
:10111000818383290900371500202286CE85130597
:10112000454EEF7020379E20A29923203901818FF0
:10113000C207C1839EA0B707005082BB03C7270325
:10114000134747002389E70211A8370700503C33B3
:1011500083C6018293F70708D58F3CB3B7070050C9
:101160000947F8A379A98347640393C74700230B72
:10117000F4028347640393F7C70F93E72700230B19
:10118000F40293874182A3800700C9BF8347E40329
:1011900093C74700230FF4028347E40393F7C70F75
:1011A00093E72700230FF40293874182A38107006E
:1011B000EF00007B65B7184493F70704C5D383C7D6
:1011C00021831387018393F7070685CF2310070038
:1011D00083C7C1826397F50237160020B706002047
:1011E00081471306464E938606089D453305F60053
:1011F000034805003385F600850723000501E397C2
:10120000B7FE1E23C207C183B1FBB7070050239866
:101210000702114705BF99472309F402371500203B
:10122000A309F4029306454E9C22138621831CA237
:101230009C3203D866001387C1821CA383D8260082
:10124000938701832390070113884183231018019A
:1012500083D846001388E182231018010348060052
:101260001389018393892183137808061306454E59
:10127000938741839386E1826304080A83C7090048
:101280009384818393F70702C9C31C2313071002B9
:1012900093F7F70F6385E706636BF70401446384F4
:1012A000B7001304F00F835709001307F003130A64
:1012B00000046367F700035A0900420A135A0A013F
:1012C00083AA040052861305454ED685569AEF70C0
:1012D000601C23A044019307F00F6315F410B707B7
:1012E00000501D472389E702A389E70285BD130744
:1012F00030021304F00FE368F7FA01446DB7B70743
:101300000020938707089CC0CDBF03C40900198043
:10131000134414000588330480401374F40F61B73C
:101320001823AD451377F70FE3EBE5FAA9650A0734
:101330009385C58B2E97184302879A23894621836C
:10134000938481836306D7020D46630EC7028547E7
:101350006316F704A9671387079383C7079398C099
:10136000014403570900E3F0E7F42310F90025BF17
:1013700029671307C78E3C3398C03823A207BA9752
:10138000C207C183F1BF9E23054693F7F70F638120
:10139000C70289CB6385D702638AE70281471304BA
:1013A000F00FC1B71387818198C083C781814DBF7A
:1013B000A9671387479498C083C7479455B7A9670F
:1013C0001387479598C083C7479559BFA967138767
:1013D000C79698C083C7C79661B79E2393F7F70F48
:1013E0002380F18283C70900E207E18763D8071EE3
:1013F000035709009307000463E6E70083570900D9
:10140000C207C183035709001D8F42074183231080
:10141000E900370700501EBB91472309F7023DBB87
:1014200083C711821CA2035709008547E3FCE7FA32
:101430002310F90045BF9E2393F7F70FA380F18295
:1014400005472381E18279BF03C709007D8B11EF36
:101450009E23054793F7F70FE396E7F893873182CA
:1014600098231377E70F98A3B5BF03C70900094670
:101470007D8BE316C7E69E2393F7F70FE39107E60C
:101480009E229306100893F7F70F638DD7009306FB
:101490003008638ED700E394E7E4B7070050A38DCC
:1014A000070289B7B7070050238BE70225BFB707AC
:1014B0000050238FE7023DB703C709007D8B05E786
:1014C0009E23054793F7F70FE39BE7E0A96783C7E0
:1014D000378F93F70702E38407E0938731829823DD
:1014E0001367170049B703C7090009467D8BE31846
:1014F000C7DE9E2393F7F70FE39307DE9E22930642
:10150000100893F7F70F6381D702930630086386BC
:10151000D702E396E7DC370700508347B70393E72A
:101520003700A30DF7027DBD3707005083476703DF
:1015300093E73700230BF70275B537070050834751
:10154000E70393E73700230FF70269BD2300060086
:10155000D9BD83C7090023100600FD8B85E383C72F
:1015600031820144858B99C389471CA20357090026
:101570008947E3F2E7D62310F900B1BB03C709009E
:1015800089471304F00F7D8BE312F7FE9E2293062A
:10159000100893F7F70F6381D70293063008638A28
:1015A000D702E395E7FCB707005083C7B7038D8BDD
:1015B0000D47639EE70011A8B707005083C7670374
:1015C0000D4701448D8BE393E7FA85471CA2014444
:1015D00071BFB707005083C7E703D1BF8357090026
:1015E000C207C183E38307C2B70700501147EDB9B3
:1015F0009377170085C3A3010400EFF0BF888547E8
:101600007CA07244E2445249C249324AA24A05616E
:10161000730020309377470085C758309387318215
:10162000118B11CB98231367270098A39C23B7072E
:10163000005011473DB698231377D70F98A3C5BF25
:1016400078A0C1B7EFE2DFAEEFF07F820545EFF0A3
:101650003F8B239F0182239E01822392018423904A
:1016600001846FE03FAF83C72182054701456318BE
:10167000F70003C511821375F50F3335A000828082
:10168000EFE21FAB3971C53725CD93874182BC335B
:1016900093F7F70FB5E79386418483D701849622A9
:1016A00013874184C207C206C183C18263EDD70498
:1016B000958FC207C183A9C7930600043E8663F4D1
:1016C000F600130600044206B72500204182814639
:1016D000938545DE1E233305D1008506AE979C23F6
:1016E0001CA11E23850793F7F77F1EA3939706017E
:1016F000C183E3E1C7FE85468A850D45EFF0BF85CE
:1017000021616FE03FA5056613060680B2974DB7CD
:1017100003D5C18383D7E18342054181C207C183D9
:101720006366F5001D8D42054181828005671307C0
:1017300007803A95C5BF83D6C1839387E1839A23F7
:10174000014542074183630ED700962337170020D7
:101750001307475E369708239A2305071377F77F09
:101760009AA38280EFE2DF9C65377DDDE9376FE089
:101770007F9EEFE2FF9B2E84B304B50063149400B8
:101780006FE05F9D71377DDD7D3708A00504FDB7F3
:10179000EFE21F9A0566372800208146130606806F
:1017A000930EF07F130848DE1394060141806366B0
:1017B000B400F93522856FE0FF9993870184138780
:1017C00041849E231A2393880184C2074207C18360
:1017D000418363E7E702998FC207C183E38BD7FD9B
:1017E00083D708003307D5001823C297850698A32E
:1017F00083D70800850793F7F77F2390F8006DB72C
:10180000B297D1BFEFE2DF92B13F2A89A13F2A848C
:10181000913FAA84813F9317840013970401D98FC5
:10182000B3E7270162055D8D6FE0DF92EFE25F9025
:101830002A84C93FAA84A2852694253F2300040058
:101840006FE05F91EFE2DF8E253D6FE0BF9003D543
:10185000018483D7418442054181C207C183636605
:10186000F5001D8D420541818280056713070780C1
:101870003A95C5BFEFE2DF8B3164130414359384CE
:101880004182BC3093F7F70F99C37D1405E0BC305B
:1018900093F7F70F91EBB715002085460146938526
:1018A000455A0D45EFF02FEB6FE0DF8A2945EF60D9
:1018B000A04CC1BFEFE2DF872E84D93D493F01E94B
:1018C00009C41374F40311E075376FE0BF884D3B12
:1018D00013054006EF60404AD5B7EFE27F8541111E
:1018E0002AC691456800F93741016FE0BF86056659
:1018F000B715002037180020814613060680930E86
:10190000F07F9385455E1308485693970601C1837F
:1019100063E3A70082809387C1831387E1839E23BB
:101920001A239388C183C2074207C183418363E7B7
:10193000E702998FC207C183E38ED7FD83D70800E2
:10194000338706011823AE97850698A383D708002E
:10195000850793F7F77F2390F80045BFB297D1BF73
:1019600005472381E1848280EFE28FFC0111130699
:10197000000281450A85EFE0AFFE31653724014062
:10198000EF50B06B13050440EF50D01AB7070E00AC
:101990003EC68A85854713050440230AF10002C02C
:1019A00002C202C402C8EF50F01C81451305044076
:1019B000EF507032814513050440EF5010338545D8
:1019C00013050440EF507020814513050440EF508B
:1019D000303413050440EF50502093040440268512
:1019E000EF5050206DFD1305044037240140EF50A7
:1019F000F01F930404402685EF50F01F6DFD8545D0
:101A000013050440EF50D03005616FE0AFF4EFE212
:101A10002FF29D47AA8563F6A700930585FF93F5EE
:101A2000F50F372401409546054613050440EF5055
:101A3000901E854513050440EF50701C930404402C
:101A400089452685EF50B02B65DD13050440EF5026
:101A50001028AA84894513050440EF50F02A2685F2
:101A60006FE04FEF0145828013077002A957636052
:101A7000B704EFE2EFEB41112E84EF501034130561
:101A80001003EF501036A165C105A2951395C5004E
:101A9000EF5070392AC6EF50F03332451147814775
:101AA0006303E500ED573E8541016FE0AFEA3E85F7
:101AB0008280B2871306700229556365B6023386A9
:101AC000E70005686360C802EFE28FE63A862167A7
:101AD0004107BA95B2053685BE95EF60B01B01454A
:101AE0006FE04FE7828093077002295563E4B706E1
:101AF000B307E6000568636FF804B367E600858BFB
:101B0000B1EBEFE24FE1216441042E9432043A89B3
:101B1000B6843294EF50702A13051003EF50702CE6
:101B20008149114A63E62901EF50D02A014539A8BD
:101B30009C308C2033053401A207DD8DEF507032CC
:101B4000890463074501EF50F0286D556FE0EFDF22
:101B50008909C9BF8280B7370020138747810145B3
:101B600093874781A946704B09EA1307800533071D
:101B7000E502BA970547F8CB82800505130787056C
:101B8000E313D5FE7D558280B72700201387475E7B
:101B900001459387475EA946505B09EA1307800316
:101BA0003307E502BA970547D8DB8280050513079E
:101BB0008703E313D5FE7D558280EFE26FD7A964DA
:101BC00037340020938544981305C4C8EF4000784B
:101BD00009CD938544981305C4C8EF4000679385E9
:101BE00044981305C4C8EF4060766FE0AFD6EFE2CB
:101BF0002FD4AA85373500201305C5C8EF40701FC4
:101C00006FE04FD5EFE2CFD22E86AA853735002080
:101C10001305C5C8EF40902E6FE0CFD3EFE24FD150
:101C200041112AC62EC4053FFD572A846303F502DD
:101C300093078005B307F502B7350020A246324668
:101C400093854581373500201305C5C8BE95EF4003
:101C5000B055228541016FE0EFCFEFE26FCD130465
:101C600080053305850237340020130444812A940B
:101C700037350020A2851305C5C8EF40D057232A69
:101C800004046FE02FCDEFE2AFCA93078005330560
:101C9000F502B2862E86B735002093854581AA9538
:101CA000373500201305C5C8EF40B0586FE08FCA24
:101CB000EFE20FC8930780053305F502B2862E8642
:101CC000B735002093854581AA9537350020130547
:101CD000C5C8EF40305E6FE0EFC7EFE26FC5930716
:101CE00080053305F502B2862E86B7350020938530
:101CF0004581AA95373500201305C5C8EF4010600F
:101D00006FE04FC5EFE2CFC2930780053305F502C0
:101D10002E86B735002093854581AA95373500205A
:101D20001305C5C8EF4010626FE0CFC2EFE24FC0AD
:101D3000AA85373500201305C5C8EF4070756FE0E0
:101D40006FC1EFE2EFBE41112AC63D3DFD5763076B
:101D5000F50293078003B307F5023246B72500204A
:101D60002A849385455E373500201305C5C8BE9586
:101D7000EF502007228541016FE0CFBD7D55E5BFC3
:101D8000EFE20FBB130480033305850237240020E4
:101D90001304445E2A9437350020A2851305C5C874
:101DA000EF500010232A04026FE0CFBAEFE24FB8E1
:101DB000930580033305B502B72500209385455E62
:101DC00037360020130646B8AA953735002013058C
:101DD000C5C8EF50800E6FE0EFB7EFE26FB541116D
:101DE0009147371401403EC68D473EC44C00FD5715
:101DF000130504807C82EF50500AF1778D074C0068
:101E0000130504C07C82EF50500941016FE08FB48C
:101E10008546B396B600C2069377F600418AC18222
:101E200019C293E737001307F00F6374D7025041CC
:101E3000E1158A053D473317B7001347F7FFB39500
:101E4000B700718F9307F00FD98D63F6D7004CC19F
:101E500082801041F9BF0CC18280EFE26FAD2E8607
:101E6000AA8537150140130505805D376FE08FAEF9
:101E7000BD4763F8A702C54763E0A7024115137584
:101E8000F50FEFE2EFAA2E86AA853715014013055C
:101E900005C0BD3F6FE00FACCD4763E4A7007115EF
:101EA000F9BF8280EFE2CFA8BD4763E5A700753791
:101EB0006FE04FAA753FEDBFBD472A8763EDA700CE
:101EC000B717014083A6878085473395A700758D96
:101ED0003335A0008280C54763EEA700B7170140E5
:101EE000938707C09C47130705FF05453315E50099
:101EF0007D8DF9BFCD470145E3EEE7FCB717014003
:101F0000938707C09C477117CDB7BD4763EAA70009
:101F100085473395A700B717014023A8A780828083
:101F2000C54763EBA700411585473395A700B71751
:101F3000014023A8A7C08280CD47E3EEA7FE71151C
:101F4000E5B7BD4763EAA70085473395A700B717F4
:101F5000014023AAA7808280C54763EBA7004115F3
:101F600085473395A700B717014023AAA7C08280F1
:101F7000CD47E3EEA7FE7115E5B7FD577D15631359
:101F8000F50082800100DDBFEFE2EF98411185444A
:101F9000B399A400371401402EC63285232834811A
:101FA0003289E13FB2454A8513040480B394B400FA
:101FB00004C8E1374A85232A3401C1374A8544C819
:101FC0006D3F41016FE06F98EFE20F9485443399C4
:101FD000A4004111B68AB394B4009D49854B371AC9
:101FE00001407D5BB3973B01F18F13070A80B9CBAA
:101FF00023282701568532C64937568523289A80DB
:10200000AD3F5685232A9A808D3FFD1913040A801F
:102010003246E39969FD568523282A81B93F5685C2
:1020200023289A80993F83298A805685232A9A807B
:10203000A93733F5290123282A81133515004101D9
:102040006FE00F90232A270175B7EFE2EF8B8549E8
:10205000339BA9004111AA8B368A3A8923000600D6
:10206000B399B9009D4AB71C01407D5C32C64A85D0
:1020700023A86C8119374A8523A83C81FD3D4A85F8
:1020800083A48C8023AA3C81CD3D3246B3749B004F
:10209000B33490001C22B3945401FD1ADD8C04A2C9
:1020A00013840C80E3948AFD4A8523A86C81F13562
:1020B000331A7A014A8523AA4C81C1354A8523A85F
:1020C0003C81EFF09FEB4A8523AA3C81EFF0FFEAC9
:1020D00023A84C8141016FE0AF86EFE26F85854414
:1020E000B395B4003714014041112328B4802A89E4
:1020F000328532C6EFF07FE83246B39424012328BC
:102100009480328513040480EFF03FE741016FE0D3
:102110006F84EFE24F80B284368636842A89AE8996
:10212000EFF09FE613961400A286CE851376E60F95
:102130004A85EFF07FE9AA8422864A85CE85713FE1
:1021400026856FE08F80EFD21FFD4111328A4286D3
:1021500036843AC6C2842A89AE89BE8AEFF0DFE2AD
:102160005286A686CE854A85EFF01FE63247330AAF
:10217000E400631B440163860A002686CE854A85F7
:10218000A93F41016FD07FFC1020A686CE854A85ED
:10219000EFF09FE30504F1BFEFD21FF732844286D0
:1021A0003A8AC2842A89AE89368BBE8AEFF0DFDD97
:1021B00013661400A686CE854A85EFF0FFE0014441
:1021C000930BFAFF631B440163870A002686CE85C2
:1021D0004A85EFF09FF06FD0BFF6B3367401330637
:1021E0008B002687CE854A85EFF03FE60504D9BFF0
:1021F000EFD29FF14254328BB68422863A8A2A89E2
:10220000AE893E8CC28AC68BEFF01FD8A2865A8652
:10221000CE854A85EFF05FDB269A639C44032286D5
:10222000CE854A85EFF05FD6A28613661B00CE8569
:102230004A85EFF07FD98144138AFAFF63935403F0
:1022400063870B002286CE854A85EFF01FE96FD0A9
:102250003FEF9020A286CE854A85EFF0FFD6850419
:102260006DBFB3B6440133069C002287CE854A85F4
:10227000EFF0BFDD8504D9B7B7170140938707801A
:1022800088CB91CDE1470100FD17F5FFB71701405D
:1022900023AAA780C9470100FD17F5FF8280AD473B
:1022A0000100FD17F5FFB717014023AAA780FD47DE
:1022B0000100FD17F5FF8280EFD29FE72E8493F592
:1022C0000508AA84553F93750404268575379375D0
:1022D000040226855537937504012685713F937551
:1022E00084002685513F9375440026857137937588
:1022F000240026855137937514002685B53F6FD08D
:102300007FE5EFD25FE14111AA842E892E84B307C5
:10231000244163E5C70041016FD03FE30C20034A2D
:102320001400268532C683492400EFF0FFF8D285D9
:102330002685EFF07FF8CE852685EFF0FFF71305B1
:10234000800CEF5070230D043246D1B7EFD25FDE20
:102350002A840145EF505022B714014023AA8480FB
:102360001305001EEF5050211305600423A884803C
:1023700093840480EF50502084441305A019EF503B
:10238000B01F33759400133515006FD0BFDCEFD24A
:102390003FDA37140140232AA480AA841305C0031E
:1023A000EF50901D294523289480EF50F01C130412
:1023B00004806FD03FDAEFD2BFD737140140232A11
:1023C000A480AA841945EF50301B1305000423286C
:1023D0009480EF50701A130404806FD0BFD7EFD2EF
:1023E0003FD5B71401402A8423AAA4801945EF5091
:1023F000B018254523A8848093840480EF50D0171B
:10240000844413057003EF5030173375940033354F
:10241000A0006FD03FD4EFD2BFD101119375F50F5B
:102420002A84014502C802CA02CC02CE02C402C6F6
:10243000EF50C0358547B3948700414708083ECE2A
:102440003ACC26C802CAEF50200E2685EF5040161F
:10245000914763E18702930764015C848547DC84CC
:1024600089475C85280085473EC6EF5040350561A9
:102470006FD05FCE254793077002E37087FE930706
:102480008003E1BFEFD2DFCA411105443314A40039
:10249000C1470A853EC422C002C202C6EF50C0082E
:1024A0002285EF50E01041016FD0DFCAEFD25FC844
:1024B0000111FD5702C268007C8202C02314010092
:1024C000EF50C038371702405843D2472183118B51
:1024D00011C3860737470F0013070724B3D7E70256
:1024E000371400408A85130504802313010023114B
:1024F000010023040100FD177C80EF508048130584
:1025000004808545EF50E070130504808145EF504D
:10251000606DFD4513050480EF50007605616FD0B6
:102520007FC3EFD2FFC037140040130504808145FC
:10253000EF50407413050480FD45EF50E07385456E
:1025400013050480EF50006A6FD0DFC0EFD25FBE8A
:10255000371500401305058042318145EF508068F2
:102560004204418022856FD0FFBEEFD2DFBA2A89B4
:1025700095C1AE898544D145EFF03F8E37140140B7
:10258000B3942401232A94804E85EF50E07E1304F7
:10259000048004C891454A85EFF03F8C4A85EFF0EE
:1025A0009FE7EFF01FF86FD05FBA9307800873B012
:1025B00007800F10000023A6018423A4018473A0C8
:1025C00007808280EFD2DFB6EFF0DFEBEFF01FF88D
:1025D0006FD05FB8EFD23FB49307800873B0078025
:1025E0000F10000003A4C18473A0078003A9818495
:1025F000637325012A894A85EFF02FAE856793879B
:1026000087BB3E94330424413374F402373A0020EC
:102610008149BE84130ACAD0631439016FD0FFB256
:10262000B3878900B3F7970285098607D2978A2373
:10263000EFF0AFAAD5B7EFD21FAE93991600AA84D8
:10264000AE8A3289368A3284B299631A34010144DF
:10265000631C440181452685F5286FD01FAFEFF03C
:102660006F9A0AA00904D5B793771400814591E3C6
:10267000D6852685C52093171400CA978A2305049A
:10268000EF50806FF1B7EFD2BFAA01119307F00F9F
:102690007C844C00B9472A847C8202C802CA02CCDE
:1026A00002CE231301002315010023160100EF5071
:1026B000402DC167938707060C0822853EC8231B5F
:1026C0000100231C0100EF50E03181452285EF50CD
:1026D000E0550C082285EF50803781452285EF5068
:1026E000C0550C082285EF50E03F81452285EF5010
:1026F00020560C082285EF50204881452285EF5056
:10270000005685452285EF50C050B737014093876A
:1027100007C06316F40085452285EF50204E85459D
:102720002285EF50204C05616FD0DFA2EFD25FA071
:1027300037350140130505C0EFF0FFF437050040C1
:10274000EFF07FF43705004013050540EFF0BFF3CD
:102750006FD05FA009E5B7070040CEBB82808547F8
:102760006316F500B70700408EBF82808947631665
:10277000F500B7070040CEBF82808D476317F50094
:10278000B70700402390B704828099476317F5008C
:10279000B7070040239AB74282809D476317F50030
:1027A000B7070040239CB7428280C1476317F500FA
:1027B000B7070040239EB7428280C5476317F500E4
:1027C000B70700402390B7448280A1476317F50004
:1027D000B7370140239AB7C28280A5476317F50037
:1027E000B7370140239CB7C28280A9476317F50021
:1027F000B7370140239EB7C28280AD476316F5000C
:10280000B73701402390B7C48280FD577D1563130D
:10281000F50082800100DDBFEFD21F8F0544B319A0
:10282000B400B31BC4003314A4003E8A9374170091
:102830004204B7170140058336894180938707809A
:1028400025CF80CB854A5285EFF03FFCA14CBDECF3
:10285000416B7D1BB3F96901371D0140054C93574E
:10286000790013070D80A1CF2328370106091379BA
:10287000F90F93070D8063878A0580CB5285EFF0AF
:10288000DFF813070D801C478604B3F7FB00B3F78E
:102890006701B337F000DD8C93F4F40F63860A020E
:1028A00000CBFD1C528593FCFC0FEFF01FF6E39864
:1028B0000CFA26856FD0DF88C0CB814A69B7232AFE
:1028C00037016DB7C0CB5DBF40CBE1BF416B7D1B16
:1028D0008144054C371D0140B3F9690193070D8010
:1028E000638A8A0580CB5285EFF03FF293577900D7
:1028F00013070D80B1C32328370106091379F90F97
:1029000093070D80638D0A0280CB5285EFF0FFEFB5
:1029100083278D808604FD1CB3F7FB00B3F76701A6
:10292000B337F000DD8C93FCFC0F93F4F40FE397C6
:102930000CFA41B7C0CB45BF232A37017DBFC0CBBE
:10294000E9B7EFD2EFFE41112E84C14532C6EFF058
:10295000CFD02285C145EFF04FD032469145328528
:10296000EFF0AFCF41016FD0EFFEEFD2CFFA4111C0
:10297000AA842E89B289368ABA8A3E8B330418011A
:102980006315880041016FD04FFCDA875287D686E5
:102990004E86CA85268542C6EFF01FE832482300DE
:1029A000A8000508F1BFEFD20FF72A89AE89328A55
:1029B000B68A3A8B3E84B3840701631494006FD0C7
:1029C000CFF81420DA8756875286CE854A85EFF0F5
:1029D000BFE40504DDB7EFD20FF44111AA842E89BC
:1029E000B289368ABA8A3E8B0144631514014101CB
:1029F0006FD0AFF5B3068B009422D68752874E86F0
:102A0000CA85268542C646C4EFF01FE13248A24877
:102A1000B307880088A30504C9BF9D47AA8563FA48
:102A2000A700C1476300F506C5470145639EF5044D
:102A3000A545EFD2EFEF37240140130404405C407A
:102A4000370700058546D98F5CC005462285EF40D3
:102A5000901CC1475CDCA1477CC489452285EF40BE
:102A6000102A65DDB727014003A5C74403A74740E7
:102A7000B70600FBFD16758F4205418123A2E74092
:102A80006FD04FEDA14575B782801841FD576307A0
:102A9000F700484105051335150082800545828001
:102AA00010419C41630EF6005841D4410145630A30
:102AB000D7006308D6003385E7403335A000828015
:102AC0000145828093176501D987850793B7170061
:102AD0003E951375F53F1105828098411C41B98FD1
:102AE0001CC1D8415C41B98F5CC198451C45B98F68
:102AF0001CC582801C4181EB584101E71C4593B7FE
:102B000017003E8582808147EDBF1C41D18393F73A
:102B1000077091CBEFD2CFE11105EFF07FF81335BD
:102B200015006FD02FE30145828011E1828063049C
:102B3000B5000841DDBF054582807C557849BE95CA
:102B4000998DB3F5F5023C4D63FDF500785193D7AF
:102B500035009D893E978547B395B7001C23DD8DD1
:102B60000CA301458280939735002A8663C407042D
:102B700037071070130707C01442B3C7B6007D8F24
:102B800015C793976601D9877D576381E702370799
:102B90001000B7070080130707C093C707C0758FE1
:102BA0003705F04FED8F498F639BE7002320060028
:102BB0000545828037070080134707C075BF93D74C
:102BC000450113F807701307004001456310E80240
:102BD00013D7A600A9811377F73F93F5F53F6367F5
:102BE000B700E207E187AA07B6971CC28280EFD23E
:102BF0002FD42A842E85EFF0FFEC1C403E9508C0B0
:102C000001456FD02FD51C4185071CC1014582802D
:102C1000EFD20FCF3A8C3E84338717013C55DC4FFF
:102C200063EDE7007C552A8AAE8CB28BB68A428D62
:102C30004689638B07166369FC161305C0FA9DA2CB
:102C400063890C0483A70C00CA846395870583A459
:102C50004C0083A98C00A699637D340363689402B9
:102C6000B389894063733901CA8983A5CC00B30451
:102C700094404E86A6956A85EF50D0014E9D4E94A5
:102C800033093941E31E09FA014529AA818C63738E
:102C90009900CA8483A70B00639B870383A54B001D
:102CA00083A98B00AE9963743403636EB400B38957
:102CB000894063F33401A68983A7CB00B305B440F0
:102CC0004E86BE954DBF818D63F39500AE84636CD7
:102CD000590503258A065C493377F40229E76364C2
:102CE000F904B3F9F4025C41EA862286E285B38DE9
:102CF00034416E8782976351A002B7A6000029660F
:102D0000938606C61306869D9305000637A5000028
:102D10001305C5C6EF50806E51E5B38499406E9D92
:102D20006E94269985B78327CA0689CF636CFC0009
:102D3000B7A600002966938646C81306869D9305AC
:102D4000C006E9B703258A0623A08B015C494C4DD8
:102D50003307FB00B376F4022297B377F70233060A
:102D6000D44023A2CB001D8F63F3E5002E871C55B2
:102D7000818E369763F3E7003E875C4183A6CB00E4
:102D800023A4EB00E2858297635CA000B7A6000055
:102D90002966938606C61306869D93057007BDB700
:102DA000E30205EE6FD08FB9138BFAFFE1BDEFD2CE
:102DB0002FB53E8D9C490111B28C2A891305C5039C
:102DC0002E8AB68A3AC4C28BC4453ECE93D9AC0093
:102DD000EFF0BFD393F9F93F630905146387091432
:102DE0008327C90313D7AA001377F73FA98393F763
:102DF000F73F6396E700795505616FD02FB4014422
:102E000063F4E700130400C0B707008093C7F7FF1F
:102E1000370C10003EC6130C0CC0B70D1040724B9F
:102E20005A85EFF03FCA93074500E3E6F4FC032719
:102E30000A00898C91481308C101A68791464A86E9
:102E400081454A85EFF0DFDC6351A002B7A60000A0
:102E50002966938606C61306C6A19305702E37A56C
:102E600000001305C5C6EF50605959F57245EF5083
:102E7000801DB2473345AB007D8D2ACE63800904A7
:102E800093574B0113F70770930600406318D7025E
:102E900033878A401356A7009356AB001376F63F4C
:102EA00093F6F63F636CD600337787013367B7013B
:102EB000E30367F5E207E187AA073E94B3878A40F8
:102EC000B3C76701B3F79701B9FB93176B01D987B4
:102ED0007D57E382E7F29379FB3F63F33B01DE89A1
:102EE000A24703270A00CE8891076A88A697CE8654
:102EF0004A8681454A85EFF0BFD1635CA000B7A642
:102F000000002966938606C61306C6A193054030C5
:102F1000B9B7E31305EE33863B41814533053D01E7
:102F2000EFD00FA433056401C1BD0144F1BDEFD260
:102F30002FA0BA8713F8F63F0147EFF05FE76FD095
:102F40006FA1EFD2EF9E4111B706F07F3284580097
:102F5000B1063706F07FEFF09FFD63580500F95783
:102F60006309F50041016FD0EF9E4C002285EFF020
:102F7000DFB60145C5BFEFD2AF9B328710415C433E
:102F80001843345641112A84D44EA14813088100B5
:102F9000930506013285EFF0BFC701E993054400B0
:102FA0002800EFF0FFAF3335A00041016FD08F9ABA
:102FB000EFD20F983C552A84DC5B81E74845EF50FF
:102FC000804A3C549C5F81E7484CEF50C0493C54D8
:102FD000DC5F81E76850EF50004901456FD08F9763
:102FE000EFD26F939307F03F411136841387860029
:102FF000631FF600B7A50000938505D53A85EF500D
:10300000306C89471CA0014541016FD00F943459A1
:103010009314A600370610788506C58E130606C0E1
:103020002A89AE89EFF0BFF0E34005FEB706002025
:103030005181A1063706107008A03800C58E13060E
:1030400006C0CE854A85EFF09FEEE34F05FA935711
:103050004501130720206395E700B2475CC065B7C0
:1030600013071020E391E7FA1375F53F48C061BFDD
:10307000EFD20F8C7C5563E1F502B7A600002966FC
:10308000938646BC1306C6A09305501137A50000D1
:103090001305C5C6EF50803628555C458297635CA2
:1030A000A000B7A600002966938606C61306C6A030
:1030B00093057011E1BF6FD0EF89EFD26F871C418C
:1030C00013F7F73F1DE363D30504B7A60000296695
:1030D0008565938646151306C6AE9385F53137A5EB
:1030E00000001305C5C6EF5060319306E01F63FF73
:1030F000E600635DB000B7A600002966856593868B
:10310000C6181306C6AE93850532D1BFBE9593F798
:10311000F53FB337F0008605FE078581DD8D0CC1D4
:1031200001456FD02F83EFD2AF802E8410554844D5
:103130009305F00FEFD0CF82FD571CC06FD08F8169
:10314000EFC21FFF9C512CD52A847CD5DC418DE336
:10315000B7A60000296685659386461C130646AD12
:103160009385B50737A500001305C5C6EF500029A4
:103170009C45AE8481EFB7A60000296685659386DD
:10318000461E130646AD9385D507E9BFDC4581EFA2
:10319000B7A600002966856593864620130646ADCE
:1031A0009385E507C1B79C4981EFB7A60000296662
:1031B000856593864622130646AD9385F5075DB770
:1031C000D44981EEB7A6000029668565938646241A
:1031D000130646AD9385450871B7984D01EFB7A624
:1031E00000002966856593860626130646AD9385FD
:1031F00055088DBF03A98502631D0900B7A600000D
:10320000296685659386C627130646AD93856508AE
:1032100091BFB377D90281CFB7A600002966856533
:1032200093868629130646AD9385A50825BFB377F7
:10323000E90281CFB7A60000296685659386862CB2
:10324000130646AD9385B50831BFDC4D33F6270331
:1032500001CEB7A60000296685659386862F1306E2
:1032600046AD9385C508FDBD1306F007636DF600F6
:10327000B7A60000296685659386C632130646AD5B
:103280009385F508C5B5D05101EEB7A600002966B3
:10329000856593868634130646AD9385B509D9B501
:1032A000905921C293D51700637DB600B7A60000E0
:1032B0002966856593864636130646AD9385250AAD
:1032C00055B5FD55630FB60063FDC700B7A60000F6
:1032D000296685659386863B130646AD9385450A28
:1032E00051B5F04439CAB376D60281CEB7A60000F4
:1032F0002966856593868641130646AD9385950AB2
:1033000095B53377E60201CFB7A60000296685653B
:1033100093868646130646AD9385B50AA1B5B3F7E5
:10332000C70281CFB7A60000296685659386864BC4
:10333000130646AD9385D50A35B5DC5885CF5CC4F8
:103340009C5CB9C35CCC2685A285EFF0DFDD2854F8
:1033500093050401EFF03FDD2454C85405EDB7A6F2
:1033600000002966856593868650130646AD9385D1
:10337000B50CCDBB4A85EF50600E48C471F1228573
:10338000EFF01FC35155A9AA4A85EF50200D48CC34
:103390005DF9F5B7DC5C95C37CD0BC401307F00F3A
:1033A0006372F702B7A60000296685659386865288
:1033B000130646AD9385750D75B3EF50200A68D09E
:1033C00069FD75BF85C33CD8FC4063DF0700B7A625
:1033D00000002966856593864654130646AD93859D
:1033E000D50D49B338D8CDB795C37CD8BC441307A5
:1033F000E03F6372F702B7A60000296685659386F1
:103400008656130646AD9385350EA9BBB7070080D7
:1034100093C7F7FFD9BF8DC33CDCF444D84C637F1E
:10342000D700B7A60000296685659386465813061F
:1034300046AD9385950E3DB338DCC5B7BC487D5687
:103440006380C7069054637DF600B7A60000296626
:1034500085659386465B130646AD9385C50E19B305
:10346000305C637DF600B7A600002966856593860B
:10347000C660130646AD9385E50EEDB113563700D1
:1034800099C213D63600637DF600B7A60000296600
:1034900085659386C665130646AD9385250FD9B11C
:1034A0007CDC7D566390C704232E0406FD571CD098
:1034B0005CD02324040223260402232E04022320AA
:1034C00004042322040423280402232A0402232CB4
:1034D00004022324040423260404232804040145AD
:1034E0006FC05FC7E1F79C54305C0D8399C213D75E
:1034F00036006373F600B2876373F700BA877CDC2B
:1035000075B7EFC25FC10329C50184410145611947
:1035100063EB240333D52403AE897D15EF40902E51
:10352000130425000A0433848440335424033309EC
:1035300089022285EF40102D0A05898C2285B384EB
:10354000244123A099006FC05FC0EFC2FFBBAA89CE
:10355000285541117D172E8B4C00B28BB68C3E8ABC
:10356000C28A3AC2EFF0FFF9AA84094CE685568573
:10357000029A29E5A1C413F9140033042C419318CD
:1035800024001308810081476687C6865E86DA8537
:103590004E85EFF0EFE71DE17D14634A85000A04D4
:1035A0001C083E947919832C84FFCA94C1B7A245A4
:1035B0005685029AAA870545EDD33E8541016FC025
:1035C0003FB8EFC27FB4011132C63AC489EA7D57D1
:1035D00098C323200800014505616FC07FB62A8982
:1035E0002855FD16AE8A6C08C2893E8A36CEEFF0A9
:1035F0005FF1AA84032589062C00930B0002EFF0EB
:103600005FF02A8B054C324763689B00A24723205A
:10361000EA0023A0F900C1B7338564413AC2EF4004
:10362000F0102A8433848B402685EF4010177D14D8
:103630001247637385002A8491481308C1009317C9
:1036400024009146568681454A85EFF06FDC49F5A6
:1036500033148C00818C45BFEFC21FAB3709F8FFD4
:10366000AA89AE8A328C3A8BBE84428DC68C795A36
:10367000938BF6FF130909C063940C00014549A020
:1036800003270C008327CC00631C470303274C004F
:1036900003248C003A9463F5840263E3E402058C0E
:1036A00063F38C0066843387E4406A852286B385A1
:1036B000E700EF40305E229DA294B38C8C406DBF3A
:1036C00003A6890623204C01544A10563388DB0098
:1036D00033F7D4022698B376D8023387E440232206
:1036E000EC003308D84063730601328823240C01B0
:1036F000DA864A86D6854E85EFF06FEBE35E05F6F7
:103700006FC01FA4EFC2DF9F3E8BB73700007171FF
:10371000938767B63EC6835C010FB70710608314BA
:10372000410F7E5C938707C02AC4AE8B36843A8AE9
:10373000C289468902D802DA814A014D3EC82285F3
:1037400032CAEFF02FB8524683A7CB00B30DC500A5
:1037500063F0FD08224603A70B0091481308C1023D
:10376000EE87914681453285EFF08FCA631E0524AE
:103770003255EF40500DB7070080298C5D8C83A730
:103780000B0022D614183ED893874D003EDA3256ED
:103790003707F07FB347A601B3F73701F98FCDEBB9
:1037A00093D7A90093F7F73F63810716894763FC16
:1037B0005703B7A60000296637A500009386C6ED1B
:1037C000130606A39305203C1305C5C6EF4010431E
:1037D000635A601F83270A0083264A007D1B3ED65A
:1037E000210AB28D6DB79307C0033387FA021C1903
:1037F000EE55850ABA9723ACD7FAC25623AE37F9ED
:1038000023A0A7FB23AED7FAD256239227FB2393FC
:1038100097FB239497FA23A887FB23A477F923A681
:10382000B7F923A887F823AA47F923AC67F923A699
:10383000B7FA23AAC7FA23A0D7FC130CC7023C1877
:103840003E9CB247014D8149BEDD8144814C014916
:103850006E86F5B5130620106392C7040147B25770
:1038600013F6F73FE376C7FEA9838C4693F7F73F3D
:10387000A697AA07CD8F8C22D0426285938505300A
:10388000D205DD8DEE573ACC36CA8297634E0512CB
:10389000D246B10655FD62470507D1B7EE5793955D
:1038A000A4003686BA9562858297634F05104DD184
:1038B000638C0A10FD1A9307C003B387FA02181924
:1038C000BA9703A7C7FA83AB87F883ADC7F8BADD09
:1038D00003A747FB03A407F903AA47F903AB87F93A
:1038E00083A9C7F903AD07FA03D947FA83DC67FA5E
:1038F000839487FA03AC07FB3AD683A687FB03A71A
:10390000C7FB83A707FC3AD83EDA93D7A90093F701
:10391000F73F325789CB9357A70093F7F73FE3E977
:1039200027F3E3F797F39357470193F7F77F8DD387
:1039300013061010E390C7F23ACEEE57324736CC5A
:10394000E388E7F09307C003B387FA021819130658
:10395000C0038145850ABA97138587F83ECAEFC030
:103960003F80D2476E57E246239227FB23A6E7FA11
:103970007247239497FA23A477F91379F73F2983A1
:103980001377F73F33072741BA94C20423A6B7F948
:1039900023A887F823AA47F923AC67F923AE37F9A0
:1039A00023A0A7FB239397FB23A887FB930C190065
:1039B000C184B68B370D0020C249014B014A7D54AA
:1039C000814D79B50145EDB54D616FC02FF7EFC25F
:1039D000AFF34111AA892E8AB28A368BBA8B3E8CFC
:1039E00042890144A14C63642401014581A0B304D0
:1039F000894063F39C00A144A68813088100B307A3
:103A000074015A87B3868A40528681454E85EFF00D
:103A10002FA009ED2686B3058C002800EF40502525
:103A2000AA8701C9054563C30700094541016FC065
:103A30002FF126944DBFEFC2AFEFAA8403A88400F4
:103A400013F4F53F0841637304012288584214427D
:103A5000DC404286AA85EFF09FF701E99C4463862B
:103A60008700054563E3870009456FC0AFEEEFC2ED
:103A70008FEA2E848C41854741111387250063F21C
:103A8000E70A7C55368AB2892A8963E1F502B7A62E
:103A9000000029669386C6BB1306469E9305400B1D
:103AA00037A500001305C5C6EF405015285503285B
:103AB000840054441C4D50403E987D18B377F80262
:103AC0003308F8401C45428742C68297AA84324890
:103AD000635CA000B7A600002966938606C613069D
:103AE000469E9305800B6DBF01E9631B0A00032509
:103AF0008906A285EFF02FE3268541016FC0EFE430
:103B0000FD5723A0F90058405C4414404286CE85FE
:103B10004A85EFF0DFEB6348050071D99304C0FAE2
:103B2000E1BF8144D1BFAA84C1BFEFC2EFDD3E89AE
:103B3000F9572A8AAE84B28A368B3A8CC28CC689EF
:103B40006304F7027C556361F702B7A6000029669B
:103B5000938606BE130606A09305900E37A50000B7
:103B60001305C5C6EF40900903278A06B30739013C
:103B7000FD5B584F637DF706B7A600002966938664
:103B800086C1130606A09305A00EC9BF9C4063150D
:103B9000FC06C8406362A90603278A0600572A94D8
:103BA000637C89043304244163F389004E84DC443C
:103BB0003305A940E6853E952286EF40B00DDC40F6
:103BC00098442299B307F940A29CB389894063F3D2
:103BD000E700BA8703278A069CC418576399E70051
:103BE000DA865686A6855285EFF07FE801E5E39FE9
:103BF00009F801456FC0CFD4638C7701B7A60000E8
:103C000029669386C6C3130606A093057010B9B73C
:103C100083278A0623A084019C4F23A40400B37742
:103C2000F902B307F940DCC0D9B7EFC2CFCEDC410F
:103C30009841B68832882E84B289B6842A86814615
:103C400093050501EFF07FEE2A8911E948442686A5
:103C5000CE85EF300030544048C4A69654C04A8503
:103C60006FC0AFCEEFC24FCA41112A8A32852E846F
:103C7000B28B368BEFE01FE55C4058481159AA978C
:103C80006362F704AA840844939A1B0093DA1A002B
:103C900033C5AA00EF40203B2AC691467000A2859A
:103CA0005285EFF09FF82A8911EDF114814963C81C
:103CB0000B04A6865A86A2855285EFF01FF739E1DC
:103CC000232454014A8541016FC08FC783274B00CD
:103CD00003270B0085481308B100CE97B386344103
:103CE000528681455285EFE0BFF209ED8546130605
:103CF000B100A2855285EFF05FF309E58509E3E79E
:103D000099FC7DBF2A897DBFEFC28FC2B2862E8605
:103D10004C410841EFF01FF56FC0CFC3EFC24FC158
:103D2000FD571CC281462A84EFF07FD40DE528544C
:103D30001C4982976351A002B7A60000296637A5E7
:103D40000000938606C61306469F9305E00D1305F3
:103D5000C5C6EF40A06A6FC0EFBFEFC2EFBA411116
:103D60002A8AAE8A328BB68B3A8C3E89C28901444C
:103D7000A14C63662401014541016FC06FBCB304CF
:103D8000894063F39C00A144A68813088100B3070F
:103D900084015E87B3068B40568681455285EFE0ED
:103DA0003FE779F903A5090026862C00EF30601A59
:103DB00023A0A900269475BFEFC20FB53455DC418E
:103DC0004111984ED44ED107AA842E8463F3F60095
:103DD000B6879309F7FFCE97B3F9E702370B1000C8
:103DE000814B814A130B0BC0938C0401B38937417B
:103DF000138CC9FE5C4063E8370318481440FD5734
:103E00003EC413088100B387EA4013864A00A685A2
:103E10002685EFF09FF4631D0512A247638D77138B
:103E20001305C0FA35A23389F94071191307E03F31
:103E3000637427011309E03F91073E9963753901C7
:103E400063732C016289FD57DC8363643907BC54BA
:103E5000944FDC4F958F63EE270518408548130873
:103E60007100CA87268681452685EFE07FDA09C57D
:103E70009307C0FA631EF50CBC5414407D579C4F49
:103E80001308C1003AC63E864A87A68526853EC4E9
:103E9000EFF0BFEC09C59307C0FA631BF50A3706BC
:103EA00000603400130686C0A2852685EFF09FDBF4
:103EB00045E1034A71005C400844134A0A08135A5A
:103EC0007A00130A0A50B307F940F117520A336A0D
:103ED000FA00336A6A013345AA00EF40C0162AC4CB
:103EE000484411462C00EF30C0065C40184048C4DE
:103EF0002AC6A1481308810081462686E6852685C4
:103F0000EFF0BFC231E563970A00832A4400832B98
:103F1000C400910A9C83370700802322240193C7A1
:103F2000F7FFE207F98F33CA4701FD572324440105
:103F30005CC463783901BC54D8489C57BA97E36B8A
:103F4000F9EA2686E6852685EFF05FDDE30405EADB
:103F500041016FC0EF9E14401308810091475687BE
:103F60001146A6852685EFF05FDF7DF1A247EDD3F0
:103F700045BDEFC2EF98032EC5065D71832E060086
:103F8000630A0E00130BC0FA63F7CE0F032F46002F
:103F90006373CF0F46CE42CC3EC43ACA36C8B2890C
:103FA0002E849148130801038147768791462A861B
:103FB0008145AA8402D802DAEFE09FC52A8B09C5A1
:103FC0009307C0FA6319F50A03A74900914813083B
:103FD000410381479146268681452685EFE05FC3F0
:103FE0002A8B51CD9307C0FA6317F508014993173F
:103FF00029003387F9001843134919000A0918C02A
:10400000CA9903A709007D5B2326040058C09808BD
:10401000BA9783A707FEFD5B370C00801CC4894755
:104020003EC0B7071000938707C03EC611469305F0
:1040300084007D555EDC5EDEEF20B0712AD2DA8C22
:1040400002C2814D014A7D5D814A6A85EFE09FA7EA
:10405000B4541840AA9AD44E914813088102D687C6
:10406000268681452685EFE0BFBA0DC19307C0FAC9
:104070006302F5222A8B5A8561616FC02F8C5259D9
:10408000C2573309F9403329200195B7125511461B
:104090002C10EF20106C2AD22255EF30D07AB34981
:1040A000AD004ED463DD090293574D0193F70778B5
:1040B000938707B093B717005844631F071C9C08E9
:1040C000CA971840544083A707FE024614C01CC478
:1040D00058C085476306F62685473EC081BF4E859A
:1040E000EFE05F9EBC54D04FB30755016364F61AEE
:1040F00013D7490113770778930700501440138DA5
:104100004A006312F70636879148B2861308C10247
:10411000EA87268681452685EFE09FAF21F9325751
:1041200092576319F716A257C8541146D183FE0758
:104130004C10B3C9F900EF20D061C8D42255EFE08C
:104140007F98E257569548C41CCCF2572328340177
:10415000231A44015CCCA30BB4015ED2E687668BC4
:104160004E8DBE8CDDB59307C5FF130841026A87EB
:10417000A6852685EFF07FBEE31A05EEA25793D6FB
:104180004701139606014182937506708DEDA98350
:1041900093F7F73F63E44701138A1700A255D2470C
:1041A0004247AD8FF98F89EF1C407245B000BEC405
:1041B000E247EAC68297E34B05EAA25655E1B68C80
:1041C000E687DA8C69BF130700406391E504324744
:1041D000E206E186369A33F7EC003706F04F420AE2
:1041E000518F135A0A016395E700B3EC8C017DB738
:1041F000E3867CFBA98313D7AC0093F7F73F1377D3
:10420000F73FE36DF7F8AA06B69C49BF9307006035
:1042100018406391F50293FD1600B454A1481308A9
:104220008103D44EEA87268681452685EFE05F9E8E
:1042300035D52DBD1376F67F9307F05FE310F6F6C4
:10424000B454A14813080104D44EEA872686814558
:104250002685EFE0FF9BE31B05E085473EC23DBF9F
:1042600037070080B3C7DC00134707C0F98F8DC341
:104270008947E317F5F413D7AC0093D7A60013775B
:10428000F73F93F7F73FE36DF7F2B3EC86010DBF0D
:10429000FD5C3DB781470DB5230B040095CFB054AD
:1042A0001C4EB377F7028DEB92479DC7FD573ED664
:1042B00014408647504E1308C102A6852685EFF0AC
:1042C000DFA909C59307C0FAE316F5DA9647325716
:1042D000998F93B717007CA8A2851385C403EFE0DC
:1042E000DF8219CDDC5C1357AB001377F73FA9834E
:1042F00093F7F73F631EF702B7070080336BFB00AD
:10430000A24799CB5A289357AB0093F7F73F6373B3
:10431000F700BA8722471EA3E35F0BD45A28135332
:10432000AB009377F33F795BE3E7E7D4014BA1B3AD
:10433000FD56E307DBFCE3F5E7FC130B0BC0C9B745
:10434000B7B70000B7A5000037A500009387078323
:10435000130670569385C5C6130545D1EF4030212D
:10436000130BC0FA09BBEFB2BFDC8148014881479B
:104370007D57FD56EFF0FFBF6FB0DFDDEFB25FD8C6
:104380001C51832C060001119CCD5C51DCCD0387B0
:104390000C0055CBB707300037070020938A07C0C1
:1043A0009307870036C432C22E84AA8437AA00003D
:1043B00037AB0000938B85013EC013DC4A010947EF
:1043C0006318EC00668593050AD5EF407033AA9C0C
:1043D00093050AD56685EF40B02F05472A89631AF1
:1043E000E50483C60C001307E00293891C00638276
:1043F000E608B3892C014E87854D93050AD53A8589
:104400003AC6EF40F02F324793050AD5330DA70087
:104410006A85EF40F02B2A882DC18547631AF50283
:1044200003460D009307E0026317F60433070D01FE
:10443000E9B70947E31FE5FA09469305CBD466853A
:10444000EF4000035DF5A95A568505616FB01FCF97
:1044500089476312F5022AC609469305CBD46A85BB
:10446000EF400001324801E9FD1DE3910DFC930985
:104470002D00CE8C99B7850D55BF03870C0069D7E9
:104480009247094723A097016313EC0693D7AA002C
:1044900093F7F73F1307F03F6381E7028246AA07CD
:1044A000370610705E87DD8E130606C0A28526854E
:1044B000EFE0FFA7AA8AE34905F8B7470000138891
:1044C00067A3A247930841014A87B70600785E8632
:1044D000A285268526CA66CC4ACEEFF09FA9AA8A75
:1044E000E34405F659F57C38E9FBF95AB1BFB15AF6
:1044F000A1BFEFB2FFC337A90000930509D52A84F5
:10450000EF40101DAA84930509D52295EF40501F56
:104510002295269503050500133515006FB09FC33E
:10452000184D9C41D4416315F700504D6307D602E6
:104530006315D700544D6382D702D4459C456399D7
:10454000D70098C1584D860723A40500D8C1DCC503
:104550009C45014585079CC58280EFB27FBDB7B6FB
:1045600000000566B7A5000037B5000093860683F6
:10457000130646179385C5C613054590EF40207F67
:104580001305C0FA6FB01FBDEFB2FFB80111854728
:10459000AE8AA9653284232C06005CCE2A8A414665
:1045A0009385058A0808B70400203709F07FEF30AB
:1045B000706E93098401373B0000A1041309F93F91
:1045C0004E85EFE08FCC19C1795535A80C082285AE
:1045D000EFF01FF56349050283A70A009308410025
:1045E00013086BF73EC483A74A002687CA863EC6D7
:1045F0004E868147A285528552C2EFF09F9793075E
:104600002500F59BD5DF05616FB03FB4EFB2BFB0B9
:1046100041118547AE89A9653284232C06005CCE02
:104620002A8941469385058A0A85EF30B06693044E
:1046300084012685EFE06FC519C1795515A08A85DB
:104640002285EFF0FFED63400502CE852685EFE081
:104650002FC519C52686A2854A85EFF0DFD071D90E
:1046600041016FB09FAE1305C0FADDBFEFB25FA985
:10467000DC5903A9C50263FE270D3309F940AA8A54
:104680002E84B28963F326013689CA8D130A040485
:10469000795B930BC403130C8403930C8400370DD4
:1046A000102063940D004A8515A81C581397D70055
:1046B0006358070003A78A06545C584F639AE602C2
:1046C0009396B700585863CD0600545410545E8832
:1046D000E287D2855685EFE0DFEE11C56FB01FA6E9
:1046E000232C640358DC1C5837070400D98F1CD8CE
:1046F00083A78A06D44F5C5CB384F64063F39D00C5
:10470000EE8418581316B700635C06025A203386ED
:1047100097002A073367A70163EFC602A6884E8871
:104720005286E6855685EFE03FF34DF95C58A69931
:10473000B38D9D40A6975CD85C5CA6975CDC95B772
:10474000185CA6884E88528681455685EFE04FCC8E
:10475000E9BF014561B71305C0FA49B7EFB2DF9A67
:104760003971AA842E89B289814571460810368B29
:10477000EFB01F9FA965854741469385058A0808C4
:10478000370A0020B70A10703EDE210AEF30905041
:10479000938A0AC02818EFE04FAF09CD8054054A2C
:1047A000B70A1100416BB70B1200370C020045E04D
:1047B0000145BDA80C080810EFF09FD66342050E16
:1047C000E2554E8502992DE5F2554E8502992DE16F
:1047D00030180C102685EFF01FB939E90144930B0E
:1047E0002020130C0020F95C83574103E374F4FA92
:1047F0009316A4003800B3E6460156860C102685B1
:10480000EFE0EFF2635805006314950305044204DA
:104810004180D9BF518163107503324765DBA246E1
:104820004E88CA87268681452685EFE01FD279DD2E
:1048300021616FB0FF90E30B0BFCE31985FDA245EE
:104840004E85029975F5B2454E850299CDB77C200B
:10485000638447010040A1BF1C58B3F7FA0063848A
:1048600067031C58B3F7FB00E39687FF58587DD3C6
:10487000145C4E88CA872686930504042685EFE0DB
:10488000DFCC69D975B7585469DF14544E88CA878C
:104890002686930504042685EFE03FCB79D149BFF6
:1048A0001305C0FA71B7EFB2BF88784D7C49232E4B
:1048B00005042A84BA977855B3F7E70238517CC9C2
:1048C0003C55D057931736006373F700BA8768508A
:1048D00081453CCCEFB0DF88B735000085462286A5
:1048E0009385A5B32285EFF07FE719C57C54232C6F
:1048F0000404232E04043CD06FB0DF85EFB25F8345
:1049000041112A84384C744C63EDE6023C50C9E7EF
:104910007C4837B70000B7A50000BE967C5437A589
:10492000000013070783B3F6F6021306002C9385E5
:10493000C5C6130505B9EF408043115541016FB05D
:104940007F81705093D7360013F57600B2979C2381
:10495000B3D7A700858B9DEB7C48BE967C54B3F6FD
:10496000F60294C1344C7C4C385085077D177CCCC2
:1049700038D063FBD70013D73700329718239D8BAD
:10498000B357F700858BE5F301454DBF3C508506D5
:1049900074CCFD173CD085BF22852EC6EFF0BFF04A
:1049A000B2452DD161BFEFB2AFF82E8491052A89AF
:1049B000EFF0DFF4AA842DE1A2854A85EFF01FF421
:1049C000AA8439E91840232404009148130884007C
:1049D000814791464A8681454A85EFE06FA309C524
:1049E0009307C0FA631DF50283278906DC53635DD4
:1049F000F0001844850793E717007D173E97B377BB
:104A0000F702B307F7401CC491475CC4FD571CC8AC
:104A1000232A04001CCC5CCC26856FB0AFF3AA849B
:104A2000E5BFEFB26FEE41112A84AE84138A05040C
:104A3000938A8500130B05016C002285EFF01FECB3
:104A4000AA8919E9B2452285EFE08FE2AA8969C1F6
:104A50009307C0FA6302F50C4E8541016FB04FEE2B
:104A60009C58B38626411397B70063580704305407
:104A7000DA2093071900504E2A07336777016366DF
:104A8000F60885481308B100CA875286D685228564
:104A9000EFE09FBC0DE1324785481308B100CA879B
:104AA00085462286DA852285EFF02F8815C1930787
:104AB000C0FA6303F506AA8945B7985C85481308D0
:104AC000B100CA872286D2852285EFE06F94D9B7DC
:104AD0000509D45CE366D9F83C544C4CE844905743
:104AE000EF30501B1C48285493050401BCC05C489F
:104AF000FCC01C4CBCC4EFE00FE3B2473707020018
:104B00009CDC9C58D98F9CD881BF1305C0FA65B72F
:104B10000149B70B102075BFB24637B700000566D4
:104B2000B7A5000037A5000013070783130606D0BA
:104B30009385C5C6130545F8EF406023FD571CC893
:104B4000E5BDEFB26FDCBE893C55BA8B9845DC53AE
:104B50001D712A84AE84B28A368B428A050763406F
:104B6000F00698C50149014C3854FD57CC40BEC8E9
:104B7000BECA7C47AEC482C682CCBDC7E1172285BF
:104B8000BECEEFE0EFCE3DC19307C0FA6311F51A38
:104B9000FD571CC86313091AD44037B700000566D7
:104BA000B7A5000037A50000130707831306468347
:104BB0009385C5C6130545F8EF40601BBDAA850760
:104BC00093E71700B377F70298C5C9FF85474C10E4
:104BD000268502D23ED4EFD0BFEC631D05140549F3
:104BE00059B70149054C49B75C4F49BF930C810443
:104BF000914613868400E6852285EFF00F8349F500
:104C00007C103EC6B7470000938787D03EC4B307E9
:104C10003041C207C187370810403EC252C0CE881B
:104C2000130808C0DA875687FD560146DE852285BF
:104C300022D666D8EFE01FAD21F993868401368530
:104C400036CEEFD09FE4F24619EDFC38370610005F
:104C5000130686C093870760D2075D8EE68522859E
:104C6000EFF04F8015F102DE82C082C2631C0C009F
:104C70009305C4036818EFD05FE693050403681832
:104C8000EFD0BFE5930584046818EFD01FE5F25715
:104C90007018A68593F707C022853EDEEFE06FAA65
:104CA00059E56818EFD01FE501ED3706008074184C
:104CB0001346C6C0E6852285EFE0DFFAE31605EC71
:104CC000E6852285EFF04F8FE31005EC3C54364724
:104CD0009C4FB377F7028DC3B7A6000029668565A0
:104CE00037A50000938646CB130646A493852582FC
:104CF0001305C5C6EF3080709C40D440B3093A41DB
:104D0000DCC0C64794C0239A3401D8C49CC823246D
:104D10000404232604042328040463190C003146E8
:104D2000930504031305C403EF30C0766285256143
:104D30006FB00FC1FD571CC8054985474C18268523
:104D400002DA3EDCEFD0DFD50DE5D44037B7000006
:104D50000566B7A5000037A50000130707831306F3
:104D6000A6839385C5C61305C5CDEF4040001155F8
:104D70007DBF938544002285EFF05FB8E30305E62D
:104D80009157E316F5FAE30409FA4A8C0149E9BBA5
:104D9000EFB26FB879712E840C08AA8432C636C47B
:104DA0003AC2BE8A42C0EFF01FC02A8939E57C387A
:104DB00002481247A303F1021C4CA24632463ED4DD
:104DC0005C4C0C0826853ED6D687EFF09FD7634A09
:104DD0000502424AD2498547232C4401232E34013F
:104DE0007CB8938504022285EFD09FCB19E56396AA
:104DF0000A0023A0440323A234034A8545616FB00F
:104E0000CFB42A89DDBFEFB2AFB24111B735000090
:104E100081467000938565C002C6EFF03F9411E1B2
:104E2000324541016FB00FB3EFB28FAD2A89131530
:104E30003700328B5D71AE84B6893A8A36863695F4
:104E4000014813031040130EF04F930E0060DA2850
:104E5000631FC512631D0818FC28639D071C83DBB4
:104E60004401FD57373C0000B70C10402328F900DF
:104E7000054D930D8103130CECBE938C0CC0814A3D
:104E800033835B41636D6D2E63870A04C20A93DA34
:104E90000A015E88D6872687D2864E86A6854A85F1
:104EA000EFF01FEF2A84630A052C9157631EF50C5F
:104EB000D8409440B7B700000566B7A5000037A5F5
:104EC0000000938707831306E6889385C5C61305FC
:104ED00005E5EF30D06983278906DC53635CF00871
:104EE0009844850793E717000507B377F702D9E3DE
:104EF00085472C18268502DC3EDEEFD07FBA3DE9DF
:104F00004A85EFF05FF02A84634D05108327C906B8
:104F10003384A7408D8363FF87049444B7BC0000AB
:104F2000056CB7AA000037A5000013870C83130691
:104F30003C8A9385CAC6130505E8EF3050635E8846
:104F400081472687D2864E86A6854A85EFF05FE4A4
:104F50002A84630F052891576318F50237A50000CE
:104F600093860C831306DC8A9385CAC6130505EB6A
:104F7000EF30F05F5E8881472687D2864E86A68511
:104F80004A85EFF01FBC2A84635F041A59A81442B3
:104F9000D18293950601C18193F8F57F63966800ED
:104FA0000507DAA8210665B56397C8030DE3B7A620
:104FB000000029668565938686E3130646A59385DA
:104FC000658C37A500001305C5C6EF3020437D175B
:104FD000DAA80548C1BF93F50570E395D5FD5842A1
:104FE000858A0C438CCC5843F4B8D8CC65BFE31504
:104FF00007E681EFB7A6000029668565938686E4FB
:10500000130646A59385358D6DBF3E86A6854A85D8
:105010003ECCEFF0AFDF2A84E24701C9F957E30D38
:10502000F5E2228561616FB06F91FC3BE38607E298
:10503000094411AADA289307E00FE3E2E7E29C4073
:1050400003278906D0443EDC9448FD57BEC27C4706
:1050500032DEB6C0B2C4B1C3E117BEC65C103EC6F4
:10506000B7470000938787D03EC4930A810302C2EA
:1050700002C081480148D2874E87A6854A854AD218
:1050800056D4EFE02FE82A8419C99157E309F4DCDC
:105090009307C0FAE317F4F8D9B35C4F75BF130C4C
:1050A0000903E285681002D602D802DA930BC9031D
:1050B000EFD0BFA2DE856810EFD03FA26810930545
:1050C0008904EFD09FA1B257681093F707C03ED66E
:1050D000EFD05FA21DE17010A6854A85EFD07FE674
:1050E0002A8421F13706008074101346C6C0D68585
:1050F0004A85EFE03FB72A8449F9D6854A85EFE033
:10510000BFCB2A8459F18327890672579C4FB37706
:10511000F70281CFB7A6000029668565938646CB46
:10512000130646A59385D59169BD8647D8C43146F7
:105130009CC8E2855E85EF30E035232409042326F0
:1051400009042328090483270B00832C8902130DEB
:1051500010403ED683274B00894B930D09023ED861
:10516000E3810CEC938A8C006C105685EFD05F9332
:105170002A8C49C183AC0C00E5B7D68B09B3939850
:105180000A0193D80801B3071041C207C1873EC284
:105190006EC662C45EC06688D2874E87FD560146E1
:1051A000A6854A851ACC02DCEFE0CFD52A84E31D20
:1051B00005DC832789066243130EE00FF84711E3ED
:1051C000D84F63636E02944F13561700130787FD81
:1051D0009387F6FFB297B3F6D702958F6373F70004
:1051E000BA876257E3F2E7CA135313009A9A49B990
:1051F000854B49B3A685130600025685EF308029FA
:10520000FD55639B6A07138C0C0203D74C0083D6B1
:10521000CC01E361D7F603C6FC0129DEEE85628589
:1052200036CE3ACCEFD0DF8711C56247F246158FF4
:105230002392EC006286D6854A85EFF0CF9271D535
:105240002A84C5B313173C004E9718439307F04FB9
:10525000135647011376F67F6314F60429831377F8
:10526000F73F6310D70203C76C006306770123A4DE
:10527000BC0023A6BC00050C83D64C00E3144CFDF7
:1052800059B7E37AD7FE03C76C00FD162392DC0002
:10529000E31377FF03A78C027D1723A4EC02E1BF81
:1052A000E31BA6FD29831377F73FE3E6E6FC03C77C
:1052B0006C0085062392DC00E31F77FB03A78C02BA
:1052C0000507E1BFEFA2DFE39C5901112A8C139778
:1052D000B700AE8C328AB68963500704D859D455CA
:1052E000B307370163F3D700B6878326CC0763F58E
:1052F000F6028327CC0623AEEC02E6852320FC06CB
:105300006285EFF00FF283A70C033DE13707F0FF52
:105310007D17F98F23A8FC024E8419E04E85B1A8B1
:1053200083A60C03B707020093840C04F58F81CB8E
:1053300003278C0603A6CC03584F6316E60C13967E
:10534000B60003A74C036346061CA1E31DCF83A64A
:10535000CC0203A68C021308010193878C037D17EE
:10536000A685628502C8EFE0CFA519C983A70C0303
:1053700037070800D98F23A8FC0205616FA01FDC46
:1053800003258C06A685EFD01FDA8327CC0603AB56
:105390004C0383AA8C032320FC06930DFBFF4C08CF
:1053A0006285EFF0AFD579F1D2456285EFD05FCC61
:1053B0001DC99307C0FAE31BF5FAB7B700001387BE
:1053C0000783D246B7A700009385C7C60566B7A76F
:1053D0000000138547F8130646BCEF305019FD57FF
:1053E00023A0FC046DBF03258C0663110B06D24776
:1053F00023AE0C0223ACFC0283A70C033707020088
:10540000D98F23A8FC0283278C0603A9C70183A791
:10541000CC033309F940637324012289930AC0FA4B
:1054200083A7CC0303A78C03CA885288854662866B
:10543000A6856285EFE06FEF6303050EE31855F371
:10544000E6856285EFF0EFDD61DD0DB72C086ECCEF
:10545000EFE02F8B03278C06E2470149584F850761
:105460003ECC6392E7080505EF203033AA8B130981
:10547000150056CE014D5247131F2D00FA87914853
:105480001308C10185466286A68562857AC6EFE06B
:10549000CFE9324F19FD6391AB07050DE36D2DFD8B
:1054A000D2470A0923AE2C0323ACFC02B1B78548CE
:1054B0001308C101CA875687B38626416286814593
:1054C0006285EFD0EFF4E31305EA524785481308ED
:1054D000C101CA8785466286A6856285EFE0EFE452
:1054E000E31905EC0509E246E363D9FCD24723AE94
:1054F000DC0223ACFC0209B7724791481308C101D2
:10550000FA879146628681456285EFD06FF051D56A
:10551000B1BDF95723ACFC0223AEEC02F1BD83A769
:105520004C034A9A33042441CA9723AAFC0283A756
:10553000CC03CA9723AEFC028327CC062320FC06AB
:10554000E9BBEFA27FBC9C591D71AA841397D700B9
:10555000635D07001397B700634407007D57B8C128
:105560003707FCFF7D17F98F9CD99C59014513978C
:10557000E700635807081397B7002E8403A9450373
:1055800083A9C502634B070A1306400581456800DD
:10559000EFA01FBD1C544146A6853EDAE8008547B2
:1055A0004EDC3EDECAC0EF20F06EFD579CC0FD59B8
:1055B00058585C54636AF7048569930B0404130C10
:1055C000C0FA37BB00009389F9D4B7AA000037AA04
:1055D000000085462686DE852685EFE04FC93DC161
:1055E00063118503145C9385CAC613070B834E862B
:1055F00013054AF8EF30A077A2852685EFF06FC239
:1056000069D925616FA0DFB385461306B1006C0030
:105610002685EFF0AF85E34605FE85461306B1000B
:10562000A2852685EFF01FCAE34D05FC9C40E3816F
:1056300037F9CEC623A03401A5BFCA8763733901E9
:10564000CE875CD81C5C01777D171CD45C58014563
:10565000232A24035CD41C58F98F4167D98F1CD8A6
:105660004DB7EFA25FAB41112A89DC59328495C650
:1056700005473304F6006382E60209473E84639ED1
:10568000E6009459D8551395E6003A846356050010
:105690003E8463F3E7003A8432940327490729558F
:1056A000636587006316F400228541016FA0FFA99E
:1056B0009859AE849316D70063D006040325890653
:1056C000D45D584D638AE6022C003EC4EFD07FE3E0
:1056D000AA89032589066C0022C6EFD09FE2639D4C
:1056E000A900FC4032476369F700B444B69763757C
:1056F000F700C0D8D8DC4DBFA6854A85EFF07FE41F
:105700004DF5C0D855B7EFA2BF9F83298502370A50
:10571000F0FF19712A842E89B28A368B854B7D1A47
:105720006395090C8327090013060002CA853EC44D
:105730008327490088003EC6EF20D0559C105A8729
:10574000D6864A868C002285EFF00FEEAA8463414C
:1057500005102C004A85EFD0AFB419E513060002FE
:105760008C004A85EF2010538947639CF40413068C
:105770008404CA852285EFD0CFFCAA8471E98657BC
:1057800037071000130787C03EC4965761091408F5
:105790003EC68347F9FF30008C1093870760D2071D
:1057A000D98F3EC80547814722854ACAEFF0CFE727
:1057B000AA84634F0508130600028C108800EF20AE
:1057C000704D268D814A37BA0000B7A90000B7ABEB
:1057D000000037AB0000130C040285476313FD2C57
:1057E000B70C0080938CFC3FB1AA13858900631528
:1057F000250183A909002DB7CA85EFD06FAA75F9D5
:1058000083C76900E39777FF83A709031397B7005E
:10581000E35107FE3C5403A7C9029C57E3FBE7FC96
:1058200083A74903CE85228523AEF9027C543CD060
:10583000EFF02F9FAA8409ED83A70903CE85228567
:10584000B3F7470123A8F902EFF0BFCFAA8455D1DF
:10585000268509616FA09F8E938584002800EFD074
:105860002FA409E523A4A40123A62401FC20639C02
:10587000B7019385C4022800EFD08FA209E523A6C3
:10588000A40323A824038440D5A8930404038545D6
:105890002685EFD09F822A8D631E05128C102685E7
:1058A000EFD0AFA663040512045816578656A98098
:1058B00093F4F43F0566A68713080A831306969DA2
:1058C0009385C9C613058BDCEF30604A1C58232A28
:1058D0000402232C0402B3F797011CD89357A900A4
:1058E00093F7F73F4A8763F4F400130709C086571C
:1058F0009306F03F3ECC96573ECE81476386D40058
:10590000AA04B707F04FC58F3ED09C003AD43ED6CC
:1059100009478147141030088C10228502D2EFF01D
:10592000AFD02A8D6348050A85476317F506E2471D
:10593000130600028C103EC4F2478800854A3EC61A
:10594000EF205035164886473247A2460566930831
:105950000A831306C69A9385C9C61385CBD8EF3040
:105960000041E2852800EFD0AF931649064D09E5C6
:105970002320A403232224030454894DE39E04EC32
:1059800090102C002285EFE03FC02A89E35F05EEEE
:10599000F957631DF510014D90102C002285EFE0A2
:1059A000FFC6AA8415C9F957E314F5EAE307A9E28B
:1059B000B7A60000296685659386C6E0130606A78C
:1059C0009385A59F1385C9C6EF2050234A8793046A
:1059D000F03F31BFEA84ADBD1C58930C040393F72C
:1059E000F73FC5E78C106685EFD02F929304F03F08
:1059F00015CD045816578656A98093F4F43F0566D2
:105A0000A68713080A831306D6A09385C9C6130573
:105A10008BDCEF30C0351C58370700801307F73F89
:105A2000F98F1CD8232A0402232C0402865713075B
:105A3000F03F3EC496573EC681476386E400AA0401
:105A4000B707F04FC58F3ED883477107370710005F
:105A5000130787C093870760D207D98F3EDC9C006D
:105A60003EDE09478147141830008C10228502DA87
:105A7000EFF08FBBAA84E34D05DC130600028C1007
:105A80008800EF203021268D89BB93052900B3358E
:105A9000B000B305B0406685EFD02FE2AA8439D1BB
:105AA00045BB8D44E3960ADA81445DB3AA844DB3C5
:105AB000EFA20FE519712A842E8B8147B7B9000038
:105AC00037AA000037AC0000BE84B7AC00007146B6
:105AD00081450810EFA0CFE88547A30BF102B70B73
