:040000006F20806F7E
:1000040000000000000000002E220000302200004A
:1000140000000000F62600000000000000000000C0
:10002400F6260000F6260000000000000000000094
:10003400F626000000000000F62600000000000084
:10004400F6260000F6260000F6260000F62600003C
:10005400F6260000F62600009022000098220000F8
:10006400A0220000A8220000B0220000F626000012
:10007400F6260000F6260000F6260000F62600000C
:10008400F6260000F6260000F6260000F6260000FC
:10009400F6260000F6260000F6260000B82200002E
:1000A400F6260000F6260000F6260000F6260000DC
:1000B400F6260000F6260000F6260000F6260000CC
:1000C400F6260000F6260000F6260000F6260000BC
:1000D400F6260000F6260000F6260000F6260000AC
:1000E400DA220000F6260000F626000006190000B9
:0C00F400F6260000F6260000F6260000AC
:10010000397101436EC619A0397141536AC866CA74
:1001100062CC5ECE19A0397101535AD056D252D456
:100120004ED64AD826DA22DC06DE330161408282CE
:1001300041114AC026C222C406C68282B24D410184
:10014000024D924C224CB24B4101024B924A224A40
:10015000B2494101024992442244B24041018280A5
:100160003D432A876373C3029377F700BDEFADE584
:10017000937606FF3D8ABA960CC34CC30CC74CC796
:100180004107E36BD7FE11E28280B306C3408A06C3
:100190009702000096966780A6002307B700A30683
:1001A000B7002306B700A305B7002305B700A304D3
:1001B000B7002304B700A303B7002303B700A302CB
:1001C000B7002302B700A301B7002301B700A300C3
:1001D000B7002300B700828093F5F50F9396850052
:1001E000D58D93960501D58D61B79396270097021B
:1001F000000096968682E78086FA9680C1171D8F4A
:100200003E96E374C3F8A5B7FD577D156313F5005B
:1002100082800100DDBFEFF2BFF137240140AA85E3
:100220009546054613050440EF20C0638545130538
:100230000440EF20A0619304044089452685EF2007
:10024000E07065DD13050440EF20406DAA84894508
:1002500013050440EF2020702685EDBDEFF25FED21
:1002600001119375F50F2A84014502C802CA02CC18
:1002700002CE02C402C6EF2050088547B39487001F
:10028000414708083ECE3ACC26C802CAEF20A06EED
:100290002685EF20C076914763E0870293076401CB
:1002A0005C848547DC8489475C85280085473EC699
:1002B000EF20D007056179BD254793077002E371F0
:1002C00087FE93078003E9BFEFF29FE641110544E3
:1002D0003314A400C1470A853EC422C002C202C62C
:1002E000EF2060692285EF2080714101A5B509E505
:1002F000B7070040CEBB828085476316F500B7077D
:1003000000408EBF828089476316F500B707004022
:10031000CEBF82808D476317F500B707004023905A
:10032000B704828099476317F500B7070040239A06
:10033000B74282809D476317F500B7070040239CB2
:10034000B7428280A1476317F500B7370140239A6F
:10035000B7C28280A5476317F500B7370140239CD9
:10036000B7C28280A9476317F500B7370140239EC3
:10037000B7C28280AD476316F500B73701402390BE
:10038000B7C48280B717014023A8A780AD470100FA
:10039000FD17F5FFB717014023AAA780FD4701000D
:1003A000FD17F5FF8280B717014023A8A780E1471A
:1003B0000100FD17F5FFB717014023AAA780C94721
:1003C0000100FD17F5FF8280EFF29FD699C1E13F52
:1003D00051B34D3FF5BFEFF2BFD52E8493F505081D
:1003E000AA84DD37937504042685F93F93750402CA
:1003F0002685D93F937504012685F93793758400C6
:100400002685D9379375440026857D3F9375240052
:1004100026855D3F9375140026857D3725BBEFF259
:10042000BFCE0544B319B400B31BC4003314A400F9
:100430003E8A937417004204B7170140058336893A
:1004400041809387078025CB80CB854A52856D3BC1
:10045000A14CA5EC416B7D1BB3F96901371D01402F
:10046000054C9357790013070D80A9CB232837013A
:1004700006091379F90F93070D8063848A0580CBF1
:100480005285593313070D801C478604B3F7FB00D0
:10049000B3F76701B337F000DD8C93F4F40F638496
:1004A0000A0200CBFD1C528593FCFC0FB13BE39A82
:1004B0000CFA268571B1C0CB814A49BF232A370186
:1004C00045BFC0CB75BF40CBF1BF416B7D1B8144A5
:1004D000054C371D0140B3F9690193070D8063880E
:1004E0008A0580CB52850D339357790013070D8011
:1004F000A9C32328370106091379F90F93070D8043
:10050000638C0A0280CB5285013383278D80860459
:10051000FD1CB3F7FB00B3F76701B337F000DD8CC8
:1005200093FCFC0F93F4F40FE3990CFA59B7C0CB8A
:1005300055BF232A3701C1B7C0CBF1B7EFF2DFBCFB
:100540007973130303AC1A91EF10702D9307E00831
:100550006301F56863E0A710F947630FF53463E7BB
:10056000A704D1476305F53263E2A7028547630F0D
:10057000F52C93178501E1876386072C8947630C67
:10058000F53809631A91130101545DBED947630C14
:10059000F5306366F530DD47630BF530E147E31274
:1005A000F5FEEF10D02793058002EDA49307800796
:1005B0006306F55663E0A702930700026302F53273
:1005C0006366F53093077007E31DF5FAEF103025E9
:1005D000E145C9A49307A0076304F556636EF5547B
:1005E0009307C0086303F5569307D008E31BF5F89B
:1005F000EF10F0222A89EF10902289679387075322
:100600001808931A05014209F974BA97054493DA58
:100610000A0113590901BE94130A00089379F40FD3
:100620004E86D6854A85EF00903219C585452685C8
:1006300023803401EF1010300504E31144FF0967F3
:10064000130707531408F9773697BA973EC62380E5
:1006500007006DAC9307000A630BF57463E8A70607
:1006600093078009630FF56863E9A7029307000900
:10067000630AF55A636BF54E93077009E313F5F0BF
:100680009307800873B007800F10000023A6018431
:1006900023A4018473A00780EDB59307A009630923
:1006A000F56A6364F5609307B0096304F566930720
:1006B000C009E318F5EC9307800873B007800F10AA
:1006C000000073A0078003A58184B5AA9307700B6F
:1006D000630BF57C63EAA70A9307400B630EF5747E
:1006E00063E9A7069307A00AE31DF5E8EF103013AE
:1006F0002A8AEF10F01A89679387075318087979C7
:10070000BA97AA8981443E996390347305448967F6
:10071000331444019387075318084204F974BA97B5
:100720004180BE940149E37E39E58C2083CA1400E0
:10073000228503CA24004531D68522856939D285B0
:10074000228551391305800CEF20F0190D098D0415
:10075000D9BF9307500B6303F5729307600BE31245
:10076000F5E2EF10D00B8544B394A4003714014098
:10077000232A94801945EF2010171304048004C81D
:10078000130500046F00A0719307F00B630BF57461
:1007900063EDA7029307E00BE315F5DEEF103008D9
:1007A0002A89EF10D007AA84EF1070072A84131546
:1007B0000901C1454181EF00902B13950401C1450A
:1007C0004181EF00D02A914571AE9307000C630B75
:1007D000F5769307100CE316F5DAEF105004AA89AA
:1007E000EF10F0032A8AEF109003AA8AEF1030036B
:1007F0002A8BEF10F00AAA8BEF10900A8967938773
:1008000007531808F974BA972A890144BE946314EF
:10081000247B8966100813870653F9773297330CC7
:10082000F70013870653938707C032970144B30438
:10083000F700631A2479931504017975C1811305B2
:1008400005C0A9A40145EF10701125BB0967140864
:10085000130707533697F977BA97B7450000938582
:10086000051F25463E853EC637F4FF1FEF20105C6E
:100870000325847EEF10900E0325C47EEF10100E2A
:100880000325047FEF10900DA145324551A0EF10D4
:100890000079C14542054181EF00701DDDB1EF10C7
:1008A0000078D145C5BFEF1080779145E5B7EF10CF
:1008B000007793058004F9BFEF1060768547339584
:1008C000A700B717014023A8A78065B9EF102075CE
:1008D00085473395A700B717014023AAA78055B1D4
:1008E000EF10E0738966B71701409386065310082E
:1008F00003A78780B296F977B6973EC685473395AA
:10090000A700B247798D3335A00088C385453E8561
:10091000EF105002BDB18967180893870753BA9743
:10092000F974BE9423AC04AC23AE04ACEF10407752
:100930002A84014963138916896793870753180826
:10094000F974BA97A28533859700EF005058631D5C
:1009500005148967938707531808F974BA97A28515
:1009600033859700EF00F05363130516A285130536
:100970000154F974EF0070581DC5EF10607289675B
:10098000938707531808938404B0BA972ACC014977
:10099000BE9493090010EF108068B387240188A3E8
:1009A0000509E31A39FF8967938707531808F97413
:1009B000BA97A28533859700EF009056631D051204
:1009C000096593080101930405537976C6941308C9
:1009D000C6AD930786AD130706C0930606B0930510
:1009E00006AE269632C6130605534696329813066F
:1009F00005534696B297130605534696329713064B
:100A00000553130505534695AA9532454696B29669
:100A10002286EF00F00B3245A285EF00504BB33435
:100A2000A0003245A2859604EF00904F19C193842F
:100A300044102685EF1080720945EF1020728967F7
:100A4000938707531808F974BA97A28533859700DE
:100A5000EF00F04709CD896793870753180813857E
:100A600004AEBA97930500023E95EF10A06CA285E4
:100A700013050154F974EF00B04AE30405B0724560
:100A8000EF10C06D138504C093050010896793872C
:100A900007531808BA973E95A5BDEF104058B38785
:100AA000240188A3050979B50967130707531408BA
:100AB0003697938404AEBA94814713070002B38635
:100AC000F400238006008507E39BE7FE59B589679C
:100AD000938707531808938404AEBA970149BE94CC
:100AE00093090002EF10A053B387240188A30509DE
:100AF000E31A39FFA5BD0967130707531408369792
:100B0000938404C0BA94814713070010B386F4009D
:100B1000238006008507E39BE7FE5DB5EF102050BC
:100B20002A84EF10C04F9315050113150401C181EC
:100B30004181EFF0CFFBB1B4EF10604E814599BB1E
:100B4000EF10E04DEFF02FEDFDB9EF10404DAA840E
:100B5000EF10E04C2A8413950401D1454181EF0048
:100B60000071D145131504013DB3EF10404BAA8924
:100B7000EF10E04A2A8AEF10804A06059374F50FB9
:100B8000EF10005289679387075318087979BA974D
:100B9000AA8A01443E9963175403EF10404809663E
:100BA0000C08130606532E96AA8793150A0113956F
:100BB0000901F976B29622872686C1814181EF002C
:100BC000C05BC1B2EF10A045B307890088A305043C
:100BD000D9B7EF10C0442A89EF106044AA89EF10FA
:100BE00000442A84EF10C04BAA84EF1040430967E9
:100BF0001408130707533697F977BA973EC6B246DB
:100C0000AA87131614009395090113150901C181D0
:100C100026871376E60F4181EF00005A9395040171
:100C2000C181A5B1EF10A03FAA89EF10403F2A8AE9
:100C3000EF10E03E06051379F50FEF106046896767
:100C4000F974938707531808938404C0BA97AA8A43
:100C50000144BE9463145405EF108044AA84EF103D
:100C6000003C09660C08F976130606532E96AA88EE
:100C7000938606C093150A0113950901B296C181A6
:100C8000418126889307015422874A86EF008057C6
:100C900093950401C181130501549DB9EF102038CB
:100CA000B387840088A3050475B7EF1040372A8402
:100CB000EF10003F9317050113190401C183AA899E
:100CC0001359090185C7D1454A85EF00405A85442B
:100CD000B39484001395090137140140232A9480AA
:100CE0004181EF2040401304048004C891454A85A7
:100CF000EF00E0574A85EFF06FD6EF10C04E6FF06F
:100D00005F88EF10C031EFF02FDCEF1060506FF014
:100D10005F8713078008733007800F10000083A6D9
:100D2000818483A7C1849385F6FF23A4B1847320B3
:100D300007800567130787BBBA97958FB3F7E7025C
:100D4000371700201307471E8607BA978A23E5BC8A
:100D5000EF1000359307800873B007800F10000074
:100D600003A4C18473A0078003A981846373250150
:100D70002A894A85EF10803E8567938787BB3E941A
:100D8000330424413374F402371A00208149BE84AD
:100D9000130A4A1E638729FFB38789008509B3F7C1
:100DA00097028607D2978A23EF10403BE5B7EF10F2
:100DB00000272A84EF10C02E2A89EF10602E896741
:100DC000938707531808F979BA972A8A8144BE99FC
:100DD00063944403896793870753180842044209C0
:100DE000F979BA978144418013590901BE99639DED
:100DF00044018145228535BBEF10802A939714006A
:100E0000CE978AA38504E9B793F71400814591E34F
:100E1000CA852285EFF0AFCD93971400CE978A2331
:100E20008504EF20402CE1B7EF10601FB307990055
:100E300088A385046FF05F8DEF10601E05443314A6
:100E4000A4000145EF20202AB714014023AA848082
:100E50001305001EEF2020291305600423A88480B9
:100E600093840480EF20202884441305A019EF20E8
:100E7000802733F5840013351500F1B2EF10201AE6
:100E80008544B394A40037140140232A94801305A9
:100E9000C003EF2040251304048004C82945EF2037
:100EA00080246FF00FEEEF10801705443314A40078
:100EB000B714014023AA84801945EF20C02225459C
:100EC00023A8848093840480EF20E02184441305C8
:100ED0007003EF20402133F584003335A0006FF01C
:100EE0009F96EF10C013AA89EF1060132A8AEF10A3
:100EF0000013AA8AEF10A0122A8BEF104012AA8BBF
:100F0000EF10001A2A8CEF10A019896793870753F6
:100F10001808F974BA972A890144BE94631724010A
:100F200093150401C181797595B6E2875A87DE86EB
:100F30005686D2854E85EFF08FCEB387840088A386
:100F40000504E9BFEF10A00DAA89EF10400D2A8A11
:100F5000EF10E00CAA8AEF10800C2A8BEF104014DF
:100F6000AA8BEF10E0138967938707531808F97469
:100F7000BA972A890144BE9463182403896793872A
:100F800007531808F974BA970144BE94630B24DF21
:100F9000B38684009422DE875A875686D2854E8592
:100FA000EFF0EFC70504DDB7EF106007B3878400EB
:100FB00088A30504D1B7EF108006B387840088A307
:100FC00005046FF0DF84B3068C009422DE875A8715
:100FD0005686D2854E85EFF08FC4B387840088A3F0
:100FE00005046FF01F85EFF2AF940545EF20A00FC9
:100FF0006FF04F96EFF2CF93411185443399A400DF
:10100000371401402EC623282481F13FB245130432
:101010000480B394B40004C8F937232A2401E137CB
:1010200044C8D13741016FF0EF92EFF2CF8E854483
:101030003399A4004111B394B4009D49054B371A6C
:101040000140FD5AB3173B01F18F13070A80B9C75E
:101050002328270132C6413F23289A806937232A53
:101060009A805137FD1913040A803246E39C59FDDA
:1010700023282A818D3F23289A80B53783298A80A7
:101080009D37232A9A80853723282A81A93F33F563
:1010900029011335150041016FF02F8B232A2701F9
:1010A00055BFEFF2EF8841118544B395B4002AC6CD
:1010B000371401402328B4803D373245130404809F
:1010C000B394A40004C8053741016FF0AF88EFF274
:1010D000AF830549B31AA90041112A8BB6892300B1
:1010E00006003319B9001D4A371C0140FD5B32C6AA
:1010F00023285C81CD3D23282C81F53583248C80E9
:10110000DD35232A2C81C5353246B3F49A00B33439
:1011100090001C22B39444017D1ADD8C04A21304B8
:101120000C80E3167AFDB399690123285C81653D43
:10113000232A3C814D3D23282C817535232A2C817F
:101140005D3523283C81453541016FE07FFFEFE2AB
:101150003FFE41112A84AE8432C6693D3246A685DF
:10116000228506061376E60FC9352A89A6852285CB
:101170000D3F4A8541016FE0FFFDEFE2DFF94111CC
:101180003684BA89AA842E8932C63E8AA53532466B
:10119000CA852685593DA299631A340163050A0060
:1011A000CA852685FD3D41016FE03FFA1020CA85C2
:1011B0002685A53D0504CDB7EFE2FFF54111BA89BB
:1011C000AA842E8932C6B68A3E8A2D353246CA8511
:1011D000268513661600913D0144138BF9FF631AAF
:1011E000340163050A00CA852685653D41016FE02B
:1011F000DFF5B336640133868A00CA852685C13D92
:101200000504F1BFEFE25FF03684BA89AA842E8923
:10121000B28ABE8B428A468BF13B5686CA852685AA
:101220002935A29963163403CA852685E13313E66E
:101230001A00CA852685D53B01449309FAFF631F2E
:10124000440163050B00CA852685A13D6FE05FEF71
:101250001020CA852685D13B0504E9B7B336340191
:1012600033868B00CA8526859D350504C9BF854612
:10127000B396A600C20693F7F500C189C18299C151
:1012800093E737001307F00F637AD702371701404F
:101290000326478061150A053D473317A70013470A
:1012A000F7FF3395A700718F9307F00F598D63FCFB
:1012B000D700B717014023A2A780828037170140CB
:1012C00003260780C9BFB717014023A0A7808280EB
:1012D000EFE21FE35D712AC42E84B68A3A8BBE8981
:1012E00042898144014DDD4B130C1002930C3002F6
:1012F000930D4002A2473D461305F00F3387A70127
:101300001423FD456148638EC6286366D60A1D46D0
:101310006383C6146360D6060D46638BC61E636F77
:10132000D600054693074D006380C6126373D6123C
:10133000362337170140232AD78021AA1546638315
:10134000C61A6379D61E34232833054A36C6EF10F1
:10135000D065B246331ADA00B716014003A786807B
:1013600033774701631F0710EF105065B716014030
:1013700075D501AA2D466387C626636BD600254620
:10138000638EC624637ED6102A23EF10D0555DA845
:1013900037160140B54593074D001306068063805C
:1013A000B61C63FED51C3823544622971823C19AD5
:1013B000558F58C679A86384762163E3DB044D46D4
:1013C000638FC6066360D6024546110D9305800201
:1013D0006387C60091456374D60093058004282373
:1013E000793509BF55466383C620D145637AD60453
:1013F000FD14939724009808BA9703AD07FCDDBD50
:10140000638686216362DC02638EB61E63ECD5229E
:10141000E39B06EFB7160140938606809446382377
:10142000A182229714A339A86388962363EE962598
:10143000638FB619E399A6EC61616FE03FD0C145B7
:1014400028233535110D7DB5362337170140232864
:10145000D7803E8D45B52833034A2700EF10F0545E
:101460000547331A4701B716014003A78680337733
:10147000470119EBB716014003A786803377EA00CE
:1014800011CBEF1050547DBFEF105053B7160140F1
:1014900069DDCDB7EF109052B716014071DDD5B7B9
:1014A0002833034A2700EF1050500547331A4701ED
:1014B000B716014003A786803377470111CFB716CF
:1014C000014003A786803377EA0045DFEF10104F15
:1014D000B71601407DD575B7EF10504EB7160140D5
:1014E00071D9F1BF34232833054A36C6EF10F04BCB
:1014F000B246331ADA00B716014003A78680337765
:10150000470141D3EF10904BB71601407DD595BFF1
:10151000B716014003A686802C23343305473317C2
:10152000B700A296718F90223337E0000606518FE4
:1015300098A209BF30332C23229618229356170005
:1015400014A285461376170037170140B396B600EC
:101550001307078019C214CBF5B554CBE5B5343366
:101560002C2310460547A2963317B700718F90229F
:101570003337E0001E070582518F98A2D9BD2C3366
:101580002823A295942113971600E20698A1E186DC
:1015900005473317A70063D4060018CA5DBD58CAB3
:1015A0004DBD3823B716014003A6C68022971823E5
:1015B0001376F6F02207518F23A6E68061B5B716A1
:1015C000014093860680944638232297A1BD362396
:1015D0000147E359D7E601000507E5BF2A23EF10CD
:1015E00050378DB52A23EF107033A9BD9396240090
:1015F0009C08BE9693074D0023A0F6FC035D2700D0
:101600008504CDB93433A29694227DBF8326090088
:1016100037160140382303288680854513F6760067
:101620003396C5008D82B395E500DA96B3F50501D2
:10163000882299CD498E90A203270900050723200F
:10164000E90009B5032609009306F07F918EC9B71A
:101650001346F6FF698EC5B7302303A709007D172F
:1016600023A0E90093553700D6958C2185461D8B24
:101670003397E6003396C6006D8FB7160140938608
:10168000068011CF90CA7DBB302303A709009306C3
:10169000F7FF1307F07F23A0D900158FE1B7D0CA59
:1016A00055B3B716808101477D46C1066364B70014
:1016B00001458280B307E5009C236366F600B3D73B
:1016C000F600858B99E30D07D5B705458280B7E60F
:1016D000008001477D46A1066364B7000145828012
:1016E000B307E5009C236366F600B3D7F600858B4D
:1016F00099E31107D5B705458280014785466364A4
:10170000B70001458280B307E5009C239387E7FD7E
:1017100093F7F70F63F4F6000D07D5B70545828000
:10172000014785466364B70001458280B307E50041
:101730009C23811793F7F70F63F4F6000D07DDB7CD
:1017400005458280EFE2DF9E0945EF104044854564
:101750000565EF1060526FE0FF9FB7070050130759
:101760000004D8A713078004D8B71387418698CB05
:101770001387418AD8CB1387418E98CF1387419224
:10178000D8CFA3890702A38D0702239A0702239EBD
:10179000070209472389E702238BE702238FE70229
:1017A0009387418223800700A380070023810700DD
:1017B000A381070023820700A38207002383070079
:1017C000A38307008280EFE2BF9637040050994759
:1017D0001CA01DC52945EF1010119D4723000400D2
:1017E0003CA0930790021CA08D3F930710F81CB0FB
:1017F00037070008B7E700E023A2E7106FE09F95E6
:101800002945EF10500EB7E700E02300040037072A
:10181000000823A2E7180F100000CDB79307F5FFCB
:1018200093F7F70F1948636DF80CEFE2DF8E93879B
:101830004182AA979C2393844182054793F7F70F2F
:10184000CDEB85476305F5001147631CE500B7073D
:101850000050DC27054793F7F70F631EE5029183DD
:101860001DA81307E5FF1377F70F63E9E700B70734
:101870000050DC370D4793F7F70FC5B71307B5FFD7
:101880001377F70F63E0E704B7070050FC2793F7DF
:10189000F70FE30605FD13F847000147630B080443
:1018A0003704001411042A94A18BB2892A890A04EE
:1018B00085C30840B7070020938707043E95EF10C3
:1018C000F05619A8B7070050FC3793F7F70FE1B7A8
:1018D00085E6C205C1810CC023103403834724026E
:1018E00033852401014793F7C70F2301F40285478D
:1018F0001CA13A856FE07F850840B70700207DBFB7
:1019000005473A858280011122CE26CC4ACA4EC8AC
:1019100052C656C43704005078207C301377F70F36
:10192000937627006383065893F7F70F13F707039F
:10193000930500026300B70493060003630CD718F5
:1019400079EF13F7F7036309071289476319F70C57
:101950008347B40393C74700A30DF402084442052C
:101960004181EF00F0008347B40393F7C70FA30D45
:10197000F40275A093F7F703930610026386D70A63
:10198000930630026385D70C639BE7089387018336
:101990009E2393840183C207C18381E79147A309F2
:1019A000F40283C7218393F70706B5EB83C7C1828F
:1019B000154793F7F70F638BE70419476391E70621
:1019C0009E201307F003130400046365F7008220D0
:1019D0004204418013898183832909002286CE85B0
:1019E00013854186EF1090449E20A299232039014F
:1019F000818FC207C1839EA0B707005082BB03C777
:101A00002703134747002389E70211A8370700502F
:101A10003C3383C6018293F70708D58F3CB3B707E1
:101A200000500947F8A359A98347640393C74700A7
:101A3000230BF4028347640393F7C70F93E7270050
:101A4000230BF40293874182A3800700C9BF834719
:101A5000E40393C74700230FF4028347E40393F79B
:101A6000C70F93E72700230FF40293874182A381D6
:101A70000700EF00C07665B7184493F70704C5D395
:101A800083C721831387018393F7070695CB231020
:101A9000070083C7C1826395F502B706002081471E
:101AA00013864186938606089D453305F600034854
:101AB00005003385F600850723000501E397B7FE8F
:101AC0001E23C207C183A1FFB70700502398070256
:101AD000114715BF99472309F402A309F40293861D
:101AE00041869C22138621831CA29C3203D8660067
:101AF0001387C1821CA383D8260093870183239078
:101B00000701138841832310180183D846001388E6
:101B1000E182231018010348060013890183938989
:101B20002183137808061386418693874183938621
:101B3000E1826304080A83C709009384818393F7D1
:101B40000702C9C31C231307100293F7F70F63851D
:101B5000E706636BF70401446384B7001304F00FD6
:101B6000835709001307F003130A00046367F700A3
:101B7000035A0900420A135A0A0183AA0400528632
:101B800013854186D685569AEF10502A23A044012A
:101B90009307F00F6315F410B70700501D47238912
:101BA000E702A389E702A5BD130730021304F00F73
:101BB000E368F7FA01446DB7B70700209387070879
:101BC0009CC0CDBF03C409001980134414000588CC
:101BD000330480401374F40F61B71823AD451377B5
:101BE000F70FE3EBE5FA91650A079385C51F2E977A
:101BF000184302879A23894621839384818363064D
:101C0000D7020D46630EC70285476316F704916736
:101C10001387072783C7072798C001440357090084
:101C2000E3F0E7F42310F90025BF11671307C7227B
:101C30003C3398C03823A207BA97C207C183F1BFCB
:101C40009E23054693F7F70F6381C70289CB63850F
:101C5000D702638AE70281471304F00FC1B71387E5
:101C6000818198C083C781814DBF916713874728C1
:101C700098C083C7472855B791671387472998C0ED
:101C800083C7472959BF91671387C72A98C083C75D
:101C9000C72A61B79E2393F7F70F2380F18283C78A
:101CA0000900E207E18763D8071E0357090093077D
:101CB000000463E6E70083570900C207C1830357A6
:101CC00009001D8F420741832310E90037070050A8
:101CD0001EBB91472309F70299B383C711821CA247
:101CE000035709008547E3FCE7FA2310F90045BFD5
:101CF0009E2393F7F70FA380F18205472381E182AA
:101D000079BF03C709007D8B11EF9E23054793F729
:101D1000F70FE396E7F89387318298231377E70F5D
:101D200098A3B5BF03C7090009467D8BE316C7E634
:101D30009E2393F7F70FE39107E69E229306100880
:101D400093F7F70F638DD70093063008638ED700A3
:101D5000E394E7E4B7070050A38D070289B7B707FC
:101D60000050238BE70225BFB7070050238FE702FF
:101D70003DB703C709007D8B05E79E23054793F711
:101D8000F70FE39BE7E0916783C7372393F70702D9
:101D9000E38407E09387318298231367170049B7DC
:101DA00003C7090009467D8BE318C7DE9E2393F71E
:101DB000F70FE39307DE9E229306100893F7F70FC1
:101DC0006381D702930630086386D702E396E7DC87
:101DD000370700508347B70393E73700A30DF70297
:101DE0007DBD370700508347670393E73700230B18
:101DF000F70275B5370700508347E70393E73700CD
:101E0000230FF70269BD23000600D9BD83C709006F
:101E100023100600FD8B85E383C731820144858B47
:101E200099C389471CA2035709008947E3F2E7D603
:101E30002310F900B1BB03C7090089471304F00F51
:101E40007D8BE312F7FE9E229306100893F7F70F9F
:101E50006381D70293063008638AD702E395E7FCD3
:101E6000B707005083C7B7038D8B0D47639EE7000C
:101E700011A8B707005083C767030D4701448D8B36
:101E8000E393E7FA85471CA2014471BFB7070050EE
:101E900083C7E703D1BF83570900C207C183E38526
:101EA00007C2B70700501147EDB99377170085C3F4
:101EB000A3010400EFF07F8A85477CA07244E244CE
:101EC0005249C249324AA24A0561730020309377D1
:101ED000470085C7583093873182118B11CB9823E7
:101EE0001367270098A39C23B707005011471DBE16
:101EF00098231377D70F98A3C5BF78A0C1B7EFE297
:101F00002FA3EFF03F840545EFF0FF8B239F018265
:101F1000239E018223920184239001846FE08FA38A
:101F200083C72182054701456318F70003C5118265
:101F30001375F50F3335A0008280EFE26F9F397182
:101F4000C53725CD93874182BC3393F7F70FB5E7AB
:101F50009386418483D70184962213874184C207E4
:101F6000C206C183C18263EDD704958FC207C183C6
:101F7000A9C7930600043E8663F4F6001306000426
:101F80004206B7150020418281469385459E1E2357
:101F90003305D1008506AE979C231CA11E2385071F
:101FA00093F7F77F1EA393970601C183E3E1C7FE72
:101FB00085468A850D45EFF07F8621616FE08F9918
:101FC000056613060680B2974DB703D5C18383D744
:101FD000E18342054181C207C1836366F5001D8D1F
:101FE0004205418182800567130707803A95C5BF86
:101FF00083D6C1839387E1839A23014542074183B6
:10200000630ED7009623370700201307471E369725
:1020100008239A2305071377F77F9AA38280EFE2BC
:102020002F9165377DDDE9376FE0CF92EFE24F907A
:10203000056637180020814613060680930EF07F50
:102040001308489E1394060141806366B400F53579
:1020500022856FE02F9093870184138741849E230C
:102060001A2393880184C2074207C183418363E72F
:10207000E702998FC207C183E38BD7FD83D708009E
:102080003307D5001823C297850698A383D7080085
:10209000850793F7F77F2390F8006DB7B297D1BF0C
:1020A000EFE20F89AD3F2A899D3F2A848D3FAA84A4
:1020B000BD379317840013970401D98FB3E7270125
:1020C00062055D8D6FE00F89EFE28F86BD356FE0B1
:1020D0006F8803D5018483D7418442054181C207BB
:1020E000C1836366F5001D8D4205418182800567CD
:1020F000130707803A95C5BFEFE28F83316413045D
:10210000143593844182BC3093F7F70F99C37D1443
:1021100011ECBC3093F7F70F81EB854601469385B0
:1021200041920D45EFF08FEF6FE0CF822945EF0030
:10213000907BD1BFEFD2DFFF2E84CD3D593F01E927
:1021400009C41374F40311E0453F6FE0AF80EFF072
:10215000DFDE13054006EF001079CDB7EFD25FFD4B
:1021600041112AC691456800F13741016FD09FFEA9
:102170000566B7050020814613060680930EF07FA2
:102180009385451E1388418E93970601C18363E3AF
:10219000A70082809387C1831387E1839E231A233C
:1021A0009388C183C2074207C183418363E7E70283
:1021B000998FC207C183E38ED7FD83D70800338789
:1021C00006011823AE97850698A383D708008507D4
:1021D00093F7F77F2390F80045BFB297D1BF05472B
:1021E0002381E1848280EFD2BFF4371400401305CD
:1021F00004808145EF00F05E13050480FD45EF008B
:10220000905E854513050480EF00B0546FD09FF4B5
:10221000EFD21FF23715004013050580423181458A
:10222000EF0030534204418022856FD0BFF201A0FD
:10223000B707EFBE37E700E0938707083CC701A068
:10224000EFD21FEF2A84EF00A07929C1D13713877D
:10225000C1841C43371600201306461E93961700B0
:10226000B2968AA28566138686BB8507B3F7C70236
:10227000938676BB1CC393878184984363E4E6000E
:10228000050798C32285EF008077B13F6FD09FECA0
:1022900005457D377300203009455D3773002030D8
:1022A0001145793F730020302145593F730020309C
:1022B000414579377300203013050002513713056B
:1022C0000004BD3F13050008A53F130500108D3F16
:1022D00013050020B53773002030130500408D37FB
:1022E000056513050580A93F0565993F0965893F87
:1022F0001165B9372165A93773002030EFD25FE34C
:1023000001119307F00F7C844C00B9472A847C822A
:1023100002C802CA02CC02CE231301002315010019
:1023200023160100EF00D01CC167938707060C0835
:1023300022853EC8231B0100231C0100EF007021F1
:1023400081452285EF0070450C082285EF0010279B
:1023500081452285EF005045B7070040938707402D
:102360006302F4020C082285EF00B02E814522851D
:10237000EF00F0440C082285EF00F03681452285FD
:10238000EF00D04485452285EF00903FB7370140EC
:10239000938707C06316F40085452285EF00F03C63
:1023A00085452285EF00F03A05616FD0BFDAEFD2A4
:1023B0003FD80111FD5702C268007C8202C023147D
:1023C0000100EF00807F371702405843D247218336
:1023D000118B11C3860737470F0013070724B3D7A4
:1023E000E702371400408A85130504802313010097
:1023F0002311010023040100FD177C80EF00500F22
:10240000130504808545EF00B0371305048081452E
:10241000EF003034FD4513050480EF00D03C05612A
:102420006FD05FD3EFD2DFD00111130600028145D8
:102430000A85EFD0FFD2316537240140EF00C07626
:10244000130504403D2EB7070E003EC68A8585471A
:1024500013050440230AF10002C002C202C402C8EC
:102460008D268145130504407529814513050440D7
:10247000E1218545130504404526814513050440A7
:10248000F929130504404D2693040440268555265A
:1024900075FD13050440372401404526930404408C
:1024A00026854D2675FD8545130504404D2905619A
:1024B0006FD05FCAEFD2DFC741110545AD256D2250
:1024C000EF001040716513050520EF009050854521
:1024D0001145EF00407C85452145EF00C07B056537
:1024E000854513050580EF00007B85451305002019
:1024F000EF00607A85450545EF00E079854509459F
:10250000EF00407B85450545EF00C07A85451145C4
:10251000EF00407AEFF00FA3EFF07F9EEFF05FA0A7
:1025200075DD91473EC6371501408D474C003EC4CE
:1025300013050580FD577C82C1293705004013052E
:102540000540EFF0BFDB37050040EFF03FDB3735EC
:102550000140130505C0EFF07FDAEFF0BFECEFF0BC
:102560001FE5374500001305452CEF108024EFF0E0
:10257000DFA519C1EFD09FFCEFF01FB5CDBFB71796
:1025800002409843B706FFF041111367170098C344
:10259000D84337060200758FD8C39843B706F7FEB5
:1025A000FD16758F98C39843B706FCFFFD16758F0F
:1025B00098C3D843B70601FFFD16758FD8C33707F8
:1025C0009F0098C702C402C69843C166558F98C33E
:1025D000B716024005679C42F18F3EC6A2478507A9
:1025E0003EC4B24781E7A247E397E7FEB717024030
:1025F0009C431397E7006357070685473EC632475B
:102600008547631FF704B7170240D843B706C1FFD9
:10261000FD16D8C3D843D8C3D84313670740D8C3DF
:10262000D843758FD8C3D843B7063D00558FD8C35C
:102630009843B7060001558F98C3984393166700D7
:10264000E3DD06FED843B7160240719BD8C3D843DA
:1026500013672700D8C32147DC42B18BE39EE7FE16
:102660004101828002C661BFB7160240DC421146BA
:10267000B18B138781806385C70021466388C702B9
:10268000B7177A00938707201CC3B7170240DC43B3
:10269000918393F6F700B707002093870700B6975A
:1026A00094231C43B3D7D7001CC38280DC42D4429E
:1026B0004166C983BD8BF18E890745466393C70088
:1026C000C94781EEB746024083A60680C18A89CEFB
:1026D000B7167A009386062021A8B7160240D44286
:1026E0001396E600E35606FEB7163D009386069065
:1026F000B387D70251BF01A097E1FF1F93818118D3
:10270000173100201301019017250000130585D211
:1027100097E5FF1F9385058F1386018263FAC50035
:102720008322050023A0550011059105E3EAC5FEAB
:102730001385018297050020938545226377B500B4
:10274000232005001105E36DB5FEFD42739002BC28
:102750008D4273904280930280087390023097E21A
:10276000FFFF9382628A93E2320073905230EFF05F
:102770001FE197020000938222D4739012347300F9
:102780002030EFD2FF9AB727014093870740631CA0
:10279000F5008545130500202D2B814513050020EC
:1027A0000D2B6FD03F9BB737014093870780E31A0B
:1027B000F5FE854513050040292B81451305004092
:1027C000C5B75C413707F1E01307F7EF944D7D8FF4
:1027D0009C41D58FD44DD58FD441A206D58FD98FAA
:1027E0005CC11C4537F7F1FF1307D77FD4457D8FB8
:1027F0009C49D58F94458606D58FD98F1CC55C55CD
:10280000370710FF7D177D8FDC29FD1793F7F70F32
:10281000D207D98F5CD582801C4589C593E7170004
:102820001CC58280F99BEDBF1C4593E787001CC542
:10283000828008450D81058982801C4593E7470009
:102840001CC5828008450981058982801C4591C587
:1028500037075000D98F1CC582803707B0FF7D171E
:10286000F98FD5BFA54763F7B7048D47138765FF79
:102870003307F7020328C5009D47B397E70093C7C6
:10288000F7FFB3F70701B396E600DD8E54C599470D
:1028900063E3C70495477D163306F6025859FD4792
:1028A000B397C70093C7F7FFF98F3396C5005D8EC6
:1028B00050D982800D473387E502032805019D47E3
:1028C000B397E70093C7F7FFB3F70701B396E600A6
:1028D000DD8E14C96DBFB14763E2C7029547651627
:1028E0003306F6021859FD47B397C70093C7F7FFA1
:1028F000F98F3396C5005D8E10D9828095474D16AD
:102900003306F6025855FD47B397C70093C7F7FF44
:10291000F98FB395C500DD8D4CD5828068454205A1
:10292000418182805C4189C50567D98F5CC1828005
:102930007D777D17F98FDDBF1C4589C52167D98F4C
:102940001CC5828061777D17F98FDDBF08416D8DD1
:102950003335A000828093C5F5FF0CC182805C41B5
:1029600091C537070004D98F5CC18280370700FC0E
:102970007D17F98FD5BF5841032805004C45370610
:102980000140930706403E979346F8FFB1C5832563
:102990000640F58D2320B640D043F18ED4C31443B6
:1029A000B3E6060114C3184190479346F7FF758EAE
:1029B00090C7D047F18ED4C7144541466399C600ED
:1029C0009447D98E94C7D447558FD8C78280B6977D
:1029D0009443558F98C382801C43F58F1CC382801B
:1029E000B70701401387074083A70740584B698FFB
:1029F00009C77D8D3335A000828001458280B707ED
:102A0000014023AAA74082809C4513F7070113F8D1
:102A1000F70001C7D8413368E80037270240145B4C
:102A20003707000F758F4DEB85462388D184371704
:102A300001406315E5009A2135839AA18E2113F791
:102A4000F50F39C318418146854E3D4F930F8002E3
:102A500093028004214E3396DE00B3F8C500631163
:102A600016039398260033131F011343F3FF3377A4
:102A7000E300B318180133E7E8006397F70750C97C
:102A80008506E39AC6FD18C11307F00F6375B704F6
:102A900054412146854E3D4F930F8002930280049E
:102AA000414EB398CE0033F715016392E802131735
:102AB000260001173313EF001343F3FFB376D3005F
:102AC0003317E800D98E6395F703232A150105060D
:102AD000E319C6FD54C1828037170140E310E5F6C3
:102AE00003C7018521DF81BFE39C57F810C949BFA7
:102AF000E39F57FC23281501D9BF13F7C50F93F7A0
:102B00003500B7050140BA9594458A073D4733170C
:102B1000F7001347F7FF758F98C598453315F500F3
:102B2000598D88C5828023AAA184828003A741850C
:102B3000854714216310F7021C31639CE7023C2196
:102B4000960793E707F837E700E093F7F70F369714
:102B50002300F740054793D756003317D700544159
:102B600089CE938707048A07B7E600E0B69798C333
:102B70008280EDF33C219607F9B793870706B7E605
:102B800000E08A07B69798C30F1000008280B7173D
:102B90000240D843B70640FFFD16758FD8C3D8430F
:102BA0005A05598DC8C38280B7160240DC4251775E
:102BB0007D17F98F5D8DC8C28280371702405C4354
:102BC0009146B18B6385D700A1466382D706B717BC
:102BD0007A00938707201CC1371602405C423707F2
:102BE0000020130707019183BD8BBA9794231C41E2
:102BF000B3D7D7005CC15442A1829D8ABA96942271
:102C0000B3D6D70014C55442AD829D8A3697182397
:102C1000B3D7E7005CC558423983937637001387F2
:102C2000C18036971823B3D7E7021CC982805C4362
:102C30005843C166C983BD8B758F8907C5466393A9
:102C4000D700C94701EF3747024003270780418B70
:102C500009CF37177A001307072021A8371702403A
:102C600058439316E700E3D606FE37173D001307D7
:102C70000790B387E70285B799C5371702405C4BC9
:102C80005D8D48CB8280B7170240D84B1345F5FFC6
:102C9000798DC8CB828099C5371702401C4F5D8D56
:102CA00008CF8280B7170240984F1345F5FF798D02
:102CB00088CF828099C5371702405C4F5D8D48CF21
:102CC0008280B7170240D84F1345F5FF798DC8CFE2
:102CD000828099C5371702405C475D8D48C7828066
:102CE000B7170240D8471345F5FF798DC8C78280D2
:102CF0001E2137370140130707C0C207C183630095
:102D0000E50237070040630CE5001307074063083E
:102D1000E50037170040130707806316E500BA2166
:102D200093F7F7F8D98FFA2193F7F7CFC207C1834A
:102D3000D98F1EA1DE215EB59E211EB5B737014099
:102D4000938707C06314F5009C251EB985475EA9CB
:102D500082801E31922103D82500C207C183F99BCE
:102D6000C207C1831EB11E3156211A2DC207C1836D
:102D7000420741831377C7F8518F9225F59BC2060E
:102D800033660601D18F37360140130606C0C18273
:102D90006310C502B225DD9B03D8E500D18FD22197
:102DA000ED9B93F6F6CFD18FD22533660601D18EF7
:102DB00056A11AADFA215AB91EB182801E3165772B
:102DC0001307F7CFC207C183BD9BC207C1831EB1E2
:102DD0001E31562103D88500C20713960601162D11
:102DE000C18393F7F7FD758F96214182A206558F17
:102DF000B62142074183B3E606019206D58FB73666
:102E00000140C207938606C0C183631ED502B62562
:102E100093F7F7F703D8C5009206D58FD621C207DE
:102E2000C183920693F7F7FBD58FFD769386F63F25
:102E3000F18EF225C207C183336606010A06D18EE0
:102E400013960601418252A11AADFA211ABD1EB194
:102E500082801E3103D88500C207C18393F7F7EF44
:102E6000C207C1831EB11E3156215A2DC2071396C7
:102E700006014207962141831377C7F8558FB62183
:102E8000C18393F7F7DFB3E60601A206D58FB73605
:102E90000140C207938606C04182C183631FD502E9
:102EA000FD769386F67FF58FB62503D8C500A2067A
:102EB000D58FD621C207C183A20693F7F7BFD58F5E
:102EC000F576FD16F18EF225C207C1833366060141
:102ED0001206D18E13960601418252A15AADFA21F3
:102EE0005ABD1EB182801A31FD77FD17F98F1EB1D0
:102EF0000358050256215E2D657792211307F7CFFF
:102F00007D8FF9772206FD17518FB3F70701B221A4
:102F100003D88500C2064207336606013206D18F08
:102F200037360140C207130606C0C1824183C18300
:102F3000631AC50071767D16F18ED2251A06D18EE0
:102F4000C206C18256A15AADFA212310E5041EB172
:102F500082801E2189C593E717001EA18280C207C7
:102F6000C183F99BC207C183CDBF8357450491C577
:102F70002167D98F2312F5048280C607C583DDBF80
:102F80001E2189C593E707081EA18280C207C1835D
:102F900093F7F7F7C207C183C5BF1E2DC207C183D0
:102FA000DD9BDD8D0EAD82801A2DFD779387F77F37
:102FB000F98FA205CD8FC207C1831EAD82805E2D21
:102FC000C207C183DD9BDD8D4EAD82805A2DFD771A
:102FD0009387F77FF98FA205CD8FC207C1835EADBE
:102FE00082804EB1828093C5F5FFC205C1810EA9D2
:102FF0008280EFD2EF931A29F577FD17F98FFA2126
:1030000001112A84D98F1EA99A25DE215625AE8466
:10301000D98FBA25D98F7D771307379F758FD98FB1
:103020005EA55E29DA25C207C18393F7F7CFD98F52
:103030005EA96800EFF07FB8B7470140938707802B
:103040006316F404E2476545B335F50290408146C6
:103050000A063305F5029124930640063357D5023C
:10306000120793574700B387F6021D8D931745004B
:10307000138527039307F06363FCA700130507017B
:10308000420541810AA405616FD0CF8CD24765BF4C
:103090003355D502598DEDB791C55E250967D98F96
:1030A0005EA582805A25F977FD17F98FD5BF93F574
:1030B000F51F4EA182800A216D8D3335A0008280DC
:1030C00083A7818037177A0013070720B3D7E70259
:1030D00093F7F70F238DF1841307803EB387E70240
:1030E000239CF1848280B7F700E0D8438146799B26
:1030F000D8C303C7A1853306A70290CBD4CB98438E
:103100001367070198C398431367170298C3D843FE
:10311000058B75DF9843799B98C38280B7F700E0F1
:10312000D8438146799BD8C303D781853306A7024C
:1031300090CBD4CB98431367070198C39843136788
:10314000170298C3D843058B75DF9843799B98C3C2
:103150008280B7F700E0D8438146799BD8C388CBFB
:10316000D4CB98431367070198C39843136717029A
:1031700098C3D843058B75DF9843799B98C38280A9
:10318000B7F700E0D8438146799BD8C303C7A18530
:103190003306A70290CBD4CB98431367070198C39B
:1031A00098431367170298C38280EFC27FF8D14714
:1031B0003305F502EFF0DFFC6FC0DFF9B7F700E091
:1031C000C8430589828037F700E01C43F99B1CC384
:1031D0008280EFC2FFF501112A848545370508007A
:1031E000EFF05FAD85452145EFF0FFAA85477C8272
:1031F000371501408D473EC44C00E147130505C01B
:103200003EC6EFF07F8022C837540040B707080061
:103210000C08130504C03ECC02CA231E0100EFF0C7
:103220005FDD8545130504C0EFF01FE705616FC042
:103230007FF2EFC25FEEB7540040AE89328901449D
:10324000938404C0634524014A856FC01FF0930531
:1032500000042685EFF03FE67DD9B387890083859A
:10326000070026850504C205C181EFF05FE4D9BFE0
:10327000138701811C43B7360020938686953E95BF
:10328000636BD500B75600209386068063E5A600E1
:1032900008C33E858280FD57EDBFB687B2882A837A
:1032A0002E88639B061463F8C50A4167636BE61AB0
:1032B000B70700016360F63493568601E14717179C
:1032C00000001307270136971823BA971307000247
:1032D0001D8F19CB3398E500B357F500B318E600FE
:1032E00033E807013313E50013D608013355C8024C
:1032F00093960801C182935703013377C802B385BF
:10330000A60242073368F700637AB800469893072D
:10331000F5FF636418016365B8303E853308B84033
:103320003357C8024203135303013378C802B386EC
:10333000E602420833686800637BD800469893072A
:10334000F7FF6365180179176363D8003E8742056C
:10335000598D8145828001E60547B358C702416710
:1033600063E8E80EB707000163EAF82893D68801FE
:10337000E147171700001307E7F536971423BE96A9
:1033800093070002958FFDE7939E0801338715414F
:1033900013DF080193DE0E01854593570301335572
:1033A000E7033377E703B306D5034207D98F63FA00
:1033B000D700C6971307F5FF63E4170163E5D72627
:1033C0003A85958F33D7E703420313530301B3F7CD
:1033D000E703B30ED703C207B3E7670063FBD70168
:1033E000C6979306F7FF63E51701791763E3D701E3
:1033F00036874205598D828063E1D504C16763E158
:10340000F604B707000163E3F61E13D7860161488F
:1034100097170000938707ECBA979823130E0002C2
:103420004297330EEE40631A0E0C63EDB61C333533
:10343000C500134515008145828081450145828084
:103440009307F00F63F3D71C13D786002148C9B741
:103450001307F00FC686E37E17F193D68800A147C5
:1034600009BF1307F00FB286E37BC7E493568600CB
:10347000A147B1B5B398F80033D6D50013DF0801E2
:10348000335EE6033397F500B356D500558F939E10
:10349000080193DE0E013313F50093550701B3764F
:1034A000E603B387CE03C206CD8E63FBF600C69655
:1034B0001306FEFF63E4161763F2F616791EC6962E
:1034C0009D8E33D6E60393170701C183B3F6E60357
:1034D0003385CE02139706015D8F637BA700469765
:1034E0009307F6FF636817136376A712791646975A
:1034F00093150E01098FD18D4DB5B357E600B396E4
:10350000C601DD8E33D3E50013DF0601B357E303B5
:10351000939E060193DE0E013398C5013357E500F3
:1035200033680701935808013316C6013373E30368
:10353000B385FE024203B368130163FBB800B6987B
:103540001387F7FF63EAD80C63F8B80CF917B6983D
:10355000B388B84033D7E803420813580801B3F8DA
:10356000E8033383EE02C208B3E5080163FB65009C
:10357000B6951308F7FF63EDD50863FB6508791767
:10358000B695C207416FD98F1307FFFFB3F6E70067
:1035900093D80701718F4182B38EE602B3856540EF
:1035A000B386C60213D80E013387E802BA96C296D4
:1035B0003386C80263F3E6007A9693D806014696EE
:1035C00063E2C5026385C5003E858145828041670F
:1035D0007D17F98EC206B3FEEE003315C501F696CF
:1035E000E374D5FE1385F7FF8145828013D706016A
:1035F000414839BD93560601C147D1B193D6080160
:10360000C14785BB8145054582803687014809B59C
:10361000428785BF3E86E9BDBA871DBF328E4DB554
:1036200079154698E5B97915C69761BBB3C7A5006A
:103630008D8B3307C50081E78D4763EDC700AA87EF
:10364000637EE508942185078505A38FD7FEE3EB0C
:10365000E7FE828093763500AA8789CA9421850780
:103660008505A38FD7FE93F63700C5BF9376C7FFB6
:10367000138606FE63F0C70683A3050083A24500F8
:1036800083AF850003AFC50083AE050103AE4501DE
:1036900003A3850183A8C5019385450223A0770074
:1036A00003A8C5FF23A2570023A4F70123A6E7011F
:1036B00023A8D70123AAC70123AC670023AE1701B3
:1036C0009387470223AE07FF75B790419107910595
:1036D00023AEC7FEE3EBD7FEE3E6E7F682800111F7
:1036E00026CA4AC806CE22CC4EC652C4AA842E8907
:1036F00001C51C4D91E3F1219C4C804499E3268542
:10370000C921971700009387E7CE631BF402C040DE
:103710005E24A18BB1C71C48A1C7FD59294A1C448E
:1037200083450900FD17B1E91CC463DD0706228645
:10373000A94526856920FD576308F502294535A06E
:1037400097170000938707CD6314F4008044C9B72E
:1037500097170000938707C8E31CF4FAC0444DBFD5
:10376000A2852685192A55D97D55F2406244D24456
:103770004249B249224A056182801CC4050963D7C7
:103780000700184C63CAE700638845011C40138793
:10379000170018C08CA361B7228626850D20E31080
:1037A00035F9D9B71C401387170018C0294798A3CB
:1037B00071B793874181AA8588436FF05FF2011149
:1037C00022CC26CA4AC806CE4EC6AA842E89328486
:1037D00001C51C4D91E3F52697170000938787C11B
:1037E0006317F406C0401C4C1CC45E24A18BC1C3EB
:1037F0001C48B5CF1C4808409379F90F1379F90F8D
:103800001D8D5C486346F500A2852685692C25E55B
:103810001C440505FD171CC41C401387170018C065
:10382000238037015C486388A7005E24858B81CBA9
:10383000A9476316F900A2852685B5240DEDF2404F
:1038400062444A85D2444249B24905618280971751
:103850000000938727BC6314F400804469B797176E
:103860000000938727B7E310F4F8C044ADBFA285EA
:103870002685212041D17D59D9B7411193874181B6
:1038800026C2844322C44AC006C62A892E8489C41B
:103890009C4C99E32685352697170000938787B5BA
:1038A000631BF402C0400317C40093170701C183D0
:1038B00093F68700ADEA93F6070195EEA54723201E
:1038C000F900136707045AA47D55B240224492447C
:1038D000024941018280971700009387A7B36314C0
:1038E000F4008044C9B7971700009387A7AEE31C84
:1038F000F4FAC0444DBF918B9DC34C5889C99307BE
:1039000044046384F5004A85192B232A04025E24AB
:103910002322040093F7B7FD5EA41C481CC05E245C
:1039200093E787005EA41C4899EB5E2413070020F0
:1039300093F707286385E700A2854A8589295E24D5
:1039400013F717001DC35C4823240400B307F0409D
:103950001CCC1C480145B5FB8317C40013F70708AE
:103960002DD793E707045EA485B7898B014791E3C0
:10397000584818C4F9BFDE25011122CC26CA06CE4C
:103980004AC84EC613F78700AA842E8479EBD84123
:10399000634DE000B841634AE0000145F2406244F3
:1039A000D2444249B2490561828058547DD703A967
:1039B00004009396370123A0040063DB06067048D9
:1039C0005E24918B99C75C401D8E5C5899C33C4026
:1039D0001D8E5C540C50814626858297FD575A24D3
:1039E000631DF5009440F54763E8D706B70740200C
:1039F0008507B3D7D700858BA5C31C4823220400B5
:103A00001CC09317370163D80700FD576314F500F6
:103A10009C4091E368C84C5823A02401BDDD930766
:103A200044046384F5002685DD2E232A0402B5B7FD
:103A30000C500146854626850297FD572A86E311DC
:103A4000F5F89C40B5DF75476385E70059476393F8
:103A5000E70423A0240191B7136707045AA47D55F6
:103A600035BF83A90501E38A09F203A905008D8BFF
:103A700023A0350133093941014791E3D84918C4DE
:103A8000E35D20F11C540C50CA864E862685829731
:103A90006347A0005E2493E707045EA4C9B7AA9910
:103AA0003309A940F1BF9C49A5C3011122CC06CE20
:103AB0002A8411C51C4D81E72EC62122B2459717D5
:103AC000000093872793639CF5004C408397C500C3
:103AD0009DC722856244F24005616FF0DFE99717C8
:103AE0000000938727936394F5000C44C5B797179C
:103AF00000009387278EE39BF5FC4C44C1BFF24046
:103B0000624401450561828001458280411122C4E1
:103B100006C62A844EA572A523200500232205008F
:103B2000232405002322050623280500232A050057
:103B3000232C0500214681451305C505EFC04FE242
:103B400097070000938727485CD09707000093876A
:103B5000474A1CD4970700009387274E5CD49707E9
:103B600000009387875000D01CD8B2402244410106
:103B7000828097050000938545F391AA411126C2E2
:103B8000130680069384F5FFB384C4024AC02E89CD
:103B900022C406C6938544072D262A8401CD2320FE
:103BA000050023222501310508C4138684068145BA
:103BB000EFC00FDB2285B24022449244024941010A
:103BC00082801C4DA5E7411106C622C4970700005C
:103BD000938767FA1CD59387C1819C4323240504EE
:103BE00023260504232805046314F50085471CCD0E
:103BF0002A84352848C022851D2808C42285052826
:103C000048C4484001469145EFF05FF0084405463E
:103C1000A545EFF0BFEF48440946C945EFF01FEF57
:103C200085471CCCB24022444101828082804111F0
:103C30009387C18126C284434AC006C69C4C22C4D5
:103C40002A8981E72685EFF0DFF793848404804496
:103C5000DC40FD1763D607009C40B9CF8440C5BF48
:103C60000317C40039E7C177850723220406232000
:103C7000040023220400232404005CC4232804003D
:103C8000232A0400232C0400214681451305C40582
:103C9000EFC00FCD232A0402232C040223240404A2
:103CA000232604042285B240224492440249410161
:103CB00082801304840671BF91454A85EFF01FECA2
:103CC00088C049FDB1472320F9000144E1BF797163
:103CD00022D44AD052CC56CA5AC85EC606D626D27C
:103CE0004ECE2A8AAE8A130485040149054BFD5B3A
:103CF00009ECB25022544A8592540259F249624A60
:103D0000D24A424BB24B456182800444832944002D
:103D1000FD1963D409000040E1BFDE24637BFB0092
:103D20008397E40063877701A6855285829A336979
:103D3000A90093848406E9BF1971A6DAAE8483953D
:103D4000E500A2DC86DE328463DB0500DE2423A0EE
:103D5000060093F707089DE39307004015A030087D
:103D600036C6852EB246E34305FE7247BD67F98F1E
:103D70007977BA9793B717009CC2F9BF93070004ED
:103D80001CC0F6506654D654014509618280DE2578
:103D9000011122CC06CE26CA4AC8898B2E8489CF2F
:103DA000930774041CC01CC885475CC8F240624479
:103DB000D24442490561828074003000AA84EFF049
:103DC000BFF7A2452A892685ED2819E98317C40083
:103DD00013F7072061FFF19B93E727005EA4C9B7A3
:103DE00097070000938727D99CD45E2408C008C891
:103DF00093E707085EA4A2475CC8B24799CB831536
:103E0000E4002685012611C55E24F19B93E7170087
:103E10005EA45E243369F9002316240141BFCDC19D
:103E200083A7C5FF411122C406C626C21384C5FF5D
:103E300063D307003E94AA84052E9387C1859C43D3
:103E400099EB2322040023AE81842244B2402685CC
:103E50009244410119AE637EF40014403307D4004C
:103E60006396E7009843DC43369718C05CC0E1BF17
:103E7000BA87D84319C3E37DE4FE94433386D70061
:103E8000631F86001040B29694C33386D700E31EAA
:103E9000C7FA10435843B29694C3D8C37DB763752D
:103EA000C400B1479CC055B71040B306C4006316A8
:103EB000D70014435843B29614C058C0C0C371B75A
:103EC0008280011126CA93843500F19806CE22CC57
:103ED0004AC84EC6A104B14763F1F404B14463E09B
:103EE000B4042A8951249387C18598433A8431E0E8
:103EF000938701869C4391E781454A85512823A0F9
:103F0000A186A6854A856920FD5963173507B14703
:103F10002320F9004A85912C29A0E3D204FCB14763
:103F20001CC10145F2406244D2444249B249056194
:103F300082801C40858F63CE0702AD4663F6F60093
:103F40001CC03E9404C031A05C406312870223AEC3
:103F5000F1844A85192C1305B40093074400619934
:103F60003307F54061D33A94898F1CC065BF5CC3A9
:103F7000CDB722874040A5BF130435007198E303F5
:103F800085FCB305A4404A852120E31D35FB41B7DC
:103F9000411122C42A842E8597F7FF1F23AE079A6A
:103FA00006C6EFF0EFACFD576319F50097F7FF1F5A
:103FB0009387879A9C4391C31CC0B240224441011D
:103FC0008280411122C42E848395E50006C6792A99
:103FD000634905007C48AA977CC8B240224441014D
:103FE00082805E247D777D17F98F5EA4FDB7DE2584
:103FF000011122CC26CA4AC84EC606CE93F7071036
:10400000AA842E843289B68991C78395E5008946B2
:1040100001460D225E247D777D17F98F5EA48315FE
:10402000E4006244F240CE864A86B249424926857F
:10403000D244056125A8411122C42E848395E50050
:1040400006C6CD28FD575A24631AF500FD77FD17E3
:10405000F98F5EA4B2402244410182808567D98FE6
:104060005EA468C8C5BF8395E50025A8411122C498
:104070002A842E85B285368697F7FF1F23AE078CDC
:1040800006C6EFF00F9BFD576319F50097F7FF1F6A
:104090009387878C9C4391C31CC0B240224441014A
:1040A0008280411122C42A842E8597F7FF1F23A501
:1040B000078A06C6F520FD576319F50097F7FF1F1D
:1040C000938787899C4391C31CC0B240224441011D
:1040D0008280411122C42A842E85B28597F7FF1F62
:1040E00023AC078606C6E920FD576319F50097F74C
:1040F000FF1F938767869C4391C31CC0B240224434
:1041000041018280411122C42A842E8597F7FF1F26
:1041100023A4078406C66D20FD576319F50097F7A1
:10412000FF1F938767839C4391C31CC0B240224406
:1041300041018280411122C42A842E85B2853686AF
:1041400097F7FF1F23AA078006C65920FD5763195A
:10415000F50097F7FF1F938727809C4391C31CC0EE
:10416000B24022444101828082808280411122C477
:104170002A842E85B285368697E7FF1F23AE077CFB
:1041800006C6B928FD576319F50097E7FF1F938707
:10419000A77C9C4391C31CC0B24022444101828051
:1041A0009307800517E7FF1F2328F77A7D55828044
:1041B0009307800517E7FF1F2320F77A7D5582803C
:1041C0009307800517E7FF1F2328F77801458280B2
:1041D0009307800517E7FF1F2320F7787D5582801E
:1041E0009307800517E7FF1F2328F7767D55828008
:1041F000544C4C5F4E323332000000000C1E000065
:10420000021D0000981B0000721D0000981B00009A
:10421000941C0000F41B0000981B0000DA1C000036
:10422000F01C0000061E00009E1C00000902430056
:10423000020100803209040000010202010005248D
:1042400000100105240100010424020205240600D7
:10425000010705810340000109040100020A000072
:10426000000705020240000007058302400000002D
:1042700012011001FFFFFF40861A0CFE010001022F
:10428000000100000E037700630068002E00630049
:104290006E0000001603550053004200200053003A
:1042A00065007200690061006C00000016033000B8
:1042B000310032003300340035003600370038005A
:1042C000390000005374617274696E670D0000005C
:1042D00000010202030303030404040404040404AD
:1042E000050505050505050505050505050505057E
:1042F000060606060606060606060606060606065E
:10430000060606060606060606060606060606064D
:10431000070707070707070707070707070707072D
:10432000070707070707070707070707070707071D
:10433000070707070707070707070707070707070D
:1043400007070707070707070707070707070707FD
:1043500008080808080808080808080808080808DD
:1043600008080808080808080808080808080808CD
:1043700008080808080808080808080808080808BD
:1043800008080808080808080808080808080808AD
:10439000080808080808080808080808080808089D
:1043A000080808080808080808080808080808088D
:1043B000080808080808080808080808080808087D
:1043C000080808080808080808080808080808086D
:1043D00000000000000000000000000000000000DD
:1043E00000000000000000000000000000000000CD
:1043F00000000000000000000000000000000000BD
:1044000000000000000000000000000000000000AC
:10441000000000000000000000000000000000009C
:10442000000000000000000000000000000000008C
:104430000000000000000000010203040607080954
:10444000000000000102030401020304060708093A
:1044500000000000F043000010440000D0430000C2
:10446000000000000000000000000000000000004C
:10447000000000000000000000000000000000003C
:10448000000000000000000000000000000000002C
:10449000000000000000000000000000000000001C
:1044A000000000000000000000000000000000000C
:1044B00000C201000000080000449508020406083C
:1044C00058290020200000200403090420000020B7
:00000001FF
