:040000006F7040508D
:1000040000000000000000007A7000007C70000016
:100014000000000002750000000000000000000065
:1000240002750000027500000000000000000000DE
:1000340002750000000000000275000000000000CE
:1000440002750000027500000275000002750000D0
:1000540002750000027500008C70000096700000AC
:10006400A0700000AA700000B470000002750000C7
:1000740002750000027500000275000002750000A0
:100084000275000002750000027500000275000090
:10009400027500000275000002750000BE700000C9
:1000A4000275000002750000027500000275000070
:1000B4000275000002750000027500000275000060
:1000C4000275000002750000027500000275000050
:1000D4000275000002750000027500000275000040
:1000E400EA7000000275000002750000DC100000D8
:0C00F4000275000002750000027500009B
:10010000397101436EC619A0397141536AC866CA74
:1001100062CC5ECE19A0397101535AD056D252D456
:100120004ED64AD826DA22DC06DE330161408282CE
:1001300041114AC026C222C406C68282B24D410184
:10014000024D924C224CB24B4101024B924A224A40
:10015000B2494101024992442244B24041018280A5
:100160003D432A876373C3029377F700BDEFADE584
:10017000937606FF3D8ABA960CC34CC30CC74CC796
:100180004107E36BD7FE11E28280B306C3408A06C3
:100190009702000096966780A6002307B700A30683
:1001A000B7002306B700A305B7002305B700A304D3
:1001B000B7002304B700A303B7002303B700A302CB
:1001C000B7002302B700A301B7002301B700A300C3
:1001D000B7002300B700828093F5F50F9396850052
:1001E000D58D93960501D58D61B79396270097021B
:1001F000000096968682E78086FA9680C1171D8F4A
:100200003E96E374C3F8A5B7EFF2FFF0130101DAED
:10021000EF00F00813079009630BE55A6363A71614
:1002200013077007630DE54A636DA7065947630D11
:10023000E5386369A7020947630BE53A636AA700DB
:10024000630D054A05476303E53413010126F5BD37
:1002500051476305E5365547E319E5FEEF003004E5
:10026000D14585A67947630AE536636DA7005D47EA
:100270006300E5366147E31AE5FCEF0050029305A1
:10028000800281A67D47630FE53413070002E31E59
:10029000E5FAEF00D000EF10F0482320A1168545C5
:1002A00019AE1307D0086300E546636BA704130774
:1002B000A0076301E544636EA7001307800763038B
:1002C000E54213079007E312E5F8EF00407D814512
:1002D000CDAC1307B0076304E5421307C008E3166B
:1002E000E5F6EF00C07BAA84EF00607B2A84D1454D
:1002F0002685EF10503DD1452285EF10D03CB1B797
:1003000013070009630CE5466360A7061307E008BE
:100310006308E5421307F008E319E5F2EF002078DF
:100320002A89EF00C077AA89EF0060772A84B70492
:100330000020EF002078AA852AD01385840EEF00D4
:10034000A073EF00C0752ACEEF00C076F2470257C7
:10035000131614002A889386840E1376E60FCE8532
:100360004A85EF109066D5B513077009630BE54613
:1003700013078009E31BE5ECEF006072EF20E02D2E
:10038000E9B51307B00E6301E554636AA7101307BC
:10039000600B630EE5486365A7061307A00A6309AF
:1003A000E544636DA7021307A009630FE542130735
:1003B000000AE31CE5E8EF00806E2A84EF00806FFE
:1003C000AA84EF00206F37060020AA861306860E47
:1003D00093F5F40F2285EF20602F85BD1307400BA6
:1003E000630EE5421307500BE311E5E6EF00206BC7
:1003F00085473395A70042054181EF20A002B1B5A2
:100400001307F00B6308E5446368A7021307700B3A
:100410006309E5421307E00BE319E5E2EF0020680A
:100420002A84EF00C0672ACEEF006067F2452A8673
:100430002285EF20605A11BD1307000C6308E544C4
:100440001307100CE313E5E0EF006065AA89EF00E5
:1004500000652A8AEF00A0642AD2EF0040642AD007
:10046000EF004065371900202ACEEF00A0642A84EF
:10047000AA85130589AEEF00206072478256125696
:10048000B7040020D2854E85A2881388840E930776
:1004900089AEEF20A05DA2851385840E31AA1307D3
:1004A000200F6300E548636AA7061307F00E630890
:1004B000E5446368A7021307C00E6301E542130712
:1004C000E00EE314E5D8370400201305840EEF0096
:1004D0006061EF00205EAA851305840EEF10207A7C
:1004E00029AC1307000F6300E5421307100FE31E4A
:1004F000E5D4EF00205CAA8437040020EF00805B85
:10050000AA852ACE1305840EEF0000577246930584
:10051000840E2685EF105000CDA21307500F6305FF
:10052000E5426365A7021307300F6307E540130731
:10053000400FE31CE5D0370400201305840EEF00C4
:10054000605A1305840EEF10F00445AA1307600FDC
:100550006306E5401307700FE319E5CEEF00805501
:10056000EF10900BEF00204D37340020034584B886
:10057000130484B8EF00204C4840EF00C04B3735DF
:100580000020130505B9EF00E04DC1B1B7A500008B
:10059000938545B225468812EF80201737F4FF1F58
:1005A0000325847EEF0020490325C47E69210325AD
:1005B000047F5121A1458812A92941B9EF00204E9D
:1005C000C145EF10F01451B1EF00604D9145D5BF1A
:1005D000EF00E04C93058004EDB7EF00404CEF10C6
:1005E0009019A5B1EF00A04BEF10701CB9B93704FA
:1005F000002002DC02DEEF00E04BAA85AA8413058E
:10060000840EEF006047A6851305840EEF00500F9F
:1006100019C98147130700029400BE962380060083
:100620008507E39BE7FEA6851305840EEF00900A7D
:1006300009C59305000288008121A6851305840E53
:10064000EF00D00E01C9EF00E0462ADC9305001050
:1006500088101D21A6851305840EEF00900F19C97F
:100660008147130700109412BE9623800600850769
:10067000E39BE7FE1308C1033C18981294102686EA
:100680008C001305840EEF008047A6851305840EA9
:10069000EF0010073339A000A6851305840E160954
:1006A000EF00300B19C1130949104A856926094525
:1006B0005926A6851305840EEF00900409C59305FD
:1006C00000028800B926A6851305840EEF00700885
:1006D000E30D05B67255852693050010E9BDC126C8
:1006E000E145C5B56D2E2A845D2EAA852285EF20B1
:1006F000C00FA1BE6D26EF10A037352EB9B6452626
:10070000EF20003BDDBF612EAA89512E2A8A5D268B
:10071000AA8A0544130900089374F40FD686268626
:10072000D2854E85EF10102711C58545881223000C
:100730009116C5240504E31124FF2300011685B694
:10074000B92E2A89A92E2AD0992E2A84A526AA84D0
:10075000B9262ACE8526F24782551316140037048F
:1007600000202A8826879306840E1376E60F4A8592
:10077000EF10F02AA6851305840E3DBD0D26AA892B
:10078000392E2A8A292E2A84370900202526AA856F
:100790002AD01305890ECD24312EAA8409262ACE0B
:1007A000112EF248025713161400371400202AC0E5
:1007B000D2854E852688930784AE9306890E1376DC
:1007C000E60FEF10502BA685130584AEF5B3C12CB0
:1007D0002A84CD2493150501C1812285EF10506232
:1007E000ADB4EF10F06595B4F124EF101068B1BC12
:1007F0007D24AA8437040020752CAA852ACE1305EF
:10080000840E9D2C054533159500724642059305CF
:10081000840E4181EF1050386FF03FA34924854783
:100820003395A70042054181EF10B03BF9B5852C07
:1008300085473395A70042054181EF1030416FF0A5
:10084000DFA0B12C85473395A70042054181EF1009
:10085000704265B5A9242A8999242AD689242AD4E4
:100860003D2C2AD22D2C2AD0B1242ACEA124F24705
:10087000025792562256B25537040020AA84AA88FD
:100880001308840E4A85EF20A017EDB5092CAA8421
:1008900039242A8929242AD419242AD2212C37043C
:1008A00000202AD0012CAA852ACE1305840EE92225
:1008B00072480257925622569307840ECA8526859F
:1008C000EF20C0176FF07F98370400201305840EC7
:1008D000112C1305840EEF10A03705B53704002046
:1008E0001305840E0124B7140020138584AEDD2A7D
:1008F000938584AE1305840EEF10E036FDBB5D2AB0
:10090000EF10203CDDBB7D222A89370400205D22C8
:100910002A86AA849305840E4A85EF10403D212A39
:1009200091BD492A2A8479222ACE6922F2452A8653
:100930002285EF100041D1B3B52A2A84A52AAA85C1
:100940002285EF10A04255BB370400201305840E0A
:10095000512A1305840EEF10404545B3A12AEF102C
:10096000E04861BBEFF22FFBB709020037540040AB
:10097000AA842E898909130A0440CE855285EF7016
:10098000000A65DD0357444193070440B70900108E
:10099000035784412699938909043E846394240172
:1009A0006FF0AFFACE852285EF70C00865DD228535
:1009B000EF70600688A08504D5B7EFF2CFF5B709D0
:1009C000060037540040AA842E8993892908130A07
:1009D0000440CE855285EF70800465DD03574441A5
:1009E00093070440B709001003578441269993895F
:1009F00009083E84639424016FF02FF5CE8522858B
:100A0000EF70400365DD8C2022858504EF70600067
:100A1000D5B7EFF2EFF183A7018285466398D7003F
:100A2000C205C181EF00306F6FF0CFF20947E39D3F
:100A3000E7FE6137D5BFEFF2AFEF41112AC691450E
:100A40006800C13F41016FF0EFF0EFF26FEE41112E
:100A50002A842E852EC6C537B24522855D3F4101C9
:100A60006FF04FEFEFF2CFEC2A84EF80A06FAA85F2
:100A70002285E13F6FF00FEEEFF28FEB83A701824B
:100A800005466399C7002E87AA853A85EF00105660
:100A90006FF04FEC0947E39DE7FEE935D5BFEFF274
:100AA0002FE941111305F1008545F9378887410188
:100AB0006FF04FEAEFF2CFE74111680091456D3FCB
:100AC000324541016FF00FE9EFF28FE641112A84C0
:100AD0002EC6CD37B24588C1AA852285713F410116
:100AE0006FF04FE7EFF2CFE441116C002A84E93F49
:100AF000B2473E942300040041016FF0AFE5EFF2EE
:100B00002FE05D712AC42E84B68A3A8BBE89428951
:100B10008144014DDD4B130C1002930C3002930DF8
:100B20004002A2473D461305F00F3387A701142367
:100B3000FD4561486380C62A6366D60A1D46638503
:100B4000C6146360D6060D46638DC61E636FD6005D
:100B5000054693074D006382C6126375D61236238D
:100B600037170140232AD78031AA15466385C61A54
:100B7000637BD61E34232833054A36C6EF70605394
:100B8000B246331ADA00B716014003A786803377DE
:100B9000470163110712EF70E052B716014075D597
:100BA00011AA2D466389C626636BD600254663804D
:100BB000C6266370D6122A23EF7060436DA83716DD
:100BC0000140B54593074D00130606806382B61CAD
:100BD00063F0D51E3823544622971823C19A558FA7
:100BE00058C64DA06386762163E4DB044D466380DE
:100BF000C6086361D6024546110D930580026387DE
:100C0000C60091456374D600930580042823EF1035
:100C1000802B01BF55466384C620D145637AD60434
:100C2000FD14939724009808BA9703AD07FCD5BD2F
:100C3000638786216362DC02638FB61E63EDD52273
:100C4000E39A06EFB7160140938606809446382350
:100C5000A182229714A305A06389962363EF9625AA
:100C60006380B61BE398A6EC61616FF02FCDC145A0
:100C70002823EF104025110D6DB53623371701409D
:100C80002328D7803E8D71BD2833034A2700EF709B
:100C900040420547331A4701B716014003A7868033
:100CA0003377470119EBB716014003A786803377E6
:100CB000EA0011CBEF70A0417DBFEF70A040B716E6
:100CC000014069DDCDB7EF70E03FB716014071DD3F
:100CD000D5B72833034A2700EF70A03D0547331AE4
:100CE0004701B716014003A786803377470111CF2C
:100CF000B716014003A786803377EA0045DFEF701F
:100D0000603CB71601407DD575B7EF70A03BB716B4
:100D1000014071D9F1BF34232833054A36C6EF703C
:100D20004039B246331ADA00B716014003A786806D
:100D30003377470141D3EF70E038B71601407DD5D6
:100D400095BFB716014003A686802C233433054790
:100D50003317B700A296718F90223337E000060652
:100D6000518F98A209BF30332C2322961822935614
:100D7000170014A285461376170037170140B39663
:100D8000B6001307078019C214CBF5B554CBE5B5EF
:100D900034332C2310460547A2963317B700718FC2
:100DA00090223337E0001E070582518F98A2D9BDEB
:100DB0002C332823A295942113971600E20698A1BC
:100DC000E18605473317A70063D4060018CA5DBD46
:100DD00058CA4DBD3823B716014003A6C6802297D6
:100DE00018231376F6F02207518F23A6E68061B50B
:100DF000B71601409386068094463823229799BD02
:100E000036230147E359D7E601000507E5BF2A234A
:100E1000EF70A0248DB52A23EF70C020A9BD939652
:100E200024009C08BE9693074D0023A0F6FC035DAA
:100E300027008504FDB13433A29694227DBF83261A
:100E4000090037160140382303288680854513F6AC
:100E500076003396C5008D82B395E500DA96B3F53A
:100E60000501882299CD498E90A203270900050724
:100E70002320E90009B5032609009306F07F918E2F
:100E8000C9B71346F6FF698EC5B7302303A709001B
:100E90007D1723A0E90093553700D6958C21854610
:100EA0001D8B3397E6003396C6006D8FB716014051
:100EB0009386068011CF90CA7DBB302303A709001B
:100EC0009306F7FF1307F07F23A0D900158FE1B732
:100ED000D0CA55B3B716808101477D46C106636409
:100EE000B70001458280B307E5009C236366F600E6
:100EF000B3D7F600858B99E30D07D5B705458280FA
:100F0000B7E6008001477D46A1066364B70001454E
:100F10008280B307E5009C236366F600B3D7F60032
:100F2000858B99E31107D5B7054582800147854632
:100F30006364B70001458280B307E5009C23938773
:100F4000E7FD93F7F70F63F4F6000D07D5B70545F6
:100F50008280014785466364B70001458280B307FC
:100F6000E5009C23811793F7F70F63F4F6000D0754
:100F7000DDB705458280B707005013070004D8A7E6
:100F800013078004D8B7371700201307874E98CB74
:100F90003717002013078752D8CB371700201307C5
:100FA000875698CF371700201307875AD8CFA389C1
:100FB0000702A38D0702239A0702239E070209470F
:100FC0002389E702238BE702238FE702938781823D
:100FD00023800700A380070023810700A381070067
:100FE00023820700A382070023830700A38307004F
:100FF00082809307F5FF93F7F70F1948636DF80C9C
:10100000EFF26F9193878182AA979C2393848182C8
:10101000054793F7F70FCDEB85476305F5001147BB
:10102000631CE500B7070050DC27054793F7F70F6F
:10103000631EE50291831DA81307E5FF1377F70FE1
:1010400063E9E700B7070050DC370D4793F7F70F68
:10105000C5B71307B5FF1377F70F63E0E704B707CA
:101060000050FC2793F7F70FE30605FD13F8470040
:101070000147630B08043704001411042A94A18B60
:10108000B2892A890A0485C30840B70700209387DC
:1010900007043E95EF70606719A8B7070050FC374A
:1010A00093F7F70FE1B785E6C205C1810CC02310A5
:1010B00034038347240233852401014793F7C70F84
:1010C0002301F40285471CA13A856FF00F88084080
:1010D000B70700207DBF05473A858280011122CEE7
:1010E00026CC4ACA4EC852C656C43704005078208F
:1010F0007C301377F70F937627006389065893F7B0
:10110000F70F13F70703930500026300B704930674
:1011100000036300D71A6DE313F7F703630B07129D
:101120008947631BF70C8347B40393C74700A30D9C
:10113000F402084442054181EF0090018347B40363
:1011400093F7C70FA30DF40245A893F7F70393068F
:1011500010026388D70A930630026387D70C639D19
:10116000E708938741839E2393844183C207C18309
:1011700081E79147A309F40283C7618393F70706C8
:10118000A5EF83C70183154793F7F70F638DE70436
:1011900019476393E7069E201307F0031304000426
:1011A0006365F7008220420441801389C18383294B
:1011B0000900371500202286CE851305854EEF7075
:1011C000C0549E20A29923203901818FC207C18378
:1011D0009EA0B707005082BB03C7270313474700F1
:1011E0002389E70211A8370700503C3383C64182A8
:1011F00093F70708D58F3CB3B70700500947F8A30A
:1012000079A98347640393C74700230BF4028347FC
:10121000640393F7C70F93E72700230BF402938728
:101220008182A3800700C9BF8347E40393C74700B7
:10123000230FF4028347E40393F7C70F93E72700D4
:10124000230FF40293878182A3810700EF00607768
:1012500065B7184493F70704C5D383C76183138721
:10126000418393F7070685CF2310070083C70183C7
:101270006397F50237160020B70600208147130652
:10128000864E938606089D453305F6000348050003
:101290003385F600850723000501E397B7FE1E237B
:1012A000C207C183B1FBB70700502398070211475B
:1012B00005BF99472309F40237150020A309F4025A
:1012C0009306854E9C22138661831CA29C3203D810
:1012D0006600138701831CA383D82600938741836C
:1012E00023900701138881832310180183D84600B7
:1012F00013882183231018010348060013894183B2
:1013000093896183137808061306854E938781833A
:10131000938621836304080A83C709009384C183E9
:1013200093F70702C9C31C231307100293F7F70FA3
:101330006385E706636BF70401446384B700130415
:10134000F00F835709001307F003130A00046367C3
:10135000F700035A0900420A135A0A0183AA04003B
:1013600052861305854ED685569AEF70003A23A013
:1013700044019307F00F6315F410B70700501D47A1
:101380002389E702A389E70285BD1307300213040E
:10139000F00FE368F7FA01446DB7B70700209387B1
:1013A00007089CC0CDBF03C4090019801344140072
:1013B0000588330480401374F40F61B71823AD45DA
:1013C0001377F70FE3EBE5FAA9650A07938505B3F1
:1013D0002E97184302879A23894621839384C183D9
:1013E0006306D7020D46630EC70285476316F704EE
:1013F000A967138747BA83C747BA98C00144035700
:101400000900E3F0E7F42310F90025BF296713076B
:1014100007B63C3398C03823A207BA97C207C183E6
:10142000F1BF9E23054693F7F70F6381C70289CB6F
:101430006385D702638AE70281471304F00FC1B7BF
:101440001387818198C083C781814DBFA9671387A6
:1014500087BB98C083C787BB55B7A967138787BC6D
:1014600098C083C787BC59BFA967138707BE98C0B8
:1014700083C707BE61B79E2393F7F70F2382F182DC
:1014800083C70900E207E18763D8071E03570900F5
:101490009307000463E6E70083570900C207C1838E
:1014A000035709001D8F420741832310E9003707C6
:1014B00000501EBB91472309F7023DBB83C75182F1
:1014C0001CA2035709008547E3FCE7FA2310F90043
:1014D00045BF9E2393F7F70FA382F182054723832D
:1014E000E18279BF03C709007D8B11EF9E23054779
:1014F00093F7F70FE396E7F89387718298231377B2
:10150000E70F98A3B5BF03C7090009467D8BE31613
:10151000C7E69E2393F7F70FE39107E69E22930613
:10152000100893F7F70F638DD70093063008638E8A
:10153000D700E394E7E4B7070050A38D070289B70B
:10154000B7070050238BE70225BFB7070050238F52
:10155000E7023DB703C709007D8B05E79E230547DA
:1015600093F7F70FE39BE7E0A96783C777B693F795
:101570000702E38407E093877182982313671700BB
:1015800049B703C7090009467D8BE318C7DE9E23D0
:1015900093F7F70FE39307DE9E229306100893F765
:1015A000F70F6381D702930630086386D702E3966C
:1015B000E7DC370700508347B70393E73700A30DF5
:1015C000F7027DBD370700508347670393E7370075
:1015D000230BF70275B5370700508347E70393E7FE
:1015E0003700230FF70269BD23000600D9BD83C76A
:1015F000090023100600FD8B85E383C77182014437
:10160000858B99C389471CA2035709008947E3F2D8
:10161000E7D62310F900B1BB03C7090089471304BB
:10162000F00F7D8BE312F7FE9E229306100893F7CE
:10163000F70F6381D70293063008638AD702E395D8
:10164000E7FCB707005083C7B7038D8B0D47639E38
:10165000E70011A8B707005083C767030D4701448F
:101660008D8BE393E7FA85471CA2014471BFB7074E
:10167000005083C7E703D1BF83570900C207C18366
:10168000E38307C2B70700501147EDB993771700FE
:1016900085C3A3010400EFF01F8E85477CA0724430
:1016A000E2445249C249324AA24A056173002030DD
:1016B0009377470085C7583093877182118B11CB80
:1016C00098231367270098A39C23B707005011475E
:1016D0003DB698231377D70F98A3C5BF78A0C1B79D
:1016E00083C76182054701456318F70003C551822E
:1016F0001375F50F3335A0008280EFE27FA33971B7
:10170000C53725CD93878182BC3393F7F70FB5E7B3
:101710009386818483D74184962213878184C2076C
:10172000C206C183C18263EDD704958FC207C1830E
:10173000A9C7930600043E8663F4F600130600046E
:101740004206B725002041828146938585DE1E230F
:101750003305D1008506AE979C231CA11E23850767
:1017600093F7F77F1EA393970601C183E3E1C7FEBA
:1017700085468A850D45EFF0DF8721616FE09F9DEB
:10178000056613060680B2974DB703D5018483D74B
:10179000218442054181C207C1836366F5001D8D26
:1017A0004205418182800567130707803A95C5BFCE
:1017B00083D60184938721849A230145420741837C
:1017C000630ED7009623371700201307875E3697DE
:1017D00008239A2305071377F77F9AA38280EFE205
:1017E0003F9565377DDDE9376FE0DF96EFE25F9487
:1017F0002E84B304B500631494006FE0BF95713775
:101800007DDD7D3708A00504FDB7EFE27F92056618
:1018100037280020814613060680930EF07F1308B8
:1018200088DE1394060141806366B400F935228591
:101830006FE05F9293874184138781849E231A23EC
:1018400093884184C2074207C183418363E7E7026B
:10185000998FC207C183E38BD7FD83D70800330775
:10186000D5001823C297850698A383D7080085075B
:1018700093F7F77F2390F8006DB7B297D1BFEFE2EF
:101880003F8BB13F2A89A13F2A84913FAA84813F9F
:101890009317840013970401D98FB3E727016205DA
:1018A0005D8D6FE03F8BEFE2BF88813D6FE09F8AE7
:1018B00003D5418483D7818442054181C207C18316
:1018C0006366F5001D8D420541818280056713071F
:1018D00007803A95C5BFEFE2BF8531641304143524
:1018E00093848182BC3093F7F70F99C37D1405E090
:1018F000BC3093F7F70F91EBB715002085460146F2
:101900009385855A0D45EFF0CFEE6FE0BF842945F2
:10191000EF60E06DC1BFEFE2BF812E84FD35493F2E
:1019200001E909C41374F40311E075376FE09F8275
:10193000E93313054006EF60806BD5B7EFE24FFF48
:1019400041112AC691456800F93741016FE09F8037
:101950000566B7150020371800208146130606805B
:10196000930EF07F9385855E130888569397060142
:10197000C18363E3A7008280938701841387218456
:101980009E231A2393880184C2074207C18341839F
:1019900063E7E702998FC207C183E38ED7FD83D740
:1019A0000800338706011823AE97850698A383D7CE
:1019B0000800850793F7F77F2390F80045BFB2979B
:1019C000D1BF05472383E1848280EFE26FF60111E6
:1019D0001306000281450A85EFE08FF83165372450
:1019E0000140EF60C00E13050440EF50503AB707B6
:1019F0000E003EC68A85854713050440230AF10080
:101A000002C002C202C402C8EF50703C81451305F7
:101A10000440EF50F051814513050440EF509052BF
:101A2000854513050440EF50F03F81451305044000
:101A3000EF50B05313050440EF50D03F93040440DF
:101A40002685EF50D03F6DFD13050440372401403B
:101A5000EF50703F930404402685EF50703F6DFDBA
:101A6000854513050440EF50505005616FE08FEE3F
:101A7000EFE20FEC9D47AA8563F6A700930585FF6B
:101A800093F5F50F372401409546054613050440AC
:101A9000EF50103E854513050440EF50F03B930492
:101AA000044089452685EF50304B65DD1305044021
:101AB000EF509047AA84894513050440EF50704ABF
:101AC00026856FE02FE90145828013077002A95730
:101AD0006360B704EFE2CFE541112E84EF509053DD
:101AE00013051003EF509055A165C105A2951395FC
:101AF000C500EF50F0582AC6EF50705332451147D9
:101B000081476303E500ED573E8541016FE08FE4B7
:101B10003E858280B2871306700229556365B6023E
:101B20003386E70005686360C802EFE26FE03A863B
:101B300021674107BA95B2053685BE95EF60F03C46
:101B400001456FE02FE1828093077002295563E41D
:101B5000B706B307E6000568636FF804B367E600ED
:101B6000858BB1EBEFE22FDB216441042E9432042C
:101B70003A89B6843294EF50F04913051003EF50C0
:101B8000F04B8149114A63E62901EF50504A014563
:101B900039A89C308C2033053401A207DD8DEF502D
:101BA000F051890463074501EF5070486D556FE0AF
:101BB000CFD98909C9BF8280B737002013878781B1
:101BC000014593878781A946704B09EA1307800571
:101BD0003307E502BA970547F8CB8280050513075E
:101BE0008705E313D5FE7D558280B7270020138734
:101BF000875E01459387875EA946505B09EA130714
:101C000080033307E502BA970547D8DB82800505D4
:101C100013078703E313D5FE7D558280EFE24FD192
:101C2000A96437340020938584BF130504C9EF40AD
:101C3000407B09CD938584BF130504C9EF40406AFA
:101C4000938584BF130504C9EF40A0796FE08FD05E
:101C5000EFE20FCEAA8537350020130505C9EF4006
:101C6000B0226FE02FCFEFE2AFCC2E86AA853735BA
:101C70000020130505C9EF40D0316FE0AFCDEFE292
:101C80002FCB41112AC62EC4053FFD572A84630677
:101C9000F50293078005B307F502B7350020A24689
:101CA00032469385858137350020130505C9BE95D9
:101CB000EF40F058635305002A84228541016FE00C
:101CC0006FC9EFE2EFC61304800533058502373490
:101CD0000020130484812A9437350020A28513053F
:101CE00005C9EF40B05A232A04046FE0AFC6EFE203
:101CF0002FC4930780053305F502B2862E86B735CB
:101D0000002093858581AA9537350020130505C9E4
:101D1000EF40905B6FE00FC4EFE28FC19307800547
:101D20003305F502B2862E86B7350020938585816E
:101D3000AA9537350020130505C9EF4010616FE003
:101D40006FC1EFE2EFBE930780053305F502B2865F
:101D50002E86B735002093858581AA9537350020DA
:101D6000130505C9EF40F0626FE0CFBEEFE24FBC54
:101D7000930780053305F5022E86B735002093853D
:101D80008581AA9537350020130505C9EF40F06419
:101D90006FE04FBCEFE2CFB9AA85373500201305BD
:101DA00005C9EF4050786FE0EFBAEFE26FB841112C
:101DB0002AC6EFF09FE3FD572A846305F5029307D7
:101DC0008003B307F502B725002032469385855E70
:101DD00037350020130505C9BE95EF50E009635360
:101DE00005002A84228541016FE0CFB6EFE24FB4AF
:101DF0001304800333058502372400201304845E16
:101E00002A9437350020A285130505C9EF50A0128A
:101E1000232A04026FE00FB4EFE28FB19305800331
:101E20003305B502B72500209385855E373600203F
:101E3000130686B8AA9537350020130505C9EF505B
:101E400020116FE02FB1EFE2AFAE4111914737148F
:101E500001403EC68D473EC44C00FD57130504802B
:101E60007C82EF503029F1778D074C00130504C0B8
:101E70007C82EF50302841016FE0CFAD8546B396AC
:101E8000B600C2069377F600418AC18219C293E771
:101E900037001307F00F6374D7025041E1158A052C
:101EA0003D473317B7001347F7FFB395B700718F5E
:101EB0009307F00FD98D63F6D7004CC18280104193
:101EC000F9BF0CC18280EFE2AFA62E86AA85371536
:101ED0000140130505805D376FE0CFA7BD4763F86C
:101EE000A702C54763E0A70241151375F50FEFE29E
:101EF0002FA42E86AA8537150140130505C0BD3FC6
:101F00006FE04FA5CD4763E4A7007115F9BF82804C
:101F1000EFE20FA2BD4763E5A70075376FE08FA31F
:101F2000753FEDBFBD472A8763EDA700B717014096
:101F300083A6878085473395A700758D3335A0002C
:101F40008280C54763EEA700B7170140938707C09B
:101F50009C47130705FF05453315E5007D8DF9BF47
:101F6000CD470145E3EEE7FCB7170140938707C073
:101F70009C477117CDB7BD4763EAA70085473395E6
:101F8000A700B717014023A8A7808280C54763EB4D
:101F9000A700411585473395A700B717014023A82F
:101FA000A7C08280CD47E3EEA7FE7115E5B7BD4718
:101FB00063EAA70085473395A700B717014023AA16
:101FC000A7808280C54763EBA700411585473395FD
:101FD000A700B717014023AAA7C08280CD47E3EE30
:101FE000A7FE7115E5B7FD577D156313F5008280D7
:101FF0000100DDBFEFE22F9241118544B399A400A7
:10200000371401402EC63285232834813289E13FBE
:10201000B2454A8513040480B394B40004C8E13780
:102020004A85232A3401C1374A8544C86D3F41019E
:102030006FE0AF91EFE24F8D85443399A4004111D9
:10204000B68AB394B4009D49854B371A01407D5B35
:10205000B3973B01F18F13070A80ADC323282701F3
:10206000568532C6EFF03FF8568523289A80EFF068
:102070009FF75685232A9A80EFF0FFF6FD19130487
:102080000A803246E39669FD568523282A81EFF0BF
:102090009FF5568523289A80EFF0FFF483298A80E4
:1020A0005685232A9A80EFF01FF433F5290123285F
:1020B0002A811335150041016FE08F88232A2701FB
:1020C00045B7EFE26F848549339BA9004111AA8B84
:1020D000368A3A8923000600B399B9009D4AB71C95
:1020E00001407D5C32C64A8523A86C81EFF0BFEFCA
:1020F0004A8523A83C81EFF01FEF4A8583A48C809A
:1021000023AA3C81EFF03FEE3246B3749B00B33418
:1021100090001C22B3945401FD1ADD8C04A2138498
:102120000C80E3918AFD4A8523A86C81EFF0BFEB18
:10213000331A7A014A8523AA4C81EFF0DFEA4A85F7
:1021400023A83C81EFF03FEA4A8523AA3C81EFF0C7
:102150009FE923A84C8141016FD09FFEEFD25FFD24
:102160008544B395B4003714014041112328B4804D
:102170002A89328532C6EFF01FE73246B394240134
:1021800023289480328513040480EFF0DFE54101B9
:102190006FD05FFCEFD23FF8B284368636842A894E
:1021A000AE89EFF03FE513961400A286CE85137634
:1021B000E60F4A85EFF01FE8AA8422864A85CE857D
:1021C000EFF0DFF926856FD05FF8EFD2DFF4411131
:1021D000328A428636843AC6C2842A89AE89BE8A49
:1021E000EFF05FE15286A686CE854A85EFF09FE448
:1021F0003247330AE400631C440163870A002686E1
:10220000CE854A85EFF09FF541016FD01FF4102075
:10221000A686CE854A85EFF0FFE10504E9BFEFD23F
:10222000BFEE328442863A8AC2842A89AE89368BCE
:10223000BE8AEFF03FDC13661400A686CE854A8581
:10224000EFF05FDF0144930BFAFF631B44016387E8
:102250000A002686CE854A85EFF05FF06FD05FEEEC
:10226000B336740133068B002687CE854A85EFF09E
:102270005FE50504D9BFEFD23FE94254328BB68403
:1022800022863A8A2A89AE893E8CC28AC68BEFF0B2
:102290007FD6A2865A86CE854A85EFF0BFD9269A88
:1022A000639C44032286CE854A85EFF0BFD4A28684
:1022B00013661B00CE854A85EFF0DFD78144138A71
:1022C000FAFF6393540363870B002286CE854A8509
:1022D000EFF0DFE86FD0DFE69020A286CE854A855A
:1022E000EFF05FD585046DBFB3B6440133069C00A3
:1022F0002287CE854A85EFF0DFDC8504D9B7B71792
:1023000001409387078088CB91CDE1470100FD17FD
:10231000F5FFB717014023AAA780C9470100FD17A1
:10232000F5FF8280AD470100FD17F5FFB7170140AB
:1023300023AAA780FD470100FD17F5FF8280EFD299
:102340003FDF2E8493F50508AA84EFF05FFB9375B9
:1023500004042685EFF0BFFA937504022685EFF09A
:102360001FFA937504012685EFF07FF993758400B9
:102370002685EFF0DFF8937544002685EFF03FF8EF
:10238000937524002685EFF09FF79375140026853A
:10239000EFF0FFF66FD01FDCEFD2FFD74111AA8418
:1023A0002E892E84B307244163E5C70041016FD015
:1023B000DFD90C20034A1400268532C68349240045
:1023C000EFF0FFF7D2852685EFF07FF7CE852685E3
:1023D000EFF0FFF61305800CEF5070410D0432460C
:1023E000D1B7EFD2FFD42A840145EF505040B71443
:1023F000014023AA84801305001EEF50503F1305AF
:10240000600423A8848093840480EF50503E844469
:102410001305A019EF50B03D337594001335150026
:102420006FD05FD3EFD2DFD037140140232AA480CE
:10243000AA841305C003EF50903B294523289480BC
:10244000EF50F03A130404806FD0DFD0EFD25FCEAC
:1024500037140140232AA480AA841945EF5030394B
:102460001305000423289480EF507038130404806F
:102470006FD05FCEEFD2DFCBB71401402A8423AAFE
:10248000A4801945EF50B036254523A88480938455
:102490000480EF50D035844413057003EF5030357D
:1024A000337594003335A0006FD0DFCAEFD25FC818
:1024B00001119375F50F2A84014502C802CA02CCA6
:1024C00002CE02C402C6EF5000528547B394870083
:1024D000414708083ECE3ACC26C802CAEF50602ACF
:1024E0002685EF508032914763E1870293076401AC
:1024F0005C848547DC8489475C85280085473EC627
:10250000EF50C05605616FD0FFC425479307700296
:10251000E37087FE93078003E1BFEFD27FC14111D3
:1025200005443314A400C1470A853EC422C002C238
:1025300002C6EF5000252285EF50202D41016FD0BB
:102540007FC1EFD2FFBE0111FD5702C268007C823D
:1025500002C023140100EF50A0583717024058431F
:10256000D2472183118B11C3860737470F0013070A
:102570000724B3D7E702371400408A851305048087
:10258000231301002311010023040100FD177C80A7
:10259000EF508066130504808545EF50F00E13055B
:1025A00004808145EF50700BFD4513050480EF500A
:1025B000101405616FD01FBAEFD29FB737140040D7
:1025C000130504808145EF50501213050480FD452A
:1025D000EF50F011854513050480EF5010086FD0BF
:1025E0007FB7EFD2FFB437150040130505804231A5
:1025F0008145EF5090064204418022856FD09FB5FF
:10260000EFD27FB12A8995C1AE898544D145EFF0DB
:102610009F8B37140140B3942401232A94804E8564
:10262000EF50F01C1304048004C891454A85EFF074
:102630009F894A85EFF09FE7EFF01FF86FD0FFB05A
:102640009307800873B007800F10000023A801844F
:1026500023A6018473A007808280EFD27FADEFF0C4
:10266000DFEBEFF01FF86FD0FFAEEFD2DFAA9307DA
:10267000800873B007800F10000003A4018573A0C9
:10268000078003A9C184637325012A894A85EFF075
:10269000EFAA8567938787BB3E9433042441337444
:1026A000F402373A00208149BE84130A0AD1631428
:1026B00039016FD09FA9B3878900B3F797028509C5
:1026C0008607D2978A23EFF06FA7D5B7EFD2BFA4C2
:1026D00093991600AA84AE8A3289368A3284B299D6
:1026E000631A34010144631C440181452685F528A1
:1026F0006FD0BFA5EFF0AF980AA00904D5B79377C4
:102700001400814591E3D6852685C52093171400D2
:10271000CA978A230504EF50900DF1B7EFD25FA15D
:1027200001119307F00F7C844C00B9472A847C8206
:1027300002C802CA02CC02CE2313010023150100F5
:1027400023160100EF50404BC167938707060C0822
:1027500022853EC8231B0100231C0100EF50E04FDF
:1027600081452285EF50E0730C082285EF5080559B
:1027700081452285EF50C0730C082285EF50E05D43
:1027800081452285EF5020740C082285EF50206689
:1027900081452285EF50007485452285EF50C06E3B
:1027A000B7370140938707C06316F400854522853B
:1027B000EF50206C85452285EF50206A05616FD06F
:1027C0007F99EFD2FF9637350140130505C0EFF032
:1027D000FFF437050040EFF07FF4370500401305A4
:1027E0000540EFF0BFF36FD0FF9609E5B707004053
:1027F000CEBB828085476316F500B70700408EBFC9
:10280000828089476316F500B7070040CEBF8280FB
:102810008D476317F500B70700402390B704828007
:1028200099476317F500B7070040239AB7428280A3
:102830009D476317F500B7070040239CB74282808D
:10284000C1476317F500B7070040239EB742828057
:10285000C5476317F500B70700402390B74482804F
:10286000A1476317F500B7370140239AB7C28280AA
:10287000A5476317F500B7370140239CB7C2828094
:10288000A9476317F500B7370140239EB7C282807E
:10289000AD476316F500B73701402390B7C4828077
:1028A000FD577D156313F50082800100DDBFEFD277
:1028B000BF850544B319B400B31BC4003314A4008E
:1028C0003E8A937417004204B71701400583368986
:1028D00041809387078025CF80CB854A5285EFF0D2
:1028E0003FFCA14CBDEC416B7D1BB3F96901371D69
:1028F0000140054C9357790013070D80A1CF232881
:10290000370106091379F90F93070D8063878A054C
:1029100080CB5285EFF0DFF813070D801C4786044B
:10292000B3F7FB00B3F76701B337F000DD8C93F426
:10293000F40F63860A0200CBFD1C528593FCFC0F4A
:10294000EFF01FF6E3980CFA26856FD06FFFC0CB2F
:10295000814A69B7232A37016DB7C0CB5DBF40CB31
:10296000E1BF416B7D1B8144054C371D0140B3F92C
:10297000690193070D80638A8A0580CB5285EFF049
:102980003FF29357790013070D80B1C32328370115
:1029900006091379F90F93070D80638D0A0280CB26
:1029A0005285EFF0FFEF83278D808604FD1CB3F77F
:1029B000FB00B3F76701B337F000DD8C93FCFC0F2D
:1029C00093F4F40FE3970CFA41B7C0CB45BF232A29
:1029D00037017DBFC0CBE9B7EFD28FF541112E840F
:1029E000C14532C6EFF02FCE2285C145EFF0AFCD05
:1029F000324691453285EFF00FCD41016FD08FF512
:102A0000EFD26FF14111AA842E89B289368ABA8A2F
:102A10003E8B330418016315880041016FD0EFF23B
:102A2000DA875287D6864E86CA85268542C6EFF05B
:102A30001FE832482300A8000508F1BFEFD2AFED30
:102A40002A89AE89328AB68A3A8B3E84B3840701DA
:102A5000631494006FD06FEF1420DA875687528684
:102A6000CE854A85EFF0BFE40504DDB7EFD2AFEACB
:102A70004111AA842E89B289368ABA8A3E8B0144D2
:102A80006315140141016FD04FECB3068B00942203
:102A9000D68752874E86CA85268542C646C4EFF041
:102AA0001FE13248A248B307880088A30504C9BFC4
:102AB0009D47AA8563FAA700C1476300F506C5478D
:102AC0000145639EF504A545EFD28FE6372401400A
:102AD000130404405C40370700058546D98F5CC06D
:102AE00005462285EF40D038C1475CDCA1477CC455
:102AF00089452285EF40504665DDB727014003A593
:102B0000C74403A74740B70600FBFD16758F420573
:102B1000418123A2E7406FD0EFE3A14575B78280E2
:102B20001841FD576307F7004841050513351500A7
:102B300082800545828010419C41630EF600584119
:102B4000D4410145630AD7006308D6003385E740C6
:102B50003335A00082800145828093176501D987B3
:102B6000850793B717003E951375F53F11058280D1
:102B700098411C41B98F1CC1D8415C41B98F5CC1DF
:102B800098451C45B98F1CC582801C4181EB58417A
:102B900001E71C4593B717003E8582808147EDBF52
:102BA0001C41D18393F7077091CBEFD26FD81105F9
:102BB000EFF07FF8133515006FD0CFD90145828033
:102BC00011E182806304B5000841DDBF05458280C4
:102BD0007C557849BE95998DB3F5F5023C4D63FD62
:102BE000F500785193D735009D893E978547B39579
:102BF000B7001C23DD8D0CA301458280939735001F
:102C00002A8663C4070437071070130707C01442ED
:102C1000B3C7B6007D8F15C793976601D9877D57D7
:102C20006381E70237071000B7070080130707C06A
:102C300093C707C0758F3705F04FED8F498F639BA2
:102C4000E7002320060005458280370700801347F0
:102C500007C075BF93D7450113F8077013070040ED
:102C600001456310E80213D7A600A9811377F73F47
:102C700093F5F53F6367B700E207E187AA07B697C8
:102C80001CC28280EFD2CFCA2A842E85EFF0FFECDF
:102C90001C403E9508C001456FD0CFCB1C41850735
:102CA0001CC101458280EFD2AFC53A8C3E84338788
:102CB00017013C55DC4F63EDE7007C552A8AAE8C4A
:102CC000B28BB68A428D4689638B07166369FC1600
:102CD0001305C0FA9DA263890C0483A70C00CA8463
:102CE0006395870583A44C0083A98C00A699637D16
:102CF000340363689402B389894063733901CA89D4
:102D000083A5CC00B30494404E86A6956A85EF5007
:102D1000D01F4E9D4E9433093941E31E09FA0145F7
:102D200029AA818C63739900CA8483A70B00639BD3
:102D3000870383A54B0083A98B00AE99637434038A
:102D4000636EB400B389894063F33401A68983A715
:102D5000CB00B305B4404E86BE954DBF818D63F365
:102D60009500AE84636C590503258A065C49337768
:102D7000F40229E76364F904B3F9F4025C41EA86DA
:102D80002286E285B38D34416E8782976351A0021B
:102D9000B7A600002966938646ED1306C6C49305C0
:102DA000000637A50000130505EEEF50900C51E525
:102DB000B38499406E9D6E94269985B78327CA0681
:102DC00089CF636CFC00B7A600002966938686EF66
:102DD0001306C6C49305C006E9B703258A0623A0D7
:102DE0008B015C494C4D3307FB00B376F40222970C
:102DF000B377F7023306D44023A2CB001D8F63F3D1
:102E0000E5002E871C55818E369763F3E7003E87D9
:102E10005C4183A6CB0023A4EB00E2858297635C30
:102E2000A000B7A600002966938646ED1306C6C427
:102E300093057007BDB7E30205EE6FD02FB0138B7B
:102E4000FAFFE1BDEFD2CFAB3E8D9C490111B28CB0
:102E50002A891305C5032E8AB68A3AC4C28BC44593
:102E60003ECE93D9AC00EFF0BFD393F9F93F63099D
:102E70000514638709148327C90313D7AA0013779E
:102E8000F73FA98393F7F73F6396E700795505610C
:102E90006FD0CFAA014463F4E700130400C0B70762
:102EA000008093C7F7FF370C10003EC6130C0CC010
:102EB000B70D1040724B5A85EFF03FCA930745009B
:102EC000E3E6F4FC03270A00898C91481308C1014A
:102ED000A68791464A8681454A85EFF0DFDC63513B
:102EE000A002B7A600002966938646ED130606C920
:102EF0009305702E37A50000130505EEEF5060779F
:102F000059F57245EF50803BB2473345AB007D8D9C
:102F10002ACE6380090493574B0113F70770930679
:102F200000406318D70233878A401356A700935690
:102F3000AB001376F63F93F6F63F636CD60033771B
:102F400087013367B701E30367F5E207E187AA0763
:102F50003E94B3878A40B3C76701B3F79701B9FBC3
:102F600093176B01D9877D57E382E7F29379FB3F93
:102F700063F33B01DE89A24703270A00CE8891074D
:102F80006A88A697CE864A8681454A85EFF0BFD1EA
:102F9000635CA000B7A600002966938646ED130681
:102FA00006C993054030B9B7E31305EE33863B41BC
:102FB000814533053D01EFD0AF9A33056401C1BDB2
:102FC0000144F1BDEFD2CF96BA8713F8F63F01471F
:102FD000EFF05FE76FD00F98EFD28F954111B706F2
:102FE000F07F32845800B1063706F07FEFF09FFD86
:102FF00063580500F9576309F50041016FD08F95BB
:103000004C002285EFF0DFB60145C5BFEFD24F92ED
:10301000328710415C431843345641112A84D44E00
:10302000A14813088100930506013285EFF0BFC760
:1030300001E9930544002800EFF0FFAF3335A0000D
:1030400041016FD02F91EFD2AF8E3C552A84DC5BCB
:1030500081E74845EF5080683C549C5F81E7484CCD
:10306000EF50C0673C54DC5F81E76850EF50006769
:1030700001456FD02F8EEFD20F8A9307F03F411199
:10308000368413878600631FF600B7A5000093857A
:1030900045FC3A85EF60200A89471CA001454101A3
:1030A0006FD0AF8A34599314A6003706107885067E
:1030B000C58E130606C02A89AE89EFF0BFF0E34043
:1030C00005FEB70600205181A1063706107008A042
:1030D0003800C58E130606C0CE854A85EFF09FEEF8
:1030E000E34F05FA93574501130720206395E70046
:1030F000B2475CC065B713071020E391E7FA137578
:10310000F53F48C061BFEFD2AF827C5563E1F50265
:10311000B7A600002966938686E3130606C89305C2
:10312000501137A50000130505EEEF5080542855C7
:103130005C458297635CA000B7A600002966938671
:1031400046ED130606C893057011E1BF6FD08F805E
:10315000EFC21FFE1C4113F7F73F1DE363D30504C5
:10316000B7A60000296685659386863C130606D6B9
:103170009385F53137A50000130505EEEF50604F3C
:103180009306E01F63FFE600635DB000B7A6000092
:103190002966856593860640130606D69385053213
:1031A000D1BFBE9593F7F53FB337F0008605FE0714
:1031B0008581DD8D0CC101456FC0DFF9EFC25FF77E
:1031C0002E84105548449305F00FEFC07FF9FD574A
:1031D0001CC06FC03FF8EFC2BFF59C512CD52A84AC
:1031E0007CD5DC418DE3B7A6000029668565938612
:1031F0008643130686D49385B50737A500001305CB
:1032000005EEEF5000479C45AE8481EFB7A6000065
:103210002966856593868645130686D49385D507EA
:10322000E9BFDC4581EFB7A6000029668565938676
:103230008647130686D49385E507C1B79C4981EF7D
:10324000B7A600002966856593868649130686D44D
:103250009385F5075DB7D44981EEB7A600002966CE
:1032600085659386864B130686D49385450871B78A
:10327000984D01EFB7A60000296685659386464DF7
:10328000130686D4938555088DBF03A98502631D57
:103290000900B7A60000296685659386064F1306C8
:1032A00086D49385650891BFB377D90281CFB7A63D
:1032B0000000296685659386C650130686D49385DB
:1032C000A50825BFB377E90281CFB7A6000029661C
:1032D00085659386C653130686D49385B50831BF9A
:1032E000DC4D33F6270301CEB7A6000029668565BD
:1032F0009386C656130686D49385C508FDBD13066E
:10330000F007636DF600B7A6000029668565938611
:10331000065A130686D49385F508C5B5D05101EE3B
:10332000B7A60000296685659386C65B130686D41A
:103330009385B509D9B5905921C293D51700637DFE
:10334000B600B7A60000296685659386865D1306DC
:1033500086D49385250A55B5FD55630FB60063FDE8
:10336000C700B7A60000296685659386C662130666
:1033700086D49385450A51B5F04439CAB376D6024E
:1033800081CEB7A60000296685659386C6681306B8
:1033900086D49385950A95B53377E60201CFB7A613
:1033A0000000296685659386C66D130686D49385CD
:1033B000B50AA1B5B3F7C70281CFB7A60000296649
:1033C00085659386C672130686D49385D50A35B56E
:1033D000DC5885CF5CC49C5CB9C35CCC2685A285D7
:1033E000EFF0DFDD285493050401EFF03FDD2454B6
:1033F000C85405EDB7A60000296685659386C67793
:10340000130686D49385B50CCDBB4A85EF50602C4E
:1034100048C471F12285EFF01FC35155A9AA4A850E
:10342000EF50202B48CC5DF9F5B7DC5C95C37CD020
:10343000BC401307F00F6372F702B7A600002966BD
:1034400085659386C679130686D49385750D75B305
:10345000EF50202868D069FD75BF85C33CD8FC407B
:1034600063DF0700B7A60000296685659386867B23
:10347000130686D49385D50D49B338D8CDB795C3F7
:103480007CD8BC441307E03F6372F702B7A6000084
:10349000296685659386C67D130686D49385350E89
:1034A000A9BBB707008093C7F7FFD9BF8DC33CDC2A
:1034B000F444D84C637FD700B7A600002966856521
:1034C0009386867F130686D49385950E3DB338DCAC
:1034D000C5B7BC487D566380C7069054637DF6002F
:1034E000B7B600002966856593868682130686D462
:1034F0009385C50E19B3305C637DF600B7B6000046
:103500002966856593860688130686D49385E50E1D
:10351000EDB11356370099C213D63600637DF6001D
:10352000B7B60000296685659386068D130686D496
:103530009385250FD9B17CDC7D566390C704232E7B
:103540000406FD571CD05CD0232404022326040269
:10355000232E04022320040423220404232804022B
:10356000232A0402232C0402232404042326040413
:103570002328040401456FC0FFBDE1F79C54305C73
:103580000D8399C213D736006373F600B287637355
:10359000F700BA877CDC75B7EFC2FFB70329C50116
:1035A00084410145611963EB240333D52403AE89BB
:1035B0007D15EF40904C130425000A0433848440A9
:1035C00033542403330989022285EF40104B0A0546
:1035D000898C2285B384244123A099006FC0FFB653
:1035E000EFC29FB2AA89285541117D172E8B4C003E
:1035F000B28BB68C3E8AC28A3AC2EFF0FFF9AA8437
:10360000094CE6855685029A29E5A1C413F91400F0
:1036100033042C41931824001308810081476687E6
:10362000C6865E86DA854E85EFF0EFE71DE17D14F4
:10363000634A85000A041C083E947919832C84FF90
:10364000CA94C1B7A2455685029AAA870545EDD30B
:103650003E8541016FC0DFAEEFC21FAB011132C624
:103660003AC489EA7D5798C32320080001450561C3
:103670006FC01FAD2A892855FD16AE8A6C08C28915
:103680003E8A36CEEFF05FF1AA84032589062C002E
:10369000930B0002EFF05FF02A8B054C3247636812
:1036A0009B00A2472320EA0023A0F900C1B733857D
:1036B00064413AC2EF40F02E2A8433848B40268541
:1036C000EF4010357D141247637385002A849148BA
:1036D0001308C100931724009146568681454A85F8
:1036E000EFF06FDC49F533148C00818C45BFEFC2DD
:1036F000BFA13709F8FFAA89AE8A328C3A8BBE8403
:10370000428DC68C795A938BF6FF130909C06394D6
:103710000C00014549A003270C008327CC00631C43
:10372000470303274C0003248C003A9463F584027A
:1037300063E3E402058C63F38C0066843387E44022
:103740006A852286B385E700EF40307C229DA294F3
:10375000B38C8C406DBF03A6890623204C01544ACC
:1037600010563388DB0033F7D4022698B376D8029C
:103770003387E4402322EC003308D840637306010A
:10378000328823240C01DA864A86D6854E85EFF0EE
:103790006FEBE35E05F66FC0BF9AEFC27F963E8B7C
:1037A000B737000071719387C7BF3EC6835C010FB6
:1037B000B70710608314410F7E5C938707C02AC44B
:1037C000AE8B36843A8AC289468902D802DA814AA7
:1037D000014D3EC8228532CAEFF02FB8524683A76A
:1037E000CB00B30DC50063F0FD08224603A70B0014
:1037F00091481308C102EE87914681453285EFF06A
:103800008FCA631E05243255EF40502BB707008046
:10381000298C5D8C83A70B0022D614183ED8938781
:103820004D003EDA32563707F07FB347A601B3F7B3
:103830003701F98FCDEB93D7A90093F7F73F638159
:103840000716894763FC5703B7A60000296637A50A
:10385000000093860615130646CA9305203C1305FF
:1038600005EEEF401061635A601F83270A0083262C
:103870004A007D1B3ED6210AB28D6DB79307C00367
:103880003387FA021C19EE55850ABA9723ACD7FA8A
:10389000C25623AE37F923A0A7FB23AED7FAD256E0
:1038A000239227FB239397FB239497FA23A887FB64
:1038B00023A477F923A6B7F923A887F823AA47F901
:1038C00023AC67F923A6B7FA23AAC7FA23A0D7FC2B
:1038D000130CC7023C183E9CB247014D8149BEDD26
:1038E0008144814C01496E86F5B513062010639220
:1038F000C7040147B25713F6F73FE376C7FEA98323
:103900008C4693F7F73FA697AA07CD8F8C22D0421B
:10391000628593850530D205DD8DEE573ACC36CAE7
:103920008297634E0512D246B10655FD62470507E0
:10393000D1B7EE579395A4003686BA9562858297E3
:10394000634F05104DD1638C0A10FD1A9307C00315
:10395000B387FA021819BA9703A7C7FA83AB87F897
:1039600083ADC7F8BADD03A747FB03A407F903AA91
:1039700047F903AB87F983A9C7F903AD07FA03D960
:1039800047FA83DC67FA839487FA03AC07FB3AD6DD
:1039900083A687FB03A7C7FB83A707FC3AD83EDAB9
:1039A00093D7A90093F7F73F325789CB9357A700D6
:1039B00093F7F73FE3E927F3E3F797F393574701CB
:1039C00093F7F77F8DD313061010E390C7F23ACE2A
:1039D000EE57324736CCE388E7F09307C003B3874E
:1039E000FA0218191306C0038145850ABA97138590
:1039F00087F83ECAEFC0CFF6D2476E57E246239211
:103A000027FB23A6E7FA7247239497FA23A477F9B2
:103A10001379F73F29831377F73F33072741BA9488
:103A2000C20423A6B7F923A887F823AA47F923AC31
:103A300067F923AE37F923A0A7FB239397FB23A8AD
:103A400087FB930C1900C184B68B370D0020C24947
:103A5000014B014A7D54814D79B50145EDB54D616C
:103A60006FC0CFEDEFC24FEA4111AA892E8AB28A08
:103A7000368BBA8B3E8C42890144A14C636424018D
:103A8000014581A0B304894063F39C00A144A6884A
:103A900013088100B30774015A87B3868A4052869F
:103AA00081454E85EFF02FA009ED2686B3058C00E9
:103AB0002800EF405043AA8701C9054563C30700AA
:103AC000094541016FC0CFE726944DBFEFC24FE6D5
:103AD000AA8403A8840013F4F53F0841637304012A
:103AE000228858421442DC404286AA85EFF09FF7B4
:103AF00001E99C4463868700054563E38700094527
:103B00006FC04FE5EFC22FE12E848C4185474111F4
:103B10001387250063F2E70A7C55368AB2892A8921
:103B200063E1F502B7A600002966938606E3130653
:103B300086C59305400B37A50000130505EEEF4041
:103B4000503328550328840054441C4D50403E985F
:103B50007D18B377F8023308F8401C45428742C607
:103B60008297AA843248635CA000B7A60000296649
:103B7000938646ED130686C59305800B6DBF01E95C
:103B8000631B0A0003258906A285EFF02FE3268533
:103B900041016FC08FDBFD5723A0F90058405C4402
:103BA00014404286CE854A85EFF0DFEB634805007E
:103BB00071D99304C0FAE1BF8144D1BFAA84C1BFC7
:103BC000EFC28FD43E89F9572A8AAE84B28A368BE7
:103BD0003A8CC28CC6896304F7027C556361F70294
:103BE000B7A600002966938646E5130646C79305E7
:103BF000900E37A50000130505EEEF409027032730
:103C00008A06B3073901FD5B584F637DF706B7A6F7
:103C1000000029669386C6E8130646C79305A00EE2
:103C2000C9BF9C406315FC06C8406362A906032710
:103C30008A0600572A94637C89043304244163F381
:103C400089004E84DC443305A940E6853E952286F2
:103C5000EF40B02BDC4098442299B307F940A29C76
:103C6000B389894063F3E700BA8703278A069CC4B7
:103C700018576399E700DA865686A6855285EFF0D5
:103C80007FE801E5E39F09F801456FC06FCB638CC6
:103C90007701B7A600002966938606EB130646C790
:103CA00093057010B9B783278A0623A084019C4F1F
:103CB00023A40400B377F902B307F940DCC0D9B7F5
:103CC000EFC26FC5DC419841B68832882E84B28934
:103CD000B6842A86814693050501EFF07FEE2A8996
:103CE00011E948442686CE85EF300030544048C460
:103CF000A69654C04A856FC04FC5EFC2EFC04111B0
:103D00002A8A32852E84B28B368BEFE01FE55C4029
:103D100058481159AA976362F704AA840844939AF1
:103D20001B0093DA1A0033C5AA00EF4020592AC6B7
:103D300091467000A2855285EFF09FF82A8911ED17
:103D4000F114814963C80B04A6865A86A285528560
:103D5000EFF01FF739E1232454014A8541016FC078
:103D60002FBE83274B0003270B0085481308B100A3
:103D7000CE97B3863441528681455285EFE0BFF23B
:103D800009ED85461306B100A2855285EFF05FF379
:103D900009E58509E3E799FC7DBF2A897DBFEFC26C
:103DA0002FB9B2862E864C410841EFF01FF56FC047
:103DB0006FBAEFC2EFB7FD571CC281462A84EFF0FD
:103DC0007FD40DE528541C4982976351A002B7A601
:103DD0000000296637A50000938646ED130686C6C7
:103DE0009305E00D130505EEEF40B0086FC08FB6E8
:103DF000EFC28FB141112A8AAE8A328BB68B3A8CD0
:103E00003E89C2890144A14C6366240101454101F8
:103E10006FC00FB3B304894063F39C00A144A6882C
:103E200013088100B30784015E87B3068B40568672
:103E300081455285EFE03FE779F903A50900268621
:103E40002C00EF30601A23A0A900269475BFEFC2A2
:103E5000AFAB3455DC414111984ED44ED107AA8402
:103E60002E8463F3F600B6879309F7FFCE97B3F974
:103E7000E702370B1000814B814A130B0BC0938C68
:103E80000401B3893741138CC9FE5C4063E83703F2
:103E900018481440FD573EC413088100B387EA4018
:103EA00013864A00A6852685EFF09FF4631D051250
:103EB000A247638D77131305C0FA35A23389F94001
:103EC00071191307E03F637427011309E03F91075D
:103ED0003E996375390163732C016289FD57DC8358
:103EE00063643907BC54944FDC4F958F63EE27050C
:103EF0001840854813087100CA87268681452685A3
:103F0000EFE07FDA09C59307C0FA631EF50CBC54D5
:103F100014407D579C4F1308C1003AC63E864A871D
:103F2000A68526853EC4EFF0BFEC09C59307C0FA0D
:103F3000631BF50A370600603400130686C0A285AD
:103F40002685EFF09FDB45E1034A71005C400844A1
:103F5000134A0A08135A7A00130A0A50B307F940A1
:103F6000F117520A336AFA00336A6A013345AA002C
:103F7000EF40C0342AC4484411462C00EF30C0063C
:103F80005C40184048C42AC6A148130881008146F5
:103F90002686E6852685EFF0BFC231E563970A00E5
:103FA000832A4400832BC400910A9C833707008036
:103FB0002322240193C7F7FFE207F98F33CA470191
:103FC000FD57232444015CC463783901BC54D848AC
:103FD0009C57BA97E36BF9EA2686E6852685EFF0CB
:103FE0005FDDE30405EA41016FC08F9514401308BB
:103FF0008100914756871146A6852685EFF05FDF41
:104000007DF1A247EDD345BDEFC28F8F032EC506CC
:104010005D71832E0600630A0E00130BC0FA63F76E
:10402000CE0F032F46006373CF0F46CE42CC3EC463
:104030003ACA36C8B2892E849148130801038147D1
:10404000768791462A868145AA8402D802DAEFE073
:104050009FC52A8B09C59307C0FA6319F50A03A700
:1040600049009148130841038147914626868145BE
:104070002685EFE05FC32A8B51CD9307C0FA631703
:10408000F5080149931729003387F90018431349AC
:1040900019000A0918C0CA9903A709007D5B2326E5
:1040A000040058C09808BA9783A707FEFD5B370C39
:1040B00000801CC489473EC0B7071000938707C023
:1040C0003EC61146930584007D555EDC5EDEEF2022
:1040D000B0712AD2DA8C02C2814D014A7D5D814ADB
:1040E0006A85EFE09FA7B4541840AA9AD44E91482D
:1040F00013088102D687268681452685EFE0BFBA60
:104100000DC19307C0FA6302F5222A8B5A856161BB
:104110006FC0CF825259C2573309F9403329200169
:1041200095B7125511462C10EF20106C2AD222554B
:10413000EF40C018B349AD004ED463DD0902935778
:104140004D0193F70778938707B093B7170058444A
:10415000631F071C9C08CA971840544083A707FE9A
:10416000024614C01CC458C085476306F62685471E
:104170003EC081BF4E85EFE05F9EBC54D04FB30779
:1041800055016364F61A13D749011377077893072B
:1041900000501440138D4A006312F7063687914889
:1041A000B2861308C102EA87268681452685EFE09C
:1041B0009FAF21F9325792576319F716A257C85487
:1041C0001146D183FE074C10B3C9F900EF20D0612E
:1041D000C8D42255EFE07F98E257569548C41CCCCE
:1041E000F25723283401231A44015CCCA30BB401F9
:1041F0005ED2E687668B4E8DBE8CDDB59307C5FF1C
:10420000130841026A87A6852685EFF07FBEE31A70
:1042100005EEA25793D64701139606014182937586
:1042200006708DEDA98393F7F73F63E44701138A86
:104230001700A255D2474247AD8FF98F89EF1C4036
:104240007245B000BEC4E247EAC68297E34B05EA76
:10425000A25655E1B68CE687DA8C69BF1307004099
:104260006391E5043247E206E186369A33F7EC00C3
:104270003706F04F420A518F135A0A016395E7003F
:10428000B3EC8C017DB7E3867CFBA98313D7AC002C
:1042900093F7F73F1377F73FE36DF7F8AA06B69C5D
:1042A00049BF9307006018406391F50293FD160023
:1042B000B454A14813088103D44EEA872686814569
:1042C0002685EFE05F9E35D52DBD1376F67F9307EB
:1042D000F05FE310F6F6B454A14813080104D44E7D
:1042E000EA87268681452685EFE0FF9BE31B05E0F4
:1042F00085473EC23DBF37070080B3C7DC00134788
:1043000007C0F98F8DC38947E317F5F413D7AC00C5
:1043100093D7A6001377F73F93F7F73FE36DF7F2D4
:10432000B3EC86010DBFFD5C3DB781470DB5230B96
:10433000040095CFB0541C4EB377F7028DEB924733
:104340009DC7FD573ED614408647504E1308C10204
:10435000A6852685EFF0DFA909C59307C0FAE31605
:10436000F5DA96473257998F93B717007CA8A28544
:104370001385C403EFE0DF8219CDDC5C1357AB007B
:104380001377F73FA98393F7F73F631EF702B70749
:104390000080336BFB00A24799CB5A289357AB00A0
:1043A00093F7F73F6373F700BA8722471EA3E35FD3
:1043B0000BD45A281353AB009377F33F795BE3E7B1
:1043C000E7D4014BA1B3FD56E307DBFCE3F5E7FCC3
:1043D000130B0BC0C9B7B7B70000B7A5000037A5CE
:1043E0000000938747AA13067056938505EE1305C0
:1043F00085F8EF40303F130BC0FA09BBEFB25FD333
:104400008148014881477D57FD56EFF0FFBF6FB0EF
:104410007FD4EFB2FFCE1C51832C060001119CCD3E
:104420005C51DCCD03870C0055CBB7073000370754
:104430000020938A07C09307870036C432C22E84B7
:10444000AA8437AA000037AB0000938B85013EC0D9
:1044500013DC4A0109476318EC00668593054AFCA2
:10446000EF407051AA9C93054AFC6685EF40B04D21
:1044700005472A89631AE50483C60C001307E00286
:1044800093891C006382E608B3892C014E87854D11
:1044900093054AFC3A853AC6EF40F04D3247930502
:1044A0004AFC330DA7006A85EF40F0492A882DC1E8
:1044B0008547631AF50203460D009307E002631770
:1044C000F60433070D01E9B70947E31FE5FA09468A
:1044D00093050BFC6685EF4000215DF5A95A5685D2
:1044E00005616FB0BFC589476312F5022AC6094648
:1044F00093050BFC6A85EF40001F324801E9FD1D62
:10450000E3910DFC93092D00CE8C99B7850D55BF15
:1045100003870C0069D79247094723A097016313CB
:10452000EC0693D7AA0093F7F73F1307F03F638198
:10453000E7028246AA07370610705E87DD8E1306F3
:1045400006C0A2852685EFE0FFA7AA8AE34905F801
:10455000B74700001388C7ACA247930841014A87B8
:10456000B70600785E86A285268526CA66CC4ACE26
:10457000EFF09FA9AA8AE34405F659F57C38E9FBD8
:10458000F95AB1BFB15AA1BFEFB29FBA37A9000023
:10459000930549FC2A84EF40103BAA84930549FC0B
:1045A0002295EF40503D22952695030505001335D1
:1045B00015006FB03FBA184D9C41D4416315F70008
:1045C000504D6307D6026315D700544D6382D7025E
:1045D000D4459C456399D70098C1584D860723A4BC
:1045E0000500D8C1DCC59C45014585079CC5828076
:1045F000EFB21FB4B7B600000566B7A5000037B527
:104600000000938646AA13064617938505EE130508
:1046100085B7EF40301D1305C0FA6FB0BFB3EFB2DE
:104620009FAF01118547AE8AA9653284232C06000D
:104630005CCE2A8A4146938545B10808B70400201C
:104640003709F07FEF40600C93098401373B00008D
:10465000A1041309F93F4E85EFE08FCC19C17955BC
:1046600035A80C082285EFF01FF56349050283A7E2
:104670000A00930841001308CB003EC483A74A00F8
:104680002687CA863EC64E868147A285528552C27B
:10469000EFF09F9793072500F59BD5DF05616FB07D
:1046A000DFAAEFB25FA741118547AE89A9653284C1
:1046B000232C06005CCE2A894146938545B10A85A4
:1046C000EF40A004930484012685EFE06FC519C173
:1046D000795515A08A852285EFF0FFED634005022C
:1046E000CE852685EFE02FC519C52686A2854A8589
:1046F000EFF0DFD071D941016FB03FA51305C0FACB
:10470000DDBFEFB2FF9FDC5903A9C50263FE270D91
:104710003309F940AA8A2E84B28963F326013689C7
:10472000CA8D130A0404795B930BC403130C84032E
:10473000930C8400370D102063940D004A8515A852
:104740001C581397D7006358070003A78A06545CC8
:10475000584F639AE6029396B700585863CD060007
:10476000545410545E88E287D2855685EFE0DFEE20
:1047700011C56FB0BF9C232C640358DC1C5837074D
:104780000400D98F1CD883A78A06D44F5C5CB384FD
:10479000F64063F39D00EE8418581316B700635C6F
:1047A00006025A20338697002A073367A70163EF72
:1047B000C602A6884E885286E6855685EFE03FF30E
:1047C0004DF95C58A699B38D9D40A6975CD85C5C6A
:1047D000A6975CDC95B7185CA6884E885286814502
:1047E0005685EFE04FCCE9BF014561B71305C0FA2C
:1047F00049B7EFB27F913971AA842E89B289814578
:1048000071460810368BEFB0BF95A96585474146C4
:10481000938545B10808370A0020B70A10703EDEBC
:10482000210AEF30906E938A0AC02818EFE04FAF4C
:1048300009CD8054054AB70A1100416BB70B12002D
:10484000370C020045E00145BDA80C080810EFF048
:104850009FD66342050EE2554E8502992DE5F2552D
:104860004E8502992DE130180C102685EFF01FB906
:1048700039E90144930B2020130C0020F95C835785
:104880004103E374F4FA9316A4003800B3E646013A
:1048900056860C102685EFE0EFF26358050063148E
:1048A0009503050442044180D9BF5181631075030B
:1048B000324765DBA2464E88CA8726868145268513
:1048C000EFE01FD279DD21616FB09F87E30B0BFC16
:1048D000E31985FDA2454E85029975F5B2454E85D1
:1048E0000299CDB77C20638447010040A1BF1C58CA
:1048F000B3F7FA00638467031C58B3F7FB00E39631
:1049000087FF58587DD3145C4E88CA872686930546
:1049100004042685EFE0DFCC69D975B7585469DF08
:1049200014544E88CA872686930504042685EFE032
:104930003FCB79D149BF1305C0FA71B7EFB24FFF32
:10494000784D7C49232E05042A84BA977855B3F70D
:10495000E70238517CC93C55D05793173600637332
:10496000F700BA87685081453CCCEFB06FFFB73590
:10497000000085462286938505BD2285EFF07FE7FE
:1049800019C57C54232C0404232E04043CD06FB09E
:104990006FFCEFB2EFF941112A84384C744C63ED8F
:1049A000E6023C50C9E77C4837B70000B7A50000D5
:1049B000BE967C5437A50000130747AAB3F6F6024B
:1049C0001306002C938505EE130545E0EF4080614A
:1049D000115541016FB00FF8705093D7360013F5A1
:1049E0007600B2979C23B3D7A700858B9DEB7C48BC
:1049F000BE967C54B3F6F60294C1344C7C4C3850CD
:104A000085077D177CCC38D063FBD70013D73700E0
:104A1000329718239D8BB357F700858BE5F301453B
:104A20004DBF3C50850674CCFD173CD085BF228518
:104A30002EC6EFF0BFF0B2452DD161BFEFB24FEF00
:104A40002E8491052A89EFF0DFF4AA842DE1A28556
:104A50004A85EFF01FF4AA8439E9184023240400A2
:104A6000914813088400814791464A8681454A85CA
:104A7000EFE06FA309C59307C0FA631DF502832712
:104A80008906DC53635DF0001844850793E717003F
:104A90007D173E97B377F702B307F7401CC49147E1
:104AA0005CC4FD571CC8232A04001CCC5CCC2685A2
:104AB0006FB04FEAAA84E5BFEFB20FE541112A8437
:104AC000AE84138A0504938A8500130B05016C00DC
:104AD0002285EFF01FECAA8919E9B2452285EFE0A3
:104AE0008FE2AA8969C19307C0FA6302F50C4E856B
:104AF00041016FB0EFE49C58B38626411397B7008D
:104B0000635807043054DA2093071900504E2A07DF
:104B1000336777016366F60885481308B100CA87D2
:104B20005286D6852285EFE09FBC0DE1324785484D
:104B30001308B100CA8785462286DA852285EFF000
:104B40002F8815C19307C0FA6303F506AA8945B7F4
:104B5000985C85481308B100CA872286D2852285D1
:104B6000EFE06F94D9B70509D45CE366D9F83C54FB
:104B70004C4CE8449057EF3050391C48285493056A
:104B80000401BCC05C48FCC01C4CBCC4EFE00FE39B
:104B9000B247370702009CDC9C58D98F9CD881BF54
:104BA0001305C0FA65B70149B70B102075BFB246AF
:104BB00037B700000566B7A5000037A5000013074A
:104BC00047AA130606D0938505EE1305851FEF400F
:104BD0006041FD571CC8E5BDEFB20FD3BE893C55FF
:104BE000BA8B9845DC531D712A84AE84B28A368B09
:104BF000428A05076340F00698C50149014C3854C4
:104C0000FD57CC40BEC8BECA7C47AEC482C682CC6B
:104C1000BDC7E1172285BECEEFE0EFCE3DC19307C1
:104C2000C0FA6311F51AFD571CC86313091AD44062
:104C300037B700000566B7A5000037A500001307C9
:104C400047AA13064683938505EE1305851FEF409B
:104C50006039BDAA850793E71700B377F70298C5B7
:104C6000C9FF85474C10268502D23ED4EFD0BFEC59
:104C7000631D0514054959B70149054C49B75C4FF7
:104C800049BF930C8104914613868400E6852285F2
:104C9000EFF00F8349F57C103EC6B74700009387BD
:104CA000E7D93EC4B3073041C207C1873708104077
:104CB0003EC252C0CE88130808C0DA875687FD5618
:104CC0000146DE85228522D666D8EFE01FAD21F9A8
:104CD00093868401368536CEEFD09FE4F24619EDF7
:104CE000FC3837061000130686C093870760D2078A
:104CF0005D8EE6852285EFF04F8015F102DE82C0E1
:104D000082C2631C0C009305C4036818EFD05FE6F1
:104D1000930504036818EFD0BFE593058404681871
:104D2000EFD01FE5F2577018A68593F707C02285CC
:104D30003EDEEFE06FAA59E56818EFD01FE501ED00
:104D40003706008074181346C6C0E6852285EFE05A
:104D5000DFFAE31605ECE6852285EFF04F8FE310CE
:104D600005EC3C5436479C4FB377F7028DC3B7A68A
:104D700000002966856537A50000938686F2130634
:104D800086CB93852582130505EEEF30900E9C406F
:104D9000D440B3093A41DCC0C64794C0239A3401D9
:104DA000D8C49CC823240404232604042328040410
:104DB00063190C003146930504031305C403EF3057
:104DC000D014628525616FB0AFB7FD571CC8054987
:104DD00085474C18268502DA3EDCEFD0DFD50DE59D
:104DE000D44037B700000566B7A5000037A500001E
:104DF000130747AA1306A683938505EE130505F549
:104E0000EF40401E11557DBF938544002285EFF091
:104E10005FB8E30305E69157E316F5FAE30409FAF0
:104E20004A8C0149E9BBEFB20FAF79712E840C08AF
:104E3000AA8432C636C43AC2BE8A42C0EFF01FC04E
:104E40002A8939E57C3802481247A303F1021C4C39
:104E5000A24632463ED45C4C0C0826853ED6D68708
:104E6000EFF09FD7634A0502424AD2498547232C77
:104E70004401232E34017CB8938504022285EFD0AF
:104E80009FCB19E563960A0023A0440323A23403B1
:104E90004A8545616FB06FAB2A89DDBFEFB24FA97C
:104EA0004111B7350000814670009385C5C902C61F
:104EB000EFF03F9411E1324541016FB0AFA9EFB27D
:104EC0002FA42A8913153700328B5D71AE84B68901
:104ED0003A8A36863695014813031040130EF04F78
:104EE000930E0060DA28631FC512631D0818FC28A2
:104EF000639D071C83DB4401FD57373C0000B70C62
:104F000010402328F900054D930D8103130C4CC864
:104F1000938C0CC0814A33835B41636D6D2E638734
:104F20000A04C20A93DA0A015E88D6872687D286E7
:104F30004E86A6854A85EFF01FEF2A84630A052C6A
:104F40009157631EF50CD8409440B7B70000056632
:104F5000B7A5000037A50000938747AA1306E68887
:104F6000938505EE1305450CEF40C007832789069E
:104F7000DC53635CF0089844850793E71700050746
:104F8000B377F702D9E385472C18268502DC3EDE8D
:104F9000EFD07FBA3DE94A85EFF05FF02A84634D98
:104FA00005108327C9063384A7408D8363FF8704D8
:104FB0009444B7BC0000056CB7AA000037A50000F8
:104FC00013874CAA13063C8A93850AEE1305450FF6
:104FD000EF4040015E8881472687D2864E86A685AF
:104FE0004A85EFF05FE42A84630F05289157631820
:104FF000F50237A5000093864CAA1306DC8A938538
:105000000AEE13054512EF30F07D5E888147268752
:10501000D2864E86A6854A85EFF01FBC2A84635F40
:10502000041A59A81442D18293950601C18193F8BC
:10503000F57F639668000507DAA8210665B56397D2
:10504000C8030DE3B7A60000296685659386C60AE6
:10505000130686CC9385658C37A50000130505EEF5
:10506000EF3020617D17DAA80548C1BF93F50570C0
:10507000E395D5FD5842858A0C438CCC5843F4B84F
:10508000D8CC65BFE31507E681EFB7A60000296617
:1050900085659386C60B130686CC9385358D6DBFCB
:1050A0003E86A6854A853ECCEFF0AFDF2A84E247F4
:1050B00001C9F957E30DF5E2228561616FB00F88F0
:1050C000FC3BE38607E2094411AADA289307E00FC4
:1050D000E3E2E7E29C4003278906D0443EDC9448A3
:1050E000FD57BEC27C4732DEB6C0B2C4B1C3E117C1
:1050F000BEC65C103EC6B74700009387E7D93EC4E2
:10510000930A810302C202C081480148D2874E87B8
:10511000A6854A854AD256D4EFE02FE82A8419C9D9
:105120009157E309F4DC9307C0FAE317F4F8D9B315
:105130005C4F75BF130C0903E285681002D602D8D4
:1051400002DA930BC903EFD0BFA2DE856810EFD05F
:105150003FA2681093058904EFD09FA1B257681051
:1051600093F707C03ED6EFD05FA21DE17010A68571
:105170004A85EFD07FE62A8421F13706008074103B
:105180001346C6C0D6854A85EFE03FB72A8449F961
:10519000D6854A85EFE0BFCB2A8459F1832789065B
:1051A00072579C4FB377F70281CFB7A600002966EC
:1051B0008565938686F2130686CC9385D59169BD65
:1051C0008647D8C431469CC8E2855E85EF30E053FF
:1051D00023240904232609042328090483270B0018
:1051E000832C8902130D10403ED683274B00894B38
:1051F000930D09023ED8E3810CEC938A8C006C106D
:105200005685EFD05F932A8C49C183AC0C00E5B77B
:10521000D68B09B393980A0193D80801B3071041BC
:10522000C207C1873EC26EC662C45EC06688D287AE
:105230004E87FD560146A6854A851ACC02DCEFE072
:10524000CFD52A84E31D05DC832789066243130E2C
:10525000E00FF84711E3D84F63636E02944F135683
:105260001700130787FD9387F6FFB297B3F6D702AF
:10527000958F6373F700BA876257E3F2E7CA135357
:1052800013009A9A49B9854B49B3A68513060002C3
:105290005685EF308047FD55639B6A07138C0C02DF
:1052A00003D74C0083D6CC01E361D7F603C6FC01DB
:1052B00029DEEE85628536CE3ACCEFD0DF8711C588
:1052C0006247F246158F2392EC006286D6854A85A6
:1052D000EFF0CF9271D52A84C5B313173C004E97D7
:1052E00018439307F04F135647011376F67F631464
:1052F000F60429831377F73F6310D70203C76C00C6
:105300006306770123A4BC0023A6BC00050C83D64A
:105310004C00E3144CFD59B7E37AD7FE03C76C0089
:10532000FD162392DC00E31377FF03A78C027D17A1
:1053300023A4EC02E1BFE31BA6FD29831377F73F0B
:10534000E3E6E6FC03C76C0085062392DC00E31F5E
:1053500077FB03A78C020507E1BFEFA27FDA9C5918
:1053600001112A8C1397B700AE8C328AB68963502C
:105370000704D859D455B307370163F3D700B6876C
:105380008326CC0763F5F6028327CC0623AEEC0216
:10539000E6852320FC066285EFF00FF283A70C035D
:1053A0003DE13707F0FF7D17F98F23A8FC024E84FB
:1053B00019E04E85B1A883A60C03B70702009384B9
:1053C0000C04F58F81CB03278C0603A6CC03584F22
:1053D0006316E60C1396B60003A74C036346061C3F
:1053E000A1E31DCF83A6CC0203A68C021308010102
:1053F00093878C037D17A685628502C8EFE0CFA551
:1054000019C983A70C0337070800D98F23A8FC020A
:1054100005616FA0BFD203258C06A685EFD01FDAE9
:105420008327CC0603AB4C0383AA8C032320FC0602
:10543000930DFBFF4C086285EFF0AFD579F1D245B3
:105440006285EFD05FCC1DC99307C0FAE31BF5FA64
:10545000B7B70000138747AAD246B7A700009385C5
:1054600007EE0566B7A700001385871F130646BC25
:10547000EF305037FD5723A0FC046DBF03258C0689
:1054800063110B06D24723AE0C0223ACFC0283A7A8
:105490000C0337070200D98F23A8FC0283278C0650
:1054A00003A9C70183A7CC033309F940637324011F
:1054B0002289930AC0FA83A7CC0303A78C03CA8866
:1054C000528885466286A6856285EFE06FEF6303AA
:1054D000050EE31855F3E6856285EFF0EFDD61DD3B
:1054E0000DB72C086ECCEFE02F8B03278C06E2471C
:1054F0000149584F85073ECC6392E7080505EF2028
:105500003051AA8B1309150056CE014D5247131F77
:105510002D00FA8791481308C10185466286A68549
:1055200062857AC6EFE0CFE9324F19FD6391AB0790
:10553000050DE36D2DFDD2470A0923AE2C0323ACE4
:10554000FC02B1B785481308C101CA875687B386E4
:105550002641628681456285EFD0EFF4E31305EAC8
:10556000524785481308C101CA8785466286A685C9
:105570006285EFE0EFE4E31905EC0509E246E36339
:10558000D9FCD24723AEDC0223ACFC0209B7724738
:1055900091481308C101FA87914662868145628568
:1055A000EFD06FF051D5B1BDF95723ACFC0223AE5B
:1055B000EC02F1BD83A74C034A9A33042441CA97F5
:1055C00023AAFC0283A7CC03CA9723AEFC0283273D
:1055D000CC062320FC06E9BBEFA21FB39C591D712A
:1055E000AA841397D700635D07001397B70063443D
:1055F00007007D57B8C13707FCFF7D17F98F9CD98D
:105600009C5901451397E700635807081397B700A3
:105610002E8403A9450383A9C502634B070A130619
:10562000400581456800EFA0BFB31C544146A685E4
:105630003EDAE80085474EDC3EDECAC0EF30E00CC3
:10564000FD579CC0FD5958585C54636AF70485693E
:10565000930B0404130CC0FA37BB00009389F9D4F0
:10566000B7AA000037AA000085462686DE85268573
:10567000EFE04FC93DC163118503145C93850AEEC9
:1056800013074BAA4E8613058A1FEF30B015A2856B
:105690002685EFF06FC269D925616FA07FAA854684
:1056A0001306B1006C002685EFF0AF85E34605FEDA
:1056B00085461306B100A2852685EFF01FCAE34D8B
:1056C00005FC9C40E38137F9CEC623A03401A5BF79
:1056D000CA8763733901CE875CD81C5C01777D175C
:1056E0001CD45C580145232A24035CD41C58F98F30
:1056F0004167D98F1CD84DB7EFA2FFA141112A896C
:10570000DC59328495C605473304F6006382E6020D
:1057100009473E84639EE6009459D8551395E600E8
:105720003A84635605003E8463F3E7003A8432947A
:10573000032749072955636587006316F40022850E
:1057400041016FA09FA09859AE849316D70063D0F3
:10575000060403258906D45D584D638AE6022C00B1
:105760003EC4EFD07FE3AA89032589066C0022C6D8
:10577000EFD09FE2639DA900FC4032476369F700C8
:10578000B444B6976375F700C0D8D8DC4DBFA68582
:105790004A85EFF07FE44DF5C0D855B7EFA25F968C
:1057A00083298502370AF0FF19712A842E89B28A6B
:1057B000368B854B7D1A6395090C832709001306E8
:1057C0000002CA853EC48327490088003EC6EF20F8
:1057D000D0739C105A87D6864A868C002285EFF0BB
:1057E0000FEEAA84634105102C004A85EFD0AFB4B8
:1057F00019E5130600028C004A85EF2010718947D5
:10580000639CF40413068404CA852285EFD0CFFC80
:10581000AA8471E9865737071000130787C03EC472
:105820009657610914083EC68347F9FF30008C1073
:1058300093870760D207D98F3EC8054781472285E5
:105840004ACAEFF0CFE7AA84634F050813060002A7
:105850008C108800EF20706B268D814A37BA0000CB
:10586000B7A90000B7AB000037AB0000130C04026F
:1058700085476313FD2CB70C0080938CFC3FB1AAC5
:10588000138589006315250183A909002DB7CA85F1
:10589000EFD06FAA75F983C76900E39777FF83A7F5
:1058A00009031397B700E35107FE3C5403A7C9024D
:1058B0009C57E3FBE7FC83A74903CE85228523AEF3
:1058C000F9027C543CD0EFF02F9FAA8409ED83A706
:1058D0000903CE852285B3F7470123A8F902EFF02B
:1058E000BFCFAA8455D1268509616FA03F859385D6
:1058F00084002800EFD02FA409E523A4A40123A647
:105900002401FC20639CB7019385C4022800EFD0DA
:105910008FA209E523A6A40323A824038440D5A8C5
:105920009304040385452685EFD09F822A8D631E4C
:1059300005128C102685EFD0AFA66304051204581B
:1059400016578656A98093F4F43F0566A687130878
:105950004AAA1306969D938509EE1305CB03EF30F3
:1059600060681C58232A0402232C0402B3F7970111
:105970001CD89357A90093F7F73F4A8763F4F400C4
:10598000130709C086579306F03F3ECC96573ECE8C
:1059900081476386D400AA04B707F04FC58F3ED075
:1059A0009C003AD43ED609478147141030088C1029
:1059B000228502D2EFF0AFD02A8D6348050A8547D1
:1059C0006317F506E247130600028C103EC4F24747
:1059D0008800854A3EC6EF20505316488647324716
:1059E000A246056693084AAA1306C69A938509EE4D
:1059F00013850B00EF30005FE2852800EFD0AF93F6
:105A00001649064D09E52320A40323222403045448
:105A1000894DE39E04EC90102C002285EFE03FC0FE
:105A20002A89E35F05EEF957631DF510014D9010CB
:105A30002C002285EFE0FFC6AA8415C9F957E314AC
:105A4000F5EAE307A9E2B7A6000029668565938613
:105A50000608130646CE9385A59F138509EEEF2011
:105A600050414A879304F03F31BFEA84ADBD1C58D2
:105A7000930C040393F7F73FC5E78C106685EFD0CE
:105A80002F929304F03F15CD045816578656A980DF
:105A900093F4F43F0566A68713084AAA1306D6A016
:105AA000938509EE1305CB03EF30C0531C5837071D
:105AB00000801307F73FF98F1CD8232A0402232CF8
:105AC000040286571307F03F3EC496573EC68147EF
:105AD0006386E400AA04B707F04FC58F3ED883471A
