:040000006F60900F8E
:100004000000000000000000D4650000D665000078
:1000140000000000F668000000000000000000007E
:10002400F6680000F6680000000000000000000010
:10003400F668000000000000F66800000000000000
:10004400F6680000F6680000F6680000F668000034
:10005400F6680000F6680000E6650000F065000040
:10006400FA650000046600000E660000F6680000F1
:10007400F6680000F6680000F6680000F668000004
:10008400F6680000F6680000F6680000F6680000F4
:10009400F6680000F6680000F668000018660000C4
:1000A400F6680000F6680000F6680000F6680000D4
:1000B400F6680000F6680000F6680000F6680000C4
:1000C400F6680000F6680000F6680000F6680000B4
:1000D400F6680000F6680000F6680000F6680000A4
:1000E40044660000F6680000F6680000681000002E
:0C00F400F6680000F6680000F6680000E6
:10010000397101436EC619A0397141536AC866CA74
:1001100062CC5ECE19A0397101535AD056D252D456
:100120004ED64AD826DA22DC06DE330161408282CE
:1001300041114AC026C222C406C68282B24D410184
:10014000024D924C224CB24B4101024B924A224A40
:10015000B2494101024992442244B24041018280A5
:100160003D432A876373C3029377F700BDEFADE584
:10017000937606FF3D8ABA960CC34CC30CC74CC796
:100180004107E36BD7FE11E28280B306C3408A06C3
:100190009702000096966780A6002307B700A30683
:1001A000B7002306B700A305B7002305B700A304D3
:1001B000B7002304B700A303B7002303B700A302CB
:1001C000B7002302B700A301B7002301B700A300C3
:1001D000B7002300B700828093F5F50F9396850052
:1001E000D58D93960501D58D61B79396270097021B
:1001F000000096968682E78086FA9680C1171D8F4A
:100200003E96E374C3F8A5B7EFF21FF079731303BA
:1002100003AA1A91EF10C0569307D008630BF55448
:1002200063EDA70AF9476309F52E63E7A704D147F1
:100230006301F52C63E2A7028547630BF52693174C
:100240008501E1876382072689476301F5300963E9
:100250001A9113010156EDB5D9476306F52A63607B
:10026000F52ADD476305F52AE147E312F5FEEF10B5
:1002700020519305800249A4930780076303F54C3E
:1002800063E0A702930700026302F52A636BF52877
:1002900093077007E31DF5FAEF10804EE145A9AC16
:1002A0009307A007630DF54A6367F54A9307B00704
:1002B000630CF54A9307C008E31BF5F8EF10404CB8
:1002C000AA84EF10E04B2A84D1452685EF107023D5
:1002D000D1452285EF10F0229DBF9307A00A630944
:1002E000F55E63E2A70E930770096304F55C63E8AB
:1002F000A7089307F008630EF54C6360F554930765
:100300000009E316F5F4EF10A047AA89EF10404763
:100310002A8AEF10E04606051379F50FEF10604EBC
:100320008967F974938707541810938404C0BA97A7
:10033000AA8A0144BE94631B5455EF10804CAA84D2
:10034000EF1000442ACCEF10C04B09660C10F97670
:10035000E248130606542E96938606C02AC0B2962B
:10036000D2854E8526889307015622874A86EF104C
:10037000505193950401C181130501564DAE930769
:100380009009630CF5506369F5529307A009630B5C
:10039000F5529307000AE31CF5EAEF10603E2A8449
:1003A000EF102046AA84EF10C04589671810938784
:1003B0000754BA977976AA863E9693F5F40F22856C
:1003C000EF20001069B59307700B6302F55863E6E0
:1003D000A7029307500B6306F55463EFA7549307E6
:1003E000400BE316F5E6EF10A03985473395A700DB
:1003F00042054181EF10305E4DA89307F00B630278
:10040000F55663E4A7029307E00BE312F5E4EF105F
:1004100020372A84EF10C0362ACCEF106036E24530
:100420002A862285EF20803A1DB59307000C6304CD
:10043000F5589307100CE31CF5E0EF1060342A899F
:10044000EF100034AA89EF10A0332A8AEF1040334E
:10045000AA8AEF10003B2A8BEF10A03A8967938796
:1004600007541810F974BA97AA8B0144BE94631903
:10047000745B89661010F97713870654329793845A
:1004800007C0BA94138706543297BA97CE854A8527
:10049000A28826885A87D6865286EF20603C93151C
:1004A0000401C181268561A40145EF10204145B3B7
:1004B00009671410130707543697F977BA97B79559
:1004C00000009385C5ED25463E853ECC37F4FF1FE1
:1004D000EF7020610325847EEF10403E0325C47E2B
:1004E000EF10C03D0325047FEF10403DA14562455C
:1004F0003DACEF10E028C145EF10500589BBEF106F
:100500002028D145D5BFEF10A0279145F5B7EF10B2
:10051000202793058004CDB7EF108026EF107009D7
:100520003DB3EF10E025EF10500C15B3EF10402550
:10053000EF1010030967130707541410F977369763
:10054000BA973ECC88C385453E85D5A289671810E9
:1005500093870754BA97F974BE9423AC04AC23AEC6
:1005600004ACEF10002A2A8401496315891C09692B
:10057000930709541810F974BA97A2853385970028
:10058000EF00100B15C1130709541410369793840C
:1005900004AEBA94814713070002B386F4002380A7
:1005A00006008507E39BE7FE8969938709541810C5
:1005B000F974BA97A28533859700EF00B0041DC186
:1005C000938709541810938404AEBA970149BE94D6
:1005D00093090002EF10C01AB387240188A305090C
:1005E000E31A39FFA28513050156F974EF001007CD
:1005F0001DC5EF1000218967938707541810938455
:1006000004B0BA972ADC0149BE9493090010EF1098
:100610002017B387240188A30509E31A39FF096964
:10062000930709541810F974BA97A2853385970077
:10063000EF00300515C11307095414103697938441
:1006400004C0BA94814713070010B386F4002380D6
:1006500006008507E39BE7FE096593080102930402
:1006600005547976C6941308C6AD930786AD130773
:1006700006C0930606B0930506AE269632CC130646
:10068000055446963298130605544696B2971306BB
:10069000055446963297130605541305055446959E
:1006A000AA9562454696B296228651266245A28553
:1006B000EF000078B334A0006245A2859604EF00F5
:1006C000407C19C1938444102685EF10201F0945F2
:1006D000EF10C01E8967938707541810F974BA97F2
:1006E000A28533859700EF00A07409CD89679387B1
:1006F00007541810138504AEBA97930500023E956F
:10070000EF106019A28513050156F974EF006077A8
:10071000E30F05B27255EF10601A8967938707548B
:100720001810138504C0BA97930500103E95EF107A
:10073000801631BEEF10C004B387240188A30509D9
:100740002DB5EF10E0032A84EF108003AA852285DF
:10075000EF10F068EDBCEF10A002814571BBEF1007
:100760002002EF10A02891B3EF108001EF2080133A
:100770002DBBEF10E0002A8AEF108000AA8AEF104C
:1007800040088967938707541810F974BA972A8B21
:100790000544BE94930900081379F40FDA864A865B
:1007A000D6855285EF10F00019C585452685238032
:1007B0002401EF10400E0504E31034FF096713070E
:1007C00007541410F9773697BA973ECC2380070068
:1007D0009DBBEF00F07AAA89EF00907A2A8AEF0099
:1007E000307A06059374F50FEF10A001896793879F
:1007F000075418107979BA97AA8A01443E99631769
:100800005403EF00F0772ACCEF00B07F09660C109C
:10081000E247130606542E96F9762A88B296228766
:100820002686D2854E85EF10C07B15B4EF0050753B
:10083000B307890088A30504D9B7EF0070742A892B
:10084000EF0010742AD0EF00B0732A84EF00707BA1
:10085000AA84EF00F0722ACEEF00B07A89671410F4
:10086000938707547977B697BA973ECC8255F2476B
:10087000E246131614002A8826871376E60F4A8567
:10088000EF10E07A93950401C18195B1EF00506FAC
:10089000B387840088A3050479BCEF00706E2A84B6
:1008A000EF00307693150501C1812285EF10903459
:1008B00079BAEF10303861BAEF00906CEF10303930
:1008C0006FF0FF98EF00F073EF1070396FF03F9802
:1008D000EF00106BAA84EF00D072896793870754EA
:1008E00018107974BA972A8901463E946312260338
:1008F0000545896733159500181093870754BA97F3
:10090000F9754205BE954181EF10B0086FF03F9434
:1009100032CCEF00F0666246B307C40088A3050638
:10092000F1B7EF00F06585473395A7004205418197
:10093000EF10900E6FF0BF91EF00906485473395F4
:10094000A70042054181EF10B00F6FF05F90EF00FC
:10095000306385473395A70042054181EF10D010E1
:10096000A9B6EF00F061AA84EF0090612AD6EF00EB
:1009700030612AD4EF00D0602AD2EF0070602AD014
:10098000EF0030682ACEEF00D06789671810938790
:1009900007542A84BA977975AA973ECC3E88B255F7
:1009A000F247025792562256A2882685EF1090648D
:1009B00093150401D1BDEF00B05CAA84EF00505C38
:1009C0002A89EF00F05BAA89EF00905B2A8AEF008A
:1009D0005063AA8AEF00F062896793870754181062
:1009E0007974BA972A8B01483E94631268030967A9
:1009F0001410130707543697F977BA97D28656879B
:100A00004E86CA852685EF10B0626FF05F8442CCB7
:100A1000EF0010576248B307040188A30508F1B737
:100A2000EF001056B387840088A3050489B4EFF261
:100A30002FED5D712AC42E84B68A3A8BBE89428915
:100A40008144014DDD4B130C1002930C3002930DC9
:100A50004002A2473D461305F00F3387A701142338
:100A6000FD4561486380C62A6366D60A1D466385D4
:100A7000C6146360D6060D46638DC61E636FD6002E
:100A8000054693074D006382C6126375D61236235E
:100A900037170140232AD78031AA15466385C61A25
:100AA000637BD61E34232833054A36C6EF60F01D1B
:100AB000B246331ADA00B716014003A786803377AF
:100AC000470163110712EF60701DB716014075D51D
:100AD00011AA2D466389C626636BD600254663801E
:100AE000C6266370D6122A23EF60F00D6DA8371664
:100AF0000140B54593074D00130606806382B61C7E
:100B000063F0D51E3823544622971823C19A558F77
:100B100058C64DA06386762163E4DB044D466380AE
:100B2000C6086361D6024546110D930580026387AE
:100B3000C60091456374D600930580042823EF1006
:100B4000401C01BF55466384C620D145637AD60454
:100B5000FD14939724009808BA9703AD07FCD5BD00
:100B6000638786216362DC02638FB61E63EDD52244
:100B7000E39A06EFB7160140938606809446382321
:100B8000A182229714A305A06389962363EF96257B
:100B90006380B61BE398A6EC61616FF02FDAC14564
:100BA0002823EF100016110D6DB5362337170140BD
:100BB0002328D7803E8D71BD2833034A2700EF607C
:100BC000D00C0547331A4701B716014003A78680AA
:100BD0003377470119EBB716014003A786803377B7
:100BE000EA0011CBEF60300C7DBFEF60300BB71621
:100BF000014069DDCDB7EF60700AB716014071DDC5
:100C0000D5B72833034A2700EF6030080547331A69
:100C10004701B716014003A786803377470111CFFC
:100C2000B716014003A786803377EA0045DFEF60FF
:100C3000F006B71601407DD575B7EF603006B716E0
:100C4000014071D9F1BF34232833054A36C6EF601D
:100C5000D003B246331ADA00B716014003A78680E4
:100C60003377470141D3EF607003B71601407DD55C
:100C700095BFB716014003A686802C233433054761
:100C80003317B700A296718F90223337E000060623
:100C9000518F98A209BF30332C23229618229356E5
:100CA000170014A285461376170037170140B39634
:100CB000B6001307078019C214CBF5B554CBE5B5C0
:100CC00034332C2310460547A2963317B700718F93
:100CD00090223337E0001E070582518F98A2D9BDBC
:100CE0002C332823A295942113971600E20698A18D
:100CF000E18605473317A70063D4060018CA5DBD17
:100D000058CA4DBD3823B716014003A6C6802297A6
:100D100018231376F6F02207518F23A6E68061B5DB
:100D2000B71601409386068094463823229799BDD2
:100D300036230147E359D7E601000507E5BF2A231B
:100D4000EF60206F8DB52A23EF60406BA9BD9396AD
:100D500024009C08BE9693074D0023A0F6FC035D7B
:100D600027008504FDB13433A29694227DBF8326EB
:100D7000090037160140382303288680854513F67D
:100D800076003396C5008D82B395E500DA96B3F50B
:100D90000501882299CD498E90A2032709000507F5
:100DA0002320E90009B5032609009306F07F918E00
:100DB000C9B71346F6FF698EC5B7302303A70900EC
:100DC0007D1723A0E90093553700D6958C218546E1
:100DD0001D8B3397E6003396C6006D8FB716014022
:100DE0009386068011CF90CA7DBB302303A70900EC
:100DF0009306F7FF1307F07F23A0D900158FE1B703
:100E0000D0CA55B3B716808101477D46C1066364D9
:100E1000B70001458280B307E5009C236366F600B6
:100E2000B3D7F600858B99E30D07D5B705458280CA
:100E3000B7E6008001477D46A1066364B70001451F
:100E40008280B307E5009C236366F600B3D7F60003
:100E5000858B99E31107D5B7054582800147854603
:100E60006364B70001458280B307E5009C23938744
:100E7000E7FD93F7F70F63F4F6000D07D5B70545C7
:100E80008280014785466364B70001458280B307CD
:100E9000E5009C23811793F7F70F63F4F6000D0725
:100EA000DDB705458280EFF2AFA80945EF50307CF1
:100EB00085450565EF60400A6FF0CFA9B707005080
:100EC00013070004D8A713078004D8B713874186F7
:100ED00098CB1387418AD8CB1387418E98CF13873D
:100EE0004192D8CFA3890702A38D0702239A070254
:100EF000239E070209472389E702238BE702238FFA
:100F0000E7029387418223800700A38007002381A3
:100F10000700A381070023820700A3820700238321
:100F20000700A38307008280EFF28FA037040050F0
:100F300099471CA01DC52945EF60E0489D47230047
:100F400004003CA0930790021CA08D3F930710F86B
:100F50001CB037070008B7E700E023A2E7106FF0E6
:100F60006F9F2945EF602046B7E700E023000400AB
:100F70003707000823A2E7180F100000CDB793072A
:100F8000F5FF93F7F70F1948636DF80CEFF2AF9880
:100F900093874182AA979C2393844182054793F7C4
:100FA000F70FCDEB85476305F5001147631CE5009E
:100FB000B7070050DC27054793F7F70F631EE502DC
:100FC00091831DA81307E5FF1377F70F63E9E70087
:100FD000B7070050DC370D4793F7F70FC5B7130776
:100FE000B5FF1377F70F63E0E704B7070050FC275E
:100FF00093F7F70FE30605FD13F847000147630B6E
:1010000008043704001411042A94A18BB2892A8998
:101010000A0485C30840B7070020938707043E955C
:10102000EF60302C19A8B7070050FC3793F7F70F83
:10103000E1B785E6C205C1810CC0231034038347A4
:10104000240233852401014793F7C70F2301F402DB
:1010500085471CA13A856FF04F8F0840B7070020E5
:101060007DBF05473A858280011122CE26CC4ACA2F
:101070004EC852C656C43704005078207C301377CF
:10108000F70F937627006383065893F7F70F13F74C
:101090000703930500026300B70493060003630C83
:1010A000D71879EF13F7F703630907128947631914
:1010B000F70C8347B40393C74700A30DF402084419
:1010C00042054181EF00D0008347B40393F7C70F77
:1010D000A30DF40275A093F7F7039306100263863D
:1010E000D70A930630026385D70C639BE708938782
:1010F00001839E2393840183C207C18381E79147C3
:10110000A309F40283C7218393F70706B5EB83C7CE
:10111000C182154793F7F70F638BE7041947639173
:10112000E7069E201307F003130400046365F7002D
:101130008220420441801389818383290900228609
:10114000CE8513854186EF60D0199E20A299232079
:101150003901818FC207C1839EA0B707005082BBAF
:1011600003C72703134747002389E70211A837075E
:1011700000503C3383C6018293F70708D58F3CB3F8
:10118000B70700500947F8A359A98347640393C7D9
:101190004700230BF4028347640393F7C70F93E7D9
:1011A0002700230BF40293874182A3800700C9BF65
:1011B0008347E40393C74700230FF4028347E40304
:1011C00093F7C70F93E72700230FF4029387418219
:1011D000A3810700EF00A07665B7184493F70704D2
:1011E000C5D383C721831387018393F7070695CB64
:1011F0002310070083C7C1826395F502B70600205C
:10120000814713864186938606089D453305F6007F
:10121000034805003385F600850723000501E397A1
:10122000B7FE1E23C207C183A1FFB7070050239852
:101230000702114715BF99472309F402A309F402D5
:10124000938641869C22138621831CA29C3203D85C
:1012500066001387C1821CA383D82600938701836D
:1012600023900701138841832310180183D8460077
:101270001388E182231018010348060013890183B3
:1012800093892183137808061386418693874183C7
:101290009386E1826304080A83C7090093848183EB
:1012A00093F70702C9C31C231307100293F7F70F24
:1012B0006385E706636BF70401446384B700130496
:1012C000F00F835709001307F003130A0004636744
:1012D000F700035A0900420A135A0A0183AA0400BC
:1012E000528613854186D685569AEF60807F23A06B
:1012F00044019307F00F6315F410B70700501D4722
:101300002389E702A389E702A5BD1307300213046E
:10131000F00FE368F7FA01446DB7B7070020938731
:1013200007089CC0CDBF03C40900198013441400F2
:101330000588330480401374F40F61B71823AD455A
:101340001377F70FE3EBE5FAA5650A07938585EEBA
:101350002E97184302879A23894621839384818399
:101360006306D7020D46630EC70285476316F7046E
:10137000A5671387C7F583C7C7F598C0014403570E
:101380000900E3F0E7F42310F90025BF25671307F0
:1013900087F13C3398C03823A207BA97C207C183AC
:1013A000F1BF9E23054693F7F70F6381C70289CBF0
:1013B0006385D702638AE70281471304F00FC1B740
:1013C0001387818198C083C781814DBFA56713872B
:1013D00007F798C083C707F755B7A567138707F8BE
:1013E00098C083C707F859BFA567138787F998C0C6
:1013F00083C787F961B79E2393F7F70F2380F182A4
:1014000083C70900E207E18763D8071E0357090075
:101410009307000463E6E70083570900C207C1830E
:10142000035709001D8F420741832310E900370746
:1014300000501EBB91472309F70299B383C711825D
:101440001CA2035709008547E3FCE7FA2310F900C3
:1014500045BF9E2393F7F70FA380F18205472381B1
:10146000E18279BF03C709007D8B11EF9E230547F9
:1014700093F7F70FE396E7F8938731829823137772
:10148000E70F98A3B5BF03C7090009467D8BE31694
:10149000C7E69E2393F7F70FE39107E69E22930694
:1014A000100893F7F70F638DD70093063008638E0B
:1014B000D700E394E7E4B7070050A38D070289B78C
:1014C000B7070050238BE70225BFB7070050238FD3
:1014D000E7023DB703C709007D8B05E79E2305475B
:1014E00093F7F70FE39BE7E0A56783C7F7F193F75F
:1014F0000702E38407E0938731829823136717007C
:1015000049B703C7090009467D8BE318C7DE9E2350
:1015100093F7F70FE39307DE9E229306100893F7E5
:10152000F70F6381D702930630086386D702E396EC
:10153000E7DC370700508347B70393E73700A30D75
:10154000F7027DBD370700508347670393E73700F5
:10155000230BF70275B5370700508347E70393E77E
:101560003700230FF70269BD23000600D9BD83C7EA
:10157000090023100600FD8B85E383C731820144F7
:10158000858B99C389471CA2035709008947E3F259
:10159000E7D62310F900B1BB03C70900894713043C
:1015A000F00F7D8BE312F7FE9E229306100893F74F
:1015B000F70F6381D70293063008638AD702E39559
:1015C000E7FCB707005083C7B7038D8B0D47639EB9
:1015D000E70011A8B707005083C767030D47014410
:1015E0008D8BE393E7FA85471CA2014471BFB707CF
:1015F000005083C7E703D1BF83570900C207C183E7
:10160000E38507C2B70700501147EDB9937717007C
:1016100085C3A3010400EFF07F8A85477CA0724454
:10162000E2445249C249324AA24A0561730020305D
:101630009377470085C7583093873182118B11CB40
:1016400098231367270098A39C23B70700501147DE
:101650001DBE98231377D70F98A3C5BF78A0C1B735
:10166000EFE21FADEFF03F840545EFF0FF8B239FC6
:101670000182239E018223920184239001846FE0E2
:101680007FAD83C72182054701456318F70003C575
:1016900011821375F50F3335A0008280EFE25FA948
:1016A0003971C53725CD93874182BC3393F7F70F46
:1016B000B5E79386418483D70184962213874184BA
:1016C000C207C206C183C18263EDD704958FC207EA
:1016D000C183A9C7930600043E8663F4F60013068F
:1016E00000044206B7150020418281469385459E3D
:1016F0001E233305D1008506AE979C231CA11E2313
:10170000850793F7F77F1EA393970601C183E3E153
:10171000C7FE85468A850D45EFF07F8621616FE023
:101720007FA3056613060680B2974DB703D5C18324
:1017300083D7E18342054181C207C1836366F50017
:101740001D8D4205418182800567130707803A9508
:10175000C5BF83D6C1839387E1839A23014542079E
:101760004183630ED7009623370700201307471ED7
:10177000369708239A2305071377F77F9AA3828069
:10178000EFE21F9B65377DDDE9376FE0BF9CEFE23D
:101790003F9A056637180020814613060680930E8F
:1017A000F07F1308489E1394060141806366B400DD
:1017B000F53522856FE01F9A938701841387418452
:1017C0009E231A2393880184C2074207C183418361
:1017D00063E7E702998FC207C183E38BD7FD83D705
:1017E00008003307D5001823C297850698A383D72E
:1017F0000800850793F7F77F2390F8006DB7B2973D
:10180000D1BFEFE2FF92AD3F2A899D3F2A848D3FF1
:10181000AA84BD379317840013970401D98FB3E7C7
:10182000270162055D8D6FE0FF92EFE27F90BD358D
:101830006FE05F9203D5018483D7418442054181E3
:10184000C207C1836366F5001D8D42054181828018
:101850000567130707803A95C5BFEFE27F8D3164B6
:101860001304143593844182BC3093F7F70F99C366
:101870007D1411ECBC3093F7F70F81EB85460146E0
:10188000938541920D45EFF08FEF6FE0BF8C2945B6
:10189000EF507033D1BFEFE2BF892E84CD3D593F69
:1018A00001E909C41374F40311E0453F6FE09F8A16
:1018B000F53313054006EF501031D5B7EFE25F87DF
:1018C00041112AC691456800F93741016FE09F88B0
:1018D0000566B7050020814613060680930EF07F4B
:1018E0009385451E1388418E93970601C18363E358
:1018F000A70082809387C1831387E1839E231A23E5
:101900009388C183C2074207C183418363E7E7022B
:10191000998FC207C183E38ED7FD83D70800338731
:1019200006011823AE97850698A383D7080085077C
:1019300093F7F77F2390F80045BFB297D1BF0547D3
:101940002381E1848280EFE2AFFE011113060002E1
:1019500081450A85EFE0DF80316537240140EF5093
:10196000A05213050440EF50C001B7070E003EC659
:101970008A85854713050440230AF10002C002C28C
:1019800002C402C8EF50E003814513050440EF5044
:101990006019814513050440EF50001A8545130571
:1019A0000440EF506007814513050440EF50201BB1
:1019B00013050440EF504007930404402685EF5080
:1019C00040076DFD1305044037240140EF50E00649
:1019D000930404402685EF50E0066DFD8545130510
:1019E0000440EF50C01705616FE0CFF6EFE24FF40F
:1019F0009D47AA8563F6A700930585FF93F5F50F2C
:101A0000372401409546054613050440EF508005F4
:101A1000854513050440EF50600393040440894555
:101A20002685EF50A01265DD13050440EF50000F2E
:101A3000AA84894513050440EF50E01126856FE024
:101A40006FF10145828013077002A9576360B704E4
:101A5000EFE20FEE41112E84EF50001B130510032F
:101A6000EF50001DA165C105A2951395C500EF506B
:101A700060202AC6EF50E01A3245114781476303C0
:101A8000E500ED573E8541016FE0CFEC3E85828059
:101A9000B2871306700229556365B6023386E700E4
:101AA00005686360C802EFE2AFE83A862167410744
:101AB000BA95B2053685BE95EF60A00201456FE08C
:101AC0006FE9828093077002295563E4B706B30774
:101AD000E6000568636FF804B367E600858BB1EB39
:101AE000EFE26FE3216441042E9432043A89B68414
:101AF0003294EF50601113051003EF5060138149C9
:101B0000114A63E62901EF50C011014539A89C3004
:101B10008C2033053401A207DD8DEF506019890454
:101B200063074501EF50E00F6D556FE00FE2890943
:101B3000C9BF8280B71700201387471E01459387CE
:101B4000471EA946704B09EA130780053307E502D3
:101B5000BA970547F8CB8280050513078705E3137D
:101B6000D5FE7D558280EFE2AFDCA56437140020FE
:101B7000938504FB13054455EF40C05809CD938568
:101B800004FB13054455EF40C047938504FB130540
:101B90004455EF4020576FE0EFDBEFE26FD9411182
:101BA0002AC62EC4413FFD572A846303F5029307DA
:101BB0008005B307F502B7150020A246324693858B
:101BC000451E3715002013054555BE95EF40E07DB5
:101BD000228541016FE00FD8EFE28FD51304800515
:101BE00033058502371400201304441E2A94371548
:101BF0000020A28513054555EF401000232A040458
:101C00006FE04FD5EFE2CFD2930780053305F502A1
:101C1000B2862E86B71500209385451EAA953715E6
:101C2000002013054555EF40F0006FE0AFD2EFE222
:101C30002FD0930780053305F502B2862E86B7159F
:101C400000209385451EAA9537150020130545559C
:101C5000EF4070066FE00FD0EFE28FCD9307800565
:101C60003305F502B2862E86B71500209385451EF2
:101C7000AA953715002013054555EF4050086FE031
:101C80006FCDEFE2EFCA41119147371401403EC6D4
:101C90008D473EC44C00FD57130504807C82EF50F5
:101CA000A004F1778D074C00130504C07C82EF502F
:101CB000A00341016FE00FCA8546B396B600C20685
:101CC0009377F600418AC18219C293E73700130760
:101CD000F00F6374D7025041E1158A053D47331771
:101CE000B7001347F7FFB395B700718F9307F00F55
:101CF000D98D63F6D7004CC182801041F9BF0CC169
:101D00008280EFE2EFC22E86AA85371501401305C7
:101D100005805D376FE00FC4BD4763F8A702C54774
:101D200063E0A70241151375F50FEFE26FC02E8631
:101D3000AA8537150140130505C0BD3F6FE08FC16F
:101D4000CD4763E4A7007115F9BF8280EFE24FBE73
:101D5000BD4763E5A70075376FE0CFBF753FEDBFA7
:101D6000BD472A8763EDA700B717014083A6878088
:101D700085473395A700758D3335A0008280C54710
:101D800063EEA700B7170140938707C09C4713076E
:101D900005FF05453315E5007D8DF9BFCD470145AC
:101DA000E3EEE7FCB7170140938707C09C47711724
:101DB000CDB7BD4763EAA70085473395A700B7179E
:101DC000014023A8A7808280C54763EBA700411587
:101DD00085473395A700B717014023A8A7C0828085
:101DE000CD47E3EEA7FE7115E5B7BD4763EAA7004F
:101DF00085473395A700B717014023AAA7808280A3
:101E0000C54763EBA700411585473395A700B71772
:101E1000014023AAA7C08280CD47E3EEA7FE71153B
:101E2000E5B7FD577D156313F50082800100DDBF26
:101E3000EFE26FAE41118544B399A400371401401D
:101E40002EC63285232834813289E13FB2454A8546
:101E500013040480B394B40004C8E1374A85232AEC
:101E60003401C1374A8544C86D3F41016FE0EFAD91
:101E7000EFE28FA985443399A4004111B68AB39447
:101E8000B4009D49854B371A01407D5BB3973B01F8
:101E9000F18F13070A80B9CB23282701568532C654
:101EA0004937568523289A80AD3F5685232A9A8044
:101EB0008D3FFD1913040A803246E39969FD56856A
:101EC00023282A81B93F568523289A80993F832960
:101ED0008A805685232A9A80A93733F52901232839
:101EE0002A811335150041016FE08FA5232A2701B0
:101EF00075B7EFE26FA18549339BA9004111AA8B09
:101F0000368A3A8923000600B399B9009D4AB71C66
:101F100001407D5C32C64A8523A86C8119374A8509
:101F200023A83C81FD3D4A8583A48C8023AA3C8163
:101F3000CD3D3246B3749B00B33490001C22B39461
:101F40005401FD1ADD8C04A213840C80E3948AFDF5
:101F50004A8523A86C81F135331A7A014A8523AA70
:101F60004C81C1354A8523A83C81653D4A8523AA19
:101F70003C81453D23A84C8141016FE06F9CEFE21D
:101F80002F9B8544B395B400371401404111232899
:101F9000B4802A89328532C669353246B394240129
:101FA00023289480328513040480A53D41016FE00D
:101FB0006F9AEFE24F96B284368636842A89AE89CC
:101FC000853D13961400A286CE851376E60F4A85CA
:101FD0004535AA8422864A85CE85553726856FE009
:101FE000CF96EFE24F934111328A428636843AC649
:101FF000C2842A89AE89BE8A253D5286A686CE85B0
:102000004A85BD353247330AE400631B44016386C9
:102010000A002686CE854A859D3741016FE0EF9202
:102020001020A686CE854A85A1350504F9BFEFE2CA
:10203000AF8D328442863A8AC2842A89AE89368B31
:10204000BE8AEFF0FFDE13661400A686CE854A85B1
:10205000EFF01FE20144930BFAFF631A4401638619
:102060000A002686CE854A85193F6FE06F8DB3360C
:10207000740133068B002687CE854A859D3D050475
:10208000E9BFEFE26F884254328BB68422863A8AE7
:102090002A89AE893E8CC28AC68BEFF07FD9A28690
:1020A0005A86CE854A85EFF0BFDC269A639B4403AF
:1020B0002286CE854A85EFF0BFD7A28613661B0025
:1020C000CE854A85EFF0DFDA8144138AFAFF639206
:1020D000540363860B002286CE854A854D356FE01A
:1020E0002F869020A286CE854A85EFF07FD8850482
:1020F00075BFB3B6440133069C002287CE854A855E
:10210000EFF03FDF8504E1B7B71701409387078001
:1021100088CB91CDE1470100FD17F5FFB7170140CE
:1021200023AAA780C9470100FD17F5FF8280AD47AC
:102130000100FD17F5FFB717014023AAA780FD474F
:102140000100FD17F5FF8280EFD29FFE2E8493F5EC
:102150000508AA84553F9375040426857537937541
:10216000040226855537937504012685713F9375C2
:1021700084002685513F93754400268571379375F9
:10218000240026855137937514002685B53F6FD0FE
:102190007FFCEFD25FF84111AA842E892E84B30709
:1021A000244163E5C70041016FD03FFA0C20034A88
:1021B0001400268532C6834924007937D2852685C6
:1021C0006137CE85268549371305800CEF50A01F57
:1021D0000D043246E9B7EFD2BFF52A840145EF502E
:1021E000801EB714014023AA84801305001EEF50FF
:1021F000801D1305600423A8848093840480EF501D
:10220000801C84441305A019EF50E01B3375940023
:10221000133515006FD01FF4EFD29FF13714014032
:10222000232AA480AA841305C003EF50C0192945AE
:1022300023289480EF502019130404806FD09FF15D
:10224000EFD21FEF37140140232AA480AA84194536
:10225000EF5060171305000423289480EF50A01658
:10226000130404806FD01FEFEFD29FECB71401402E
:102270002A8423AAA4801945EF50E014254523A8F9
:10228000848093840480EF50001484441305700309
:10229000EF506013337594003335A0006FD09FEB7F
:1022A000EFD21FE901119375F50F2A84014502C889
:1022B00002CA02CC02CE02C402C6EF4010328547E9
:1022C000B3948700414708083ECE3ACC26C802CADC
:1022D000EF40700A2685EF409012914763E1870234
:1022E000930764015C848547DC8489475C8528000A
:1022F00085473EC6EF40903105616FD0BFE5254769
:1023000093077002E37087FE93078003E1BFEFD26B
:102310003FE2411105443314A400C1470A853EC47D
:1023200022C002C202C6EF4010052285EF40300DE8
:1023300041016FD03FE2EFD2BFDF0111FD5702C272
:1023400068007C8202C023140100EF40103537176B
:1023500002405843D2472183118B11C38607374768
:102360000F0013070724B3D7E702371400408A850C
:10237000130504802313010023110100230401002D
:10238000FD177C80EF40D044130504808545EF4065
:10239000306D130504808145EF40B069FD4513059C
:1023A0000480EF40507205616FD0DFDAEFD25FD862
:1023B00037140040130504808145EF4090701305E9
:1023C0000480FD45EF403070854513050480EF40E3
:1023D00050666FD03FD8EFD2BFD5371500401305F8
:1023E000058042318145EF40D0644204418022851E
:1023F0006FD05FD6EFD23FD22A8995C1AE8985448E
:10240000D145EFF01F9037140140B3942401232AE3
:1024100094804E85EF40307B1304048004C89145BE
:102420004A85EFF01F8E4A85EFF09FE7EFF01FF827
:102430006FD0BFD19307800873B007800F100000E2
:1024400023A6018423A4018473A007808280EFD295
:102450003FCEEFF0DFEBEFF01FF86FD0BFCFEFD242
:102460009FCB9307800873B007800F10000003A470
:10247000C18473A0078003A98184637325012A891D
:102480004A85EFF0AFC38567938787BB3E943304DB
:1024900024413374F402371A00208149BE84130AA0
:1024A0004A5D631439016FD05FCAB3878900B3F7FF
:1024B000970285098607D2978A23EFF02FC0D5B7F8
:1024C000EFD27FC593991600AA84AE8A3289368AE4
:1024D0003284B299631A34010144631C440181457A
:1024E0002685F5286FD07FC6EFF0AFB10AA00904AA
:1024F000D5B793771400814591E3D6852685C5200D
:1025000093171400CA978A230504EF40D06BF1B7E4
:10251000EFD21FC201119307F00F7C844C00B94722
:102520002A847C8202C802CA02CC02CE2313010094
:102530002315010023160100EF409029C1679387FE
:1025400007060C0822853EC8231B0100231C01003E
:10255000EF40302E81452285EF4030520C08228515
:10256000EF40D03381452285EF4010520C08228580
:10257000EF40303C81452285EF4070520C082285A7
:10258000EF40704481452285EF40505285452285B9
:10259000EF40104DB7370140938707C06316F40032
:1025A00085452285EF40704A85452285EF40704879
:1025B00005616FD03FBAEFD2BFB737350140130581
:1025C00005C0EFF0FFF437050040EFF07FF437056A
:1025D000004013050540EFF0BFF36FD0BFB709E52A
:1025E000B7070040CEBB828085476316F500B7076A
:1025F00000408EBF828089476316F500B707004010
:10260000CEBF82808D476317F500B7070040239047
:10261000B704828099476317F500B7070040239AF3
:10262000B74282809D476317F500B7070040239C9F
:10263000B7428280C1476317F500B7070040239E69
:10264000B7428280C5476317F500B7070040239063
:10265000B7448280A1476317F500B7370140239A3A
:10266000B7C28280A5476317F500B7370140239CA6
:10267000B7C28280A9476317F500B7370140239E90
:10268000B7C28280AD476316F500B737014023908B
:10269000B7C48280FD577D156313F5008280010069
:1026A000DDBFEFD27FA60544B319B400B31BC4004D
:1026B0003314A4003E8A937417004204B7170140F4
:1026C0000583368941809387078025CF80CB854A53
:1026D0005285EFF03FFCA14CBDEC416B7D1BB3F983
:1026E0006901371D0140054C9357790013070D8090
:1026F000A1CF2328370106091379F90F93070D801D
:1027000063878A0580CB5285EFF0DFF813070D80D1
:102710001C478604B3F7FB00B3F76701B337F0003B
:10272000DD8C93F4F40F63860A0200CBFD1C528506
:1027300093FCFC0FEFF01FF6E3980CFA26856FD0A0
:102740003FA0C0CB814A69B7232A37016DB7C0CB00
:102750005DBF40CBE1BF416B7D1B8144054C371D04
:102760000140B3F9690193070D80638A8A0580CB24
:102770005285EFF03FF29357790013070D80B1C3F4
:102780002328370106091379F90F93070D80638D0C
:102790000A0280CB5285EFF0FFEF83278D808604FD
:1027A000FD1CB3F7FB00B3F76701B337F000DD8C16
:1027B00093FCFC0F93F4F40FE3970CFA41B7C0CBF2
:1027C00045BF232A37017DBFC0CBE9B7EFD25F9663
:1027D00041112E84C14532C6EFF0AFD22285C145EA
:1027E000EFF02FD2324691453285EFF08FD1410183
:1027F0006FD05F96EFD23F924111AA842E89B289A1
:10280000368ABA8A3E8B3304180163158800410169
:102810006FD0BF93DA875287D6864E86CA852685C3
:1028200042C6EFF01FE832482300A8000508F1BFB8
:10283000EFD27F8E2A89AE89328AB68A3A8B3E845D
:10284000B3840701631494006FD03F901420DA879B
:1028500056875286CE854A85EFF0BFE40504DDB782
:10286000EFD27F8B4111AA842E89B289368ABA8A27
:102870003E8B01446315140141016FD01F8DB306D7
:102880008B009422D68752874E86CA85268542C6FB
:1028900046C4EFF01FE13248A248B307880088A37E
:1028A0000504C9BF9D47AA8563FAA700C147630015
:1028B000F506C5470145639EF504A545EFD25F8740
:1028C00037240140130404405C4037070005854667
:1028D000D98F5CC005462285EF40C018C1475CDC3B
:1028E000A1477CC489452285EF40402665DDB72796
:1028F000014003A5C74403A74740B70600FBFD16E8
:10290000758F4205418123A2E7406FD0BF84A14566
:1029100075B782801841FD576307F70048410505E8
:102920001335150082800545828010419C41630E5D
:10293000F6005841D4410145630AD7006308D60028
:102940003385E7403335A0008280014582809317AC
:102950006501D987850793B717003E951375F53F35
:102960001105828098411C41B98F1CC1D8415C413E
:10297000B98F5CC198451C45B98F1CC582801C412C
:1029800081EB584101E71C4593B717003E858280D3
:102990008147EDBF1C41D18393F7077091CBEFD2F4
:1029A0002FF91105EFF07FF8133515006FD08FFA6E
:1029B0000145828011E182806304B5000841DDBFDA
:1029C000054582807C557849BE95998DB3F5F50211
:1029D0003C4D63FDF500785193D735009D893E97B6
:1029E0008547B395B7001C23DD8D0CA3014582807C
:1029F000939735002A8663C40704370710701307BE
:102A000007C01442B3C7B6007D8F15C79397660100
:102A1000D9877D576381E70237071000B707008029
:102A2000130707C093C707C0758F3705F04FED8FA9
:102A3000498F639BE7002320060005458280370706
:102A40000080134707C075BF93D7450113F807707F
:102A50001307004001456310E80213D7A600A981BF
:102A60001377F73F93F5F53F6367B700E207E18718
:102A7000AA07B6971CC28280EFD28FEB2A842E85DC
:102A8000EFF0FFEC1C403E9508C001456FD08FEC85
:102A90001C4185071CC101458280EFD26FE63A8C4C
:102AA0003E84338717013C55DC4F63EDE7007C55CE
:102AB0002A8AAE8CB28BB68A428D4689638B071602
:102AC0006369FC161305C0FA9DA263890C0483A7F1
:102AD0000C00CA846395870583A44C0083A98C00ED
:102AE000A699637D340363689402B3898940637354
:102AF0003901CA8983A5CC00B30494404E86A695BB
:102B00006A85EF40107E4E9D4E9433093941E31E95
:102B100009FA014529AA818C63739900CA8483A7A5
:102B20000B00639B870383A54B0083A98B00AE99A1
:102B300063743403636EB400B389894063F3340172
:102B4000A68983A7CB00B305B4404E86BE954DBF82
:102B5000818D63F39500AE84636C590503258A0665
:102B60005C493377F40229E76364F904B3F9F402AA
:102B70005C41EA862286E285B38D34416E87829776
:102B80006351A002B796000025669386C6231306FC
:102B90004600930500063795000013058524EF4095
:102BA000D06A51E5B38499406E9D6E94269985B79D
:102BB0008327CA0689CF636CFC00B79600002566A0
:102BC00093860626130646009305C006E9B703253B
:102BD0008A0623A08B015C494C4D3307FB00B3767A
:102BE000F4022297B377F7023306D44023A2CB0036
:102BF0001D8F63F3E5002E871C55818E369763F396
:102C0000E7003E875C4183A6CB0023A4EB00E2856E
:102C10008297635CA000B796000025669386C62362
:102C20001306460093057007BDB7E30205EE6FD0AB
:102C3000EFD0138BFAFFE1BDEFD28FCC3E8D9C49D4
:102C40000111B28C2A891305C5032E8AB68A3AC4AB
:102C5000C28BC4453ECE93D9AC00EFF0BFD393F9FD
:102C6000F93F63090514638709148327C90313D740
:102C7000AA001377F73FA98393F7F73F6396E7001E
:102C8000795505616FD08FCB014463F4E7001304DD
:102C900000C0B707008093C7F7FF370C10003EC68F
:102CA000130C0CC0B70D1040724B5A85EFF03FCAA1
:102CB00093074500E3E6F4FC03270A00898C91485A
:102CC0001308C101A68791464A8681454A85EFF0DF
:102CD000DFDC6351A002B796000025669386C62309
:102CE000130686049305702E37950000130585247E
:102CF000EF40B05559F57245EF40D019B247334512
:102D0000AB007D8D2ACE6380090493574B0113F7E6
:102D10000770930600406318D70233878A40135622
:102D2000A7009356AB001376F63F93F6F63F636C1D
:102D3000D600337787013367B701E30367F5E2070E
:102D4000E187AA073E94B3878A40B3C76701B3F708
:102D50009701B9FB93176B01D9877D57E382E7F29F
:102D60009379FB3F63F33B01DE89A24703270A0007
:102D7000CE8891076A88A697CE864A8681454A857D
:102D8000EFF0BFD1635CA000B79600002566938684
:102D9000C6231306860493054030B9B7E31305EE46
:102DA00033863B41814533053D01EFD06FBB330591
:102DB0006401C1BD0144F1BDEFD28FB7BA8713F8EA
:102DC000F63F0147EFF05FE76FD0CFB8EFD24FB6D5
:102DD0004111B706F07F32845800B1063706F07F04
:102DE000EFF09FFD63580500F9576309F5004101B5
:102DF0006FD04FB64C002285EFF0DFB60145C5BF5E
:102E0000EFD20FB3328710415C431843345641115F
:102E10002A84D44EA1481308810093050601328507
:102E2000EFF0BFC701E9930544002800EFF0FFAFC2
:102E30003335A00041016FD0EFB1EFD26FAF3C55F9
:102E40002A84DC5B81E74845EF40D0463C549C5FD8
:102E500081E7484CEF4010463C54DC5F81E7685006
:102E6000EF40504501456FD0EFAEEFD26FAC7C55CF
:102E700063E1F502B796000025669386061A1306ED
:102E80008603930550113795000013058524EF4004
:102E9000D03B28555C458297635CA000B796000044
:102EA00025669386C6231306860393057011E1BF3A
:102EB0006FD04FAAEFD2CFA71C4113F7F73F1DE306
:102EC00063D30504B7960000256685659386466F33
:102ED0001306C60E9385F53137950000130585243A
:102EE000EF40B0369306E01F63FFE600635DB0007D
:102EF000B7960000256685659386C6721306C60ED2
:102F000093850532D1BFBE9593F7F53FB337F000F7
:102F10008605FE078581DD8D0CC101456FD08FA32D
:102F2000EFD20FA12E84105548449305F00FEFD037
:102F30002FA3FD571CC06FD0EFA1EFD26F9F9C5104
:102F40002CD52A847CD5DC418DE3B796000025661C
:102F50008565938646761306460D9385B5073795A6
:102F6000000013058524EF40502E9C45AE8481EF70
:102F7000B796000025668565938646781306460D4C
:102F80009385D507E9BFDC4581EFB796000025663C
:102F900085659386467A1306460D9385E507C1B786
:102FA0009C4981EFB7960000256685659386467C2F
:102FB0001306460D9385F5075DB7D44981EEB796A4
:102FC0000000256685659386467E1306460D93852B
:102FD000450871B7984D01EFB7A6000025668565D5
:102FE000938606801306460D938555088DBF03A969
:102FF0008502631D0900B7A60000256685659386D6
:10300000C6811306460D9385650891BFB377D90233
:1030100081CFB7A600002566856593868683130653
:10302000460D9385A50825BFB377E90281CFB7A6E2
:10303000000025668565938686861306460D938572
:10304000B50831BFDC4D33F6270301CEB7A600002B
:1030500025668565938686891306460D9385C50882
:10306000FDBD1306F007636DF600B7A600002566E8
:1030700085659386C68C1306460D9385F508C5B500
:10308000D05101EEB7A60000256685659386868E31
:103090001306460D9385B509D9B5905921C293D52C
:1030A0001700637DB600B7A6000025668565938688
:1030B00046901306460D9385250A55B5FD55630FB9
:1030C000B60063FDC700B7A6000025668565938638
:1030D00086951306460D9385450A51B5F04439CAC5
:1030E000B376D60281CEB7A60000256685659386A5
:1030F000869B1306460D9385950A95B53377E602B0
:1031000001CFB7A6000025668565938686A01306C5
:10311000460D9385B50AA1B5B3F7C70281CFB7A60F
:10312000000025668565938686A51306460D938562
:10313000D50A35B5DC5885CF5CC49C5CB9C35CCC82
:103140002685A285EFF0DFDD285493050401EFF01A
:103150003FDD2454C85405EDB7A6000025668565FB
:10316000938686AA1306460D9385B50CCDBB4A857A
:10317000EF40B01348C471F12285EFF01FCC5155D8
:10318000A9AA4A85EF40701248CC5DF9F5B7DC5C1E
:1031900095C37CD0BC401307F00F6372F702B7A64B
:1031A000000025668565938686AC1306460D9385DB
:1031B000750D75B3EF40700F68D069FD75BF85C39D
:1031C0003CD8FC4063DF0700B7A600002566856594
:1031D000938646AE1306460D9385D50D49B338D870
:1031E000CDB795C37CD8BC441307E03F6372F702A8
:1031F000B7A6000025668565938686B01306460D42
:103200009385350EA9BBB707008093C7F7FFD9BFD9
:103210008DC33CDCF444D84C637FD700B7A60000D4
:1032200025668565938646B21306460D9385950EF1
:103230003DB338DCC5B7BC487D566380C7069054A3
:10324000637DF600B7A6000025668565938646B5C2
:103250001306460D9385C50E19B3305C637DF600E9
:10326000B7A60000256685659386C6BA1306460D87
:103270009385E50EEDB11356370099C213D636008B
:10328000637DF600B7A60000256685659386C6BFF8
:103290001306460D9385250FD9B17CDC7D566390CE
:1032A000C704232E0406FD571CD05CD0232404023F
:1032B00023260402232E04022320040423220404D0
:1032C00023280402232A0402232C040223240404B6
:1032D000232604042328040401456FC0BFE7E1F757
:1032E0009C54305C0D8399C213D736006373F6008B
:1032F000B2876373F700BA877CDC75B7EFC2BFE1B2
:103300000329C50184410145611963EB240333D5C9
:103310002403AE897D15EF40C033130425000A0451
:103320003384844033542403330989022285EF40D7
:1033300040320A05898C2285B384244123A0990058
:103340006FC0BFE0EFC25FDCAA89285541117D172D
:103350002E8B4C00B28BB68C3E8AC28A3AC2EFF0FA
:10336000FFF9AA84094CE6855685029A29E5A1C48D
:1033700013F9140033042C4193182400130881001E
:1033800081476687C6865E86DA854E85EFF0EFF068
:103390001DE17D14634A85000A041C083E947919D6
:1033A000832C84FFCA94C1B7A2455685029AAA8786
:1033B0000545EDD33E8541016FC09FD8EFC2DFD4F4
:1033C000011132C63AC489EA7D5798C32320080008
:1033D000014505616FC0DFD62A892855FD16AE8AE2
:1033E0006C08C2893E8A36CEEFF05FF1AA840325CD
:1033F00089062C00930B0002EFF05FF02A8B054C3E
:10340000324763689B00A2472320EA0023A0F9000B
:10341000C1B7338564413AC2EF4020162A84338411
:103420008B402685EF40401C7D1412476373850056
:103430002A8491481308C1009317240091465686A8
:1034400081454A85EFF06FE549F533148C00818C96
:1034500045BFEFC27FCB3709F8FFAA89AE8A328C0D
:103460003A8BBE84428DC68C795A938BF6FF130932
:1034700009C063940C00014549A003270C00832771
:10348000CC00631C470303274C0003248C003A94B0
:1034900063F5840263E3E402058C63F38C006684C5
:1034A0003387E4406A852286B385E700EF40606396
:1034B000229DA294B38C8C406DBF03A68906232065
:1034C0004C01544A10563388DB0033F7D402269857
:1034D000B376D8023387E4402322EC003308D84087
:1034E00063730601328823240C01DA864A86D68566
:1034F0004E85EFF06FF4E35E05F66FC07FC4EFC258
:103500003FC03E8BB737000071719387079F3EC65F
:10351000835C010FB70710608314410F7E5C9387B3
:1035200007C02AC4AE8B36843A8AC289468902D83B
:1035300002DA814A014D3EC8228532CAEFF02FC11E
:10354000524683A7CB00B30DC50063F0FD082246A9
:1035500003A70B0091481308C102EE8791468145ED
:103560003285EFF08FD3631E05243255EF40801271
:10357000B7070080298C5D8C83A70B0022D6141816
:103580003ED893874D003EDA32563707F07FB34777
:10359000A601B3F73701F98FCDEB93D7A90093F7C5
:1035A000F73F63810716894763FC5703B79600000E
:1035B0002566379500009386C6471306C605930512
:1035C000203C13058524EF404048635A601F832741
:1035D0000A0083264A007D1B3ED6210AB28D6DB7B4
:1035E0009307C0033387FA021C19EE55850ABA9770
:1035F00023ACD7FAC25623AE37F923A0A7FB23AEDC
:10360000D7FAD256239227FB239397FB239497FA5A
:1036100023A887FB23A477F923A6B7F923A887F863
:1036200023AA47F923AC67F923A6B7FA23AAC7FA56
:1036300023A0D7FC130CC7023C183E9CB247014D97
:103640008149BEDD8144814C01496E86F5B5130682
:1036500020106392C7040147B25713F6F73FE37691
:10366000C7FEA9838C4693F7F73FA697AA07CD8F8D
:103670008C22D042628593850530D205DD8DEE57D0
:103680003ACC36CA8297634E0512D246B10655FD32
:1036900062470507D1B7EE579395A4003686BA95D1
:1036A00062858297634F05104DD1638C0A10FD1A15
:1036B0009307C003B387FA021819BA9703A7C7FA8A
:1036C00083AB87F883ADC7F8BADD03A747FB03A434
:1036D00007F903AA47F903AB87F983A9C7F903AD33
:1036E00007FA03D947FA83DC67FA839487FA03ACB5
:1036F00007FB3AD683A687FB03A7C7FB83A707FC74
:103700003AD83EDA93D7A90093F7F73F325789CBDF
:103710009357A70093F7F73FE3E927F3E3F797F30E
:103720009357470193F7F77F8DD313061010E3905B
:10373000C7F23ACEEE57324736CCE388E7F093072C
:10374000C003B387FA0218191306C0038145850A1E
:10375000BA97138587F83ECAEFC09FA0D2476E572D
:10376000E246239227FB23A6E7FA7247239497FAAF
:1037700023A477F91379F73F29831377F73F3307AA
:103780002741BA94C20423A6B7F923A887F823AA2D
:1037900047F923AC67F923AE37F923A0A7FB23939E
:1037A00097FB23A887FB930C1900C184B68B370DB8
:1037B0000020C249014B014A7D54814D79B5014534
:1037C000EDB54D616FC09F97EFC21F944111AA895B
:1037D0002E8AB28A368BBA8B3E8C42890144A14C28
:1037E00063642401014581A0B304894063F39C0014
:1037F000A144A68813088100B30774015A87B386D1
:103800008A40528681454E85EFF02FA909ED268624
:10381000B3058C002800EF40802AAA8701C905451E
:1038200063C30700094541016FC09F9126944DBFB6
:10383000EFC21F90AA8403A8840013F4F53F084147
:1038400063730401228858421442DC404286AA85F0
:10385000EFF09FF701E99C4463868700054563E329
:10386000870009456FC01F8FEFC2FF8A2E848C41ED
:10387000854741111387250063F2E70A7C55368A94
:10388000B2892A8963E1F502B7960000256693861E
:103890008619130606019305400B379500001305A2
:1038A0008524EF40801A28550328840054441C4D79
:1038B00050403E987D18B377F8023308F8401C4515
:1038C000428742C68297AA843248635CA000B796BA
:1038D000000025669386C623130606019305800B18
:1038E0006DBF01E9631B0A0003258906A285EFF07D
:1038F0002FE3268541016FC05F85FD5723A0F900A6
:1039000058405C4414404286CE854A85EFF0DFEB98
:103910006348050071D99304C0FAE1BF8144D1BF67
:10392000AA84C1BFEFC24FFE3E89F9572A8AAE84EE
:10393000B28A368B3A8CC28CC6896304F7027C55F6
:103940006361F702B796000025669386C61B1306CF
:10395000C6029305900E3795000013058524EF40AD
:10396000C00E03278A06B3073901FD5B584F637DFC
:10397000F706B796000025669386461F1306C60213
:103980009305A00EC9BF9C406315FC06C840636246
:10399000A90603278A0600572A94637C8904330406
:1039A000244163F389004E84DC443305A940E68555
:1039B0003E952286EF40E012DC4098442299B307FE
:1039C000F940A29CB389894063F3E700BA870327D3
:1039D0008A069CC418576399E700DA865686A6853E
:1039E0005285EFF07FE801E5E39F09F801456FC0DC
:1039F0002FF5638C7701B7960000256693868621A4
:103A00001306C60293057010B9B783278A0623A050
:103A100084019C4F23A40400B377F902B307F94053
:103A2000DCC0D9B7EFC22FEFDC419841B6883288AD
:103A30002E84B289B6842A86814693050501EFF06B
:103A40007FEE2A8911E948442686CE85EF20B02FE3
:103A5000544048C4A69654C04A856FC00FEFEFC2C9
:103A6000AFEA41112A8A32852E84B28B368BEFE081
:103A70001FEE5C4058481159AA976362F704AA8464
:103A80000844939A1B0093DA1A0033C5AA00EF305A
:103A900070402AC691467000A2855285EFF09FF8CB
:103AA0002A8911EDF114814963C80B04A6865A8650
:103AB000A2855285EFF01FF739E1232454014A858E
:103AC00041016FC0EFE783274B0003270B008548B8
:103AD0001308B100CE97B386344152868145528592
:103AE000EFE0BFFB09ED85461306B100A2855285C4
:103AF000EFF05FF309E58509E3E799FC7DBF2A89CB
:103B00007DBFEFC2EFE2B2862E864C410841EFF056
:103B10001FF56FC02FE4EFC2AFE1FD571CC2814615
:103B20002A84EFF07FD40DE528541C498297635115
:103B3000A002B79600002566379500009386C6233D
:103B4000130606029305E00D13058524EF30F06F90
:103B50006FC04FE0EFC24FDB41112A8AAE8A328B31
:103B6000B68B3A8C3E89C2890144A14C636624011C
:103B7000014541016FC0CFDCB304894063F39C0071
:103B8000A144A68813088100B30784015E87B306A9
:103B90008B40568681455285EFE03FF079F903A5C9
:103BA000090026862C00EF20101A23A0A9002694D5
:103BB00075BFEFC26FD53455DC414111984ED44EDC
:103BC000D107AA842E8463F3F600B6879309F7FF22
:103BD000CE97B3F9E702370B1000814B814A130BE4
:103BE0000BC0938C0401B3893741138CC9FE5C4030
:103BF00063E8370318481440FD573EC4130881009A
:103C0000B387EA4013864A00A6852685EFF09FF425
:103C1000631D0512A247638D77131305C0FA35A201
:103C20003389F94071191307E03F637427011309C1
:103C3000E03F91073E996375390163732C016289F6
:103C4000FD57DC8363643907BC54944FDC4F958F78
:103C500063EE27051840854813087100CA87268639
:103C600081452685EFE07FE309C59307C0FA631E0F
:103C7000F50CBC5414407D579C4F1308C1003AC644
:103C80003E864A87A68526853EC4EFF0BFEC09C56F
:103C90009307C0FA631BF50A370600603400130669
:103CA00086C0A2852685EFF09FDB45E1034A7100BF
:103CB0005C400844134A0A08135A7A00130A0A504F
:103CC000B307F940F117520A336AFA00336A6A01FE
:103CD0003345AA00EF30101C2AC4484411462C007A
:103CE000EF2070065C40184048C42AC6A14813085B
:103CF000810081462686E6852685EFF0BFC231E544
:103D000063970A00832A4400832BC400910A9C8392
:103D1000370700802322240193C7F7FFE207F98FBA
:103D200033CA4701FD57232444015CC46378390139
:103D3000BC54D8489C57BA97E36BF9EA2686E685C7
:103D40002685EFF05FDDE30405EA41016FC04FBF58
:103D5000144013088100914756871146A685268591
:103D6000EFF05FDF7DF1A247EDD345BDEFC24FB964
:103D7000032EC5065D71832E0600630A0E00130B29
:103D8000C0FA63F7CE0F032F46006373CF0F46CE02
:103D900042CC3EC43ACA36C8B2892E849148130830
:103DA00001038147768791462A868145AA8402D8F5
:103DB00002DAEFE09FCE2A8B09C59307C0FA631998
:103DC000F50A03A74900914813084103814791462A
:103DD000268681452685EFE05FCC2A8B51CD93075F
:103DE000C0FA6317F5080149931729003387F900D2
:103DF0001843134919000A0918C0CA9903A70900F2
:103E00007D5B2326040058C09808BA9783A707FE55
:103E1000FD5B370C00801CC489473EC0B70710000B
:103E2000938707C03EC61146930584007D555EDC2E
:103E30005EDEEF2040712AD2DA8C02C2814D014A47
:103E40007D5D814A6A85EFE09FB0B4541840AA9A1C
:103E5000D44E914813088102D6872686814526854F
:103E6000EFE0BFC30DC19307C0FA6302F5222A8BAE
:103E70005A8561616FC08FAC5259C2573309F940FE
:103E80003329200195B7125511462C10EF20A06B55
:103E90002AD22255EF301000B349AD004ED463DD75
:103EA000090293574D0193F70778938707B093B7AB
:103EB00017005844631F071C9C08CA9718405440B9
:103EC00083A707FE024614C01CC458C0854763067A
:103ED000F62685473EC081BF4E85EFE05FA7BC5404
:103EE000D04FB30755016364F61A13D7490113770E
:103EF0000778930700501440138D4A006312F706A9
:103F000036879148B2861308C102EA872686814522
:103F10002685EFE09FB821F9325792576319F716BB
:103F2000A257C8541146D183FE074C10B3C9F900FB
:103F3000EF206061C8D42255EFE07FA1E25756958B
:103F400048C41CCCF25723283401231A44015CCC0A
:103F5000A30BB4015ED2E687668B4E8DBE8CDDB5B9
:103F60009307C5FF130841026A87A6852685EFF0EF
:103F70007FBEE31A05EEA25793D6470113960601BA
:103F80004182937506708DEDA98393F7F73F63E443
:103F90004701138A1700A255D2474247AD8FF98FC8
:103FA00089EF1C407245B000BEC4E247EAC6829762
:103FB000E34B05EAA25655E1B68CE687DA8C69BF79
:103FC000130700406391E5043247E206E186369A22
:103FD00033F7EC003706F04F420A518F135A0A01AB
:103FE0006395E700B3EC8C017DB7E3867CFBA98386
:103FF00013D7AC0093F7F73F1377F73FE36DF7F86C
:10400000AA06B69C49BF9307006018406391F50269
:1040100093FD1600B454A14813088103D44EEA87D7
:10402000268681452685EFE05FA735D52DBD137621
:10403000F67F9307F05FE310F6F6B454A148130837
:104040000104D44EEA87268681452685EFE0FFA449
:10405000E31B05E085473EC23DBF37070080B3C77D
:10406000DC00134707C0F98F8DC38947E317F5F4C8
:1040700013D7AC0093D7A6001377F73F93F7F73F1A
:10408000E36DF7F2B3EC86010DBFFD5C3DB78147F0
:104090000DB5230B040095CFB0541C4EB377F70237
:1040A0008DEB92479DC7FD573ED614408647504E34
:1040B0001308C102A6852685EFF0DFA909C593077D
:1040C000C0FAE316F5DA96473257998F93B717007F
:1040D0007CA8A2851385C403EFE0DF8B19CDDC5CDF
:1040E0001357AB001377F73FA98393F7F73F631E8E
:1040F000F702B7070080336BFB00A24799CB5A2821
:104100009357AB0093F7F73F6373F700BA872247E3
:104110001EA3E35F0BD45A281353AB009377F33FEE
:10412000795BE3E7E7D4014BA1B3FD56E307DBFC82
:10413000E3F5E7FC130B0BC0C9B7B7A70000B795B1
:10414000000037950000938707DD130670569385AE
:1041500085241305052FEF406026130BC0FA09BB19
:10416000EFB21FFD8148014881477D57FD56EFF0B2
:10417000FFBF6FB03FFEEFB2BFF81C51832C0600AB
:1041800001119CCD5C51DCCD03870C0055CBB707EA
:10419000300037070020938A07C09307870036C492
:1041A00032C22E84AA84379A0000379B0000938B7A
:1041B00085013EC013DC4A0109476318EC0066859F
:1041C0009305CA32EF408036AA9C9305CA326685B1
:1041D000EF40E03305472A89631AE50483C60C00E3
:1041E0001307E00293891C006382E608B3892C015F
:1041F0004E87854D9305CA323A853AC6EF40003363
:1042000032479305CA32330DA7006A85EF4020304C
:104210002A882DC18547631AF50203460D009307CE
:10422000E0026317F60433070D01E9B70947E31FFE
:10423000E5FA094693058B326685EF3050085DF547
:10424000A95A568505616FB07FEF89476312F50261
:104250002AC6094693058B326A85EF3050063248EC
:1042600001E9FD1DE3910DFC93092D00CE8C99B75A
:10427000850D55BF03870C0069D79247094723A0D6
:1042800097016313EC0693D7AA0093F7F73F130740
:10429000F03F6381E7028246AA07370610705E8707
:1042A000DD8E130606C0A2852685EFE0FFB0AA8A40
:1042B000E34905F8B747000013880783A24793082E
:1042C00041014A87B70600785E86A285268526CA00
:1042D00066CC4ACEEFF09FA9AA8AE34405F659F5C9
:1042E0007C38E9FBF95AB1BFB15AA1BFEFB25FE424
:1042F000379900009305C9322A84EF404021AA84EF
:104300009305C9322295EF40602222952695030538
:104310000500133515006FB0FFE3184D9C41D441E3
:104320006315F700504D6307D6026315D700544D4F
:104330006382D702D4459C456399D70098C1584DF4
:10434000860723A40500D8C1DCC59C450145850727
:104350009CC58280EFB2DFDDB7A600000566B79589
:10436000000037A50000938606DD130646179385E7
:1043700085241305C5E3EF4060041305C0FA6FB050
:104380007FDDEFB25FD901118547AE8AA565328422
:10439000232C06005CCE2A8A41469385C5EC08088A
:1043A000B70400203709F07FEF30A0739309840130
:1043B000373B0000A1041309F93F4E85EFE08FD58C
:1043C00019C1795535A80C082285EFF01FF563490E
:1043D000050283A70A009308410013080BE03EC4BE
:1043E00083A74A002687CA863EC64E868147A28595
:1043F000528552C2EFF09F9793072500F59BD5DFBA
:1044000005616FB09FD4EFB21FD141118547AE89CE
:10441000A5653284232C06005CCE2A89414693850B
:10442000C5EC0A85EF30E06B930484012685EFE04C
:104430006FCE19C1795515A08A852285EFF0FFED61
:1044400063400502CE852685EFE02FCE19C526866E
:10445000A2854A85EFF0DFD071D941016FB0FFCE60
:104460001305C0FADDBFEFB2BFC9DC5903A9C5020D
:1044700063FE270D3309F940AA8A2E84B28963F3BB
:1044800026013689CA8D130A0404795B930BC40391
:10449000130C8403930C8400370D102063940D00DB
:1044A0004A8515A81C581397D7006358070003A71F
:1044B0008A06545C584F639AE6029396B7005858A0
:1044C00063CD0600545410545E88E287D285568529
:1044D000EFE0DFEE11C56FB07FC6232C640358DC1C
:1044E0001C5837070400D98F1CD883A78A06D44FDD
:1044F0005C5CB384F64063F39D00EE841858131699
:10450000B700635C06025A20338697002A07336798
:10451000A70163EFC602A6884E885286E6855685B7
:10452000EFE03FF34DF95C58A699B38D9D40A697F7
:104530005CD85C5CA6975CDC95B7185CA6884E8856
:10454000528681455685EFE04FD5E9BF014561B7F9
:104550001305C0FA49B7EFB23FBB3971AA842E895F
:10456000B289814571460810368BEFB07FBFA565D3
:10457000854741469385C5EC0808370A0020B70AED
:1045800010703EDE210AEF30C055938A0AC0281809
:10459000EFE04FB809CD8054054AB70A1100416BCE
:1045A000B70B1200370C020045E00145BDA80C080E
:1045B0000810EFF09FD66342050EE2554E85029932
:1045C0002DE5F2554E8502992DE130180C10268507
:1045D000EFF01FB939E90144930B2020130C0020A0
:1045E000F95C83574103E374F4FA9316A40038008E
:1045F000B3E6460156860C102685EFE0EFFB6358C4
:10460000050063149503050442044180D9BF51811C
:1046100063107503324765DBA2464E88CA8726863B
:1046200081452685EFE01FD279DD21616FB05FB152
:10463000E30B0BFCE31985FDA2454E85029975F548
:10464000B2454E850299CDB77C2063844701004076
:10465000A1BF1C58B3F7FA00638467031C58B3F773
:10466000FB00E39687FF58587DD3145C4E88CA87B9
:104670002686930504042685EFE0DFCC69D975B75B
:10468000585469DF14544E88CA872686930504045B
:104690002685EFE03FCB79D149BF1305C0FA71B74A
:1046A000EFB21FA9784D7C49232E05042A84BA97BE
:1046B0007855B3F7E70238517CC93C55D05793176A
:1046C00036006373F700BA87685081453CCCEFB081
:1046D0003FA9B7350000854622869385459C2285F3
:1046E000EFF07FE719C57C54232C0404232E040427
:1046F0003CD06FB03FA6EFB2BFA341112A84384C23
:10470000744C63EDE6023C50C9E77C4837A70000D3
:10471000B7950000BE967C5437950000130707DD5F
:10472000B3F6F6021306002C938585241305C516EF
:10473000EF30D048115541016FB0DFA1705093D7D1
:10474000360013F57600B2979C23B3D7A700858B6C
:104750009DEB7C48BE967C54B3F6F60294C1344C73
:104760007C4C385085077D177CCC38D063FBD70054
:1047700013D73700329718239D8BB357F700858BDB
:10478000E5F301454DBF3C50850674CCFD173CD088
:1047900085BF22852EC6EFF0BFF0B2452DD161BF97
:1047A000EFB21F992E8491052A89EFF0DFF4AA84D5
:1047B0002DE1A2854A85EFF01FF4AA8439E918405B
:1047C00023240400914813088400814791464A86B7
:1047D00081454A85EFE06FAC09C59307C0FA631DB8
:1047E000F50283278906DC53635DF00018448507D2
:1047F00093E717007D173E97B377F702B307F740AB
:104800001CC491475CC4FD571CC8232A04001CCC5F
:104810005CCC26856FB01F94AA84E5BFEFB2DF8E13
:1048200041112A84AE84138A0504938A8500130BF0
:1048300005016C002285EFF01FECAA8919E9B24549
:104840002285EFE08FE2AA8969C19307C0FA63026B
:10485000F50C4E8541016FB0BF8E9C58B386264142
:104860001397B700635807043054DA2093071900F0
:10487000504E2A07336777016366F60885481308A8
:10488000B100CA875286D6852285EFE09FBC0DE134
:10489000324785481308B100CA8785462286DA85E3
:1048A0002285EFF02F8815C19307C0FA6303F50640
:1048B000AA8945B7985C85481308B100CA87228643
:1048C000D2852285EFE06F9DD9B70509D45CE366F8
:1048D000D9F83C544C4CE8449057EF3080201C48A9
:1048E000285493050401BCC05C48FCC01C4CBCC4EB
:1048F000EFE00FE3B247370702009CDC9C58D98FEA
:104900009CD881BF1305C0FA65B70149B70B1020C9
:1049100075BFB24637A700000566B795000037950A
:104920000000130707DD130606D0938585241305C1
:104930004552EF30B028FD571CC8E5BDEFB2CFFCA3
:10494000BE893C55BA8B9845DC531D712A84AE84D0
:10495000B28A368B428A05076340F00698C5014942
:10496000014C3854FD57CC40BEC8BECA7C47AEC4CB
:1049700082C682CCBDC7E1172285BECEEFE0EFCE66
:104980003DC19307C0FA6311F51AFD571CC86313A4
:10499000091AD44037A700000566B795000037957F
:1049A0000000130707DD130646839385852413054E
:1049B0004552EF30B020BDAA850793E71700B377C3
:1049C000F70298C5C9FF85474C10268502D23ED410
:1049D000EFD0BFF5631D0514054959B70149054CD2
:1049E00049B75C4F49BF930C8104914613868400FC
:1049F000E6852285EFF00F8349F57C103EC6B74768
:104A00000000938727B03EC4B3073041C207C18777
:104A1000370810403EC252C0CE88130808C0DA875B
:104A20005687FD560146DE85228522D666D8EFE000
:104A30001FAD21F993868401368536CEEFD09FEDE8
:104A4000F24619EDFC3837061000130686C093872E
:104A50000760D2075D8EE6852285EFF04F8015F165
:104A600002DE82C082C2631C0C009305C403681876
:104A7000EFD05FEF930504036818EFD0BFEE930506
:104A800084046818EFD01FEEF2577018A68593F7CC
:104A900007C022853EDEEFE06FB359E56818EFD01E
:104AA0001FEE01ED3706008074181346C6C0E68578
:104AB0002285EFE0DFFAE31605ECE6852285EFF0CC
:104AC0004F8FE31005EC3C5436479C4FB377F70209
:104AD0008DC3B796000025668565379500009386DF
:104AE0000629130606079385258213058524EF20E2
:104AF000D0759C40D440B3093A41DCC0C64794C04D
:104B0000239A3401D8C49CC8232404042326040413
:104B10002328040463190C0031469305040313058C
:104B2000C403EF20107C628525616FB06FE1FD57F3
:104B30001CC8054985474C18268502DA3EDCEFD0B3
:104B4000DFDE0DE5D44037A700000566B79500000D
:104B500037950000130707DD1306A6839385852488
:104B60001305852BEF30900511557DBF93854400CB
:104B70002285EFF05FB8E30305E69157E316F5FAF7
:104B8000E30409FA4A8C0149E9BBEFB2CFD8797145
:104B90002E840C08AA8432C636C43AC2BE8A42C0E9
:104BA000EFF01FC02A8939E57C3802481247A30379
:104BB000F1021C4CA24632463ED45C4C0C082685C1
:104BC0003ED6D687EFF09FD7634A0502424AD249C4
:104BD0008547232C4401232E34017CB8938504029D
:104BE0002285EFD09FD419E563960A0023A04403E1
:104BF00023A234034A8545616FB02FD52A89DDBFD2
:104C0000EFB20FD34111B735000081467000938594
:104C100005A902C6EFF03F9411E1324541016FB0A2
:104C20006FD3EFB2EFCD2A8913153700328B5D7148
:104C3000AE84B6893A8A3686369501481303104009
:104C4000130EF04F930E0060DA28631FC512631D28
:104C50000818FC28639D071C83DB4401FD57373C83
:104C60000000B70C10402328F900054D930D810377
:104C7000130C8CA7938C0CC0814A33835B41636D0A
:104C80006D2E63870A04C20A93DA0A015E88D6870A
:104C90002687D2864E86A6854A85EFF01FEF2A84A6
:104CA000630A052C9157631EF50CD8409440B7A7B2
:104CB00000000566B795000037950000938707DD73
:104CC0001306E688938585241305053FEF30006FB2
:104CD00083278906DC53635CF0089844850793E7D3
:104CE00017000507B377F702D9E385472C18268507
:104CF00002DC3EDEEFD07FC33DE94A85EFF05FF096
:104D00002A84634D05108327C9063384A7408D8309
:104D100063FF87049444B7AC0000056CB79A0000A9
:104D20003795000013870CDD13063C8A93858A248F
:104D300013050542EF3080685E8881472687D2865A
:104D40004E86A6854A85EFF05FE42A84630F052826
:104D500091576318F5023795000093860CDD130612
:104D6000DC8A93858A2413050545EF3020655E882B
:104D700081472687D2864E86A6854A85EFF01FBCDE
:104D80002A84635F041A59A81442D18293950601BC
:104D9000C18193F8F57F639668000507DAA82106BC
:104DA00065B56397C8030DE3B79600002566856572
:104DB0009386863D130606089385658C379500001B
:104DC00013058524EF2070487D17DAA80548C1BF78
:104DD00093F50570E395D5FD5842858A0C438CCC3C
:104DE0005843F4B8D8CC65BFE31507E681EFB79612
:104DF0000000256685659386863E13060608938522
:104E0000358D6DBF3E86A6854A853ECCEFF0AFDF7F
:104E10002A84E24701C9F957E30DF5E22285616171
:104E20006FB0CFB1FC3BE38607E2094411AADA2850
:104E30009307E00FE3E2E7E29C4003278906D044B2
:104E40003EDC9448FD57BEC27C4732DEB6C0B2C4D9
:104E5000B1C3E117BEC65C103EC6B74700009387DA
:104E600027B03EC4930A810302C202C081480148B0
:104E7000D2874E87A6854A854AD256D4EFE02FE8DE
:104E80002A8419C99157E309F4DC9307C0FAE317A0
:104E9000F4F8D9B35C4F75BF130C0903E2856810B1
:104EA00002D602D802DA930BC903EFD0BFABDE857E
:104EB0006810EFD03FAB681093058904EFD09FAA2C
:104EC000B257681093F707C03ED6EFD05FAB1DE135
:104ED0007010A6854A85EFD07FEF2A8421F137062E
:104EE000008074101346C6C0D6854A85EFE03FB7F0
:104EF0002A8449F9D6854A85EFE0BFCB2A8459F147
:104F00008327890672579C4FB377F70281CFB796F4
:104F10000000256685659386062913060608938595
:104F2000D59169BD8647D8C431469CC8E2855E8567
:104F3000EF20303B232409042326090423280904F5
:104F400083270B00832C8902130D10403ED6832744
:104F50004B00894B930D09023ED8E3810CEC938AF8
:104F60008C006C105685EFD05F9C2A8C49C183ACB5
:104F70000C00E5B7D68B09B393980A0193D80801C2
:104F8000B3071041C207C1873EC26EC662C45EC08D
:104F90006688D2874E87FD560146A6854A851ACC7B
:104FA00002DCEFE0CFD52A84E31D05DC83278906E8
:104FB0006243130EE00FF84711E3D84F63636E02AC
:104FC000944F13561700130787FD9387F6FFB29788
:104FD000B3F6D702958F6373F700BA876257E3F28F
:104FE000E7CA135313009A9A49B9854B49B3A6856A
:104FF000130600025685EF20D02EFD55639B6A07ED
:10500000138C0C0203D74C0083D6CC01E361D7F696
:1050100003C6FC0129DEEE85628536CE3ACCEFD0A0
:10502000DF9011C56247F246158F2392EC0062862D
:10503000D6854A85EFF0CF9271D52A84C5B3131770
:105040003C004E9718439307F04F135647011376D1
:10505000F67F6314F60429831377F73F6310D702B2
:1050600003C76C006306770123A4BC0023A6BC0021
:10507000050C83D64C00E3144CFD59B7E37AD7FEF8
:1050800003C76C00FD162392DC00E31377FF03A730
:105090008C027D1723A4EC02E1BFE31BA6FD29834C
:1050A0001377F73FE3E6E6FC03C76C00850623921F
:1050B000DC00E31F77FB03A78C020507E1BFEFB21B
:1050C0002F849C5901112A8C1397B700AE8C328A19
:1050D000B68963500704D859D455B307370163F331
:1050E000D700B6878326CC0763F5F6028327CC0664
:1050F00023AEEC02E6852320FC066285EFF00FF27A
:1051000083A70C033DE13707F0FF7D17F98F23A834
:10511000FC024E8419E04E85B1A883A60C03B707A4
:10512000020093840C04F58F81CB03278C0603A621
:10513000CC03584F6316E60C1396B60003A74C0336
:105140006346061CA1E31DCF83A6CC0203A68C02F6
:105150001308010193878C037D17A685628502C819
:10516000EFE0CFA519C983A70C0337070800D98F33
:1051700023A8FC0205616FA07FFC03258C06A68591
:10518000EFD01FDA8327CC0603AB4C0383AA8C0332
:105190002320FC06930DFBFF4C086285EFF0AFD592
:1051A00079F1D2456285EFD05FCC1DC99307C0FA73
:1051B000E31BF5FAB7A70000138707DDD246B797C0
:1051C0000000938587240566B79700001385475232
:1051D000130646BCEF30801EFD5723A0FC046DBFB4
:1051E00003258C0663110B06D24723AE0C0223ACB9
:1051F000FC0283A70C0337070200D98F23A8FC0207
:1052000083278C0603A9C70183A7CC033309F94080
:10521000637324012289930AC0FA83A7CC0303A7EE
:105220008C03CA88528885466286A6856285EFE02F
:105230006FEF6303050EE31855F3E6856285EFF023
:10524000EFDD61DD0DB72C086ECCEFE02F8B03276F
:105250008C06E2470149584F85073ECC6392E70828
:105260000505EF206038AA8B1309150056CE014DB5
:105270005247131F2D00FA8791481308C101854634
:105280006286A68562857AC6EFE0CFE9324F19FDC6
:105290006391AB07050DE36D2DFDD2470A0923AEDF
:1052A0002C0323ACFC02B1B785481308C101CA879F
:1052B0005687B3862641628681456285EFD0EFFD31
:1052C000E31305EA524785481308C101CA8785469A
:1052D0006286A6856285EFE0EFE4E31905EC050937
:1052E000E246E363D9FCD24723AEDC0223ACFC02E6
:1052F00009B7724791481308C101FA87914662863F
:1053000081456285EFD06FF951D5B1BDF95723AC16
:10531000FC0223AEEC02F1BD83A74C034A9A33048E
:105320002441CA9723AAFC0283A7CC03CA9723AEC1
:10533000FC028327CC062320FC06E9BBEFA2DFDCBE
:105340009C591D71AA841397D700635D07001397BA
:10535000B700634407007D57B8C13707FCFF7D17CE
:10536000F98F9CD99C5901451397E70063580708AA
:105370001397B7002E8403A9450383A9C502634B85
:10538000070A1306400581456800EFA07FDD1C5425
:105390004146A6853EDAE80085474EDC3EDECAC0BF
:1053A000EF202074FD579CC0FD5958585C54636A27
:1053B000F7048569930B0404130CC0FA37AB0000A3
:1053C0009389F9D4B79A0000379A0000854626865B
:1053D000DE852685EFE04FC93DC163118503145C6E
:1053E00093858A2413070BDD4E8613054A52EF205E
:1053F000F07CA2852685EFF06FC269D925616FA088
:105400003FD485461306B1006C002685EFF0AF85CA
:10541000E34605FE85461306B100A2852685EFF01A
:105420001FCAE34D05FC9C40E38137F9CEC623A09B
:105430003401A5BFCA8763733901CE875CD81C5C71
:1054400001777D171CD45C580145232A24035CD4C2
:105450001C58F98F4167D98F1CD84DB7EFA2BFCB2D
:1054600041112A89DC59328495C605473304F60078
:105470006382E60209473E84639EE6009459D8554C
:105480001395E6003A84635605003E8463F3E70013
:105490003A843294032749072955636587006316C8
:1054A000F400228541016FA05FCA9859AE8493161B
:1054B000D70063D0060403258906D45D584D638A5E
:1054C000E6022C003EC4EFD07FE3AA8903258906BB
:1054D0006C0022C6EFD09FE2639DA900FC403247DA
:1054E0006369F700B444B6976375F700C0D8D8DC99
:1054F0004DBFA6854A85EFF07FE44DF5C0D855B77E
:10550000EFA21FC083298502370AF0FF19712A8490
:105510002E89B28A368B854B7D1A6395090C8327B9
:10552000090013060002CA853EC48327490088008B
:105530003EC6EF20005B9C105A87D6864A868C00B8
:105540002285EFF00FEEAA84634105102C004A85F6
:10555000EFD0AFBD19E5130600028C004A85EF209D
:1055600040588947639CF40413068404CA85228545
:10557000EFD0DF85AA8471E986573707100013073B
:1055800087C03EC49657610914083EC68347F9FF99
:1055900030008C1093870760D207D98F3EC805472B
:1055A000814722854ACAEFF0CFE7AA84634F0508F6
:1055B000130600028C108800EF20A052268D814A2D
:1055C00037AA0000B7990000B79B0000379B000086
:1055D000130C040285476313FD2CB70C0080938CD9
:1055E000FC3FB1AA138589006315250183A9090031
:1055F0002DB7CA85EFD06FB375F983C76900E397FC
:1056000077FF83A709031397B700E35107FE3C54C4
:1056100003A7C9029C57E3FBE7FC83A74903CE8598
:10562000228523AEF9027C543CD0EFF02F9FAA8450
:1056300009ED83A70903CE852285B3F7470123A887
:10564000F902EFF0BFCFAA8455D1268509616FA07A
:10565000FFAE938584002800EFD02FAD09E523A489
:10566000A40123A62401FC20639CB7019385C402F6
:105670002800EFD08FAB09E523A6A40323A82403B9
:105680008440D5A89304040385452685EFD09F82E6
:105690002A8D631E05128C102685EFD0AFAF6304F0
:1056A0000512045816578656A98093F4F43F0566F0
:1056B000A68713080ADD1306969D93858924130592
:1056C000CB36EF20B04F1C58232A0402232C0402AF
:1056D000B3F797011CD89357A90093F7F73F4A8770
:1056E00063F4F400130709C086579306F03F3ECCDD
:1056F00096573ECE81476386D400AA04B707F04F81
:10570000C58F3ED09C003AD43ED60947814714103D
:1057100030088C10228502D2EFF0AFD02A8D63487A
:10572000050A85476317F506E247130600028C1049
:105730003EC4F2478800854A3EC6EF20803A1648AC
:1057400086473247A246056693080ADD1306C69AC5
:105750009385892413850B33EF205046E28528007A
:10576000EFD0AF9C1649064D09E52320A403232260
:1057700024030454894DE39E04EC90102C002285F0
:10578000EFE03FC02A89E35F05EEF957631DF5108E
:10579000014D90102C002285EFE0FFC6AA8415C9A8
:1057A000F957E314F5EAE307A9E2B7960000256686
:1057B00085659386063B1306C6099385A59F1385C9
:1057C0008924EF2080284A879304F03F31BFEA8480
:1057D000ADBD1C58930C040393F7F73FC5E78C103D
:1057E0006685EFD02F9B9304F03F15CD04581657D4
:1057F0008656A98093F4F43F0566A68713080ADD50
:105800001306D6A0938589241305CB36EF20103BD1
:105810001C58370700801307F73FF98F1CD8232A3D
:105820000402232C040286571307F03F3EC4965708
:105830003EC681476386E400AA04B707F04FC58FD0
:105840003ED88347710737071000130787C0938737
:105850000760D207D98F3EDC9C003EDE09478147B6
:10586000141830008C10228502DAEFF08FBBAA8466
:10587000E34D05DC130600028C108800EF20602643
:10588000268D89BB93052900B335B000B305B04020
:105890006685EFD02FE2AA8439D145BB8D44E396CB
:1058A0000ADA81445DB3AA844DB3EFA27F851971F2
:1058B0002A842E8B8147B7A90000379A0000379CB5
:1058C0000000BE84B79C0000714681450810EFA01F
:1058D0003F898547A30BF102B70B00808547B70AC4
:1058E00010603EDE0149938A8AC0138DFB3F281861
:1058F000EFD04F8209C5630109108144F1B7301818
:105900008C002285EFE0DF8511ED83477103F1EF15
:1059100090102C182285EFE0DFA663580500F95798
:105920006309F50E09616FA07F81E1E0AA860A870D
:1059300013C60BC08C102285EFD00FC8E34405FEC0
:105940008247E256124872576394D700630FE80803
:105950006314F700630BD80805631306133B9388A1
:1059600009DD93058A241305CC59EF2030250C104E
:1059700013050403EFD00F8205631DE1814D8946B5
:1059800010080C1022856EC802CA56CC0ACEEFF061
:105990003FB7E34905F88D47E31BF5F4054981BF9F
:1059A000832D04031257825693DDAD0093FDFD3F16
:1059B000EE87138809DD1306B33B93058A2413850C
:1059C0000C5EEF20B01F1C58232A0402232C040273
:1059D000B3F7A7011CD89307F03FE381FDFAAA0DA6
:1059E000B707F04FB3EDFD0059BF130600028C005E
:1059F0000810EF20000FE5BD8547E38404EC0C5848
:105A000013050403B305B040E205E185EFD08FCA6A
:105A100011BFE1DCE30B0BFC7257E25605663795CC
:105A200000001306A63D93058A24938709DD13051C
:105A30008562EF20B018130684048C002285EFD015
:105A4000EFB8E31105EE8347710537071000130720
:105A500087C093870760D207D98F3EC48546BC08AC
:105A600030000C1022853EC6EFF09FA9E34C05EAFA
:105A70008D47E31EF5E65A899DBDEFA26FEB2A84A0
:105A8000EFF01FA8634C050011C91C58014593F79E
:105A9000F73F89C781452285EFF03FE16FA08FEB8B
:105AA000EFA20FE91C5939712A84A583858BBDCBE0
:105AB00058511451B7A700000566B79500003795F7
:105AC00000001306B63393858524938707DD1305FD
:105AD0008565EF20B00E130604020C102285EFE05E
